10400000         2829265510001450000000000000000000001070749108500000000MUNICIPIO DE BRACO DO NORTE   C ECON FEDERAL                          21002202602132300193904000000                    RETORNO-PRODUCAO                  000            
10400011T0100030 20829265510001450000000000000000000001070749108500000000MUNICIPIO DE BRACO DO NORTE                                                                                   00001939100220260000000000                          00   
1040001300001T 060000004910850000000   14999000002895438012895438        120220260000000000630710000000002895438                  091000053394160978JOSE NAZARIO                                      000000000000199620300                     
1040001300002U 060000000000000000000000000131060000000000000000000000000000000000000000499650000000000499650000000000000000000000000000001002202610022026000010022026000000000000000000000000000000               00000000000000000000000       
1040001300003T 060000004910850000000   14999000002901824612901824        100220260000000000794730000000002901824                  091000057535400906ESPOLIO DE AMBROSIO BORBA                         000000000000199620300                     
1040001300004U 060000000000000000000000000256760000000000000000000000000000000000000000537970000000000537970000000000000000000000000000001002202610022026000010022026000000000000000000000000000000               00000000000000000000000       
1040001300005T 060000004910850000000   14999000002906809012906809        100220260000000000133050010000002906809                  091000007606799911LETICIA MACHADO DOS SANTOS                        000000000000199620300                     
1040001300006U 060000000000000000000000000022400000000000000000000000000000000000000000110650000000000110650000000000000000000000000000001002202610022026000010022026000000000000000100007067767989               00000000000000000000000       
1040001300007T 060000004910850000000   14999000002912850512912850        100220260000000000994342370000002912850                  091000005682320972CUSTODIO ANTONIO SOMBRIO                          000000000000199620300                     
1040001300008U 060000000000000000000000000391920000000000000000000000000000000000000000602420000000000602420000000000000000000000000000001002202610022026000010022026000000000000000100002067208900               00000000000000000000000       
1040001300009T 060000004910850000000   14999000002912929312912929        100220260000000010128402370000002912929                  091000005682320972CUSTODIO ANTONIO SOMBRIO                          000000000000199620300                     
1040001300010U 060000000000000000000000003810230000000000000000000000000000000000000006318170000000006318170000000000000000000000000000001002202610022026000010022026000000000000000100002067208900               00000000000000000000000       
1040001300011T 060000004910850000000   14999000002913540412913540        120220260000000001132240010000002913540                  091000090689968949EDESIO RODRIGUES NAZARIO                          000000000000199620300                     
1040001300012U 060000000000000000000000000491250000000000000000000000000000000000000000640990000000000640990000000000000000000000000000001002202610022026000010022026000000000000000100058646515915               00000000000000000000000       
1040001300013T 060000004910850000000   14999000002913930212913930        160220260000000000541141040107002913930                  091000001895168953ANSELMO DELLA GIUSTINA                            000000000000199610300                     
1040001300014U 060000000000000000000000000223510000000000000000000000000000000000000000317630000000000317630000000000000000000000000000001002202610022026000010022026000000000000000100004200242982               00000000000000000000000       
1040001300015T 060000004910850000000   14999000002918954712918954        040320260000000000232782600000002918954                  091000099945932934SILESIO KNIESS MATES                              000000000000199620300                     
1040001300016U 060000000000000000000000000000000000000000000000000000000000000000000000232780000000000232780000000000000000000000000000001002202610022026000010022026000000000000000100003055487940               00000000000000000000000       
1040001300017T 060000004910850000000   14999000002930613612930613        100220260000000000357030000000002930613                  091000051382881991JOAO PEREIRA REDIVO                               000000000000199620300                     
1040001300018U 060000000000000000000000000000000000000000000000000000000000000000000000357030000000000357030000000000000000000000000000001002202610022026000010022026000000000000000000000000000000               00000000000000000000000       
1040001300019T 060000004910850000000   14999000002930614412930614        100220260000000000357031040107002930614                  091000051382881991JOAO PEREIRA REDIVO                               000000000000199610300                     
1040001300020U 060000000000000000000000000000000000000000000000000000000000000000000000357030000000000357030000000000000000000000000000001002202610022026000010022026000000000000000100008636114942               00000000000000000000000       
1040001300021T 060000004910850000000   14999000002935192112935192        070520260000000009403210000000002935192                  092012731343000105CONQUISTA CONSTRUTORA E INCORPORADORA LT          000000000000199620300                     
1040001300022U 060000000000000000000000000000000000000000000000000000000000000000000009403210000000009403210000000000000000000000000000001002202610022026000010022026000000000000000000000000000000               00000000000000000000000       
1040001300023T 060000004910850000000   14999000002936661912936661        100220260000000000230550000000002936661                  091000007013818925LETICIA APARECIDA VOLPATO DA SILVA                000000000000199620300                     
1040001300024U 060000000000000000000000000051020000000000000000000000000000000000000000179530000000000179530000000000000000000000000000001002202610022026000010022026000000000000000000000000000000               00000000000000000000000       
1040001300025T 060000004910850000000   14999000002936702012936702        120320260000000000399022600000002936702                  091000080013031953MARIZA CARBONI                                    000000000000199620300                     
1040001300026U 060000000000000000000000000000000000000000000000000000000000000000000000399020000000000399020000000000000000000000000000001002202610022026000010022026000000000000000100003483120912               00000000000000000000000       
1040001300027T 060000004910850000000   14999000002936706212936706        120320260000000000343530000000002936706                  091000002091128910VALDECI TAVARES                                   000000000000199620300                     
1040001300028U 060000000000000000000000000000000000000000000000000000000000000000000000343530000000000343530000000000000000000000000000001002202610022026000010022026000000000000000000000000000000               00000000000000000000000       
1040001300029T 060000004910850000000   14999000002936707012936707        120420260000000000233930000000002936707                  091000002091128910VALDECI TAVARES                                   000000000000199620300                     
1040001300030U 060000000000000000000000000000000000000000000000000000000000000000000000233930000000000233930000000000000000000000000000001002202610022026000010022026000000000000000000000000000000               00000000000000000000000       
1040001300031T 060000004910850000000   14999000002936938312936938        060320260000000000387660000000002936938                  091000001732912955JANIR MARCOS MEDEIROS                             000000000000199620300                     
1040001300032U 060000000000000000000000000019380000000000000000000000000000000000000000368280000000000368280000000000000000000000000000001002202610022026000010022026000000000000000000000000000000               00000000000000000000000       
1040001300033T 060000004910850000000   14999000002936939112936939        060320260000000000496200000000002936939                  091000001732912955JANIR MARCOS MEDEIROS                             000000000000199620300                     
1040001300034U 060000000000000000000000000099240000000000000000000000000000000000000000396960000000000396960000000000000000000000000000001002202610022026000010022026000000000000000000000000000000               00000000000000000000000       
1040001300035T 060000004910850000000   14999000002936940512936940        100320260000000003297922370000002936940                  091000005096109941BRUNO HEIDEMANN                                   000000000000199620300                     
1040001300036U 060000000000000000000000000000000000000000000000000000000000000000000003297920000000003297920000000000000000000000000000001002202610022026000010022026000000000000000100005096109941               00000000000000000000000       
1040001300037T 060000004910850000000   14999000002890052212890052        130220260000000000815532600000102890052                  091000007112924936MATEUS ELIAS                                      000000000000199040401                     
1040001300038U 060000000000000000000000000000000000000000000000000000000000000000000000815530000000000815530000000000000000000000000000001002202611022026000011022026000000000000000100004447946971               00000000000000000000000       
1040001300039T 060000004910850000000   14999000002890923612890923        100220260000000000233391040107002890923                  091000003989466984ANDRE JACINTO RALDI                               000000000000199060401                     
1040001300040U 060000000000000000000000000000000000000000000000000000000000000000000000233390000000000233390000000000000000000000000000001002202611022026000011022026000000000000000000000000000000               00000000000000000000000       
1040001300041T 060000004910850000000   14999000002891139712891139        230220260000000000156750010369202891139                  092026165617000150SANTA ROSA DE LIMA LOTEAMENTOS LTDA               000000000000199040301                     
1040001300042U 060000000000000000000000000000000000000000000000000000000000000000000000156750000000000156750000000000000000000000000000001002202611022026000011022026000000000000000100009747369966               00000000000000000000000       
1040001300043T 060000004910850000000   14999000002894142312894142        100220260000000000324657560056502894142                  091000025235923987ESPOLIO DE SAUDI DA SILVA                         000000000000199040301                     
1040001300044U 060000000000000000000000000097080000000000000000000000000000000000000000227570000000000227570000000000000000000000000000001002202611022026000011022026000000000000000100004732118909               00000000000000000000000       
1040001300045T 060000004910850000000   14999000002894153912894153        100220260000000000699471040107002894153                  091000087155460982LEOMAR MENDES                                     000000000000199020101                     
1040001300046U 060000000000000000000000000224160000000000000000000000000000000000000000475310000000000475310000000000000000000000000000001002202611022026000011022026000000000000000000000000000000               00000000000000000000000       
1040001300047T 060000004910850000000   14999000002894246212894246        100220260000000003163911040107002894246                  091000090764374915VALDETE DE MELO STEFFEN                           000000000000199020101                     
1040001300048U 060000000000000000000000001364400000000000000000000000000000000000000001799510000000001799510000000000000000000000000000001002202611022026000011022026000000000000000000000000000000               00000000000000000000000       
1040001300049T 060000004910850000000   14999000002894310812894310        100220260000000000165477560056502894310                  092057557293000120GREICY DARELA BET TRAMONTIN LTDA                  000000000000199040301                     
1040001300050U 060000000000000000000000000036540000000000000000000000000000000000000000128930000000000128930000000000000000000000000000001002202611022026000011022026000000000000000257557293000120               00000000000000000000000       
1040001300051T 060000004910850000000   14999000002894353112894353        100220260000000005731391040107002894353                  092008386304000140GERADORA DE ENERGIA SAO LUDGERO SA                000000000000199020101                     
1040001300052U 060000000000000000000000001994460000000000000000000000000000000000000003736930000000003736930000000000000000000000000000001002202611022026000011022026000000000000000000000000000000               00000000000000000000000       
1040001300053T 060000004910850000000   14999000002894473212894473        100220260000000000665847560056502894473                  091000064249425991IZAQUEU VIEIRA                                    000000000000199040301                     
1040001300054U 060000000000000000000000000161480000000000000000000000000000000000000000504360000000000504360000000000000000000000000000001002202611022026000011022026000000000000000100061475378904               00000000000000000000000       
1040001300055T 060000004910850000000   14999000002895561012895561        120220260000000001385120010073802895561                  091000028888138900RUI TRAMONTIN                                     000000000000199040301                     
1040001300056U 060000000000000000000000000494480000000000000000000000000000000000000000890640000000000890640000000000000000000000000000001002202611022026000011022026000000000000000100028888138900               00000000000000000000000       
1040001300057T 060000004910850000000   14999000002895920912895920        160220260000000000915717560056502895920                  092004585052000128RICKEN & DELA JUSTINA JASPER RICKEN LTDA          000000000000199040301                     
1040001300058U 060000000000000000000000000172260000000000000000000000000000000000000000743450000000000743450000000000000000000000000000001002202611022026000011022026000000000000000204585052000128               00000000000000000000000       
1040001300059T 060000004910850000000   14999000002897163212897163        180220260000000000291071040107002897163                  091000041575938987DARLETE DA ROSA MATTOS                            000000000000199020101                     
1040001300060U 060000000000000000000000000146590000000000000000000000000000000000000000144480000000000144480000000000000000000000000000001002202611022026000011022026000000000000000000000000000000               00000000000000000000000       
1040001300061T 060000004910850000000   14999000002897444512897444        190220260000000000173211040107002897444                  091000096663685953WILSON CAMILO WALTER                              000000000000199020101                     
1040001300062U 060000000000000000000000000053110000000000000000000000000000000000000000120100000000000120100000000000000000000000000000001002202611022026000011022026000000000000000000000000000000               00000000000000000000000       
1040001300063T 060000004910850000000   14999000002900205612900205        060320260000000000477657560056502900205                  092005494194000142FARMACIA BONAFEL LTDA                             000000000000199040301                     
1040001300064U 060000000000000000000000000000000000000000000000000000000000000000000000477650000000000477650000000000000000000000000000001002202611022026000011022026000000000000000205494194000142               00000000000000000000000       
1040001300065T 060000004910850000000   14999000002901732012901732        100220260000000000155647560056502901732                  092011455957000149PASTELARIA VOVO DIDA LTDA                         000000000000199040301                     
1040001300066U 060000000000000000000000000027410000000000000000000000000000000000000000128230000000000128230000000000000000000000000000001002202611022026000011022026000000000000000211455957000149               00000000000000000000000       
1040001300067T 060000004910850000000   14999000002907521512907521        060320260000000000735621040107002907521                  092041552396000167COLUMBIA HOLDING DE PARTICIPACOES S.A             000000000000199060301                     
1040001300068U 060000000000000000000000000000000000000000000000000000000000000000000000735620000000000735620000000000000000000000000000001002202611022026000011022026000000000000000000000000000000               00000000000000000000000       
1040001300069T 060000004910850000000   14999000002908104512908104        170220260000000000224371040107002908104                  091000048227455972ESPOLIO DE HILDA MARIA RODRIGUES                  000000000000199020101                     
1040001300070U 060000000000000000000000000063340000000000000000000000000000000000000000161030000000000161030000000000000000000000000000001002202611022026000011022026000000000000000000000000000000               00000000000000000000000       
1040001300071T 060000004910850000000   14999000002909951312909951        100220260000000001670960010342202909951                  092007924993000137TURAMIX INDUSTRIA E COMERCIO LTDA                 000000000000199040301                     
1040001300072U 060000000000000000000000000000000000000000000000000000000000000000000001670960000000001670960000000000000000000000000000001002202611022026000011022026000000000000000207924993000137               00000000000000000000000       
1040001300073T 060000004910850000000   14999000002909953012909953        100220260000000000043201040107002909953                  092005626926000100UNESA INDUSTRIA E COMERCIO DE MAQUINAS L          000000000000199020101                     
1040001300074U 060000000000000000000000000000000000000000000000000000000000000000000000043200000000000043200000000000000000000000000000001002202611022026000011022026000000000000000000000000000000               00000000000000000000000       
1040001300075T 060000004910850000000   14999000002909961012909961        100220260000000001033197480590502909961                  092007432074000146MACROFRIO EQUIPAMENTOS E ISOLAMENTOS PAR          000000000000199040301                     
1040001300076U 060000000000000000000000000000000000000000000000000000000000000000000001033190000000001033190000000000000000000000000000001002202611022026000011022026000000000000000207432074000146               00000000000000000000000       
1040001300077T 060000004910850000000   14999000002909963712909963        100220260000000005613520010073802909963                  092018660862000106EFFISA INDUSTRIA DE MAQUINAS LTDA                 000000000000199040301                     
1040001300078U 060000000000000000000000000000000000000000000000000000000000000000000005613520000000005613520000000000000000000000000000001002202611022026000011022026000000000000000218660862000106               00000000000000000000000       
1040001300079T 060000004910850000000   14999000002909964512909964        100220260000000006034131040108402909964                  092001273320000692CONCRETAR CONCRETO USINADO LTDA                   000000000000199060301                     
1040001300080U 060000000000000000000000000000000000000000000000000000000000000000000006034130000000006034130000000000000000000000000000001002202611022026000011022026000000000000000000000000000000               00000000000000000000000       
1040001300081T 060000004910850000000   14999000002909965312909965        100220260000000000086077560056502909965                  092023744587000149DUESSMANN E AGOSTINHO COMERCIO E REPRESE          000000000000199040301                     
1040001300082U 060000000000000000000000000000000000000000000000000000000000000000000000086070000000000086070000000000000000000000000000001002202611022026000011022026000000000000000223744587000149               00000000000000000000000       
1040001300083T 060000004910850000000   14999000002909966112909966        100220260000000000196287560056502909966                  092028149316000169NIVALDO COAN                                      000000000000199040301                     
1040001300084U 060000000000000000000000000000000000000000000000000000000000000000000000196280000000000196280000000000000000000000000000001002202611022026000011022026000000000000000228149316000169               00000000000000000000000       
1040001300085T 060000004910850000000   14999000002910154212910154        020320260000000000360241040107002910154                  091000064249212904SECILIA CARDOZO FERREIRA                          000000000000199020101                     
1040001300086U 060000000000000000000000000104380000000000000000000000000000000000000000255860000000000255860000000000000000000000000000001002202611022026000011022026000000000000000000000000000000               00000000000000000000000       
1040001300087T 060000004910850000000   14999000002911913112911913        100220260000000000409121040107002911913                  091000062092472968MARCIO WALTER DE SOUZA                            000000000000199020101                     
1040001300088U 060000000000000000000000000104080000000000000000000000000000000000000000305040000000000305040000000000000000000000000000001002202611022026000011022026000000000000000000000000000000               00000000000000000000000       
1040001300089T 060000004910850000000   14999000002912856412912856        100220260000000000975250010073802912856                  091000005682320972CUSTODIO ANTONIO SOMBRIO                          000000000000199040301                     
1040001300090U 060000000000000000000000000384400000000000000000000000000000000000000000590850000000000590850000000000000000000000000000001002202611022026000011022026000000000000000100001698682905               00000000000000000000000       
1040001300091T 060000004910850000000   14999000002912862912912862        100220260000000001297190010073802912862                  091000005682320972CUSTODIO ANTONIO SOMBRIO                          000000000000199040301                     
1040001300092U 060000000000000000000000000511300000000000000000000000000000000000000000785890000000000785890000000000000000000000000000001002202611022026000011022026000000000000000100001698682905               00000000000000000000000       
1040001300093T 060000004910850000000   14999000002913548012913548        120220260000000000579091040107002913548                  091000065662946949WILSON MEURER                                     000000000000199020101                     
1040001300094U 060000000000000000000000000170790000000000000000000000000000000000000000408300000000000408300000000000000000000000000000001002202611022026000011022026000000000000000000000000000000               00000000000000000000000       
1040001300095T 060000004910850000000   14999000002913622212913622        060320260000000000735621040107002913622                  092017312389000103LEO ADMINISTRADORA DE IMOVEIS LTDA                000000000000199060301                     
1040001300096U 060000000000000000000000000000000000000000000000000000000000000000000000735620000000000735620000000000000000000000000000001002202611022026000011022026000000000000000000000000000000               00000000000000000000000       
1040001300097T 060000004910850000000   14999000002913909412913909        060320260000000000252861040107002913909                  092008904461000109MABIE ADMINISTRADORA DE BENS LTDA                 000000000000199020101                     
1040001300098U 060000000000000000000000000000000000000000000000000000000000000000000000252860000000000252860000000000000000000000000000001002202611022026000011022026000000000000000000000000000000               00000000000000000000000       
1040001300099T 060000004910850000000   14999000002914015712914015        170220260000000000273771040107002914015                  091000087091607953MARIA DAS DORES VERGINIO BRAZ                     000000000000199020101                     
1040001300100U 060000000000000000000000000072660000000000000000000000000000000000000000201110000000000201110000000000000000000000000000001002202611022026000011022026000000000000000000000000000000               00000000000000000000000       
1040001300101T 060000004910850000000   14999000002914025412914025        170220260000000000152571360140502914025                  091000000578818981JIANARA LEONEL DA SILVA                           000000000000199040301                     
1040001300102U 060000000000000000000000000040490000000000000000000000000000000000000000112080000000000112080000000000000000000000000000001002202611022026000011022026000000000000000100000578818981               00000000000000000000000       
1040001300103T 060000004910850000000   14999000002914159512914159        100220260000000000223597560056502914159                  092017211866000144LOGPRO SERVICOS ADMINISTRATIVOS PARA TER          000000000000199040301                     
1040001300104U 060000000000000000000000000000000000000000000000000000000000000000000000223590000000000223590000000000000000000000000000001002202611022026000011022026000000000000000217211866000144               00000000000000000000000       
1040001300105T 060000004910850000000   14999000002916619912916619        260220260000000000261557560056502916619                  091000003007934990ANA PAULA NIEHUES GUIZONI                         000000000000199040301                     
1040001300106U 060000000000000000000000000134180000000000000000000000000000000000000000127370000000000127370000000000000000000000000000001002202611022026000011022026000000000000000100004172517935               00000000000000000000000       
1040001300107T 060000004910850000000   14999000002916624512916624        260220260000000000790291330262802916624                  091000003007934990ANA PAULA NIEHUES GUIZONI                         000000000000199040301                     
1040001300108U 060000000000000000000000000200760000000000000000000000000000000000000000589530000000000589530000000000000000000000000000001002202611022026000011022026000000000000000100004172517935               00000000000000000000000       
1040001300109T 060000004910850000000   14999000002920340012920340        100220260000000000523901040107002920340                  091000005646876931TAMARA GONCALVES                                  000000000000199060301                     
1040001300110U 060000000000000000000000000240870000000000000000000000000000000000000000283030000000000283030000000000000000000000000000001002202611022026000011022026000000000000000000000000000000               00000000000000000000000       
1040001300111T 060000004910850000000   14999000002921141012921141        100220260000000000038407560056502921141                  092057348140000172RESIDENCIAL NORDEN                                000000000000199040301                     
1040001300112U 060000000000000000000000000000000000000000000000000000000000000000000000038400000000000038400000000000000000000000000000001002202611022026000011022026000000000000000257348140000172               00000000000000000000000       
1040001300113T 060000004910850000000   14999000002921161512921161        100220260000000000036007560056502921161                  092057348140000172RESIDENCIAL NORDEN                                000000000000199040301                     
1040001300114U 060000000000000000000000000000000000000000000000000000000000000000000000036000000000000036000000000000000000000000000000001002202611022026000011022026000000000000000257348140000172               00000000000000000000000       
1040001300115T 060000004910850000000   14999000002921173912921173        100220260000000000431053410091202921173                  092027831352000145EDP TRANSMISSAO ALIANCA SC S.A                    000000000000199040301                     
1040001300116U 060000000000000000000000000000000000000000000000000000000000000000000000431050000000000431050000000000000000000000000000001002202611022026000011022026000000000000000227831352000145               00000000000000000000000       
1040001300117T 060000004910850000000   14999000002921179812921179        100220260000000000006050330333902921179                  092054942204000170WAGNER DE SOUZA GONCALVES LTDA                    000000000000199040301                     
1040001300118U 060000000000000000000000000000000000000000000000000000000000000000000000006050000000000006050000000000000000000000000000001002202611022026000011022026000000000000000254942204000170               00000000000000000000000       
1040001300119T 060000004910850000000   14999000002921206912921206        100220260000000000266003410062802921206                  092043006597000194INMES IMPORTACAO E EXPORTACAO LTDA                000000000000199040301                     
1040001300120U 060000000000000000000000000000000000000000000000000000000000000000000000266000000000000266000000000000000000000000000000001002202611022026000011022026000000000000000243006597000194               00000000000000000000000       
1040001300121T 060000004910850000000   14999000002921221212921221        100220260000000001320001360140502921221                  092051297871000150CONDOMINIO ALTO DAS MANSOES LTDA                  000000000000199040301                     
1040001300122U 060000000000000000000000000000000000000000000000000000000000000000000001320000000000001320000000000000000000000000000000001002202611022026000011022026000000000000000251297871000150               00000000000000000000000       
1040001300123T 060000004910850000000   14999000002921224712921224        100220260000000000064000010073802921224                  092007983903000189BIPACK - INDUSTRIAL DE EMBALAGENS LTDA            000000000000199040301                     
1040001300124U 060000000000000000000000000000000000000000000000000000000000000000000000064000000000000064000000000000000000000000000000001002202611022026000011022026000000000000000207983903000189               00000000000000000000000       
1040001300125T 060000004910850000000   14999000002921225512921225        100220260000000000011171040107002921225                  092041801996000111CLINICA CIRURGICA ODONTOLOGICA BRACO DO           000000000000199020101                     
1040001300126U 060000000000000000000000000000000000000000000000000000000000000000000000011170000000000011170000000000000000000000000000001002202611022026000011022026000000000000000000000000000000               00000000000000000000000       
1040001300127T 060000004910850000000   14999000002921229812921229        100220260000000003143691360176002921229                  092023000816000110BRAVO EMPREENDIMENTOS IMOBILIARIOS LTDA.          000000000000199040301                     
1040001300128U 060000000000000000000000000000000000000000000000000000000000000000000003143690000000003143690000000000000000000000000000001002202611022026000011022026000000000000000223000816000110               00000000000000000000000       
1040001300129T 060000004910850000000   14999000002921404512921404        060320260000000002269667560056502921404                  092034121452000143AVISTOSO LOTEAMENTOS LTDA                         000000000000199040301                     
1040001300130U 060000000000000000000000000000000000000000000000000000000000000000000002269660000000002269660000000000000000000000000000001002202611022026000011022026000000000000000234121452000143               00000000000000000000000       
1040001300131T 060000004910850000000   14999000002921410012921410        060320260000000002837087560056502921410                  092033844438000105CM HOLDING LTDA                                   000000000000199040301                     
1040001300132U 060000000000000000000000000000000000000000000000000000000000000000000002837080000000002837080000000000000000000000000000001002202611022026000011022026000000000000000233844438000105               00000000000000000000000       
1040001300133T 060000004910850000000   14999000002922185812922185        060320260000000000702680010529702922185                  092040125594000181MARTINS ENGENHARIA LTDA                           000000000000199040301                     
1040001300134U 060000000000000000000000000000000000000000000000000000000000000000000000702680000000000702680000000000000000000000000000001002202611022026000011022026000000000000000240125594000181               00000000000000000000000       
1040001300135T 060000004910850000000   14999000002922233112922233        100220260000000002400003410922202922233                  092028078520000136VORTAC CONSULTORIA AERONAUTICA LTDA               000000000000199040301                     
1040001300136U 060000000000000000000000000000000000000000000000000000000000000000000002400000000000002400000000000000000000000000000000001002202611022026000011022026000000000000000100000423369709               00000000000000000000000       
1040001300137T 060000004910850000000   14999000002922234012922234        100220260000000002425030010073802922234                  092011304091000175CLINICA MEDICA BRACONORTENSE LTDA                 000000000000199040301                     
1040001300138U 060000000000000000000000000000000000000000000000000000000000000000000002425030000000002425030000000000000000000000000000001002202611022026000011022026000000000000000211304091000175               00000000000000000000000       
1040001300139T 060000004910850000000   14999000002922235812922235        100220260000000000225047480590502922235                  092001195838000140AGROSSUI COMERCIO, TRANSPORTE E REPRESEN          000000000000199040301                     
1040001300140U 060000000000000000000000000000000000000000000000000000000000000000000000225040000000000225040000000000000000000000000000001002202611022026000011022026000000000000000201195838000140               00000000000000000000000       
1040001300141T 060000004910850000000   14999000002922236612922236        100220260000000009320487560056502922236                  092002032856000174BRACO DO NORTE AUTO PECAS LTDA                    000000000000199040301                     
1040001300142U 060000000000000000000000000000000000000000000000000000000000000000000009320480000000009320480000000000000000000000000000001002202611022026000011022026000000000000000202032856000174               00000000000000000000000       
1040001300143T 060000004910850000000   14999000002922239012922239        100220260000000003264407560056502922239                  092004209189000188COLEGIO RADIAR LTDA                               000000000000199040301                     
1040001300144U 060000000000000000000000000000000000000000000000000000000000000000000003264400000000003264400000000000000000000000000000001002202611022026000011022026000000000000000235363726000173               00000000000000000000000       
1040001300145T 060000004910850000000   14999000002922241212922241        100220260000000001120437560056502922241                  092021172278000116KD REFRIGERACAO LTDA                              000000000000199040301                     
1040001300146U 060000000000000000000000000000000000000000000000000000000000000000000001120430000000001120430000000000000000000000000000001002202611022026000011022026000000000000000221172278000116               00000000000000000000000       
1040001300147T 060000004910850000000   14999000002922243912922243        100220260000000000504132370033602922243                  092002429265000135NUTRIVALE REPRESENTACOES LTDA - ME                000000000000199040301                     
1040001300148U 060000000000000000000000000000000000000000000000000000000000000000000000504130000000000504130000000000000000000000000000001002202611022026000011022026000000000000000202429265000135               00000000000000000000000       
1040001300149T 060000004910850000000   14999000002922244712922244        100220260000000002426207560056502922244                  092014663374000100SILVA & SILVA RECAPAGEM LTDA                      000000000000199040301                     
1040001300150U 060000000000000000000000000000000000000000000000000000000000000000000002426200000000002426200000000000000000000000000000001002202611022026000011022026000000000000000214663374000100               00000000000000000000000       
1040001300151T 060000004910850000000   14999000002922255212922255        100220260000000001664711040166202922255                  092010764705000724IPG - INSTITUTO DE POS GRADUACAO LTDA             000000000000199060301                     
1040001300152U 060000000000000000000000000000000000000000000000000000000000000000000001664710000000001664710000000000000000000000000000001002202611022026000011022026000000000000000000000000000000               00000000000000000000000       
1040001300153T 060000004910850000000   14999000002922256012922256        100220260000000000096001040107002922256                  092010332049000103CASTELINHO MOTORS LTDA                            000000000000199020101                     
1040001300154U 060000000000000000000000000000000000000000000000000000000000000000000000096000000000000096000000000000000000000000000000001002202611022026000011022026000000000000000000000000000000               00000000000000000000000       
1040001300155T 060000004910850000000   14999000002922258712922258        100220260000000000381627480590502922258                  092010222216000155JF SOLUTIONS INDUSTRIAIS LTDA                     000000000000199040301                     
1040001300156U 060000000000000000000000000000000000000000000000000000000000000000000000381620000000000381620000000000000000000000000000001002202611022026000011022026000000000000000210222216000155               00000000000000000000000       
1040001300157T 060000004910850000000   14999000002922260912922260        100220260000000004758011360140502922260                  092015686263000173CLINI VALE CLINICA MEDICA LTDA                    000000000000199040301                     
1040001300158U 060000000000000000000000000000000000000000000000000000000000000000000004758010000000004758010000000000000000000000000000001002202611022026000011022026000000000000000215686263000173               00000000000000000000000       
1040001300159T 060000004910850000000   14999000002922262512922262        100220260000000000035367480590502922262                  092002432724000725JS LABORATORIO DE ANALISES CLINICAS LTDA          000000000000199040301                     
1040001300160U 060000000000000000000000000000000000000000000000000000000000000000000000035360000000000035360000000000000000000000000000001002202611022026000011022026000000000000000202432724000130               00000000000000000000000       
1040001300161T 060000004910850000000   14999000002922263312922263        100220260000000003518431360140502922263                  092009354487000185MAGRINI SERVICOS MEDICOS LTDA                     000000000000199040301                     
1040001300162U 060000000000000000000000000000000000000000000000000000000000000000000003518430000000003518430000000000000000000000000000001002202611022026000011022026000000000000000209354487000185               00000000000000000000000       
1040001300163T 060000004910850000000   14999000002922265012922265        100220260000000019980967560056502922265                  092024092271000182SOFTCAM SOLUCOES LTDA                             000000000000199040301                     
1040001300164U 060000000000000000000000000000000000000000000000000000000000000000000019980960000000019980960000000000000000000000000000001002202611022026000011022026000000000000000224092271000182               00000000000000000000000       
1040001300165T 060000004910850000000   14999000002922266812922266        100220260000000000032407560056502922266                  092009658940000147TAKAEL COMERCIO E TRANSPORTES DE CEREAIS          000000000000199040301                     
1040001300166U 060000000000000000000000000000000000000000000000000000000000000000000000032400000000000032400000000000000000000000000000001002202611022026000011022026000000000000000209658940000147               00000000000000000000000       
1040001300167T 060000004910850000000   14999000002922269212922269        100220260000000000071602370033602922269                  092009356547000107TOP CENTER COMERCIO DE MAQUINAS LTDA              000000000000199040301                     
1040001300168U 060000000000000000000000000000000000000000000000000000000000000000000000071600000000000071600000000000000000000000000000001002202611022026000011022026000000000000000209356547000107               00000000000000000000000       
1040001300169T 060000004910850000000   14999000002922278112922278        100220260000000001279921040107002922278                  092007578004000109EVERALDO DA SILVA FERREIRA                        000000000000199020101                     
1040001300170U 060000000000000000000000000000000000000000000000000000000000000000000001279920000000001279920000000000000000000000000000001002202611022026000011022026000000000000000000000000000000               00000000000000000000000       
1040001300171T 060000004910850000000   14999000002922318412922318        100220260000000017344807560056502922318                  092014311217000127CLIMBA SISTEMAS LTDA                              000000000000199040301                     
1040001300172U 060000000000000000000000000000000000000000000000000000000000000000000017344800000000017344800000000000000000000000000000001002202611022026000011022026000000000000000214311217000127               00000000000000000000000       
1040001300173T 060000004910850000000   14999000002922319212922319        100220260000000000163882600000102922319                  092040050855000222M4 STORE COMERCIO DIGITAL LTDA                    000000000000199040301                     
1040001300174U 060000000000000000000000000000000000000000000000000000000000000000000000163880000000000163880000000000000000000000000000001002202611022026000011022026000000000000000240050855000222               00000000000000000000000       
1040001300175T 060000004910850000000   14999000002922321412922321        100220260000000002135427560056502922321                  092050290638000182MF PECAS E ACESSORIOS LTDA                        000000000000199040301                     
1040001300176U 060000000000000000000000000000000000000000000000000000000000000000000002135420000000002135420000000000000000000000000000001002202611022026000011022026000000000000000250290638000182               00000000000000000000000       
1040001300177T 060000004910850000000   14999000002922323012922323        100220260000000000000020330333902922323                  092007605075000145SUPER LIDER ALIMENTOS LTDA                        000000000000199040301                     
1040001300178U 060000000000000000000000000000000000000000000000000000000000000000000000000020000000000000020000000000000000000000000000001002202611022026000011022026000000000000000207605075000145               00000000000000000000000       
1040001300179T 060000004910850000000   14999000002922325712922325        100220260000000001283551360140502922325                  092026510256000132RVC CLINICA MEDICA LTDA                           000000000000199040301                     
1040001300180U 060000000000000000000000000000000000000000000000000000000000000000000001283550000000001283550000000000000000000000000000001002202611022026000011022026000000000000000100076993868920               00000000000000000000000       
1040001300181T 060000004910850000000   14999000002922334612922334        100220260000000003356647560056502922334                  092028621967000100G3 AUTOMATION INDUSTRIA E COMERCIO DE MA          000000000000199040301                     
1040001300182U 060000000000000000000000000000000000000000000000000000000000000000000003356640000000003356640000000000000000000000000000001002202611022026000011022026000000000000000228621967000100               00000000000000000000000       
1040001300183T 060000004910850000000   14999000002922337012922337        100220260000000001919467560056502922337                  092035363726000173COLEGIO RADIAR INFANTIL LTDA                      000000000000199040301                     
1040001300184U 060000000000000000000000000000000000000000000000000000000000000000000001919460000000001919460000000000000000000000000000001002202611022026000011022026000000000000000235363726000173               00000000000000000000000       
1040001300185T 060000004910850000000   14999000002922339712922339        100220260000000000372002370033602922339                  092029171497000192VP ASSESSORIA EMPRESARIAL E DE COBRANCA           000000000000199040301                     
1040001300186U 060000000000000000000000000000000000000000000000000000000000000000000000372000000000000372000000000000000000000000000000001002202611022026000011022026000000000000000229171497000192               00000000000000000000000       
1040001300187T 060000004910850000000   14999000002922349412922349        100220260000000000440747480590502922349                  092044895672000188L.C. PROAGRO LTDA                                 000000000000199040301                     
1040001300188U 060000000000000000000000000000000000000000000000000000000000000000000000440740000000000440740000000000000000000000000000001002202611022026000011022026000000000000000244895672000188               00000000000000000000000       
1040001300189T 060000004910850000000   14999000002922356712922356        100220260000000000016002600000102922356                  092041760565000154SANTOS SERVICOS DE TERRAPLANAGEM LTDA             000000000000199040301                     
1040001300190U 060000000000000000000000000000000000000000000000000000000000000000000000016000000000000016000000000000000000000000000000001002202611022026000011022026000000000000000241760565000154               00000000000000000000000       
1040001300191T 060000004910850000000   14999000002922370212922370        100220260000000000482221360140502922370                  092057467582000138MEURER GESTAO IMOBILIARIA LTDA                    000000000000199040301                     
1040001300192U 060000000000000000000000000000000000000000000000000000000000000000000000482220000000000482220000000000000000000000000000001002202611022026000011022026000000000000000257467582000138               00000000000000000000000       
1040001300193T 060000004910850000000   14999000002922376112922376        100220260000000001422851360140502922376                  092052125950000146MEDGOV GESTAO DE SERVICOS DE SAUDE LTDA           000000000000199040301                     
1040001300194U 060000000000000000000000000000000000000000000000000000000000000000000001422850000000001422850000000000000000000000000000001002202611022026000011022026000000000000000252125950000146               00000000000000000000000       
1040001300195T 060000004910850000000   14999000002922379612922379        100220260000000000864367560109302922379                  092046817942000249OLIM MAQ COMERCIO DE MAQUINAS AGRICOLAS           000000000000199040301                     
1040001300196U 060000000000000000000000000000000000000000000000000000000000000000000000864360000000000864360000000000000000000000000000001002202611022026000011022026000000000000000246817942000168               00000000000000000000000       
1040001300197T 060000004910850000000   14999000002922384212922384        100220260000000000341837560056502922384                  092023822379000110ODAIR MARCELINO FERREIRA                          000000000000199040301                     
1040001300198U 060000000000000000000000000000000000000000000000000000000000000000000000341830000000000341830000000000000000000000000000001002202611022026000011022026000000000000000223822379000110               00000000000000000000000       
1040001300199T 060000004910850000000   14999000002922385012922385        100220260000000000134587560056502922385                  092086433042000131COOPERATIVA DE ELETRIFICACAO DE BRACO DO          000000000000199040301                     
1040001300200U 060000000000000000000000000000000000000000000000000000000000000000000000134580000000000134580000000000000000000000000000001002202611022026000011022026000000000000000286433042000131               00000000000000000000000       
1040001300201T 060000004910850000000   14999000002922389312922389        100220260000000003398380010073802922389                  092086430576000104AGROWERNER COMERCIO DE MAQUINAS E IMPLEM          000000000000199040301                     
1040001300202U 060000000000000000000000000000000000000000000000000000000000000000000003398380000000003398380000000000000000000000000000001002202611022026000011022026000000000000000286430576000104               00000000000000000000000       
1040001300203T 060000004910850000000   14999000002922390712922390        100220260000000001432882370268602922390                  092054609404000106DRS PARTICIPACOES LTDA                            000000000000199040301                     
1040001300204U 060000000000000000000000000000000000000000000000000000000000000000000001432880000000001432880000000000000000000000000000001002202611022026000011022026000000000000000254609404000106               00000000000000000000000       
1040001300205T 060000004910850000000   14999000002922392312922392        100220260000000000583921360140502922392                  092052125950000146MEDGOV GESTAO DE SERVICOS DE SAUDE LTDA           000000000000199040301                     
1040001300206U 060000000000000000000000000000000000000000000000000000000000000000000000583920000000000583920000000000000000000000000000001002202611022026000011022026000000000000000252125950000146               00000000000000000000000       
1040001300207T 060000004910850000000   14999000002922397412922397        100220260000000000467090010073802922397                  092078324514000190GAIDZINSKI EQUIPAMENTOS LTDA                      000000000000199040301                     
1040001300208U 060000000000000000000000000000000000000000000000000000000000000000000000467090000000000467090000000000000000000000000000001002202611022026000011022026000000000000000278324514000190               00000000000000000000000       
1040001300209T 060000004910850000000   14999000002922401612922401        100220260000000000002807560056502922401                  092076602234000170IRMAOS OENNING LTDA                               000000000000199040301                     
1040001300210U 060000000000000000000000000000000000000000000000000000000000000000000000002800000000000002800000000000000000000000000000001002202611022026000011022026000000000000000276602234000170               00000000000000000000000       
1040001300211T 060000004910850000000   14999000002922407512922407        100220260000000011364702370033602922407                  092041801996000111CLINICA CIRURGICA ODONTOLOGICA BRACO DO           000000000000199040301                     
1040001300212U 060000000000000000000000000000000000000000000000000000000000000000000011364700000000011364700000000000000000000000000000001002202611022026000011022026000000000000000241801996000111               00000000000000000000000       
1040001300213T 060000004910850000000   14999000002922410512922410        100220260000000000007820410015202922410                  092096418264044500LOJAS QUERO-QUERO S.A.                            000000000000199040301                     
1040001300214U 060000000000000000000000000000000000000000000000000000000000000000000000007820000000000007820000000000000000000000000000001002202611022026000011022026000000000000000296418264021802               00000000000000000000000       
1040001300215T 060000004910850000000   14999000002922418012922418        100220260000000000022090010316802922418                  092089848543071511LOJAS COLOMBO SA COMERCIO DE UTILIDADES           000000000000199040301                     
1040001300216U 060000000000000000000000000000000000000000000000000000000000000000000000022090000000000022090000000000000000000000000000001002202611022026000011022026000000000000000289848543000177               00000000000000000000000       
1040001300217T 060000004910850000000   14999000002922419912922419        100220260000000000022000010342202922419                  092095852547000121INMES INDUSTRIAL LTDA                             000000000000199040301                     
1040001300218U 060000000000000000000000000000000000000000000000000000000000000000000000022000000000000022000000000000000000000000000000001002202611022026000011022026000000000000000295852547000121               00000000000000000000000       
1040001300219T 060000004910850000000   14999000002922426112922426        100220260000000013430137480590502922426                  092002432724000130JS LABORATORIO DE ANALISES CLINICAS LTDA          000000000000199040301                     
1040001300220U 060000000000000000000000000000000000000000000000000000000000000000000013430130000000013430130000000000000000000000000000001002202611022026000011022026000000000000000202432724000130               00000000000000000000000       
1040001300221T 060000004910850000000   14999000002922429612922429        100220260000000000065600330333902922429                  092081839144000138TECHFILM INDUSTRIA E COMERCIO LTDA                000000000000199040301                     
1040001300222U 060000000000000000000000000000000000000000000000000000000000000000000000065600000000000065600000000000000000000000000000001002202611022026000011022026000000000000000281839144000138               00000000000000000000000       
1040001300223T 060000004910850000000   14999000002922431812922431        100220260000000000682883410748802922431                  092016695624000100FLACH INDUSTRIA DE CARREGADORES  EQUIPAM          000000000000199040301                     
1040001300224U 060000000000000000000000000000000000000000000000000000000000000000000000682880000000000682880000000000000000000000000000001002202611022026000011022026000000000000000216695624000100               00000000000000000000000       
1040001300225T 060000004910850000000   14999000002922434212922434        100220260000000006113667560056502922434                  092000204957000150SILBECK SOFTWARE LTDA                             000000000000199040301                     
1040001300226U 060000000000000000000000000000000000000000000000000000000000000000000006113660000000006113660000000000000000000000000000001002202611022026000011022026000000000000000200204957000150               00000000000000000000000       
1040001300227T 060000004910850000000   14999000002922440712922440        100220260000000000022002370033602922440                  092009356547000107TOP CENTER COMERCIO DE MAQUINAS LTDA              000000000000199040301                     
1040001300228U 060000000000000000000000000000000000000000000000000000000000000000000000022000000000000022000000000000000000000000000000001002202611022026000011022026000000000000000209356547000107               00000000000000000000000       
1040001300229T 060000004910850000000   14999000002922447412922447        100220260000000000310401040107002922447                  092085383743000140ELETRO JO MATERIAIS ELETRICOS LTDA                000000000000199020101                     
1040001300230U 060000000000000000000000000000000000000000000000000000000000000000000000310400000000000310400000000000000000000000000000001002202611022026000011022026000000000000000000000000000000               00000000000000000000000       
1040001300231T 060000004910850000000   14999000002922451212922451        100220260000000018259357560056502922451                  092000204957000150SILBECK SOFTWARE LTDA                             000000000000199040301                     
1040001300232U 060000000000000000000000000000000000000000000000000000000000000000000018259350000000018259350000000000000000000000000000001002202611022026000011022026000000000000000200204957000150               00000000000000000000000       
1040001300233T 060000004910850000000   14999000002922462812922462        100220260000000002750110010073802922462                  092007054573000147VINCITORE VEICULOS LTDA                           000000000000199040301                     
1040001300234U 060000000000000000000000000000000000000000000000000000000000000000000002750110000000002750110000000000000000000000000000001002202611022026000011022026000000000000000207054573000147               00000000000000000000000       
1040001300235T 060000004910850000000   14999000002922466012922466        100220260000000002778993410463502922466                  092032015811000152DUTRA PRE MOLDADOS LTDA                           000000000000199040301                     
1040001300236U 060000000000000000000000000000000000000000000000000000000000000000000002778990000000002778990000000000000000000000000000001002202611022026000011022026000000000000000232015811000152               00000000000000000000000       
1040001300237T 060000004910850000000   14999000002922467912922467        100220260000000009547904220013702922467                  092045517797000137SOOH MIDIA LTDA                                   000000000000199040301                     
1040001300238U 060000000000000000000000000000000000000000000000000000000000000000000009547900000000009547900000000000000000000000000000001002202611022026000011022026000000000000000245517797000137               00000000000000000000000       
1040001300239T 060000004910850000000   14999000002922474112922474        100220260000000011980150010073802922474                  092082130709000176NEO SISTEMAS DE INFORMATICA LTDA                  000000000000199040301                     
1040001300240U 060000000000000000000000000000000000000000000000000000000000000000000011980150000000011980150000000000000000000000000000001002202611022026000011022026000000000000000282130709000176               00000000000000000000000       
1040001300241T 060000004910850000000   14999000002922478412922478        100220260000000000819331360176002922478                  092085241339001376UNIMED DE TUBARAO COOPERATIVA DE TRABALH          000000000000199040301                     
1040001300242U 060000000000000000000000000000000000000000000000000000000000000000000000819330000000000819330000000000000000000000000000001002202611022026000011022026000000000000000285241339000132               00000000000000000000000       
1040001300243T 060000004910850000000   14999000002922483012922483        100220260000000006111421360140502922483                  092021802825000108LUCAS HENRIQUE ORTOPEDISTA LTDA                   000000000000199040301                     
1040001300244U 060000000000000000000000000000000000000000000000000000000000000000000006111420000000006111420000000000000000000000000000001002202611022026000011022026000000000000000221802825000108               00000000000000000000000       
1040001300245T 060000004910850000000   14999000002922484912922484        100220260000000001490191360140502922484                  092022469904000101JOANA PRA LTDA                                    000000000000199040301                     
1040001300246U 060000000000000000000000000000000000000000000000000000000000000000000001490190000000001490190000000000000000000000000000001002202611022026000011022026000000000000000222469904000101               00000000000000000000000       
1040001300247T 060000004910850000000   14999000002922493812922493        100220260000000000392162600000102922493                  092058520514000158HD SERVICOS MEDICOS LTDA                          000000000000199040301                     
1040001300248U 060000000000000000000000000000000000000000000000000000000000000000000000392160000000000392160000000000000000000000000000001002202611022026000011022026000000000000000258520514000158               00000000000000000000000       
1040001300249T 060000004910850000000   14999000002922497012922497        100220260000000000060340010073802922497                  091000003192769963ALEXANDRE BORGERT ESPINDOLA                       000000000000199040301                     
1040001300250U 060000000000000000000000000000000000000000000000000000000000000000000000060340000000000060340000000000000000000000000000001002202611022026000011022026000000000000000100003192769963               00000000000000000000000       
1040001300251T 060000004910850000000   14999000002922501212922501        100220260000000000497707480590502922501                  092002432724000563JS LABORATORIO DE ANALISES CLINICAS LTDA          000000000000199040301                     
1040001300252U 060000000000000000000000000000000000000000000000000000000000000000000000497700000000000497700000000000000000000000000000001002202611022026000011022026000000000000000202432724000130               00000000000000000000000       
1040001300253T 060000004910850000000   14999000002923249312923249        060320260000000002372157560056502923249                  092025013682000106GAIDZINSKI TELHAS LTDA                            000000000000199040301                     
1040001300254U 060000000000000000000000000000000000000000000000000000000000000000000002372150000000002372150000000000000000000000000000001002202611022026000011022026000000000000000225013682000106               00000000000000000000000       
1040001300255T 060000004910850000000   14999000002923554912923554        060320260000000002269661360140502923554                  092051297871000150CONDOMINIO ALTO DAS MANSOES LTDA                  000000000000199040301                     
1040001300256U 060000000000000000000000000000000000000000000000000000000000000000000002269660000000002269660000000000000000000000000000001002202611022026000011022026000000000000000251297871000150               00000000000000000000000       
1040001300257T 060000004910850000000   14999000002923559012923559        060320260000000001891381360140502923559                  092057751930000102ENGTER EMPREENDIMENTOS LTDA                       000000000000199040301                     
1040001300258U 060000000000000000000000000000000000000000000000000000000000000000000001891380000000001891380000000000000000000000000000001002202611022026000011022026000000000000000257751930000102               00000000000000000000000       
1040001300259T 060000004910850000000   14999000002923560312923560        060320260000000002340581360140502923560                  092060638083000170GARTEN HAUS SCP                                   000000000000199040301                     
1040001300260U 060000000000000000000000000000000000000000000000000000000000000000000002340580000000002340580000000000000000000000000000001002202611022026000011022026000000000000000257751930000102               00000000000000000000000       
1040001300261T 060000004910850000000   14999000002923561112923561        060320260000000002269661360140502923561                  092057352811000179ENGTER PARTICIPACOES LTDA                         000000000000199040301                     
1040001300262U 060000000000000000000000000000000000000000000000000000000000000000000002269660000000002269660000000000000000000000000000001002202611022026000011022026000000000000000257352811000179               00000000000000000000000       
1040001300263T 060000004910850000000   14999000002923563812923563        060320260000000001029247560056502923563                  092060313322000112R2X ACELERADORA DE VENDAS LTDA                    000000000000199040301                     
1040001300264U 060000000000000000000000000000000000000000000000000000000000000000000001029240000000001029240000000000000000000000000000001002202611022026000011022026000000000000000260313322000112               00000000000000000000000       
1040001300265T 060000004910850000000   14999000002923564612923564        060320260000000002340581360140502923564                  092023496123000160TRAMONTIN LOTEAMENTO SPE LTDA                     000000000000199040301                     
1040001300266U 060000000000000000000000000000000000000000000000000000000000000000000002340580000000002340580000000000000000000000000000001002202611022026000011022026000000000000000223496123000160               00000000000000000000000       
1040001300267T 060000004910850000000   14999000002923590512923590        060320260000000002080521360140502923590                  092063975691000169LOTEAMENTO VIVER BEM SCP                          000000000000199040301                     
1040001300268U 060000000000000000000000000000000000000000000000000000000000000000000002080520000000002080520000000000000000000000000000001002202611022026000011022026000000000000000263860681000188               00000000000000000000000       
1040001300269T 060000004910850000000   14999000002923592112923592        060320260000000002458801360140502923592                  092058071433000118SCP CONDOMINIO ALTO DAS MANSOES LTDA              000000000000199040301                     
1040001300270U 060000000000000000000000000000000000000000000000000000000000000000000002458800000000002458800000000000000000000000000000001002202611022026000011022026000000000000000251297871000150               00000000000000000000000       
1040001300271T 060000004910850000000   14999000002923669312923669        060320260000000000843221040042502923669                  092054496123000194DPT ENGENHARIA LTDA                               000000000000199020101                     
1040001300272U 060000000000000000000000000000000000000000000000000000000000000000000000843220000000000843220000000000000000000000000000001002202611022026000011022026000000000000000000000000000000               00000000000000000000000       
1040001300273T 060000004910850000000   14999000002923886612923886        100220260000000000200007560056502923886                  091000004686556970EDUARDO SCHMITZ CLAUDIO                           000000000000199040301                     
1040001300274U 060000000000000000000000000000000000000000000000000000000000000000000000200000000000000200000000000000000000000000000000001002202611022026000011022026000000000000000255673471000152               00000000000000000000000       
1040001300275T 060000004910850000000   14999000002924302912924302        100220260000000000010002370033602924302                  091000000526235993ALEXANDRE FRAZAO DA ROSA                          000000000000199040301                     
1040001300276U 060000000000000000000000000000000000000000000000000000000000000000000000010000000000000010000000000000000000000000000000001002202611022026000011022026000000000000000100000526235993               00000000000000000000000       
1040001300277T 060000004910850000000   14999000002924375412924375        060320260000000001798740010073802924375                  092011922539000114SUL AMERICA INDUSTRIA DE MOLDURAS S.A             000000000000199040301                     
1040001300278U 060000000000000000000000000000000000000000000000000000000000000000000001798740000000001798740000000000000000000000000000001002202611022026000011022026000000000000000211922539000114               00000000000000000000000       
1040001300279T 060000004910850000000   14999000002924380012924380        100220260000000001788867560056502924380                  092046147616000190OLIVIO DELA JUSTINA 75782820934                   000000000000199040301                     
1040001300280U 060000000000000000000000000000000000000000000000000000000000000000000001788860000000001788860000000000000000000000000000001002202611022026000011022026000000000000000246147616000190               00000000000000000000000       
1040001300281T 060000004910850000000   14999000002924381912924381        100220260000000000077287560056502924381                  092046147616000190OLIVIO DELA JUSTINA 75782820934                   000000000000199040301                     
1040001300282U 060000000000000000000000000000000000000000000000000000000000000000000000077280000000000077280000000000000000000000000000001002202611022026000011022026000000000000000246147616000190               00000000000000000000000       
1040001300283T 060000004910850000000   14999000002924470012924470        060320260000000001176827560307802924470                  092042036819000159ARANCIA AROMAS E ELEGANCIA LTDA                   000000000000199040301                     
1040001300284U 060000000000000000000000000000000000000000000000000000000000000000000001176820000000001176820000000000000000000000000000001002202611022026000011022026000000000000000242036819000159               00000000000000000000000       
1040001300285T 060000004910850000000   14999000002924471812924471        060320260000000000106137560307802924471                  092042036819000159ARANCIA AROMAS E ELEGANCIA LTDA                   000000000000199040301                     
1040001300286U 060000000000000000000000000000000000000000000000000000000000000000000000106130000000000106130000000000000000000000000000001002202611022026000011022026000000000000000242036819000159               00000000000000000000000       
1040001300287T 060000004910850000000   14999000002924634612924634        080620260000000000248522600000102924634                  091000008447790916ERICK MAY HEIDEMANN                               000000000000199040301                     
1040001300288U 060000000000000000000000000000000000000000000000000000000000000000000000248520000000000248520000000000000000000000000000001002202611022026000011022026000000000000000100008447790916               00000000000000000000000       
1040001300289T 060000004910850000000   14999000002924639712924639        080620260000000000573237560056502924639                  091000034149490910PEDRO PAULO MACHADO DA SILVA                      000000000000199040101                     
1040001300290U 060000000000000000000000000000000000000000000000000000000000000000000000573230000000000573230000000000000000000000000000001002202611022026000011022026000000000000000200000000000000               00000000000000000000000       
1040001300291T 060000004910850000000   14999000002924678812924678        080620260000000002151430010073802924678                  091000091576369900VALDINEI MONTEIRO ELIZEU                          000000000000199040301                     
1040001300292U 060000000000000000000000000000000000000000000000000000000000000000000002151430000000002151430000000000000000000000000000001002202611022026000011022026000000000000000100091576369900               00000000000000000000000       
1040001300293T 060000004910850000000   14999000002924679612924679        080620260000000001163150010073802924679                  091000091576369900VALDINEI MONTEIRO ELIZEU                          000000000000199040301                     
1040001300294U 060000000000000000000000000000000000000000000000000000000000000000000001163150000000001163150000000000000000000000000000001002202611022026000011022026000000000000000100091576369900               00000000000000000000000       
1040001300295T 060000004910850000000   14999000002924680012924680        080620260000000001163150010073802924680                  091000091576369900VALDINEI MONTEIRO ELIZEU                          000000000000199040301                     
1040001300296U 060000000000000000000000000000000000000000000000000000000000000000000001163150000000001163150000000000000000000000000000001002202611022026000011022026000000000000000100091576369900               00000000000000000000000       
1040001300297T 060000004910850000000   14999000002924681812924681        080620260000000000362427480590502924681                  092044552823000103KALAMA LTDA                                       000000000000199040301                     
1040001300298U 060000000000000000000000000000000000000000000000000000000000000000000000362420000000000362420000000000000000000000000000001002202611022026000011022026000000000000000244552823000103               00000000000000000000000       
1040001300299T 060000004910850000000   14999000002924682612924682        080620260000000000362427480590502924682                  092044552823000103KALAMA LTDA                                       000000000000199040301                     
1040001300300U 060000000000000000000000000000000000000000000000000000000000000000000000362420000000000362420000000000000000000000000000001002202611022026000011022026000000000000000244552823000103               00000000000000000000000       
1040001300301T 060000004910850000000   14999000002924683412924683        060320260000000000809187480590502924683                  092044552823000103KALAMA LTDA                                       000000000000199040301                     
1040001300302U 060000000000000000000000000000000000000000000000000000000000000000000000809180000000000809180000000000000000000000000000001002202611022026000011022026000000000000000244552823000103               00000000000000000000000       
1040001300303T 060000004910850000000   14999000002924770912924770        100220260000000001016675090000102924770                  092010749743000112HENGUS CONTABILIDADE LTDA                         000000000000199040301                     
1040001300304U 060000000000000000000000000000000000000000000000000000000000000000000001016670000000001016670000000000000000000000000000001002202611022026000011022026000000000000000210749743000112               00000000000000000000000       
1040001300305T 060000004910850000000   14999000002924771712924771        100220260000000001006455090000102924771                  092010749743000112HENGUS CONTABILIDADE LTDA                         000000000000199040301                     
1040001300306U 060000000000000000000000000000000000000000000000000000000000000000000001006450000000001006450000000000000000000000000000001002202611022026000011022026000000000000000210749743000112               00000000000000000000000       
1040001300307T 060000004910850000000   14999000002924774112924774        100220260000000000161600810000102924774                  092007378461000141ROBERT DELLA BRUNA ME                             000000000000199040301                     
1040001300308U 060000000000000000000000000000000000000000000000000000000000000000000000161600000000000161600000000000000000000000000000001002202611022026000011022026000000000000000207378461000141               00000000000000000000000       
1040001300309T 060000004910850000000   14999000002924776812924776        100220260000000000365560010073802924776                  091000016739884900ALVARO JOSE SCHULTER                              000000000000199040301                     
1040001300310U 060000000000000000000000000000000000000000000000000000000000000000000000365560000000000365560000000000000000000000000000001002202611022026000011022026000000000000000100002125251906               00000000000000000000000       
1040001300311T 060000004910850000000   14999000002924819512924819        080620260000000000388352600000102924819                  091000010108128903DEREK LUIZ FABRE                                  000000000000199040301                     
1040001300312U 060000000000000000000000000000000000000000000000000000000000000000000000388350000000000388350000000000000000000000000000001002202611022026000011022026000000000000000100010108128903               00000000000000000000000       
1040001300313T 060000004910850000000   14999000002924838112924838        060320260000000001748181360140902924838                  092030817254000249LAPOLLI E C LTDA                                  000000000000199040301                     
1040001300314U 060000000000000000000000000000000000000000000000000000000000000000000001748180000000001748180000000000000000000000000000001002202611022026000011022026000000000000000230817254000168               00000000000000000000000       
1040001300315T 060000004910850000000   14999000002924843812924843        100220260000000000327657560056502924843                  092042335377000141JESSICA JACINTO BEZA LTDA                         000000000000199040301                     
1040001300316U 060000000000000000000000000000000000000000000000000000000000000000000000327650000000000327650000000000000000000000000000001002202611022026000011022026000000000000000242335377000141               00000000000000000000000       
1040001300317T 060000004910850000000   14999000002924846212924846        020320260000000000117237480590502924846                  092000056869000158MP SUL BRASIL LTDA                                000000000000199040301                     
1040001300318U 060000000000000000000000000000000000000000000000000000000000000000000000117230000000000117230000000000000000000000000000001002202611022026000011022026000000000000000100077390822953               00000000000000000000000       
1040001300319T 060000004910850000000   14999000002924847012924847        100220260000000000520741040107002924847                  091000071274847915SILESIO CARDOSO SOMBRIO                           000000000000199060301                     
1040001300320U 060000000000000000000000000000000000000000000000000000000000000000000000520740000000000520740000000000000000000000000000001002202611022026000011022026000000000000000000000000000000               00000000000000000000000       
1040001300321T 060000004910850000000   14999000002924849712924849        080620260000000008626767560056502924849                  092025013682000106GAIDZINSKI TELHAS LTDA                            000000000000199040301                     
1040001300322U 060000000000000000000000000000000000000000000000000000000000000000000008626760000000008626760000000000000000000000000000001002202611022026000011022026000000000000000225013682000106               00000000000000000000000       
1040001300323T 060000004910850000000   14999000002924863212924863        100220260000000000905271040107002924863                  091000025812599904MOISES NAZARIO COSTA                              000000000000199020101                     
1040001300324U 060000000000000000000000000000000000000000000000000000000000000000000000905270000000000905270000000000000000000000000000001002202611022026000011022026000000000000000000000000000000               00000000000000000000000       
1040001300325T 060000004910850000000   14999000002924864012924864        100220260000000000488821040107002924864                  091000025812599904MOISES NAZARIO COSTA                              000000000000199020101                     
1040001300326U 060000000000000000000000000000000000000000000000000000000000000000000000488820000000000488820000000000000000000000000000001002202611022026000011022026000000000000000000000000000000               00000000000000000000000       
1040001300327T 060000004910850000000   14999000002924888812924888        100220260000000000320160010073802924888                  091000005694362900JONAS LESSA                                       000000000000199040301                     
1040001300328U 060000000000000000000000000000000000000000000000000000000000000000000000320160000000000320160000000000000000000000000000001002202611022026000011022026000000000000000100005484601916               00000000000000000000000       
1040001300329T 060000004910850000000   14999000002924891812924891        100220260000000000119351360140502924891                  092041505682000171VALE INOVAR TECNOLOGIA LTDA                       000000000000199040301                     
1040001300330U 060000000000000000000000000000000000000000000000000000000000000000000000119350000000000119350000000000000000000000000000001002202611022026000011022026000000000000000211509246000100               00000000000000000000000       
1040001300331T 060000004910850000000   14999000002924906012924906        080620260000000000135220010268802924906                  091000001886892903INACIO BOEING                                     000000000000199040301                     
1040001300332U 060000000000000000000000000000000000000000000000000000000000000000000000135220000000000135220000000000000000000000000000001002202611022026000011022026000000000000000100001886892903               00000000000000000000000       
1040001300333T 060000004910850000000   14999000002924907812924907        080620260000000000135220010268802924907                  091000001886892903INACIO BOEING                                     000000000000199040301                     
1040001300334U 060000000000000000000000000000000000000000000000000000000000000000000000135220000000000135220000000000000000000000000000001002202611022026000011022026000000000000000100001886892903               00000000000000000000000       
1040001300335T 060000004910850000000   14999000002924908612924908        100220260000000000038000810000102924908                  091000067141269991NADYA NIEHUES BECKER                              000000000000199040301                     
1040001300336U 060000000000000000000000000000000000000000000000000000000000000000000000038000000000000038000000000000000000000000000000001002202611022026000011022026000000000000000100067141269991               00000000000000000000000       
1040001300337T 060000004910850000000   14999000002924909412924909        100220260000000000107881360140502924909                  092052125950000146MEDGOV GESTAO DE SERVICOS DE SAUDE LTDA           000000000000199040301                     
1040001300338U 060000000000000000000000000000000000000000000000000000000000000000000000107880000000000107880000000000000000000000000000001002202611022026000011022026000000000000000252125950000146               00000000000000000000000       
1040001300339T 060000004910850000000   14999000002924910812924910        100220260000000000603281360140502924910                  092052125950000146MEDGOV GESTAO DE SERVICOS DE SAUDE LTDA           000000000000199040301                     
1040001300340U 060000000000000000000000000000000000000000000000000000000000000000000000603280000000000603280000000000000000000000000000001002202611022026000011022026000000000000000252125950000146               00000000000000000000000       
1040001300341T 060000004910850000000   14999000002924911612924911        100220260000000000215751360140502924911                  092052125950000146MEDGOV GESTAO DE SERVICOS DE SAUDE LTDA           000000000000199040301                     
1040001300342U 060000000000000000000000000000000000000000000000000000000000000000000000215750000000000215750000000000000000000000000000001002202611022026000011022026000000000000000252125950000146               00000000000000000000000       
1040001300343T 060000004910850000000   14999000002925526412925526        080620260000000000507960010533302925526                  091000034220780963ESPOLIO DE OLANDINO ONOFRE VITORETI               000000000000199040301                     
1040001300344U 060000000000000000000000000000000000000000000000000000000000000000000000507960000000000507960000000000000000000000000000001002202611022026000011022026000000000000000210653923000104               00000000000000000000000       
1040001300345T 060000004910850000000   14999000002925539612925539        100220260000000000675227480590502925539                  092004354790000164CEIR AUTO PECAS LTDA ME                           000000000000199040301                     
1040001300346U 060000000000000000000000000000000000000000000000000000000000000000000000675220000000000675220000000000000000000000000000001002202611022026000011022026000000000000000232749614000167               00000000000000000000000       
1040001300347T 060000004910850000000   14999000002928866912928866        060320260000000001357881040107002928866                  092003132163000116ROSA DEMETRIO ROHDEN ME                           000000000000199060301                     
1040001300348U 060000000000000000000000000271580000000000000000000000000000000000000001086300000000001086300000000000000000000000000000001002202611022026000011022026000000000000000000000000000000               00000000000000000000000       
1040001300349T 060000004910850000000   14999000002929591612929591        060320260000000000387661040107002929591                  091000002944250981MARIA FERNANDES BATISTA                           000000000000199020101                     
1040001300350U 060000000000000000000000000019380000000000000000000000000000000000000000368280000000000368280000000000000000000000000000001002202611022026000011022026000000000000000000000000000000               00000000000000000000000       
1040001300351T 060000004910850000000   14999000002929592412929592        060320260000000000496201040107002929592                  091000002944250981MARIA FERNANDES BATISTA                           000000000000199020101                     
1040001300352U 060000000000000000000000000099240000000000000000000000000000000000000000396960000000000396960000000000000000000000000000001002202611022026000011022026000000000000000000000000000000               00000000000000000000000       
1040001300353T 060000004910850000000   14999000002929593212929593        060320260000000000387661040107002929593                  091000008985614932ANDREIA FERNANDES BATISTA                         000000000000199020101                     
1040001300354U 060000000000000000000000000019380000000000000000000000000000000000000000368280000000000368280000000000000000000000000000001002202611022026000011022026000000000000000000000000000000               00000000000000000000000       
1040001300355T 060000004910850000000   14999000002929594012929594        060320260000000000496201040107002929594                  091000008985614932ANDREIA FERNANDES BATISTA                         000000000000199020101                     
1040001300356U 060000000000000000000000000099240000000000000000000000000000000000000000396960000000000396960000000000000000000000000000001002202611022026000011022026000000000000000000000000000000               00000000000000000000000       
1040001300357T 060000004910850000000   14999000002929596712929596        060320260000000000387661040107002929596                  091000004127901900ADRIANO FERNANDES BATISTA                         000000000000199020101                     
1040001300358U 060000000000000000000000000019380000000000000000000000000000000000000000368280000000000368280000000000000000000000000000001002202611022026000011022026000000000000000000000000000000               00000000000000000000000       
1040001300359T 060000004910850000000   14999000002929597512929597        060320260000000000496201040107002929597                  091000004127901900ADRIANO FERNANDES BATISTA                         000000000000199020101                     
1040001300360U 060000000000000000000000000099240000000000000000000000000000000000000000396960000000000396960000000000000000000000000000001002202611022026000011022026000000000000000000000000000000               00000000000000000000000       
1040001300361T 060000004910850000000   14999000002929779012929779        060320260000000000309322600000102929779                  092061961877000133ISABELA NOLA DA SILVA LTDA                        000000000000199040301                     
1040001300362U 060000000000000000000000000030930000000000000000000000000000000000000000278390000000000278390000000000000000000000000000001002202611022026000011022026000000000000000261961877000133               00000000000000000000000       
1040001300363T 060000004910850000000   14999000002930155012930155        100220260000000000015047560056502930155                  092026236071000181BRAPO CONSTRUTORA E INCORPORADORA LTDA            000000000000199040301                     
1040001300364U 060000000000000000000000000000000000000000000000000000000000000000000000015040000000000015040000000000000000000000000000001002202611022026000011022026000000000000000226236071000181               00000000000000000000000       
1040001300365T 060000004910850000000   14999000002930156812930156        100220260000000000077013410630502930156                  092086184074018198EUGENIO RAULINO KOERICH S/A COMERCIO E I          000000000000199040301                     
1040001300366U 060000000000000000000000000000000000000000000000000000000000000000000000077010000000000077010000000000000000000000000000001002202611022026000011022026000000000000000286184074000140               00000000000000000000000       
1040001300367T 060000004910850000000   14999000002930183512930183        100220260000000000079320010358202930183                  092083807586000128COMPANHIA INTEGR. DE DESN. AGRIC. DE S.           000000000000199040301                     
1040001300368U 060000000000000000000000000000000000000000000000000000000000000000000000079320000000000079320000000000000000000000000000001002202611022026000011022026000000000000000282951310000156               00000000000000000000000       
1040001300369T 060000004910850000000   14999000002930190812930190        100220260000000000005407560109302930190                  092046817942000249OLIM MAQ COMERCIO DE MAQUINAS AGRICOLAS           000000000000199040301                     
1040001300370U 060000000000000000000000000000000000000000000000000000000000000000000000005400000000000005400000000000000000000000000000001002202611022026000011022026000000000000000246817942000168               00000000000000000000000       
1040001300371T 060000004910850000000   14999000002930192412930192        100220260000000000021063410644802930192                  092076816842000340POSTO LEAO DO TREVO LTDA                          000000000000199040301                     
1040001300372U 060000000000000000000000000000000000000000000000000000000000000000000000021060000000000021060000000000000000000000000000001002202611022026000011022026000000000000000276816842000188               00000000000000000000000       
1040001300373T 060000004910850000000   14999000002930220312930220        100220260000000000009133410644802930220                  092076816842000773POSTO LEAO DO TREVO LTDA                          000000000000199040301                     
1040001300374U 060000000000000000000000000000000000000000000000000000000000000000000000009130000000000009130000000000000000000000000000001002202611022026000011022026000000000000000276816842000188               00000000000000000000000       
1040001300375T 060000004910850000000   14999000002930221112930221        100220260000000001008740010189302930221                  092001838723006400BRF S.A.                                          000000000000199040301                     
1040001300376U 060000000000000000000000000000000000000000000000000000000000000000000001008740000000001008740000000000000000000000000000001002202611022026000011022026000000000000000201838723000127               00000000000000000000000       
1040001300377T 060000004910850000000   14999000002930222012930222        100220260000000000004781360140502930222                  092032457171000130RJL SERVICOS MEDICOS LTDA                         000000000000199040301                     
1040001300378U 060000000000000000000000000000000000000000000000000000000000000000000000004780000000000004780000000000000000000000000000001002202611022026000011022026000000000000000232457171000130               00000000000000000000000       
1040001300379T 060000004910850000000   14999000002930237812930237        100220260000000000025171040107002930237                  092014144090000107SUBESTACAO VERDE VALE BN-7 LTDA                   000000000000199060301                     
1040001300380U 060000000000000000000000000000000000000000000000000000000000000000000000025170000000000025170000000000000000000000000000001002202611022026000011022026000000000000000000000000000000               00000000000000000000000       
1040001300381T 060000004910850000000   14999000002930240812930240        100220260000000000011382370033602930240                  092006885646000180VS IND E COM DE MOLDURAS LTDA                     000000000000199040301                     
1040001300382U 060000000000000000000000000000000000000000000000000000000000000000000000011380000000000011380000000000000000000000000000001002202611022026000011022026000000000000000229171497000192               00000000000000000000000       
1040001300383T 060000004910850000000   14999000002930244012930244        100220260000000000006563410742602930244                  092007324378000602DUTRA COMERCIO FARMACEUTICO LTDA                  000000000000199040301                     
1040001300384U 060000000000000000000000000000000000000000000000000000000000000000000000006560000000000006560000000000000000000000000000001002202611022026000011022026000000000000000207324378000190               00000000000000000000000       
1040001300385T 060000004910850000000   14999000002930248312930248        100220260000000001013433410744802930248                  092080936685000111AGUA DA SERRA INDUSTRIAL DE BEBIDAS S.A.          000000000000199040301                     
1040001300386U 060000000000000000000000000000000000000000000000000000000000000000000001013430000000001013430000000000000000000000000000001002202611022026000011022026000000000000000280936685000111               00000000000000000000000       
1040001300387T 060000004910850000000   14999000002930253012930253        100220260000000000135213410695002930253                  092005895635000118JR CONSTRUCOES E TERRAPLENAGEM LTDA EPP           000000000000199040301                     
1040001300388U 060000000000000000000000000000000000000000000000000000000000000000000000135210000000000135210000000000000000000000000000001002202611022026000011022026000000000000000205895635000118               00000000000000000000000       
1040001300389T 060000004910850000000   14999000002930262912930262        100220260000000000028093410644802930262                  092076816842000188POSTO LEAO DO TREVO LTDA                          000000000000199040301                     
1040001300390U 060000000000000000000000000000000000000000000000000000000000000000000000028090000000000028090000000000000000000000000000001002202611022026000011022026000000000000000276816842000188               00000000000000000000000       
1040001300391T 060000004910850000000   14999000002930264512930264        100220260000000000007385090000102930264                  092059743454000103RESTAURANTE CABANA PERIN LTDA                     000000000000199040301                     
1040001300392U 060000000000000000000000000000000000000000000000000000000000000000000000007380000000000007380000000000000000000000000000001002202611022026000011022026000000000000000259743454000103               00000000000000000000000       
1040001300393T 060000004910850000000   14999000002930273412930273        100220260000000000002941360140502930273                  092032514232000154OENNING SERVICOS MEDICOS LTDA                     000000000000199040301                     
1040001300394U 060000000000000000000000000000000000000000000000000000000000000000000000002940000000000002940000000000000000000000000000001002202611022026000011022026000000000000000232514232000154               00000000000000000000000       
1040001300395T 060000004910850000000   14999000002930275012930275        100220260000000000092600010073802930275                  092060735238000197LIRA INCORPORACAO LTDA                            000000000000199040301                     
1040001300396U 060000000000000000000000000000000000000000000000000000000000000000000000092600000000000092600000000000000000000000000000001002202611022026000011022026000000000000000260735238000197               00000000000000000000000       
1040001300397T 060000004910850000000   14999000002930283112930283        100220260000000000200007560056502930283                  092002032856000174BRACO DO NORTE AUTO PECAS LTDA                    000000000000199040301                     
1040001300398U 060000000000000000000000000000000000000000000000000000000000000000000000200000000000000200000000000000000000000000000000001002202611022026000011022026000000000000000202032856000174               00000000000000000000000       
1040001300399T 060000004910850000000   14999000002930285812930285        100220260000000000007342370202802930285                  092096418264044500LOJAS QUERO-QUERO S.A.                            000000000000199040301                     
1040001300400U 060000000000000000000000000000000000000000000000000000000000000000000000007340000000000007340000000000000000000000000000001002202611022026000011022026000000000000000296418264021802               00000000000000000000000       
1040001300401T 060000004910850000000   14999000002930287412930287        100220260000000001766697560056502930287                  092052783898000115EDIFICIO RESIDENCIAL E COMERCIAL ARCOS L          000000000000199040301                     
1040001300402U 060000000000000000000000000000000000000000000000000000000000000000000001766690000000001766690000000000000000000000000000001002202611022026000011022026000000000000000252783898000115               00000000000000000000000       
1040001300403T 060000004910850000000   14999000002930291212930291        100220260000000000009580010316802930291                  092089848543071511LOJAS COLOMBO SA COMERCIO DE UTILIDADES           000000000000199040301                     
1040001300404U 060000000000000000000000000000000000000000000000000000000000000000000000009580000000000009580000000000000000000000000000001002202611022026000011022026000000000000000289848543000177               00000000000000000000000       
1040001300405T 060000004910850000000   14999000002930293912930293        100220260000000000010727560056502930293                  092002119829000133AUTO POSTO OENNING LTDA                           000000000000199040301                     
1040001300406U 060000000000000000000000000000000000000000000000000000000000000000000000010720000000000010720000000000000000000000000000001002202611022026000011022026000000000000000202119829000133               00000000000000000000000       
1040001300407T 060000004910850000000   14999000002930294712930294        100220260000000001502187480590502930294                  091000079930182934AMBROSIO MICHELS MEURER                           000000000000199040301                     
1040001300408U 060000000000000000000000000000000000000000000000000000000000000000000001502180000000001502180000000000000000000000000000001002202611022026000011022026000000000000000100079930182934               00000000000000000000000       
1040001300409T 060000004910850000000   14999000002930301312930301        100220260000000000005007560056502930301                  092019211470000122OFICINA MFC LTDA                                  000000000000199040301                     
1040001300410U 060000000000000000000000000000000000000000000000000000000000000000000000005000000000000005000000000000000000000000000000001002202611022026000011022026000000000000000219211470000122               00000000000000000000000       
1040001300411T 060000004910850000000   14999000002930315312930315        100220260000000000080002370033602930315                  092005559204000180ADRIANE PEREIRA DANIELSKI                         000000000000199040301                     
1040001300412U 060000000000000000000000000000000000000000000000000000000000000000000000080000000000000080000000000000000000000000000000001002202611022026000011022026000000000000000205559204000180               00000000000000000000000       
