10400000         2829265510001450000000000000000000001070749108500000000MUNICIPIO DE BRACO DO NORTE   C ECON FEDERAL                          20202202602272700193304000000                    RETORNO-PRODUCAO                  000            
10400011T0100030 20829265510001450000000000000000000001070749108500000000MUNICIPIO DE BRACO DO NORTE                                                                                   00001933020220260000000000                          00   
1040001300001T 060000004910850000000   14999000002910955112910955        020220260000000000860560000000002910955                  092050014667000111BONIN PARTICIPACOES LTDA                          000000000000199620300                     
1040001300002U 060000000000000000000000000229890000000000000000000000000000000000000000630670000000000630670000000000000000000000000000000202202602022026000002022026000000000000000000000000000000               00000000000000000000000       
1040001300003T 060000004910850000000   14999000002910967512910967        020220260000000000448490000000002910967                  092050014667000111BONIN PARTICIPACOES LTDA                          000000000000199620300                     
1040001300004U 060000000000000000000000000119800000000000000000000000000000000000000000328690000000000328690000000000000000000000000000000202202602022026000002022026000000000000000000000000000000               00000000000000000000000       
1040001300005T 060000004910850000000   14999000002911002912911002        020220260000000000259490000000002911002                  091000014460700930VANILDA SOMBRIO HOEPPERS                          000000000000199620300                     
1040001300006U 060000000000000000000000000059600000000000000000000000000000000000000000199890000000000199890000000000000000000000000000000202202602022026000002022026000000000000000000000000000000               00000000000000000000000       
1040001300007T 060000004910850000000   14999000002911720112911720        050220260000000001186730000000002911720                  092026968227000119KAO ADMINISTRADORA DE BENS LTDA                   000000000000199620300                     
1040001300008U 060000000000000000000000000377340000000000000000000000000000000000000000809390000000000809390000000000000000000000000000000202202602022026000002022026000000000000000000000000000000               00000000000000000000000       
1040001300009T 060000004910850000000   14999000002916762412916762        260220260000000000661700000000002916762                  091000098740849953TERESA CRISTINA PEREIRA                           000000000000199620300                     
1040001300010U 060000000000000000000000000131310000000000000000000000000000000000000000530390000000000530390000000000000000000000000000000202202602022026000002022026000000000000000000000000000000               00000000000000000000000       
1040001300011T 060000004910850000000   14999000002922642612922642        050220260000000000184922370000002922642                  091000091576709949ACEMIR BACK                                       000000000000199620300                     
1040001300012U 060000000000000000000000000045780000000000000000000000000000000000000000139140000000000139140000000000000000000000000000000202202602022026000002022026000000000000000100091576709949               00000000000000000000000       
1040001300013T 060000004910850000000   14999000002922649312922649        120220260000000000689435420000002922649                  092026165617000150SANTA ROSA DE LIMA LOTEAMENTOS LTDA               000000000000199620300                     
1040001300014U 060000000000000000000000000000000000000000000000000000000000000000000000689430000000000689430000000000000000000000000000003101202602022026000002022026000000000000000255592269000104               00000000000000000000000       
1040001300015T 060000004910850000000   14999000002930686112930686        100220260000000000010001040107002930686                  091000063246066949ANSELMO ANTONIO MEURER                            000000000000199610300                     
1040001300016U 060000000000000000000000000000000000000000000000000000000000000000000000010000000000000010000000000000000000000000000000003101202602022026000002022026000000000000000100063246066949               00000000000000000000000       
1040001300017T 060000004910850000000   14999000002930844912930844        020220260000000001170300000000002930844                  091000034232877991PAULO JOAO MACHADO                                000000000000199620300                     
1040001300018U 060000000000000000000000000292260000000000000000000000000000000000000000878040000000000878040000000000000000000000000000000202202602022026000002022026000000000000000000000000000000               00000000000000000000000       
1040001300019T 060000004910850000000   14999000002931797912931797        020320260000000000077531040107002931797                  091000001753322901ROSELI GOMES                                      000000000000199610300                     
1040001300020U 060000000000000000000000000000000000000000000000000000000000000000000000077530000000000077530000000000000000000000000000000202202602022026000002022026000000000000000100003189817936               00000000000000000000000       
1040001300021T 060000004910850000000   14999000002932253012932253        020220260000000000717232600000002932253                  091000000819584983SILVIO ANTUNES MULLER                             000000000000199620300                     
1040001300022U 060000000000000000000000000289330000000000000000000000000000000000000000427900000000000427900000000000000000000000000000000202202602022026000002022026000000000000000100088644200968               00000000000000000000000       
1040001300023T 060000004910850000000   14999000002933664712933664        030520260000000003684870000000002933664                  091000007376734945JULIANO TEIXEIRA                                  000000000000199620300                     
1040001300024U 060000000000000000000000000000000000000000000000000000000000000000000003684870000000003684870000000000000000000000000000000202202602022026000002022026000000000000000000000000000000               00000000000000000000000       
1040001300025T 060000004910850000000   14999000002933665512933665        030520260000000000744680000000002933665                  091000007376734945JULIANO TEIXEIRA                                  000000000000199620300                     
1040001300026U 060000000000000000000000000000000000000000000000000000000000000000000000744680000000000744680000000000000000000000000000000202202602022026000002022026000000000000000000000000000000               00000000000000000000000       
1040001300027T 060000004910850000000   14999000002746778712746778        010220260000000000180451040107002746778                  091000053424573949OSMARINO DELFINO                                  000000000000199020101                     
1040001300028U 060000000000000000000000000000000000000000000000000000000000000000000000180450000000000180450000000000000000000000000000000202202603022026000003022026000000000000000000000000000000               00000000000000000000000       
1040001300029T 060000004910850000000   14999000002747625512747625        020220260000000002591017560056502747625                  092017211866000144LOGPRO SERVICOS ADMINISTRATIVOS PARA TER          000000000000199040301                     
1040001300030U 060000000000000000000000000000000000000000000000000000000000000000000002591010000000002591010000000000000000000000000000000202202603022026000003022026000000000000000217211866000144               00000000000000000000000       
1040001300031T 060000004910850000000   14999000002750129212750129        150220260000000000256711040107002750129                  091000001765848970JOSE JOAO JEREMIAS                                000000000000199020101                     
1040001300032U 060000000000000000000000000000000000000000000000000000000000000000000000256710000000000256710000000000000000000000000000000202202603022026000003022026000000000000000000000000000000               00000000000000000000000       
1040001300033T 060000004910850000000   14999000002872544512872544        020220260000000000556491040107002872544                  091000002067448978IZABEL MATOS SCHUEROFF                            000000000000199060301                     
1040001300034U 060000000000000000000000000000000000000000000000000000000000000000000000556490000000000556490000000000000000000000000000000202202603022026000003022026000000000000000000000000000000               00000000000000000000000       
1040001300035T 060000004910850000000   14999000002873126712873126        020220260000000000222935090000102873126                  091000002436109982FABIO MIGUEL DA SILVA                             000000000000199040301                     
1040001300036U 060000000000000000000000000000000000000000000000000000000000000000000000222930000000000222930000000000000000000000000000000202202603022026000003022026000000000000000100002436109982               00000000000000000000000       
1040001300037T 060000004910850000000   14999000002873642012873642        030220260000000000237331040107002873642                  091000009442604970DEBORA WARMELING STUPP                            000000000000199020101                     
1040001300038U 060000000000000000000000000000000000000000000000000000000000000000000000237330000000000237330000000000000000000000000000000202202603022026000003022026000000000000000000000000000000               00000000000000000000000       
1040001300039T 060000004910850000000   14999000002893978012893978        090220260000000000526541360140502893978                  092018590012000189GABRIELA HEIDEMANN                                000000000000199040301                     
1040001300040U 060000000000000000000000000164550000000000000000000000000000000000000000361990000000000361990000000000000000000000000000000202202603022026000003022026000000000000000100006388089950               00000000000000000000000       
1040001300041T 060000004910850000000   14999000002895190912895190        110220260000000000656441040107002895190                  091000034233121904ESPOLIO DE ANDRE MARTINS                          000000000000199020101                     
1040001300042U 060000000000000000000000000307100000000000000000000000000000000000000000349340000000000349340000000000000000000000000000000202202603022026000003022026000000000000000000000000000000               00000000000000000000000       
1040001300043T 060000004910850000000   14999000002898134412898134        240220260000000000270290010208902898134                  091000084593377900JOSE MARTINS CASCAES                              000000000000199040301                     
1040001300044U 060000000000000000000000000058910000000000000000000000000000000000000000211380000000000211380000000000000000000000000000000202202603022026000003022026000000000000000100021652287949               00000000000000000000000       
1040001300045T 060000004910850000000   14999000002898146812898146        240220260000000000467340010208902898146                  091000021652287949NILTON LINHARES CASCAES                           000000000000199040301                     
1040001300046U 060000000000000000000000000101770000000000000000000000000000000000000000365570000000000365570000000000000000000000000000000202202603022026000003022026000000000000000100021652287949               00000000000000000000000       
1040001300047T 060000004910850000000   14999000002899496912899496        020220260000000002172217560056502899496                  091000099945045920GENILSON PHILIPPI MACHADO                         000000000000199040301                     
1040001300048U 060000000000000000000000000000000000000000000000000000000000000000000002172210000000002172210000000000000000000000000000000202202603022026000003022026000000000000000206974053000190               00000000000000000000000       
1040001300049T 060000004910850000000   14999000002899550712899550        020220260000000000367480010073802899550                  091000029660700997PAULO CESAR DOS SANTOS                            000000000000199040301                     
1040001300050U 060000000000000000000000000000000000000000000000000000000000000000000000367480000000000367480000000000000000000000000000000202202603022026000003022026000000000000000100029660700997               00000000000000000000000       
1040001300051T 060000004910850000000   14999000002899701112899701        020220260000000000500921040107002899701                  091000042271657091VITOR PAULO RAMOS                                 000000000000199020101                     
1040001300052U 060000000000000000000000000082010000000000000000000000000000000000000000418910000000000418910000000000000000000000000000000202202603022026000003022026000000000000000000000000000000               00000000000000000000000       
1040001300053T 060000004910850000000   14999000002899718612899718        020220260000000000190410010369202899718                  091000065651707972VALDAIR MICHELS                                   000000000000199040301                     
1040001300054U 060000000000000000000000000000000000000000000000000000000000000000000000190410000000000190410000000000000000000000000000000202202603022026000003022026000000000000000100065651707972               00000000000000000000000       
1040001300055T 060000004910850000000   14999000002899725912899725        020220260000000000205861040107002899725                  091000003618163916DEISE APARECIDA MORAIS                            000000000000199060301                     
1040001300056U 060000000000000000000000000000000000000000000000000000000000000000000000205860000000000205860000000000000000000000000000000202202603022026000003022026000000000000000000000000000000               00000000000000000000000       
1040001300057T 060000004910850000000   14999000002899892112899892        020220260000000000559547560281402899892                  091000090741455900EDO WILLEMANN                                     000000000000199040301                     
1040001300058U 060000000000000000000000000161700000000000000000000000000000000000000000397840000000000397840000000000000000000000000000000202202603022026000003022026000000000000000218183598000167               00000000000000000000000       
1040001300059T 060000004910850000000   14999000002899958812899958        020220260000000000211051040107002899958                  091000083446966900FERNANDO VOLPATO DA SILVA                         000000000000199060301                     
1040001300060U 060000000000000000000000000065520000000000000000000000000000000000000000145530000000000145530000000000000000000000000000000202202603022026000003022026000000000000000000000000000000               00000000000000000000000       
1040001300061T 060000004910850000000   14999000002899977412899977        020220260000000001674862370033602899977                  091000090764404920JOAO MARCILIO FERREIRA                            000000000000199040101                     
1040001300062U 060000000000000000000000000767350000000000000000000000000000000000000000907510000000000907510000000000000000000000000000000202202603022026000003022026000000000000000200000000000000               00000000000000000000000       
1040001300063T 060000004910850000000   14999000002900283812900283        060220260000000000921742600000102900283                  091000075813475915ROSI ALBERTINA DE SOUZA RODHEN                    000000000000199040301                     
1040001300064U 060000000000000000000000000403360000000000000000000000000000000000000000518380000000000518380000000000000000000000000000000202202603022026000003022026000000000000000100075813475915               00000000000000000000000       
1040001300065T 060000004910850000000   14999000002903079312903079        060320260000000001673301360140502903079                  092012608507000101PAZ SERVICOS MEDICOS LTDA                         000000000000199040301                     
1040001300066U 060000000000000000000000000000000000000000000000000000000000000000000001673300000000001673300000000000000000000000000000000202202603022026000003022026000000000000000212608507000101               00000000000000000000000       
1040001300067T 060000004910850000000   14999000002903080712903080        060320260000000000942001360140502903080                  092012608507000101PAZ SERVICOS MEDICOS LTDA                         000000000000199040301                     
1040001300068U 060000000000000000000000000000000000000000000000000000000000000000000000942000000000000942000000000000000000000000000000000202202603022026000003022026000000000000000212608507000101               00000000000000000000000       
1040001300069T 060000004910850000000   14999000002905779912905779        020220260000000000373281330262802905779                  092046470861000134GIZA STORE LTDA                                   000000000000199040301                     
1040001300070U 060000000000000000000000000075040000000000000000000000000000000000000000298240000000000298240000000000000000000000000000000202202603022026000003022026000000000000000100004272752960               00000000000000000000000       
1040001300071T 060000004910850000000   14999000002905960012905960        020220260000000000117011040107002905960                  091000068287216915CELSO ONEI DA SILVA MARTINS                       000000000000199060301                     
1040001300072U 060000000000000000000000000000000000000000000000000000000000000000000000117010000000000117010000000000000000000000000000000202202603022026000003022026000000000000000000000000000000               00000000000000000000000       
1040001300073T 060000004910850000000   14999000002905969412905969        020320260000000000538961040107002905969                  091000004473170918EDERSON VAGNER                                    000000000000199060301                     
1040001300074U 060000000000000000000000000000000000000000000000000000000000000000000000538960000000000538960000000000000000000000000000000202202603022026000003022026000000000000000000000000000000               00000000000000000000000       
1040001300075T 060000004910850000000   14999000002909430912909430        020220260000000000706221040107002909430                  091000095056637904IVONETE DA SILVA SOUZA                            000000000000199020101                     
1040001300076U 060000000000000000000000000322000000000000000000000000000000000000000000384220000000000384220000000000000000000000000000000202202603022026000003022026000000000000000000000000000000               00000000000000000000000       
1040001300077T 060000004910850000000   14999000002909941612909941        100220260000000000080007560306902909941                  092002494371000100AGROSERVICOS PLANEJ TECNICO EM AGROPECUA          000000000000199040301                     
1040001300078U 060000000000000000000000000000000000000000000000000000000000000000000000080000000000000080000000000000000000000000000000000202202603022026000003022026000000000000000100005707165940               00000000000000000000000       
1040001300079T 060000004910850000000   14999000002910598012910598        020220260000000000632243410463502910598                  092049503437000137LEANDRO ALBERTON INDUSTRIA E COMERCIO DE          000000000000199040301                     
1040001300080U 060000000000000000000000000118720000000000000000000000000000000000000000513520000000000513520000000000000000000000000000000202202603022026000003022026000000000000000249503437000137               00000000000000000000000       
1040001300081T 060000004910850000000   14999000002910610212910610        020220260000000000632243410463502910610                  092037666331000175MAICON STRAPAZOLI ALVES LTDA                      000000000000199040301                     
1040001300082U 060000000000000000000000000118720000000000000000000000000000000000000000513520000000000513520000000000000000000000000000000202202603022026000003022026000000000000000249503437000137               00000000000000000000000       
1040001300083T 060000004910850000000   14999000002910622612910622        020220260000000001665341330262802910622                  091000002736391969VALDIRENE JACINTO                                 000000000000199040301                     
1040001300084U 060000000000000000000000000729760000000000000000000000000000000000000000935580000000000935580000000000000000000000000000000202202603022026000003022026000000000000000100002736391969               00000000000000000000000       
1040001300085T 060000004910850000000   14999000002910628512910628        020220260000000001089910010073802910628                  091000054284830910MERI CRISTINA H. PERIN                            000000000000199040301                     
1040001300086U 060000000000000000000000000368830000000000000000000000000000000000000000721080000000000721080000000000000000000000000000000202202603022026000003022026000000000000000100054284830910               00000000000000000000000       
1040001300087T 060000004910850000000   14999000002910961612910961        020220260000000000631437560281402910961                  092051110891000170J.C DISTRIBUIDORA DE ALIMENTOS LTDA.              000000000000199040301                     
1040001300088U 060000000000000000000000000177750000000000000000000000000000000000000000453680000000000453680000000000000000000000000000000202202603022026000003022026000000000000000251110891000170               00000000000000000000000       
1040001300089T 060000004910850000000   14999000002911045212911045        020220260000000004029927480590502911045                  092017525172000181DELLA GIUSTINA ADMINISTRACAO DE BENS LTD          000000000000199040301                     
1040001300090U 060000000000000000000000001611470000000000000000000000000000000000000002418450000000002418450000000000000000000000000000000202202603022026000003022026000000000000000281299950000160               00000000000000000000000       
1040001300091T 060000004910850000000   14999000002911226912911226        020220260000000000663841040107002911226                  091000001895168953ANSELMO DELLA GIUSTINA                            000000000000199020101                     
1040001300092U 060000000000000000000000000268120000000000000000000000000000000000000000395720000000000395720000000000000000000000000000000202202603022026000003022026000000000000000000000000000000               00000000000000000000000       
1040001300093T 060000004910850000000   14999000002911640012911640        050220260000000000196621040107002911640                  091000002730518908ADRIANA LOPES DA SILVA                            000000000000199020101                     
1040001300094U 060000000000000000000000000074070000000000000000000000000000000000000000122550000000000122550000000000000000000000000000000202202603022026000003022026000000000000000000000000000000               00000000000000000000000       
1040001300095T 060000004910850000000   14999000002911810012911810        090220260000000000233751040107002911810                  091000007905672964VENILIO THOMAZ                                    000000000000199020101                     
1040001300096U 060000000000000000000000000081440000000000000000000000000000000000000000152310000000000152310000000000000000000000000000000202202603022026000003022026000000000000000000000000000000               00000000000000000000000       
1040001300097T 060000004910850000000   14999000002911877112911877        090220260000000000916421040107002911877                  091000070528071904WILSON WEBER                                      000000000000199020101                     
1040001300098U 060000000000000000000000000241980000000000000000000000000000000000000000674440000000000674440000000000000000000000000000000202202603022026000003022026000000000000000000000000000000               00000000000000000000000       
1040001300099T 060000004910850000000   14999000002914692912914692        230320260000000000322082600000102914692                  092015127614000106RENOVAR AUTO CENTER LTDA                          000000000000199040301                     
1040001300100U 060000000000000000000000000061080000000000000000000000000000000000000000261000000000000261000000000000000000000000000000000202202603022026000003022026000000000000000100006684136975               00000000000000000000000       
1040001300101T 060000004910850000000   14999000002915251112915251        140220260000000000231017560307802915251                  091000005396568950ANA PAULA STRAPAZZOLI CAETANO                     000000000000199040301                     
1040001300102U 060000000000000000000000000000000000000000000000000000000000000000000000231010000000000231010000000000000000000000000000000202202603022026000003022026000000000000000100006240725927               00000000000000000000000       
1040001300103T 060000004910850000000   14999000002919063412919063        050220260000000000689431040107002919063                  092026165617000150SANTA ROSA DE LIMA LOTEAMENTOS LTDA               000000000000199020101                     
1040001300104U 060000000000000000000000000000000000000000000000000000000000000000000000689430000000000689430000000000000000000000000000000202202603022026000003022026000000000000000000000000000000               00000000000000000000000       
1040001300105T 060000004910850000000   14999000002919064212919064        040220260000000000232132600000102919064                  091000005570709967WEVERTON DA SILVA MARTINS                         000000000000199040301                     
1040001300106U 060000000000000000000000000000000000000000000000000000000000000000000000232130000000000232130000000000000000000000000000000202202603022026000003022026000000000000000100005570709967               00000000000000000000000       
1040001300107T 060000004910850000000   14999000002919987912919987        020220260000000000001251040107002919987                  092000360305107090CAIXA ECONOMICA FEDERAL                           000000000000199030101                     
1040001300108U 060000000000000000000000000000000000000000000000000000000000000000000000001250000000000001250000000000000000000000000000000202202603022026000003022026000000000000000000000000000000               00000000000000000000000       
1040001300109T 060000004910850000000   14999000002920227612920227        070420260000000001967230010354002920227                  091000004721491999VITOR ARTUR MARCON                                000000000000199040301                     
1040001300110U 060000000000000000000000000000000000000000000000000000000000000000000001967230000000001967230000000000000000000000000000000202202603022026000003022026000000000000000100004721491999               00000000000000000000000       
1040001300111T 060000004910850000000   14999000002921185212921185        020220260000000000648691040107002921185                  092000360305107090CAIXA ECONOMICA FEDERAL                           000000000000199030101                     
1040001300112U 060000000000000000000000000000000000000000000000000000000000000000000000648690000000000648690000000000000000000000000000000202202603022026000003022026000000000000000000000000000000               00000000000000000000000       
1040001300113T 060000004910850000000   14999000002922184012922184        060320260000000001375172370033602922184                  092035819449000160TOMASI ASSESSORIA LTDA                            000000000000199040301                     
1040001300114U 060000000000000000000000000000000000000000000000000000000000000000000001375170000000001375170000000000000000000000000000000202202603022026000003022026000000000000000100006052181966               00000000000000000000000       
1040001300115T 060000004910850000000   14999000002923062812923062        050620260000000000697781040107002923062                  092041801996000111CLINICA CIRURGICA ODONTOLOGICA BRACO DO           000000000000199020101                     
1040001300116U 060000000000000000000000000000000000000000000000000000000000000000000000697780000000000697780000000000000000000000000000000202202603022026000003022026000000000000000000000000000000               00000000000000000000000       
1040001300117T 060000004910850000000   14999000002923712612923712        060320260000000000353827560281302923712                  092053652272000132OVOS SC ALIMENTOS LTDA                            000000000000199040301                     
1040001300118U 060000000000000000000000000000000000000000000000000000000000000000000000353820000000000353820000000000000000000000000000000202202603022026000003022026000000000000000100005682049993               00000000000000000000000       
1040001300119T 060000004910850000000   14999000002923713412923713        060320260000000000353827560281302923713                  092027170413000170OVOS CATARINENSE LTDA                             000000000000199040301                     
1040001300120U 060000000000000000000000000000000000000000000000000000000000000000000000353820000000000353820000000000000000000000000000000202202603022026000003022026000000000000000227170413000170               00000000000000000000000       
1040001300121T 060000004910850000000   14999000002923820312923820        020220260000000000162771360140502923820                  091000006388089950GABRIELA HEIDEMANN                                000000000000199040301                     
1040001300122U 060000000000000000000000000000000000000000000000000000000000000000000000162770000000000162770000000000000000000000000000000202202603022026000003022026000000000000000100006388089950               00000000000000000000000       
1040001300123T 060000004910850000000   14999000002923822012923822        020220260000000000119782370033602923822                  092051214452000107STROMBERG SERVICOS LTDA                           000000000000199040301                     
1040001300124U 060000000000000000000000000000000000000000000000000000000000000000000000119780000000000119780000000000000000000000000000000202202603022026000003022026000000000000000100004795675902               00000000000000000000000       
1040001300125T 060000004910850000000   14999000002923827012923827        020220260000000000203120330227102923827                  091000010914942905LARISSA ALBERTON                                  000000000000199040301                     
1040001300126U 060000000000000000000000000000000000000000000000000000000000000000000000203120000000000203120000000000000000000000000000000202202603022026000003022026000000000000000100008958860901               00000000000000000000000       
1040001300127T 060000004910850000000   14999000002923835112923835        060320260000000000488451360140502923835                  092053567927000174HELUS HOLDING PARTICIPACOES LTDA                  000000000000199040301                     
1040001300128U 060000000000000000000000000000000000000000000000000000000000000000000000488450000000000488450000000000000000000000000000000202202603022026000003022026000000000000000253567927000174               00000000000000000000000       
1040001300129T 060000004910850000000   14999000002923836012923836        060320260000000002269661360140502923836                  092053064279000133ANDRINO EMPREENDIMENTOS IMOBILIARIOS LTD          000000000000199040301                     
1040001300130U 060000000000000000000000000000000000000000000000000000000000000000000002269660000000002269660000000000000000000000000000000202202603022026000003022026000000000000000253064279000133               00000000000000000000000       
1040001300131T 060000004910850000000   14999000002923842412923842        020220260000000000461971040385002923842                  091000009056437984JOEL VANDRESEN                                    000000000000199020101                     
1040001300132U 060000000000000000000000000000000000000000000000000000000000000000000000461970000000000461970000000000000000000000000000000202202603022026000003022026000000000000000000000000000000               00000000000000000000000       
1040001300133T 060000004910850000000   14999000002924728812924728        030220260000000000117230330333902924728                  092001403819000162LCS INDUSTRIA E COMERCIO LTDA                     000000000000199040301                     
1040001300134U 060000000000000000000000000000000000000000000000000000000000000000000000117230000000000117230000000000000000000000000000000202202603022026000003022026000000000000000281839144000138               00000000000000000000000       
1040001300135T 060000004910850000000   14999000002925856512925856        310120260000000013765557560056502925856                  092025013682000106GAIDZINSKI TELHAS LTDA                            000000000000199040301                     
1040001300136U 060000000000000000000000000000000000000000000000000000000000000000000013765550000000013765550000000000000000000000000000000202202603022026000003022026000000000000000225013682000106               00000000000000000000000       
1040001300137T 060000004910850000000   14999000002930075812930075        280220260000000001068617560056502930075                  091000003760554997ANDERSON DELFIM DE OLIVEIRA                       000000000000199040101                     
1040001300138U 060000000000000000000000000000000000000000000000000000000000000000000001068610000000001068610000000000000000000000000000000202202603022026000003022026000000000000000200000000000000               00000000000000000000000       
1040001300139T 060000004910850000000   14999000002930113412930113        060220260000000000117231360140502930113                  092057397607000174FAZENDA MEURER LTDA                               000000000000199040301                     
1040001300140U 060000000000000000000000000000000000000000000000000000000000000000000000117230000000000117230000000000000000000000000000000202202603022026000003022026000000000000000211509246000100               00000000000000000000000       
1040001300141T 060000004910850000000   14999000002930442712930442        280220260000000002017937560281302930442                  091000049866800997ESPOLIO DE TRINDADE PEREIRA DE SOUZA              000000000000199040301                     
1040001300142U 060000000000000000000000000000000000000000000000000000000000000000000002017930000000002017930000000000000000000000000000000202202603022026000003022026000000000000000100000990977960               00000000000000000000000       
1040001300143T 060000004910850000000   14999000002930736112930736        160220260000000000232597560281302930736                  092027170413000170OVOS CATARINENSE LTDA                             000000000000199040301                     
1040001300144U 060000000000000000000000000000000000000000000000000000000000000000000000232590000000000232590000000000000000000000000000000202202603022026000003022026000000000000000227170413000170               00000000000000000000000       
1040001300145T 060000004910850000000   14999000002930737012930737        040320260000000001186961040107002930737                  091000006711855949CONSTANTINO BONINI                                000000000000199020101                     
1040001300146U 060000000000000000000000000000000000000000000000000000000000000000000001186960000000001186960000000000000000000000000000000202202603022026000003022026000000000000000000000000000000               00000000000000000000000       
1040001300147T 060000004910850000000   14999000002930743412930743        020320260000000000077531360176002930743                  092023000816000110BRAVO EMPREENDIMENTOS IMOBILIARIOS LTDA.          000000000000199040301                     
1040001300148U 060000000000000000000000000000000000000000000000000000000000000000000000077530000000000077530000000000000000000000000000000202202603022026000003022026000000000000000223000816000110               00000000000000000000000       
1040001300149T 060000004910850000000   14999000002931999812931999        020220260000000001689371040107002931999                  091000053894715987MARCIAL BEZA DA ROSA                              000000000000199060301                     
1040001300150U 060000000000000000000000000000000000000000000000000000000000000000000001689370000000001689370000000000000000000000000000000202202603022026000003022026000000000000000000000000000000               00000000000000000000000       
1040001300151T 060000004910850000000   14999000002932001512932001        040320260000000001130260010073802932001                  091000053894715987MARCIAL BEZA DA ROSA                              000000000000199040301                     
1040001300152U 060000000000000000000000000000000000000000000000000000000000000000000001130260000000001130260000000000000000000000000000000202202603022026000003022026000000000000000100053894715987               00000000000000000000000       
1040001300153T 060000004910850000000   14999000002932152612932152        020220260000000000876791040107002932152                  091000022120238987OSVALDO MACHADO MAIA                              000000000000199020101                     
1040001300154U 060000000000000000000000000283530000000000000000000000000000000000000000593260000000000593260000000000000000000000000000000202202603022026000003022026000000000000000000000000000000               00000000000000000000000       
1040001300155T 060000004910850000000   14999000002933516012933516        030220260000000001919821040107002933516                  091000073922234968SAVIO CARDOSO SOMBRIO                             000000000000199020101                     
1040001300156U 060000000000000000000000000686000000000000000000000000000000000000000001233820000000001233820000000000000000000000000000000202202603022026000003022026000000000000000000000000000000               00000000000000000000000       
1040001300157T 060000004910850000000   14999000002933517912933517        030220260000000001185041040107002933517                  091000081252986904LUCIA GAINZSKI VIEIRA SOMBRIO                     000000000000199020101                     
1040001300158U 060000000000000000000000000465190000000000000000000000000000000000000000719850000000000719850000000000000000000000000000000202202603022026000003022026000000000000000000000000000000               00000000000000000000000       
1040001300159T 060000004910850000000   14999000002933635312933635        020220260000000000234810010073802933635                  091000086043382920DELMA DE OLIVEIRA MIRANDA                         000000000000199040301                     
1040001300160U 060000000000000000000000000019890000000000000000000000000000000000000000214920000000000214920000000000000000000000000000000202202603022026000003022026000000000000000100086043382920               00000000000000000000000       
1040001300161T 060000004910850000000   14999000002933636112933636        020220260000000000137500010073802933636                  091000086043382920DELMA DE OLIVEIRA MIRANDA                         000000000000199040301                     
1040001300162U 060000000000000000000000000011630000000000000000000000000000000000000000125870000000000125870000000000000000000000000000000202202603022026000003022026000000000000000100086043382920               00000000000000000000000       
1040001300163T 020000004910850000000   14999000002909935112909935        10022026000000000016023000000000                         092043858808000117DS AUTOMOVEIS LTDA                                000000000000000A4                         
1040001300164U 020000000000000000000000000000000000000000000000000000000000000000000000000000000000000000000000000000000000000000000000000202202600000000000002022026000000000000000                              00000000000000000000000       
1040001300165T 020000004910850000000   14999000002909941612909941        10022026000000000008000000000000                         092002494371000100AGROSERVICOS PLANEJ TECNICO EM AGROPECUA          000000000000000                           
1040001300166U 020000000000000000000000000000000000000000000000000000000000000000000000000000000000000000000000000000000000000000000000000202202600000000000002022026000000000000000                              00000000000000000000000       
1040001300167T 020000004910850000000   14999000002909947512909947        10022026000000000022331000000000                         092010795030000195ANDRESA KLIPPER ALEXANDRE                         000000000000000A4                         
1040001300168U 020000000000000000000000000000000000000000000000000000000000000000000000000000000000000000000000000000000000000000000000000202202600000000000002022026000000000000000                              00000000000000000000000       
1040001300169T 020000004910850000000   14999000002909949112909949        10022026000000000003624000000000                         092009247788000100BANIP FOMENTO MERCANTIL LTDA                      000000000000000A4                         
1040001300170U 020000000000000000000000000000000000000000000000000000000000000000000000000000000000000000000000000000000000000000000000000202202600000000000002022026000000000000000                              00000000000000000000000       
1040001300171T 020000004910850000000   14999000002909951312909951        10022026000000000167096000000000                         092007924993000137TURAMIX INDUSTRIA E COMERCIO LTDA                 000000000000000                           
1040001300172U 020000000000000000000000000000000000000000000000000000000000000000000000000000000000000000000000000000000000000000000000000202202600000000000002022026000000000000000                              00000000000000000000000       
1040001300173T 020000004910850000000   14999000002909954812909954        10022026000000000314804000000000                         092027516397000125MKM SERVICOS DIGITAIS LTDA                        000000000000000A4                         
1040001300174U 020000000000000000000000000000000000000000000000000000000000000000000000000000000000000000000000000000000000000000000000000202202600000000000002022026000000000000000                              00000000000000000000000       
1040001300175T 020000004910850000000   14999000002909960212909960        10022026000000000479501000000000                         092053959967000161MKM TECNOLOGIA DA INFORMACAO LTDA                 000000000000000A4                         
1040001300176U 020000000000000000000000000000000000000000000000000000000000000000000000000000000000000000000000000000000000000000000000000202202600000000000002022026000000000000000                              00000000000000000000000       
1040001300177T 020000004910850000000   14999000002909962912909962        10022026000000000015804000000000                         092030013670000103BALVEDI SERVICOS MEDICOS LTDA                     000000000000000                           
1040001300178U 020000000000000000000000000000000000000000000000000000000000000000000000000000000000000000000000000000000000000000000000000202202600000000000002022026000000000000000                              00000000000000000000000       
1040001300179T 020000004910850000000   14999000002909963712909963        10022026000000000561352000000000                         092018660862000106EFFISA INDUSTRIA DE MAQUINAS LTDA                 000000000000000A4                         
1040001300180U 020000000000000000000000000000000000000000000000000000000000000000000000000000000000000000000000000000000000000000000000000202202600000000000002022026000000000000000                              00000000000000000000000       
1040001300181T 020000004910850000000   14999000002909965312909965        10022026000000000008607000000000                         092023744587000149DUESSMANN E AGOSTINHO COMERCIO E REPRESE          000000000000000A4                         
1040001300182U 020000000000000000000000000000000000000000000000000000000000000000000000000000000000000000000000000000000000000000000000000202202600000000000002022026000000000000000                              00000000000000000000000       
1040001300183T 020000004910850000000   14999000002909966112909966        10022026000000000019628000000000                         092028149316000169NIVALDO COAN                                      000000000000000                           
1040001300184U 020000000000000000000000000000000000000000000000000000000000000000000000000000000000000000000000000000000000000000000000000202202600000000000002022026000000000000000                              00000000000000000000000       
1040001300185T 020000004910850000000   14999000002915150712915150        06042026000000000083667000000000                         091000092795099934LEVINO BLASIUS                                    000000000000000                           
1040001300186U 020000000000000000000000000000000000000000000000000000000000000000000000000000000000000000000000000000000000000000000000000202202600000000000002022026000000000000000                              00000000000000000000000       
1040001300187T 020000004910850000000   14999000002921641212921641        28022026000000000008792000000000                         092011006529000139LDB COMERCIO E LOCACAO DE IMOVEIS LTDA            000000000000000                           
1040001300188U 020000000000000000000000000000000000000000000000000000000000000000000000000000000000000000000000000000000000000000000000000202202600000000000002022026000000000000000                              00000000000000000000000       
1040001300189T 020000004910850000000   14999000002922233112922233        10022026000000000240000000000000                         092028078520000136VORTAC CONSULTORIA AERONAUTICA LTDA               000000000000000A4                         
1040001300190U 020000000000000000000000000000000000000000000000000000000000000000000000000000000000000000000000000000000000000000000000000202202600000000000002022026000000000000000                              00000000000000000000000       
1040001300191T 020000004910850000000   14999000002922234012922234        10022026000000000242503000000000                         092011304091000175CLINICA MEDICA BRACONORTENSE LTDA                 000000000000000A4                         
1040001300192U 020000000000000000000000000000000000000000000000000000000000000000000000000000000000000000000000000000000000000000000000000202202600000000000002022026000000000000000                              00000000000000000000000       
1040001300193T 020000004910850000000   14999000002922235812922235        10022026000000000022504000000000                         092001195838000140AGROSSUI COMERCIO, TRANSPORTE E REPRESEN          000000000000000A4                         
1040001300194U 020000000000000000000000000000000000000000000000000000000000000000000000000000000000000000000000000000000000000000000000000202202600000000000002022026000000000000000                              00000000000000000000000       
1040001300195T 020000004910850000000   14999000002922237412922237        10022026000000001166844000000000                         092082130709000176NEO SISTEMAS DE INFORMATICA LTDA                  000000000000000A4                         
1040001300196U 020000000000000000000000000000000000000000000000000000000000000000000000000000000000000000000000000000000000000000000000000202202600000000000002022026000000000000000                              00000000000000000000000       
1040001300197T 020000004910850000000   14999000002922242012922242        10022026000000000094089000000000                         092003005324000100MKM INTERNET SOLUTION PROVIDER LTDA               000000000000000A4                         
1040001300198U 020000000000000000000000000000000000000000000000000000000000000000000000000000000000000000000000000000000000000000000000000202202600000000000002022026000000000000000                              00000000000000000000000       
1040001300199T 020000004910850000000   14999000002922246312922246        10022026000000000012253000000000                         092061138823000172CRESCIMENTO E SUCESSO INVESTIMENTOS LTDA          000000000000000                           
1040001300200U 020000000000000000000000000000000000000000000000000000000000000000000000000000000000000000000000000000000000000000000000000202202600000000000002022026000000000000000                              00000000000000000000000       
1040001300201T 020000004910850000000   14999000002922249812922249        10022026000000000004036000000000                         092081362162000171AUTO ELETRICA RIO BONITO LTDA                     000000000000000A4                         
1040001300202U 020000000000000000000000000000000000000000000000000000000000000000000000000000000000000000000000000000000000000000000000000202202600000000000002022026000000000000000                              00000000000000000000000       
1040001300203T 020000004910850000000   14999000002923818112923818        06032026000000000010613000000000                         092003452796000101LEONARDO TRAMONTIN & CIA LTDA                     000000000000000A4                         
1040001300204U 020000000000000000000000000000000000000000000000000000000000000000000000000000000000000000000000000000000000000000000000000202202600000000000002022026000000000000000                              00000000000000000000000       
1040001300205T 020000004910850000000   14999000002923819012923819        06032026000000000234059000000000                         092003452796000101LEONARDO TRAMONTIN & CIA LTDA                     000000000000000A4                         
1040001300206U 020000000000000000000000000000000000000000000000000000000000000000000000000000000000000000000000000000000000000000000000000202202600000000000002022026000000000000000                              00000000000000000000000       
1040001300207T 020000004910850000000   14999000002923820312923820        02022026000000000016277000000000                         091000006388089950GABRIELA HEIDEMANN                                000000000000000                           
1040001300208U 020000000000000000000000000000000000000000000000000000000000000000000000000000000000000000000000000000000000000000000000000202202600000000000002022026000000000000000                              00000000000000000000000       
1040001300209T 020000004910850000000   14999000002923821112923821        02022026000000000014892000000000                         092045038788000163RVA RESTAURANTE E PIZZARIA LTDA                   000000000000000                           
1040001300210U 020000000000000000000000000000000000000000000000000000000000000000000000000000000000000000000000000000000000000000000000000202202600000000000002022026000000000000000                              00000000000000000000000       
1040001300211T 020000004910850000000   14999000002923822012923822        02022026000000000011978000000000                         092051214452000107STROMBERG SERVICOS LTDA                           000000000000000                           
1040001300212U 020000000000000000000000000000000000000000000000000000000000000000000000000000000000000000000000000000000000000000000000000202202600000000000002022026000000000000000                              00000000000000000000000       
1040001300213T 020000004910850000000   14999000002923823812923823        10022026000000000367701000000000                         092047960950036401MAGAZINE LUIZA S/A                                000000000000000                           
1040001300214U 020000000000000000000000000000000000000000000000000000000000000000000000000000000000000000000000000000000000000000000000000202202600000000000002022026000000000000000                              00000000000000000000000       
1040001300215T 020000004910850000000   14999000002923824612923824        06032026000000000508899000000000                         092020514078000131ANDRIANI COMERCIO DE MAQUINAS INDUSTRIAI          000000000000000A4                         
1040001300216U 020000000000000000000000000000000000000000000000000000000000000000000000000000000000000000000000000000000000000000000000000202202600000000000002022026000000000000000                              00000000000000000000000       
1040001300217T 020000004910850000000   14999000002923825412923825        06032026000000000226966000000000                         092059407283000133ARGM EMPREENDIMENTOS IMOBILIARIOS LTDA.           000000000000000                           
1040001300218U 020000000000000000000000000000000000000000000000000000000000000000000000000000000000000000000000000000000000000000000000000202202600000000000002022026000000000000000                              00000000000000000000000       
1040001300219T 020000004910850000000   14999000002923826212923826        06032026000000000080918000000000                         092059388110000115ARRW PARTICIPACOES LTDA.                          000000000000000                           
1040001300220U 020000000000000000000000000000000000000000000000000000000000000000000000000000000000000000000000000000000000000000000000000202202600000000000002022026000000000000000                              00000000000000000000000       
1040001300221T 020000004910850000000   14999000002923827012923827        02022026000000000020312000000000                         091000010914942905LARISSA ALBERTON                                  000000000000000                           
1040001300222U 020000000000000000000000000000000000000000000000000000000000000000000000000000000000000000000000000000000000000000000000000202202600000000000002022026000000000000000                              00000000000000000000000       
1040001300223T 020000004910850000000   14999000002923828912923828        06032026000000000152886000000000                         092043069084000122BRUNING MOVEIS E ELETRODOMESTICOS LTDA            000000000000000A4                         
1040001300224U 020000000000000000000000000000000000000000000000000000000000000000000000000000000000000000000000000000000000000000000000000202202600000000000002022026000000000000000                              00000000000000000000000       
1040001300225T 020000004910850000000   14999000002923829712923829        06032026000000000226966000000000                         092055106458000111BEZA EMPREENDIMENTOS IMOBILIARIOS LTDA.           000000000000000                           
1040001300226U 020000000000000000000000000000000000000000000000000000000000000000000000000000000000000000000000000000000000000000000000000202202600000000000002022026000000000000000                              00000000000000000000000       
1040001300227T 020000004910850000000   14999000002923830012923830        06032026000000000010613000000000                         092083573212010158COOPERATIVA DE PRODUCAO E CONSUMO CONCOR          000000000000000A4                         
1040001300228U 020000000000000000000000000000000000000000000000000000000000000000000000000000000000000000000000000000000000000000000000000202202600000000000002022026000000000000000                              00000000000000000000000       
1040001300229T 020000004910850000000   14999000002923831912923831        06032026000000000530324000000000                         092083573212010158COOPERATIVA DE PRODUCAO E CONSUMO CONCOR          000000000000000A4                         
1040001300230U 020000000000000000000000000000000000000000000000000000000000000000000000000000000000000000000000000000000000000000000000000202202600000000000002022026000000000000000                              00000000000000000000000       
1040001300231T 020000004910850000000   14999000002923832712923832        06032026000000000010613000000000                         092083573212013335COOPERATIVA DE PRODUCAO E CONSUMO CONCOR          000000000000000A4                         
1040001300232U 020000000000000000000000000000000000000000000000000000000000000000000000000000000000000000000000000000000000000000000000000202202600000000000002022026000000000000000                              00000000000000000000000       
1040001300233T 020000004910850000000   14999000002923833512923833        06032026000000000811893000000000                         092083573212013335COOPERATIVA DE PRODUCAO E CONSUMO CONCOR          000000000000000A4                         
1040001300234U 020000000000000000000000000000000000000000000000000000000000000000000000000000000000000000000000000000000000000000000000000202202600000000000002022026000000000000000                              00000000000000000000000       
1040001300235T 020000004910850000000   14999000002923834312923834        02022026000000000294289000000000                         092083573212013335COOPERATIVA DE PRODUCAO E CONSUMO CONCOR          000000000000000                           
1040001300236U 020000000000000000000000000000000000000000000000000000000000000000000000000000000000000000000000000000000000000000000000000202202600000000000002022026000000000000000                              00000000000000000000000       
1040001300237T 020000004910850000000   14999000002923835112923835        06032026000000000048845000000000                         092053567927000174HELUS HOLDING PARTICIPACOES LTDA                  000000000000000                           
1040001300238U 020000000000000000000000000000000000000000000000000000000000000000000000000000000000000000000000000000000000000000000000000202202600000000000002022026000000000000000                              00000000000000000000000       
1040001300239T 020000004910850000000   14999000002923836012923836        06032026000000000226966000000000                         092053064279000133ANDRINO EMPREENDIMENTOS IMOBILIARIOS LTD          000000000000000                           
1040001300240U 020000000000000000000000000000000000000000000000000000000000000000000000000000000000000000000000000000000000000000000000000202202600000000000002022026000000000000000                              00000000000000000000000       
1040001300241T 020000004910850000000   14999000002923837812923837        02022026000000000175511000000000                         092011415506000188BAGGIO CONTABILIDADE LTDA - ME                    000000000000000                           
1040001300242U 020000000000000000000000000000000000000000000000000000000000000000000000000000000000000000000000000000000000000000000000000202202600000000000002022026000000000000000                              00000000000000000000000       
1040001300243T 020000004910850000000   14999000002923838612923838        02022026000000000079664000000000                         092053481742000142BAGGIO ASSESSORIA EMPRESARIAL LTDA                000000000000000                           
1040001300244U 020000000000000000000000000000000000000000000000000000000000000000000000000000000000000000000000000000000000000000000000000202202600000000000002022026000000000000000                              00000000000000000000000       
1040001300245T 020000004910850000000   14999000002923839412923839        06032026000000000294618000000000                         092053481742000142BAGGIO ASSESSORIA EMPRESARIAL LTDA                000000000000000                           
1040001300246U 020000000000000000000000000000000000000000000000000000000000000000000000000000000000000000000000000000000000000000000000000202202600000000000002022026000000000000000                              00000000000000000000000       
1040001300247T 020000004910850000000   14999000002923840812923840        06032026000000000004466000000000                         092053481742000142BAGGIO ASSESSORIA EMPRESARIAL LTDA                000000000000000                           
1040001300248U 020000000000000000000000000000000000000000000000000000000000000000000000000000000000000000000000000000000000000000000000000202202600000000000002022026000000000000000                              00000000000000000000000       
1040001300249T 020000004910850000000   14999000002923841612923841        06032026000000000215185000000000                         092053481742000142BAGGIO ASSESSORIA EMPRESARIAL LTDA                000000000000000                           
1040001300250U 020000000000000000000000000000000000000000000000000000000000000000000000000000000000000000000000000000000000000000000000000202202600000000000002022026000000000000000                              00000000000000000000000       
1040001300251T 020000004910850000000   14999000002923842412923842        02022026000000000046197000000000                         091000009056437984JOEL VANDRESEN                                    000000000000000                           
1040001300252U 020000000000000000000000000000000000000000000000000000000000000000000000000000000000000000000000000000000000000000000000000202202600000000000002022026000000000000000                              00000000000000000000000       
1040001300253T 020000004910850000000   14999000002923843212923843        06032026000000000194918000000000                         092038163421000106DURASA INDUSTRIAL LTDA                            000000000000000A4                         
1040001300254U 020000000000000000000000000000000000000000000000000000000000000000000000000000000000000000000000000000000000000000000000000202202600000000000002022026000000000000000                              00000000000000000000000       
1040001300255T 020000004910850000000   14999000002923844012923844        06032026000000000084322000000000                         092055913957000110ENFRASA SERVICOS DE ENGENHARIA LTDA               000000000000000A4                         
1040001300256U 020000000000000000000000000000000000000000000000000000000000000000000000000000000000000000000000000000000000000000000000000202202600000000000002022026000000000000000                              00000000000000000000000       
1040001300257T 020000004910850000000   14999000002925076912925076        28022026000000001236629000000000                         092016749396000104PRIMOS GUINCHOS LTDA                              000000000000000A4                         
1040001300258U 020000000000000000000000000000000000000000000000000000000000000000000000000000000000000000000000000000000000000000000000000202202600000000000002022026000000000000000                              00000000000000000000000       
1040001300259T 020000004910850000000   14999000002925164112925164        28022026000000000040161000000000                         092011006529000139LDB COMERCIO E LOCACAO DE IMOVEIS LTDA            000000000000000                           
1040001300260U 020000000000000000000000000000000000000000000000000000000000000000000000000000000000000000000000000000000000000000000000000202202600000000000002022026000000000000000                              00000000000000000000000       
1040001300261T 020000004910850000000   14999000002925196012925196        28022026000000000019873000000000                         092011006529000139LDB COMERCIO E LOCACAO DE IMOVEIS LTDA            000000000000000                           
1040001300262U 020000000000000000000000000000000000000000000000000000000000000000000000000000000000000000000000000000000000000000000000000202202600000000000002022026000000000000000                              00000000000000000000000       
1040001300263T 020000004910850000000   14999000002925225712925225        28022026000000000040161000000000                         092011006529000139LDB COMERCIO E LOCACAO DE IMOVEIS LTDA            000000000000000                           
1040001300264U 020000000000000000000000000000000000000000000000000000000000000000000000000000000000000000000000000000000000000000000000000202202600000000000002022026000000000000000                              00000000000000000000000       
1040001300265T 020000004910850000000   14999000002925251612925251        28022026000000000036020000000000                         092011006529000139LDB COMERCIO E LOCACAO DE IMOVEIS LTDA            000000000000000                           
1040001300266U 020000000000000000000000000000000000000000000000000000000000000000000000000000000000000000000000000000000000000000000000000202202600000000000002022026000000000000000                              00000000000000000000000       
1040001300267T 020000004910850000000   14999000002925317212925317        28022026000000000061509000000000                         092011006529000139LDB COMERCIO E LOCACAO DE IMOVEIS LTDA            000000000000000                           
1040001300268U 020000000000000000000000000000000000000000000000000000000000000000000000000000000000000000000000000000000000000000000000000202202600000000000002022026000000000000000                              00000000000000000000000       
1040001300269T 020000004910850000000   14999000002925318012925318        28022026000000000067658000000000                         092011006529000139LDB COMERCIO E LOCACAO DE IMOVEIS LTDA            000000000000000                           
1040001300270U 020000000000000000000000000000000000000000000000000000000000000000000000000000000000000000000000000000000000000000000000000202202600000000000002022026000000000000000                              00000000000000000000000       
1040001300271T 020000004910850000000   14999000002925321012925321        28022026000000000021035000000000                         092011006529000139LDB COMERCIO E LOCACAO DE IMOVEIS LTDA            000000000000000                           
1040001300272U 020000000000000000000000000000000000000000000000000000000000000000000000000000000000000000000000000000000000000000000000000202202600000000000002022026000000000000000                              00000000000000000000000       
1040001300273T 020000004910850000000   14999000002925324512925324        28022026000000003801967000000000                         092036202032000117RGGS CONSTRUTORA E INCORPORADORA LTDA             000000000000000                           
1040001300274U 020000000000000000000000000000000000000000000000000000000000000000000000000000000000000000000000000000000000000000000000000202202600000000000002022026000000000000000                              00000000000000000000000       
1040001300275T 020000004910850000000   14999000002925375012925375        28022026000000001420062000000000                         092039734255000113ERICK W.H MELIM LTDA                              000000000000000A4                         
1040001300276U 020000000000000000000000000000000000000000000000000000000000000000000000000000000000000000000000000000000000000000000000000202202600000000000002022026000000000000000                              00000000000000000000000       
1040001300277T 020000004910850000000   14999000002925390312925390        28022026000000000055937000000000                         092011006529000139LDB COMERCIO E LOCACAO DE IMOVEIS LTDA            000000000000000                           
1040001300278U 020000000000000000000000000000000000000000000000000000000000000000000000000000000000000000000000000000000000000000000000000202202600000000000002022026000000000000000                              00000000000000000000000       
1040001300279T 020000004910850000000   14999000002925413612925413        28022026000000000009044000000000                         092011006529000139LDB COMERCIO E LOCACAO DE IMOVEIS LTDA            000000000000000                           
1040001300280U 020000000000000000000000000000000000000000000000000000000000000000000000000000000000000000000000000000000000000000000000000202202600000000000002022026000000000000000                              00000000000000000000000       
1040001300281T 020000004910850000000   14999000002925457812925457        28022026000000000054634000000000                         092011006529000139LDB COMERCIO E LOCACAO DE IMOVEIS LTDA            000000000000000                           
1040001300282U 020000000000000000000000000000000000000000000000000000000000000000000000000000000000000000000000000000000000000000000000000202202600000000000002022026000000000000000                              00000000000000000000000       
1040001300283T 020000004910850000000   14999000002925461612925461        28022026000000000055308000000000                         092011006529000139LDB COMERCIO E LOCACAO DE IMOVEIS LTDA            000000000000000                           
1040001300284U 020000000000000000000000000000000000000000000000000000000000000000000000000000000000000000000000000000000000000000000000000202202600000000000002022026000000000000000                              00000000000000000000000       
1040001300285T 020000004910850000000   14999000002925467512925467        28022026000000000019873000000000                         092011006529000139LDB COMERCIO E LOCACAO DE IMOVEIS LTDA            000000000000000                           
1040001300286U 020000000000000000000000000000000000000000000000000000000000000000000000000000000000000000000000000000000000000000000000000202202600000000000002022026000000000000000                              00000000000000000000000       
1040001300287T 020000004910850000000   14999000002925472112925472        28022026000000000058115000000000                         092011006529000139LDB COMERCIO E LOCACAO DE IMOVEIS LTDA            000000000000000                           
1040001300288U 020000000000000000000000000000000000000000000000000000000000000000000000000000000000000000000000000000000000000000000000000202202600000000000002022026000000000000000                              00000000000000000000000       
1040001300289T 020000004910850000000   14999000002925481012925481        28022026000000000019689000000000                         092011006529000139LDB COMERCIO E LOCACAO DE IMOVEIS LTDA            000000000000000                           
1040001300290U 020000000000000000000000000000000000000000000000000000000000000000000000000000000000000000000000000000000000000000000000000202202600000000000002022026000000000000000                              00000000000000000000000       
1040001300291T 020000004910850000000   14999000002925484512925484        28022026000000000008298000000000                         092011006529000139LDB COMERCIO E LOCACAO DE IMOVEIS LTDA            000000000000000                           
1040001300292U 020000000000000000000000000000000000000000000000000000000000000000000000000000000000000000000000000000000000000000000000000202202600000000000002022026000000000000000                              00000000000000000000000       
1040001300293T 020000004910850000000   14999000002925802612925802        28022026000000000074455000000000                         092011006529000139LDB COMERCIO E LOCACAO DE IMOVEIS LTDA            000000000000000                           
1040001300294U 020000000000000000000000000000000000000000000000000000000000000000000000000000000000000000000000000000000000000000000000000202202600000000000002022026000000000000000                              00000000000000000000000       
1040001300295T 020000004910850000000   14999000002925809312925809        28022026000000000009044000000000                         092011006529000139LDB COMERCIO E LOCACAO DE IMOVEIS LTDA            000000000000000                           
1040001300296U 020000000000000000000000000000000000000000000000000000000000000000000000000000000000000000000000000000000000000000000000000202202600000000000002022026000000000000000                              00000000000000000000000       
1040001300297T 020000004910850000000   14999000002925814012925814        28022026000000000021035000000000                         092011006529000139LDB COMERCIO E LOCACAO DE IMOVEIS LTDA            000000000000000                           
1040001300298U 020000000000000000000000000000000000000000000000000000000000000000000000000000000000000000000000000000000000000000000000000202202600000000000002022026000000000000000                              00000000000000000000000       
1040001300299T 020000004910850000000   14999000002925821212925821        28022026000000000044915000000000                         092011006529000139LDB COMERCIO E LOCACAO DE IMOVEIS LTDA            000000000000000                           
1040001300300U 020000000000000000000000000000000000000000000000000000000000000000000000000000000000000000000000000000000000000000000000000202202600000000000002022026000000000000000                              00000000000000000000000       
1040001300301T 020000004910850000000   14999000002925823912925823        28022026000000000053081000000000                         092011006529000139LDB COMERCIO E LOCACAO DE IMOVEIS LTDA            000000000000000                           
1040001300302U 020000000000000000000000000000000000000000000000000000000000000000000000000000000000000000000000000000000000000000000000000202202600000000000002022026000000000000000                              00000000000000000000000       
1040001300303T 020000004910850000000   14999000002925828012925828        28022026000000000016776000000000                         092011006529000139LDB COMERCIO E LOCACAO DE IMOVEIS LTDA            000000000000000                           
1040001300304U 020000000000000000000000000000000000000000000000000000000000000000000000000000000000000000000000000000000000000000000000000202202600000000000002022026000000000000000                              00000000000000000000000       
1040001300305T 020000004910850000000   14999000002925839512925839        28022026000000000092248000000000                         092011006529000139LDB COMERCIO E LOCACAO DE IMOVEIS LTDA            000000000000000                           
1040001300306U 020000000000000000000000000000000000000000000000000000000000000000000000000000000000000000000000000000000000000000000000000202202600000000000002022026000000000000000                              00000000000000000000000       
1040001300307T 020000004910850000000   14999000002925845012925845        28022026000000000033873000000000                         092011006529000139LDB COMERCIO E LOCACAO DE IMOVEIS LTDA            000000000000000                           
1040001300308U 020000000000000000000000000000000000000000000000000000000000000000000000000000000000000000000000000000000000000000000000000202202600000000000002022026000000000000000                              00000000000000000000000       
1040001300309T 020000004910850000000   14999000002925850612925850        28022026000000000018759000000000                         092011006529000139LDB COMERCIO E LOCACAO DE IMOVEIS LTDA            000000000000000                           
1040001300310U 020000000000000000000000000000000000000000000000000000000000000000000000000000000000000000000000000000000000000000000000000202202600000000000002022026000000000000000                              00000000000000000000000       
1040001300311T 020000004910850000000   14999000002925858112925858        28022026000000001587386000000000                         092007540424000198TRANSCATARINA TRANSPORTES LTDA                    000000000000000                           
1040001300312U 020000000000000000000000000000000000000000000000000000000000000000000000000000000000000000000000000000000000000000000000000202202600000000000002022026000000000000000                              00000000000000000000000       
1040001300313T 020000004910850000000   14999000002925875112925875        28022026000000000017770000000000                         092011006529000139LDB COMERCIO E LOCACAO DE IMOVEIS LTDA            000000000000000                           
1040001300314U 020000000000000000000000000000000000000000000000000000000000000000000000000000000000000000000000000000000000000000000000000202202600000000000002022026000000000000000                              00000000000000000000000       
1040001300315T 020000004910850000000   14999000002925877812925877        28022026000000001124373000000000                         092013707725000166CERES AGROPECUARIA LTDA                           000000000000000A4                         
1040001300316U 020000000000000000000000000000000000000000000000000000000000000000000000000000000000000000000000000000000000000000000000000202202600000000000002022026000000000000000                              00000000000000000000000       
1040001300317T 020000004910850000000   14999000002925880812925880        28022026000000000112766000000000                         092011006529000139LDB COMERCIO E LOCACAO DE IMOVEIS LTDA            000000000000000                           
1040001300318U 020000000000000000000000000000000000000000000000000000000000000000000000000000000000000000000000000000000000000000000000000202202600000000000002022026000000000000000                              00000000000000000000000       
1040001300319T 020000004910850000000   14999000002925884012925884        28022026000000000035456000000000                         092011006529000139LDB COMERCIO E LOCACAO DE IMOVEIS LTDA            000000000000000                           
1040001300320U 020000000000000000000000000000000000000000000000000000000000000000000000000000000000000000000000000000000000000000000000000202202600000000000002022026000000000000000                              00000000000000000000000       
1040001300321T 020000004910850000000   14999000002925885912925885        28022026000000000067658000000000                         092011006529000139LDB COMERCIO E LOCACAO DE IMOVEIS LTDA            000000000000000                           
1040001300322U 020000000000000000000000000000000000000000000000000000000000000000000000000000000000000000000000000000000000000000000000000202202600000000000002022026000000000000000                              00000000000000000000000       
1040001300323T 020000004910850000000   14999000002925886712925886        28022026000000000009575000000000                         092011006529000139LDB COMERCIO E LOCACAO DE IMOVEIS LTDA            000000000000000                           
1040001300324U 020000000000000000000000000000000000000000000000000000000000000000000000000000000000000000000000000000000000000000000000000202202600000000000002022026000000000000000                              00000000000000000000000       
1040001300325T 020000004910850000000   14999000002925948012925948        28022026000000000009044000000000                         092011006529000139LDB COMERCIO E LOCACAO DE IMOVEIS LTDA            000000000000000                           
1040001300326U 020000000000000000000000000000000000000000000000000000000000000000000000000000000000000000000000000000000000000000000000000202202600000000000002022026000000000000000                              00000000000000000000000       
1040001300327T 020000004910850000000   14999000002925950212925950        28022026000000000055937000000000                         092011006529000139LDB COMERCIO E LOCACAO DE IMOVEIS LTDA            000000000000000                           
1040001300328U 020000000000000000000000000000000000000000000000000000000000000000000000000000000000000000000000000000000000000000000000000202202600000000000002022026000000000000000                              00000000000000000000000       
1040001300329T 020000004910850000000   14999000002925952912925952        28022026000000000039258000000000                         092011006529000139LDB COMERCIO E LOCACAO DE IMOVEIS LTDA            000000000000000                           
1040001300330U 020000000000000000000000000000000000000000000000000000000000000000000000000000000000000000000000000000000000000000000000000202202600000000000002022026000000000000000                              00000000000000000000000       
1040001300331T 020000004910850000000   14999000002925963412925963        28022026000000000019873000000000                         092011006529000139LDB COMERCIO E LOCACAO DE IMOVEIS LTDA            000000000000000                           
1040001300332U 020000000000000000000000000000000000000000000000000000000000000000000000000000000000000000000000000000000000000000000000000202202600000000000002022026000000000000000                              00000000000000000000000       
1040001300333T 020000004910850000000   14999000002925966912925966        28022026000000000019873000000000                         092011006529000139LDB COMERCIO E LOCACAO DE IMOVEIS LTDA            000000000000000                           
1040001300334U 020000000000000000000000000000000000000000000000000000000000000000000000000000000000000000000000000000000000000000000000000202202600000000000002022026000000000000000                              00000000000000000000000       
1040001300335T 020000004910850000000   14999000002925967712925967        28022026000000000009575000000000                         092011006529000139LDB COMERCIO E LOCACAO DE IMOVEIS LTDA            000000000000000                           
1040001300336U 020000000000000000000000000000000000000000000000000000000000000000000000000000000000000000000000000000000000000000000000000202202600000000000002022026000000000000000                              00000000000000000000000       
1040001300337T 020000004910850000000   14999000002925970712925970        28022026000000000053081000000000                         092011006529000139LDB COMERCIO E LOCACAO DE IMOVEIS LTDA            000000000000000                           
1040001300338U 020000000000000000000000000000000000000000000000000000000000000000000000000000000000000000000000000000000000000000000000000202202600000000000002022026000000000000000                              00000000000000000000000       
1040001300339T 020000004910850000000   14999000002925982012925982        28022026000000000019873000000000                         092011006529000139LDB COMERCIO E LOCACAO DE IMOVEIS LTDA            000000000000000                           
1040001300340U 020000000000000000000000000000000000000000000000000000000000000000000000000000000000000000000000000000000000000000000000000202202600000000000002022026000000000000000                              00000000000000000000000       
1040001300341T 020000004910850000000   14999000002925985512925985        28022026000000001386583000000000                         092025013682000106GAIDZINSKI TELHAS LTDA                            000000000000000A4                         
1040001300342U 020000000000000000000000000000000000000000000000000000000000000000000000000000000000000000000000000000000000000000000000000202202600000000000002022026000000000000000                              00000000000000000000000       
1040001300343T 020000004910850000000   14999000002925991012925991        28022026000000000025386000000000                         092011006529000139LDB COMERCIO E LOCACAO DE IMOVEIS LTDA            000000000000000                           
1040001300344U 020000000000000000000000000000000000000000000000000000000000000000000000000000000000000000000000000000000000000000000000000202202600000000000002022026000000000000000                              00000000000000000000000       
1040001300345T 020000004910850000000   14999000002926013612926013        28022026000000000343497000000000                         092011006529000139LDB COMERCIO E LOCACAO DE IMOVEIS LTDA            000000000000000                           
1040001300346U 020000000000000000000000000000000000000000000000000000000000000000000000000000000000000000000000000000000000000000000000000202202600000000000002022026000000000000000                              00000000000000000000000       
1040001300347T 020000004910850000000   14999000002926016012926016        28022026000000000086911000000000                         092011006529000139LDB COMERCIO E LOCACAO DE IMOVEIS LTDA            000000000000000                           
1040001300348U 020000000000000000000000000000000000000000000000000000000000000000000000000000000000000000000000000000000000000000000000000202202600000000000002022026000000000000000                              00000000000000000000000       
1040001300349T 020000004910850000000   14999000002926019512926019        28022026000000000009575000000000                         092011006529000139LDB COMERCIO E LOCACAO DE IMOVEIS LTDA            000000000000000                           
1040001300350U 020000000000000000000000000000000000000000000000000000000000000000000000000000000000000000000000000000000000000000000000000202202600000000000002022026000000000000000                              00000000000000000000000       
1040001300351T 020000004910850000000   14999000002926024112926024        28022026000000000009044000000000                         092011006529000139LDB COMERCIO E LOCACAO DE IMOVEIS LTDA            000000000000000                           
1040001300352U 020000000000000000000000000000000000000000000000000000000000000000000000000000000000000000000000000000000000000000000000000202202600000000000002022026000000000000000                              00000000000000000000000       
1040001300353T 020000004910850000000   14999000002926027612926027        28022026000000000032419000000000                         092011006529000139LDB COMERCIO E LOCACAO DE IMOVEIS LTDA            000000000000000                           
1040001300354U 020000000000000000000000000000000000000000000000000000000000000000000000000000000000000000000000000000000000000000000000000202202600000000000002022026000000000000000                              00000000000000000000000       
1040001300355T 020000004910850000000   14999000002926028412926028        28022026000000001029661000000000                         091000058646574920CELINA BECKER DELLA GIUSTINA                      000000000000000A4                         
1040001300356U 020000000000000000000000000000000000000000000000000000000000000000000000000000000000000000000000000000000000000000000000000202202600000000000002022026000000000000000                              00000000000000000000000       
1040001300357T 020000004910850000000   14999000002926035712926035        28022026000000000021035000000000                         092011006529000139LDB COMERCIO E LOCACAO DE IMOVEIS LTDA            000000000000000                           
1040001300358U 020000000000000000000000000000000000000000000000000000000000000000000000000000000000000000000000000000000000000000000000000202202600000000000002022026000000000000000                              00000000000000000000000       
1040001300359T 020000004910850000000   14999000002926037312926037        28022026000000000039552000000000                         092011006529000139LDB COMERCIO E LOCACAO DE IMOVEIS LTDA            000000000000000                           
1040001300360U 020000000000000000000000000000000000000000000000000000000000000000000000000000000000000000000000000000000000000000000000000202202600000000000002022026000000000000000                              00000000000000000000000       
1040001300361T 020000004910850000000   14999000002926038112926038        28022026000000000014439000000000                         092011006529000139LDB COMERCIO E LOCACAO DE IMOVEIS LTDA            000000000000000                           
1040001300362U 020000000000000000000000000000000000000000000000000000000000000000000000000000000000000000000000000000000000000000000000000202202600000000000002022026000000000000000                              00000000000000000000000       
1040001300363T 020000004910850000000   14999000002926043812926043        28022026000000003055307000000000                         092015370032000156DINASTIA PRODUCOES E EVENTOS LTDA                 000000000000000A4                         
1040001300364U 020000000000000000000000000000000000000000000000000000000000000000000000000000000000000000000000000000000000000000000000000202202600000000000002022026000000000000000                              00000000000000000000000       
1040001300365T 020000004910850000000   14999000002926044612926044        28022026000000000053081000000000                         092011006529000139LDB COMERCIO E LOCACAO DE IMOVEIS LTDA            000000000000000                           
1040001300366U 020000000000000000000000000000000000000000000000000000000000000000000000000000000000000000000000000000000000000000000000000202202600000000000002022026000000000000000                              00000000000000000000000       
1040001300367T 020000004910850000000   14999000002926046212926046        28022026000000000020441000000000                         092011006529000139LDB COMERCIO E LOCACAO DE IMOVEIS LTDA            000000000000000                           
1040001300368U 020000000000000000000000000000000000000000000000000000000000000000000000000000000000000000000000000000000000000000000000000202202600000000000002022026000000000000000                              00000000000000000000000       
1040001300369T 020000004910850000000   14999000002926051912926051        28022026000000000008792000000000                         092011006529000139LDB COMERCIO E LOCACAO DE IMOVEIS LTDA            000000000000000                           
1040001300370U 020000000000000000000000000000000000000000000000000000000000000000000000000000000000000000000000000000000000000000000000000202202600000000000002022026000000000000000                              00000000000000000000000       
1040001300371T 020000004910850000000   14999000002926056012926056        28022026000000000067658000000000                         092011006529000139LDB COMERCIO E LOCACAO DE IMOVEIS LTDA            000000000000000                           
1040001300372U 020000000000000000000000000000000000000000000000000000000000000000000000000000000000000000000000000000000000000000000000000202202600000000000002022026000000000000000                              00000000000000000000000       
1040001300373T 020000004910850000000   14999000002928020012928020        28022026000000000009044000000000                         092011006529000139LDB COMERCIO E LOCACAO DE IMOVEIS LTDA            000000000000000                           
1040001300374U 020000000000000000000000000000000000000000000000000000000000000000000000000000000000000000000000000000000000000000000000000202202600000000000002022026000000000000000                              00000000000000000000000       
1040001300375T 020000004910850000000   14999000002928022612928022        28022026000000000009575000000000                         092011006529000139LDB COMERCIO E LOCACAO DE IMOVEIS LTDA            000000000000000                           
1040001300376U 020000000000000000000000000000000000000000000000000000000000000000000000000000000000000000000000000000000000000000000000000202202600000000000002022026000000000000000                              00000000000000000000000       
1040001300377T 020000004910850000000   14999000002928023412928023        28022026000000000019873000000000                         092011006529000139LDB COMERCIO E LOCACAO DE IMOVEIS LTDA            000000000000000                           
1040001300378U 020000000000000000000000000000000000000000000000000000000000000000000000000000000000000000000000000000000000000000000000000202202600000000000002022026000000000000000                              00000000000000000000000       
1040001300379T 020000004910850000000   14999000002928024212928024        28022026000000000009575000000000                         092011006529000139LDB COMERCIO E LOCACAO DE IMOVEIS LTDA            000000000000000                           
1040001300380U 020000000000000000000000000000000000000000000000000000000000000000000000000000000000000000000000000000000000000000000000000202202600000000000002022026000000000000000                              00000000000000000000000       
1040001300381T 020000004910850000000   14999000002928033112928033        28022026000000000043274000000000                         092011006529000139LDB COMERCIO E LOCACAO DE IMOVEIS LTDA            000000000000000                           
1040001300382U 020000000000000000000000000000000000000000000000000000000000000000000000000000000000000000000000000000000000000000000000000202202600000000000002022026000000000000000                              00000000000000000000000       
1040001300383T 020000004910850000000   14999000002928035812928035        28022026000000000186420000000000                         092011006529000139LDB COMERCIO E LOCACAO DE IMOVEIS LTDA            000000000000000                           
1040001300384U 020000000000000000000000000000000000000000000000000000000000000000000000000000000000000000000000000000000000000000000000000202202600000000000002022026000000000000000                              00000000000000000000000       
1040001300385T 020000004910850000000   14999000002928036612928036        28022026000000000055308000000000                         092011006529000139LDB COMERCIO E LOCACAO DE IMOVEIS LTDA            000000000000000                           
1040001300386U 020000000000000000000000000000000000000000000000000000000000000000000000000000000000000000000000000000000000000000000000000202202600000000000002022026000000000000000                              00000000000000000000000       
1040001300387T 020000004910850000000   14999000002928037412928037        28022026000000001240734000000000                         092081632051000138CERAMICA PRA LTDA                                 000000000000000                           
1040001300388U 020000000000000000000000000000000000000000000000000000000000000000000000000000000000000000000000000000000000000000000000000202202600000000000002022026000000000000000                              00000000000000000000000       
1040001300389T 020000004910850000000   14999000002928038212928038        28022026000000000021035000000000                         092011006529000139LDB COMERCIO E LOCACAO DE IMOVEIS LTDA            000000000000000                           
1040001300390U 020000000000000000000000000000000000000000000000000000000000000000000000000000000000000000000000000000000000000000000000000202202600000000000002022026000000000000000                              00000000000000000000000       
1040001300391T 020000004910850000000   14999000002928040412928040        28022026000000000032419000000000                         092011006529000139LDB COMERCIO E LOCACAO DE IMOVEIS LTDA            000000000000000                           
1040001300392U 020000000000000000000000000000000000000000000000000000000000000000000000000000000000000000000000000000000000000000000000000202202600000000000002022026000000000000000                              00000000000000000000000       
1040001300393T 020000004910850000000   14999000002928046312928046        28022026000000000021119000000000                         092011006529000139LDB COMERCIO E LOCACAO DE IMOVEIS LTDA            000000000000000                           
1040001300394U 020000000000000000000000000000000000000000000000000000000000000000000000000000000000000000000000000000000000000000000000000202202600000000000002022026000000000000000                              00000000000000000000000       
1040001300395T 020000004910850000000   14999000002928049812928049        28022026000000000008792000000000                         092011006529000139LDB COMERCIO E LOCACAO DE IMOVEIS LTDA            000000000000000                           
1040001300396U 020000000000000000000000000000000000000000000000000000000000000000000000000000000000000000000000000000000000000000000000000202202600000000000002022026000000000000000                              00000000000000000000000       
1040001300397T 020000004910850000000   14999000002928052812928052        28022026000000000008792000000000                         092011006529000139LDB COMERCIO E LOCACAO DE IMOVEIS LTDA            000000000000000                           
1040001300398U 020000000000000000000000000000000000000000000000000000000000000000000000000000000000000000000000000000000000000000000000000202202600000000000002022026000000000000000                              00000000000000000000000       
1040001300399T 020000004910850000000   14999000002928054412928054        28022026000000001489457000000000                         092037603556000182ISRAEL NEGOCIOS LTDA                              000000000000000                           
1040001300400U 020000000000000000000000000000000000000000000000000000000000000000000000000000000000000000000000000000000000000000000000000202202600000000000002022026000000000000000                              00000000000000000000000       
1040001300401T 020000004910850000000   14999000002928055212928055        28022026000000000009044000000000                         092011006529000139LDB COMERCIO E LOCACAO DE IMOVEIS LTDA            000000000000000                           
1040001300402U 020000000000000000000000000000000000000000000000000000000000000000000000000000000000000000000000000000000000000000000000000202202600000000000002022026000000000000000                              00000000000000000000000       
1040001300403T 020000004910850000000   14999000002928057912928057        28022026000000000021035000000000                         092011006529000139LDB COMERCIO E LOCACAO DE IMOVEIS LTDA            000000000000000                           
1040001300404U 020000000000000000000000000000000000000000000000000000000000000000000000000000000000000000000000000000000000000000000000000202202600000000000002022026000000000000000                              00000000000000000000000       
1040001300405T 020000004910850000000   14999000002928058712928058        28022026000000000041987000000000                         092011006529000139LDB COMERCIO E LOCACAO DE IMOVEIS LTDA            000000000000000                           
1040001300406U 020000000000000000000000000000000000000000000000000000000000000000000000000000000000000000000000000000000000000000000000000202202600000000000002022026000000000000000                              00000000000000000000000       
1040001300407T 020000004910850000000   14999000002928060912928060        28022026000000000021035000000000                         092011006529000139LDB COMERCIO E LOCACAO DE IMOVEIS LTDA            000000000000000                           
1040001300408U 020000000000000000000000000000000000000000000000000000000000000000000000000000000000000000000000000000000000000000000000000202202600000000000002022026000000000000000                              00000000000000000000000       
1040001300409T 020000004910850000000   14999000002928068412928068        28022026000000000021035000000000                         092011006529000139LDB COMERCIO E LOCACAO DE IMOVEIS LTDA            000000000000000                           
1040001300410U 020000000000000000000000000000000000000000000000000000000000000000000000000000000000000000000000000000000000000000000000000202202600000000000002022026000000000000000                              00000000000000000000000       
1040001300411T 020000004910850000000   14999000002928069212928069        28022026000000000019873000000000                         092011006529000139LDB COMERCIO E LOCACAO DE IMOVEIS LTDA            000000000000000                           
1040001300412U 020000000000000000000000000000000000000000000000000000000000000000000000000000000000000000000000000000000000000000000000000202202600000000000002022026000000000000000                              00000000000000000000000       
