10400000         2829265510001450000000000000000000001070749108500000000MUNICIPIO DE BRACO DO NORTE   C ECON FEDERAL                          21302202601594000194204000000                    RETORNO-PRODUCAO                  000            
10400011T0100030 20829265510001450000000000000000000001070749108500000000MUNICIPIO DE BRACO DO NORTE                                                                                   00001942130220260000000000                          00   
1040001300001T 060000004910850000000   14999000002896226912896226        160220260000000001007482600000002896226                  091000055061729900ESPOLIO DE ZUNEIDE OLIVEIRA DA SILVA              000000000000199620300                     
1040001300002U 060000000000000000000000000394150000000000000000000000000000000000000000613330000000000613330000000000000000000000000000001302202613022026000013022026000000000000000100006733902923               00000000000000000000000       
1040001300003T 060000004910850000000   14999000002916136712916136        240220260000000000374042600000002916136                  091000017945038972FRANCISCO LUIZ DA SILVA                           000000000000199620300                     
1040001300004U 060000000000000000000000000087470000000000000000000000000000000000000000286570000000000286570000000000000000000000000000001302202613022026000013022026000000000000000100007672553992               00000000000000000000000       
1040001300005T 060000004910850000000   14999000002921484312921484        160220260000000001208643230000002921484                  091000009481065901ANDERSON MAXIMIANO REZENDE                        000000000000199620300                     
1040001300006U 060000000000000000000000000503810000000000000000000000000000000000000000704830000000000704830000000000000000000000000000001302202613022026000013022026000000000000000100009481065901               00000000000000000000000       
1040001300007T 060000004910850000000   14999000002923521212923521        150220260000000002430800010000002923521                  092060735238000197LIRA INCORPORACAO LTDA                            000000000000199620300                     
1040001300008U 060000000000000000000000000000000000000000000000000000000000000000000002430800000000002430800000000000000000000000000000001302202613022026000013022026000000000000000260735238000197               00000000000000000000000       
1040001300009T 060000004910850000000   14999000002938581812938581        130320260000000001162970010000002938581                  092018164290000174EDESIO DE SOUZA  ME                               000000000000199620300                     
1040001300010U 060000000000000000000000000348890000000000000000000000000000000000000000814080000000000814080000000000000000000000000000001302202613022026000013022026000000000000000100002567265902               00000000000000000000000       
1040001300011T 060000004910850000000   14999000002783760612783760        140220260000000000175931040107002783760                  091000075812290920RENATO DA SILVA                                   000000000000199020101                     
1040001300012U 060000000000000000000000000000000000000000000000000000000000000000000000175930000000000175930000000000000000000000000000001302202618022026000018022026000000000000000000000000000000               00000000000000000000000       
1040001300013T 060000004910850000000   14999000002822761512822761        050320260000000000174747560026602822761                  092043482127000105EDUARDO MARTINS DE FREITAS LTDA                   000000000000199040301                     
1040001300014U 060000000000000000000000000000000000000000000000000000000000000000000000174740000000000174740000000000000000000000000000001302202618022026000018022026000000000000000243482127000105               00000000000000000000000       
1040001300015T 060000004910850000000   14999000002891306312891306        130220260000000000228742600000102891306                  091000006483979983CRISTIAN BROLEZ NASCIMENTO                        000000000000199040301                     
1040001300016U 060000000000000000000000000000000000000000000000000000000000000000000000228740000000000228740000000000000000000000000000001302202618022026000018022026000000000000000100006483979983               00000000000000000000000       
1040001300017T 060000004910850000000   14999000002895702812895702        160220260000000000380141040107002895702                  091000075782693991JOVANIO ALVES DA SILVA                            000000000000199020101                     
1040001300018U 060000000000000000000000000138090000000000000000000000000000000000000000242050000000000242050000000000000000000000000000001302202618022026000018022026000000000000000000000000000000               00000000000000000000000       
1040001300019T 060000004910850000000   14999000002896757012896757        170220260000000000386217480590502896757                  091000005942599912JULIANO BUSS WIGGERS                              000000000000199040301                     
1040001300020U 060000000000000000000000000094150000000000000000000000000000000000000000292060000000000292060000000000000000000000000000001302202618022026000018022026000000000000000100005942599912               00000000000000000000000       
1040001300021T 060000004910850000000   14999000002896903412896903        170220260000000000189701040107002896903                  091000084996781904BENJAMIM ELIAS KUHNEN                             000000000000199020101                     
1040001300022U 060000000000000000000000000040300000000000000000000000000000000000000000149400000000000149400000000000000000000000000000001302202618022026000018022026000000000000000000000000000000               00000000000000000000000       
1040001300023T 060000004910850000000   14999000002902393212902393        130220260000000001127701040107002902393                  091000007055528968JOSE MANOEL DA SILVA                              000000000000199020101                     
1040001300024U 060000000000000000000000000672850000000000000000000000000000000000000000454850000000000454850000000000000000000000000000001302202618022026000018022026000000000000000000000000000000               00000000000000000000000       
1040001300025T 060000004910850000000   14999000002902419012902419        130220260000000000445720330333902902419                  091000060736810978EVANDRO OENNING                                   000000000000199040301                     
1040001300026U 060000000000000000000000000136080000000000000000000000000000000000000000309640000000000309640000000000000000000000000000001302202618022026000018022026000000000000000100060736810978               00000000000000000000000       
1040001300027T 060000004910850000000   14999000002903059912903059        060320260000000001242147560056502903059                  092020784877000128MERCADO CAROL LTDA                                000000000000199040301                     
1040001300028U 060000000000000000000000000000000000000000000000000000000000000000000001242140000000001242140000000000000000000000000000001302202618022026000018022026000000000000000220784877000128               00000000000000000000000       
1040001300029T 060000004910850000000   14999000002903060212903060        060320260000000000106137560056502903060                  092020784877000128MERCADO CAROL LTDA                                000000000000199040301                     
1040001300030U 060000000000000000000000000000000000000000000000000000000000000000000000106130000000000106130000000000000000000000000000001302202618022026000018022026000000000000000220784877000128               00000000000000000000000       
1040001300031T 060000004910850000000   14999000002903150112903150        160220260000000000641901040107002903150                  091000006916022981RODRIGO KUERTEN                                   000000000000199020101                     
1040001300032U 060000000000000000000000000000000000000000000000000000000000000000000000641900000000000641900000000000000000000000000000001302202618022026000018022026000000000000000000000000000000               00000000000000000000000       
1040001300033T 060000004910850000000   14999000002904237612904237        230220260000000000287460010073802904237                  092043878132000123SCHUEROFF ASSESSORIA VETERINARIA LTDA             000000000000199040301                     
1040001300034U 060000000000000000000000000000000000000000000000000000000000000000000000287460000000000287460000000000000000000000000000001302202618022026000018022026000000000000000100007143476986               00000000000000000000000       
1040001300035T 060000004910850000000   14999000002907317412907317        060320260000000000919927560056502907317                  092000815695000160COSTA & KUERTEN LTDA                              000000000000199040301                     
1040001300036U 060000000000000000000000000000000000000000000000000000000000000000000000919920000000000919920000000000000000000000000000001302202618022026000018022026000000000000000200815695000160               00000000000000000000000       
1040001300037T 060000004910850000000   14999000002907318212907318        060320260000000001753447560056502907318                  092000815695000160COSTA & KUERTEN LTDA                              000000000000199040301                     
1040001300038U 060000000000000000000000000000000000000000000000000000000000000000000001753440000000001753440000000000000000000000000000001302202618022026000018022026000000000000000200815695000160               00000000000000000000000       
1040001300039T 060000004910850000000   14999000002907547912907547        160220260000000000251413410200002907547                  091000002768517909AMARILDO VITAL                                    000000000000199040301                     
1040001300040U 060000000000000000000000000062840000000000000000000000000000000000000000188570000000000188570000000000000000000000000000001302202618022026000018022026000000000000000100002768517909               00000000000000000000000       
1040001300041T 060000004910850000000   14999000002907567312907567        160220260000000000277861040107002907567                  091000037532090906ESPOLIO AUGUSTA DA SILVA MARCILIO                 000000000000199020101                     
1040001300042U 060000000000000000000000000093980000000000000000000000000000000000000000183880000000000183880000000000000000000000000000001302202618022026000018022026000000000000000000000000000000               00000000000000000000000       
1040001300043T 060000004910850000000   14999000002907930012907930        170220260000000000412411040107002907930                  091000037854046972VOLNEY CAMILO                                     000000000000199020101                     
1040001300044U 060000000000000000000000000111310000000000000000000000000000000000000000301100000000000301100000000000000000000000000000001302202618022026000018022026000000000000000000000000000000               00000000000000000000000       
1040001300045T 060000004910850000000   14999000002908459112908459        190220260000000000239751040107002908459                  091000050612999904GEOVANIS DA SILVA                                 000000000000199020101                     
1040001300046U 060000000000000000000000000090120000000000000000000000000000000000000000149630000000000149630000000000000000000000000000001302202618022026000018022026000000000000000000000000000000               00000000000000000000000       
1040001300047T 060000004910850000000   14999000002908955012908955        060320260000000000106137480590502908955                  092008043677000119COMPRA CERTA COMERCIO DE VEICULOS E MOTO          000000000000199040301                     
1040001300048U 060000000000000000000000000000000000000000000000000000000000000000000000106130000000000106130000000000000000000000000000001302202618022026000018022026000000000000000100002568612932               00000000000000000000000       
1040001300049T 060000004910850000000   14999000002913825012913825        160220260000000000214120850133102913825                  092045283796000175CN AUTO LOCADORA LTDA                             000000000000199040301                     
1040001300050U 060000000000000000000000000058680000000000000000000000000000000000000000155440000000000155440000000000000000000000000000001302202618022026000018022026000000000000000225086525000112               00000000000000000000000       
1040001300051T 060000004910850000000   14999000002913852712913852        160220260000000003829422370033602913852                  092010794896000181GERPLAST FERRAMENTAS E MATERIAIS PARA CO          000000000000199040301                     
1040001300052U 060000000000000000000000001307340000000000000000000000000000000000000002522080000000002522080000000000000000000000000000001302202618022026000018022026000000000000000210794896000181               00000000000000000000000       
1040001300053T 060000004910850000000   14999000002913940012913940        160220260000000000185852370033602913940                  091000085430099953CLEUSA APARECIDA WALTER ANDRE                     000000000000199040301                     
1040001300054U 060000000000000000000000000036530000000000000000000000000000000000000000149320000000000149320000000000000000000000000000001302202618022026000018022026000000000000000100085430099953               00000000000000000000000       
1040001300055T 060000004910850000000   14999000002914463212914463        190220260000000000650811040107002914463                  092012681413000168ROSINEIDE MARCILIO DA SILVA GORDO ME              000000000000199020101                     
1040001300056U 060000000000000000000000000378940000000000000000000000000000000000000000271870000000000271870000000000000000000000000000001302202618022026000018022026000000000000000000000000000000               00000000000000000000000       
1040001300057T 060000004910850000000   14999000002915277512915277        230220260000000000799652600000102915277                  091000003255250994ESPOLIO DE ZENAIDE SOMBRIO MAXIMIANO              000000000000199040301                     
1040001300058U 060000000000000000000000000262490000000000000000000000000000000000000000537160000000000537160000000000000000000000000000001302202618022026000018022026000000000000000100006531323957               00000000000000000000000       
1040001300059T 060000004910850000000   14999000002915391712915391        160220260000000004366131040041502915391                  091000087091143949JANE VIEIRA FRANCA                                000000000000199060301                     
1040001300060U 060000000000000000000000002757020000000000000000000000000000000000000001609110000000001609110000000000000000000000000000001302202618022026000018022026000000000000000000000000000000               00000000000000000000000       
1040001300061T 060000004910850000000   14999000002916064612916064        240220260000000000320590810000102916064                  09200879628500012008.796.285 MADILON PREVE DA SILVA                 000000000000199040301                     
1040001300062U 060000000000000000000000000074570000000000000000000000000000000000000000246020000000000246020000000000000000000000000000001302202618022026000018022026000000000000000100001585686999               00000000000000000000000       
1040001300063T 060000004910850000000   14999000002917769712917769        260220260000000000360857560056502917769                  091000051194759904TARCISIO NAZARIO SOETHE                           000000000000199040101                     
1040001300064U 060000000000000000000000000060180000000000000000000000000000000000000000300670000000000300670000000000000000000000000000001302202618022026000018022026000000000000000200000000000000               00000000000000000000000       
1040001300065T 060000004910850000000   14999000002922151312922151        060320260000000001912750010073802922151                  092060597239000112JOHN GOULART LTDA                                 000000000000199040301                     
1040001300066U 060000000000000000000000000000000000000000000000000000000000000000000001912750000000001912750000000000000000000000000000001302202618022026000018022026000000000000000260597239000112               00000000000000000000000       
1040001300067T 060000004910850000000   14999000002922152112922152        060320260000000000348890010073802922152                  092060597239000112JOHN GOULART LTDA                                 000000000000199040301                     
1040001300068U 060000000000000000000000000000000000000000000000000000000000000000000000348890000000000348890000000000000000000000000000001302202618022026000018022026000000000000000260597239000112               00000000000000000000000       
1040001300069T 060000004910850000000   14999000002922548912922548        060320260000000000477651040107002922548                  092009596402000175RS FARMACIA & PERFUMARIA LTDA                     000000000000199060301                     
1040001300070U 060000000000000000000000000000000000000000000000000000000000000000000000477650000000000477650000000000000000000000000000001302202618022026000018022026000000000000000000000000000000               00000000000000000000000       
1040001300071T 060000004910850000000   14999000002922599312922599        190220260000000004300477560056502922599                  091000009378511910MARCOS SCHURHOFF BITENCOURT                       000000000000199040301                     
1040001300072U 060000000000000000000000000000000000000000000000000000000000000000000004300470000000004300470000000000000000000000000000001302202618022026000018022026000000000000000100009378511910               00000000000000000000000       
1040001300073T 060000004910850000000   14999000002923085712923085        130220260000000000117232600000102923085                  092055632994000150KUHNEN STORE ACABAMENTOS PARA CONSTRUCAO          000000000000199040301                     
1040001300074U 060000000000000000000000000000000000000000000000000000000000000000000000117230000000000117230000000000000000000000000000001302202618022026000018022026000000000000000255632994000150               00000000000000000000000       
1040001300075T 060000004910850000000   14999000002923290612923290        150320260000000000271050010073802923290                  091000056442866904OSMAR DUTRA                                       000000000000199040201                     
1040001300076U 060000000000000000000000000000000000000000000000000000000000000000000000271050000000000271050000000000000000000000000000001302202618022026000018022026000000000000000100056442866904               00000000000000000000000       
1040001300077T 060000004910850000000   14999000002923385612923385        130320260000000000229571040107002923385                  091000030581770978VALMICIO SALVALAGIO                               000000000000199020101                     
1040001300078U 060000000000000000000000000000000000000000000000000000000000000000000000229570000000000229570000000000000000000000000000001302202618022026000018022026000000000000000000000000000000               00000000000000000000000       
1040001300079T 060000004910850000000   14999000002923681212923681        060320260000000000942001360140502923681                  092024170625000160CENTRO CATARINENSE DE OTORRINOLARINGOLOG          000000000000199040301                     
1040001300080U 060000000000000000000000000000000000000000000000000000000000000000000000942000000000000942000000000000000000000000000000001302202618022026000018022026000000000000000224170625000160               00000000000000000000000       
1040001300081T 060000004910850000000   14999000002923682012923682        060320260000000001314741360140502923682                  092024170625000160CENTRO CATARINENSE DE OTORRINOLARINGOLOG          000000000000199040301                     
1040001300082U 060000000000000000000000000000000000000000000000000000000000000000000001314740000000001314740000000000000000000000000000001302202618022026000018022026000000000000000224170625000160               00000000000000000000000       
1040001300083T 060000004910850000000   14999000002923794012923794        150220260000000000491051040107002923794                  091000006456455910TEREZA DE MENDONCA                                000000000000199020101                     
1040001300084U 060000000000000000000000000000000000000000000000000000000000000000000000491050000000000491050000000000000000000000000000001302202618022026000018022026000000000000000000000000000000               00000000000000000000000       
1040001300085T 060000004910850000000   14999000002923816512923816        020320260000000000117237560056502923816                  092004585052000128RICKEN & RICKEN LTDA                              000000000000199040301                     
1040001300086U 060000000000000000000000000000000000000000000000000000000000000000000000117230000000000117230000000000000000000000000000001302202618022026000018022026000000000000000100003284068996               00000000000000000000000       
1040001300087T 060000004910850000000   14999000002928908812928908        130220260000000000186847480590502928908                  092048369437000123ANGELA EING ROECKER 59461276915                   000000000000199040301                     
1040001300088U 060000000000000000000000000000000000000000000000000000000000000000000000186840000000000186840000000000000000000000000000001302202618022026000018022026000000000000000248369437000123               00000000000000000000000       
1040001300089T 060000004910850000000   14999000002928917712928917        130220260000000000118581040107002928917                  091000004808370905JACKSON FLORENCIO MARTINS                         000000000000199060301                     
1040001300090U 060000000000000000000000000000000000000000000000000000000000000000000000118580000000000118580000000000000000000000000000001302202618022026000018022026000000000000000000000000000000               00000000000000000000000       
1040001300091T 060000004910850000000   14999000002929147312929147        080620260000000000338497560056502929147                  091000006916063904PATILA VANDRESEN DE SOUZA                         000000000000199040301                     
1040001300092U 060000000000000000000000000000000000000000000000000000000000000000000000338490000000000338490000000000000000000000000000001302202618022026000018022026000000000000000100006916063904               00000000000000000000000       
1040001300093T 060000004910850000000   14999000002929150312929150        080620260000000000812617560056502929150                  091000041713605953SEBASTIAO MOTTA DE SOUZA                          000000000000199040301                     
1040001300094U 060000000000000000000000000000000000000000000000000000000000000000000000812610000000000812610000000000000000000000000000001302202618022026000018022026000000000000000100006916063904               00000000000000000000000       
1040001300095T 060000004910850000000   14999000002929191012929191        130220260000000000167197560056502929191                  092035401998000110ALENCAR SCHLICKMANN 05047841960                   000000000000199040301                     
1040001300096U 060000000000000000000000000000000000000000000000000000000000000000000000167190000000000167190000000000000000000000000000001302202618022026000018022026000000000000000235401998000110               00000000000000000000000       
1040001300097T 060000004910850000000   14999000002929263112929263        130220260000000000749037480590502929263                  092008043677000119COMPRA CERTA COMERCIO DE VEICULOS E MOTO          000000000000199040301                     
1040001300098U 060000000000000000000000000000000000000000000000000000000000000000000000749030000000000749030000000000000000000000000000001302202618022026000018022026000000000000000100002568612932               00000000000000000000000       
1040001300099T 060000004910850000000   14999000002929264012929264        130220260000000000123377480590502929264                  092008043677000119COMPRA CERTA COMERCIO DE VEICULOS E MOTO          000000000000199040301                     
1040001300100U 060000000000000000000000000000000000000000000000000000000000000000000000123370000000000123370000000000000000000000000000001302202618022026000018022026000000000000000100002568612932               00000000000000000000000       
1040001300101T 060000004910850000000   14999000002929265812929265        130220260000000000109717480590502929265                  092008043677000119COMPRA CERTA COMERCIO DE VEICULOS E MOTO          000000000000199040301                     
1040001300102U 060000000000000000000000000000000000000000000000000000000000000000000000109710000000000109710000000000000000000000000000001302202618022026000018022026000000000000000100002568612932               00000000000000000000000       
1040001300103T 060000004910850000000   14999000002929266612929266        060320260000000001389472080003002929266                  092035565596000151ADRIANO KNIESS KUNZ 07589347930                   000000000000199040301                     
1040001300104U 060000000000000000000000000000000000000000000000000000000000000000000001389470000000001389470000000000000000000000000000001302202618022026000018022026000000000000000218189547000142               00000000000000000000000       
1040001300105T 060000004910850000000   14999000002929268212929268        130220260000000000176207560056502929268                  092036651991000110BRO URBANIZACAO LTDA                              000000000000199040301                     
1040001300106U 060000000000000000000000000000000000000000000000000000000000000000000000176200000000000176200000000000000000000000000000001302202618022026000018022026000000000000000100005686471908               00000000000000000000000       
1040001300107T 060000004910850000000   14999000002933474112933474        280220260000000001090701360437202933474                  091000083447296968CHARLES SIDNEI VIEIRA                             000000000000199040301                     
1040001300108U 060000000000000000000000000000000000000000000000000000000000000000000001090700000000001090700000000000000000000000000000001302202618022026000018022026000000000000000283870873000182               00000000000000000000000       
1040001300109T 060000004910850000000   14999000002934210812934210        060320260000000002600651040107002934210                  092000553604000165LOJA E BAZAR DA CELA LTDA                         000000000000199020101                     
1040001300110U 060000000000000000000000000520130000000000000000000000000000000000000002080520000000002080520000000000000000000000000000001302202618022026000018022026000000000000000000000000000000               00000000000000000000000       
1040001300111T 060000004910850000000   14999000002938584212938584        080620260000000000755811040107002938584                  091000041713974991SUELY NIEHUES                                     000000000000199020101                     
1040001300112U 060000000000000000000000000154870000000000000000000000000000000000000000600940000000000600940000000000000000000000000000001302202618022026000018022026000000000000000000000000000000               00000000000000000000000       
1040001300113T 060000004910850000000   14999000002938603212938603        130220260000000000686257560056502938603                  091000081087969972EVILASIO DA SILVA DELLA GIUSTINA                  000000000000199040301                     
1040001300114U 060000000000000000000000000293010000000000000000000000000000000000000000393240000000000393240000000000000000000000000000001302202618022026000018022026000000000000000100003206387906               00000000000000000000000       
1040001300115T 060000004910850000000   14999000002938605912938605        130320260000000001162972600000102938605                  092011063895000120EVANDRO FRANCISCO NUNES ME                        000000000000199040301                     
1040001300116U 060000000000000000000000000348890000000000000000000000000000000000000000814080000000000814080000000000000000000000000000001302202618022026000018022026000000000000000100011540653919               00000000000000000000000       
1040001300117T 060000004910850000000   14999000002938607512938607        130220260000000000274220010073802938607                  091000001895168953ANSELMO DELLA GIUSTINA                            000000000000199040301                     
1040001300118U 060000000000000000000000000092730000000000000000000000000000000000000000181490000000000181490000000000000000000000000000001302202618022026000018022026000000000000000100004917107989               00000000000000000000000       
1040001300119T 060000004910850000000   14999000002938834512938834        130220260000000001734132080003002938834                  091000000474901955LUCIO DE BRIDA                                    000000000000199040301                     
1040001300120U 060000000000000000000000000000000000000000000000000000000000000000000001734130000000001734130000000000000000000000000000001302202618022026000018022026000000000000000218189547000142               00000000000000000000000       
1040001300121T 060000004910850000000   14999000002938837012938837        130220260000000000475041040107002938837                  092003821023000155LUCIO DE BRIDA & CIA LTDA ME                      000000000000199060301                     
1040001300122U 060000000000000000000000000000000000000000000000000000000000000000000000475040000000000475040000000000000000000000000000001302202618022026000018022026000000000000000000000000000000               00000000000000000000000       
1040001300123T 020000004910850000000   14999000002922471712922471        22022026000000001009193000000000                         092017211866000144LOGPRO SERVICOS ADMINISTRATIVOS PARA TER          000000000000000                           
1040001300124U 020000000000000000000000000000000000000000000000000000000000000000000000000000000000000000000000000000000000000000000000001302202600000000000000000000000000000000000                              00000000000000000000000       
1040001300125T 020000004910850000000   14999000002922485712922485        22022026000000000012800000000000                         092017312389000103LEO ADMINISTRADORA DE IMOVEIS LTDA                000000000000000A4                         
1040001300126U 020000000000000000000000000000000000000000000000000000000000000000000000000000000000000000000000000000000000000000000000001302202600000000000000000000000000000000000                              00000000000000000000000       
1040001300127T 020000004910850000000   14999000002922499712922499        22022026000000000000104000000000                         092016695624000100FLACH INDUSTRIA DE CARREGADORES  EQUIPAM          000000000000000A4                         
1040001300128U 020000000000000000000000000000000000000000000000000000000000000000000000000000000000000000000000000000000000000000000000001302202600000000000000000000000000000000000                              00000000000000000000000       
1040001300129T 020000004910850000000   14999000002922503912922503        22022026000000000048182000000000                         092037166307000177DEBONA COMERCIO DE VEICULOS LTDA                  000000000000000                           
1040001300130U 020000000000000000000000000000000000000000000000000000000000000000000000000000000000000000000000000000000000000000000000001302202600000000000000000000000000000000000                              00000000000000000000000       
1040001300131T 020000004910850000000   14999000002922505512922505        22022026000000000000951000000000                         092010795030000195ANDRESA KLIPPER ALEXANDRE                         000000000000000A4                         
1040001300132U 020000000000000000000000000000000000000000000000000000000000000000000000000000000000000000000000000000000000000000000000001302202600000000000000000000000000000000000                              00000000000000000000000       
1040001300133T 020000004910850000000   14999000002922518712922518        22022026000000000013212000000000                         092010934913000139DF IMPORTACAO E FABRICACAO DE EQUIPAMENT          000000000000000A4                         
1040001300134U 020000000000000000000000000000000000000000000000000000000000000000000000000000000000000000000000000000000000000000000000001302202600000000000000000000000000000000000                              00000000000000000000000       
1040001300135T 020000004910850000000   14999000002922528412922528        22022026000000000040914000000000                         092062002127000105ULIANO NEGOCIOS IMOBILIARIOS LTDA                 000000000000000                           
1040001300136U 020000000000000000000000000000000000000000000000000000000000000000000000000000000000000000000000000000000000000000000000001302202600000000000000000000000000000000000                              00000000000000000000000       
1040001300137T 020000004910850000000   14999000002922529212922529        22022026000000000003065000000000                         092002873885000169EBM SOFTWARES LTDA                                000000000000000A4                         
1040001300138U 020000000000000000000000000000000000000000000000000000000000000000000000000000000000000000000000000000000000000000000000001302202600000000000000000000000000000000000                              00000000000000000000000       
1040001300139T 020000004910850000000   14999000002928878212928878        08062026000000000087773000000000                         091000002730378979WAGNER DE OLIVEIRA ANDRE                          000000000000000                           
1040001300140U 020000000000000000000000000000000000000000000000000000000000000000000000000000000000000000000000000000000000000000000000001302202600000000000000000000000000000000000                              00000000000000000000000       
1040001300141T 020000004910850000000   14999000002928879012928879        08062026000000000099278000000000                         091000075782626968MARIA MARCELINO SCHLICKMANN BORBA                 000000000000000A4                         
1040001300142U 020000000000000000000000000000000000000000000000000000000000000000000000000000000000000000000000000000000000000000000000001302202600000000000000000000000000000000000                              00000000000000000000000       
1040001300143T 020000004910850000000   14999000002928880412928880        08062026000000000059691000000000                         091000075782626968MARIA MARCELINO SCHLICKMANN BORBA                 000000000000000A4                         
1040001300144U 020000000000000000000000000000000000000000000000000000000000000000000000000000000000000000000000000000000000000000000000001302202600000000000000000000000000000000000                              00000000000000000000000       
1040001300145T 020000004910850000000   14999000002928881212928881        08062026000000000101800000000000                         091000075782626968MARIA MARCELINO SCHLICKMANN BORBA                 000000000000000A4                         
1040001300146U 020000000000000000000000000000000000000000000000000000000000000000000000000000000000000000000000000000000000000000000000001302202600000000000000000000000000000000000                              00000000000000000000000       
1040001300147T 020000004910850000000   14999000002936348212936348        22022026000000000047832000000000                         092058520514000158HD SERVICOS MEDICOS LTDA                          000000000000000A4                         
1040001300148U 020000000000000000000000000000000000000000000000000000000000000000000000000000000000000000000000000000000000000000000000001302202600000000000000000000000000000000000                              00000000000000000000000       
1040001300149T 020000004910850000000   14999000002936349012936349        22022026000000000482221000000000                         092053959967000161MKM TECNOLOGIA DA INFORMACAO LTDA                 000000000000000A4                         
1040001300150U 020000000000000000000000000000000000000000000000000000000000000000000000000000000000000000000000000000000000000000000000001302202600000000000000000000000000000000000                              00000000000000000000000       
1040001300151T 020000004910850000000   14999000002937115912937115        22022026000000000002352000000000                         092027273298000160MAXIMO COMERCIO DE MAQUINAS, EQUIP. E SO          000000000000000A4                         
1040001300152U 020000000000000000000000000000000000000000000000000000000000000000000000000000000000000000000000000000000000000000000000001302202600000000000000000000000000000000000                              00000000000000000000000       
1040001300153T 020000004910850000000   14999000002922498912922498        18022026000000000034123000000000                         092000682958000100REFRINORTE REFRIGERACAO LTDA                      000000000000000A4                         
1040001300154U 020000000000000000000000000000000000000000000000000000000000000000000000000000000000000000000000000000000000000000000000001302202600000000000013022026000000000000000                              00000000000000000000000       
1040001300155T 020000004910850000000   14999000002922523312922523        13022026000000000033521000000000                         092000682958000100REFRINORTE REFRIGERACAO LTDA                      000000000000000A4                         
1040001300156U 020000000000000000000000000000000000000000000000000000000000000000000000000000000000000000000000000000000000000000000000001302202600000000000013022026000000000000000                              00000000000000000000000       
1040001300157T 020000004910850000000   14999000002922531412922531        18022026000000000001996000000000                         092000682958000100REFRINORTE REFRIGERACAO LTDA                      000000000000000A4                         
1040001300158U 020000000000000000000000000000000000000000000000000000000000000000000000000000000000000000000000000000000000000000000000001302202600000000000013022026000000000000000                              00000000000000000000000       
1040001300159T 020000004910850000000   14999000002928882012928882        08062026000000000111310000000000                         091000000925305910JULIANA OENNING NAZARIO DE OLIVEIRA               000000000000000A4                         
1040001300160U 020000000000000000000000000000000000000000000000000000000000000000000000000000000000000000000000000000000000000000000000001302202600000000000013022026000000000000000                              00000000000000000000000       
1040001300161T 020000004910850000000   14999000002928883912928883        08062026000000000129998000000000                         091000000925305910JULIANA OENNING NAZARIO DE OLIVEIRA               000000000000000A4                         
1040001300162U 020000000000000000000000000000000000000000000000000000000000000000000000000000000000000000000000000000000000000000000000001302202600000000000013022026000000000000000                              00000000000000000000000       
1040001300163T 020000004910850000000   14999000002928884712928884        08062026000000000116572000000000                         091000000925305910JULIANA OENNING NAZARIO DE OLIVEIRA               000000000000000A4                         
1040001300164U 020000000000000000000000000000000000000000000000000000000000000000000000000000000000000000000000000000000000000000000000001302202600000000000013022026000000000000000                              00000000000000000000000       
1040001300165T 020000004910850000000   14999000002928885512928885        08062026000000000063959000000000                         091000000925305910JULIANA OENNING NAZARIO DE OLIVEIRA               000000000000000A4                         
1040001300166U 020000000000000000000000000000000000000000000000000000000000000000000000000000000000000000000000000000000000000000000000001302202600000000000013022026000000000000000                              00000000000000000000000       
1040001300167T 020000004910850000000   14999000002928886312928886        08062026000000000074771000000000                         091000000925305910JULIANA OENNING NAZARIO DE OLIVEIRA               000000000000000A4                         
1040001300168U 020000000000000000000000000000000000000000000000000000000000000000000000000000000000000000000000000000000000000000000000001302202600000000000013022026000000000000000                              00000000000000000000000       
1040001300169T 020000004910850000000   14999000002928887112928887        08062026000000000091448000000000                         091000000925305910JULIANA OENNING NAZARIO DE OLIVEIRA               000000000000000A4                         
1040001300170U 020000000000000000000000000000000000000000000000000000000000000000000000000000000000000000000000000000000000000000000000001302202600000000000013022026000000000000000                              00000000000000000000000       
1040001300171T 020000004910850000000   14999000002928888012928888        08062026000000000087520000000000                         091000090987080997JORGE JUNIOR NIEHUES BUSS                         000000000000000                           
1040001300172U 020000000000000000000000000000000000000000000000000000000000000000000000000000000000000000000000000000000000000000000000001302202600000000000013022026000000000000000                              00000000000000000000000       
1040001300173T 020000004910850000000   14999000002928889812928889        08062026000000000108775000000000                         091000002306471975SAVIANA WEBER STEINER                             000000000000000                           
1040001300174U 020000000000000000000000000000000000000000000000000000000000000000000000000000000000000000000000000000000000000000000000001302202600000000000013022026000000000000000                              00000000000000000000000       
1040001300175T 020000004910850000000   14999000002928890112928890        08062026000000000035321000000000                         091000002306471975SAVIANA WEBER STEINER                             000000000000000                           
1040001300176U 020000000000000000000000000000000000000000000000000000000000000000000000000000000000000000000000000000000000000000000000001302202600000000000013022026000000000000000                              00000000000000000000000       
1040001300177T 020000004910850000000   14999000002928891012928891        07072026000000000035317000000000                         091000002306471975SAVIANA WEBER STEINER                             000000000000000                           
1040001300178U 020000000000000000000000000000000000000000000000000000000000000000000000000000000000000000000000000000000000000000000000001302202600000000000013022026000000000000000                              00000000000000000000000       
1040001300179T 020000004910850000000   14999000002928892812928892        07082026000000000035317000000000                         091000002306471975SAVIANA WEBER STEINER                             000000000000000                           
1040001300180U 020000000000000000000000000000000000000000000000000000000000000000000000000000000000000000000000000000000000000000000000001302202600000000000013022026000000000000000                              00000000000000000000000       
1040001300181T 020000004910850000000   14999000002928893612928893        08092026000000000035317000000000                         091000002306471975SAVIANA WEBER STEINER                             000000000000000                           
1040001300182U 020000000000000000000000000000000000000000000000000000000000000000000000000000000000000000000000000000000000000000000000001302202600000000000013022026000000000000000                              00000000000000000000000       
1040001300183T 020000004910850000000   14999000002928894412928894        13022026000000000005664000000000                         092060579164000147X3 NEGOCIOS IMOBILIARIOS LTDA                     000000000000000                           
1040001300184U 020000000000000000000000000000000000000000000000000000000000000000000000000000000000000000000000000000000000000000000000001302202600000000000013022026000000000000000                              00000000000000000000000       
1040001300185T 020000004910850000000   14999000002928895212928895        06032026000000000020933000000000                         092060579164000147X3 NEGOCIOS IMOBILIARIOS LTDA                     000000000000000                           
1040001300186U 020000000000000000000000000000000000000000000000000000000000000000000000000000000000000000000000000000000000000000000000001302202600000000000013022026000000000000000                              00000000000000000000000       
1040001300187T 020000004910850000000   14999000002928896012928896        13022026000000000150855000000000                         092060579164000147X3 NEGOCIOS IMOBILIARIOS LTDA                     000000000000000                           
1040001300188U 020000000000000000000000000000000000000000000000000000000000000000000000000000000000000000000000000000000000000000000000001302202600000000000013022026000000000000000                              00000000000000000000000       
1040001300189T 020000004910850000000   14999000002928897912928897        08062026000000000136551000000000                         091000089588134900KELLI REGINA WEBER STEINER                        000000000000000A4                         
1040001300190U 020000000000000000000000000000000000000000000000000000000000000000000000000000000000000000000000000000000000000000000000001302202600000000000013022026000000000000000                              00000000000000000000000       
1040001300191T 020000004910850000000   14999000002928898712928898        08062026000000000045240000000000                         091000089588134900KELLI REGINA WEBER STEINER                        000000000000000A4                         
1040001300192U 020000000000000000000000000000000000000000000000000000000000000000000000000000000000000000000000000000000000000000000000001302202600000000000013022026000000000000000                              00000000000000000000000       
1040001300193T 020000004910850000000   14999000002928899512928899        07072026000000000045237000000000                         091000089588134900KELLI REGINA WEBER STEINER                        000000000000000A4                         
1040001300194U 020000000000000000000000000000000000000000000000000000000000000000000000000000000000000000000000000000000000000000000000001302202600000000000013022026000000000000000                              00000000000000000000000       
1040001300195T 020000004910850000000   14999000002928900212928900        07082026000000000045237000000000                         091000089588134900KELLI REGINA WEBER STEINER                        000000000000000A4                         
1040001300196U 020000000000000000000000000000000000000000000000000000000000000000000000000000000000000000000000000000000000000000000000001302202600000000000013022026000000000000000                              00000000000000000000000       
1040001300197T 020000004910850000000   14999000002928901012928901        08092026000000000045237000000000                         091000089588134900KELLI REGINA WEBER STEINER                        000000000000000A4                         
1040001300198U 020000000000000000000000000000000000000000000000000000000000000000000000000000000000000000000000000000000000000000000000001302202600000000000013022026000000000000000                              00000000000000000000000       
1040001300199T 020000004910850000000   14999000002928902912928902        06032026000000000156037000000000                         092060579164000147X3 NEGOCIOS IMOBILIARIOS LTDA                     000000000000000                           
1040001300200U 020000000000000000000000000000000000000000000000000000000000000000000000000000000000000000000000000000000000000000000000001302202600000000000013022026000000000000000                              00000000000000000000000       
1040001300201T 020000004910850000000   14999000002928903712928903        06032026000000000043342000000000                         092060579164000147X3 NEGOCIOS IMOBILIARIOS LTDA                     000000000000000                           
1040001300202U 020000000000000000000000000000000000000000000000000000000000000000000000000000000000000000000000000000000000000000000000001302202600000000000013022026000000000000000                              00000000000000000000000       
1040001300203T 020000004910850000000   14999000002928904512928904        06042026000000000043344000000000                         092060579164000147X3 NEGOCIOS IMOBILIARIOS LTDA                     000000000000000                           
1040001300204U 020000000000000000000000000000000000000000000000000000000000000000000000000000000000000000000000000000000000000000000000001302202600000000000013022026000000000000000                              00000000000000000000000       
1040001300205T 020000004910850000000   14999000002928905312928905        06052026000000000043344000000000                         092060579164000147X3 NEGOCIOS IMOBILIARIOS LTDA                     000000000000000                           
1040001300206U 020000000000000000000000000000000000000000000000000000000000000000000000000000000000000000000000000000000000000000000000001302202600000000000013022026000000000000000                              00000000000000000000000       
1040001300207T 020000004910850000000   14999000002928906112928906        05062026000000000043344000000000                         092060579164000147X3 NEGOCIOS IMOBILIARIOS LTDA                     000000000000000                           
1040001300208U 020000000000000000000000000000000000000000000000000000000000000000000000000000000000000000000000000000000000000000000000001302202600000000000013022026000000000000000                              00000000000000000000000       
1040001300209T 020000004910850000000   14999000002928907012928907        06042026000000000023259000000000                         092060579164000147X3 NEGOCIOS IMOBILIARIOS LTDA                     000000000000000                           
1040001300210U 020000000000000000000000000000000000000000000000000000000000000000000000000000000000000000000000000000000000000000000000001302202600000000000013022026000000000000000                              00000000000000000000000       
1040001300211T 020000004910850000000   14999000002928908812928908        13022026000000000018684000000000                         092048369437000123ANGELA EING ROECKER 59461276915                   000000000000000                           
1040001300212U 020000000000000000000000000000000000000000000000000000000000000000000000000000000000000000000000000000000000000000000000001302202600000000000013022026000000000000000                              00000000000000000000000       
1040001300213T 020000004910850000000   14999000002928909612928909        06032026000000000007589000000000                         092064793822000150MILAGREXX REPRESENTACOES E CONSULTORIAS           000000000000000                           
1040001300214U 020000000000000000000000000000000000000000000000000000000000000000000000000000000000000000000000000000000000000000000000001302202600000000000013022026000000000000000                              00000000000000000000000       
1040001300215T 020000004910850000000   14999000002928910012928910        06042026000000000008432000000000                         092064793822000150MILAGREXX REPRESENTACOES E CONSULTORIAS           000000000000000                           
1040001300216U 020000000000000000000000000000000000000000000000000000000000000000000000000000000000000000000000000000000000000000000000001302202600000000000013022026000000000000000                              00000000000000000000000       
1040001300217T 020000004910850000000   14999000002928911812928911        06032026000000000095550000000000                         092064793822000150MILAGREXX REPRESENTACOES E CONSULTORIAS           000000000000000                           
1040001300218U 020000000000000000000000000000000000000000000000000000000000000000000000000000000000000000000000000000000000000000000000001302202600000000000013022026000000000000000                              00000000000000000000000       
1040001300219T 020000004910850000000   14999000002928912612928912        06032026000000000029860000000000                         092064793822000150MILAGREXX REPRESENTACOES E CONSULTORIAS           000000000000000                           
1040001300220U 020000000000000000000000000000000000000000000000000000000000000000000000000000000000000000000000000000000000000000000000001302202600000000000013022026000000000000000                              00000000000000000000000       
1040001300221T 020000004910850000000   14999000002928913412928913        06042026000000000029859000000000                         092064793822000150MILAGREXX REPRESENTACOES E CONSULTORIAS           000000000000000                           
1040001300222U 020000000000000000000000000000000000000000000000000000000000000000000000000000000000000000000000000000000000000000000000001302202600000000000013022026000000000000000                              00000000000000000000000       
1040001300223T 020000004910850000000   14999000002928914212928914        06032026000000000102924000000000                         092032676669000194ASSOCIACAO MUTUALISTA DE AUTOGESTAO DE B          000000000000000                           
1040001300224U 020000000000000000000000000000000000000000000000000000000000000000000000000000000000000000000000000000000000000000000000001302202600000000000013022026000000000000000                              00000000000000000000000       
1040001300225T 020000004910850000000   14999000002928915012928915        06052026000000000029859000000000                         092064793822000150MILAGREXX REPRESENTACOES E CONSULTORIAS           000000000000000                           
1040001300226U 020000000000000000000000000000000000000000000000000000000000000000000000000000000000000000000000000000000000000000000000001302202600000000000013022026000000000000000                              00000000000000000000000       
1040001300227T 020000004910850000000   14999000002928916912928916        05062026000000000029859000000000                         092064793822000150MILAGREXX REPRESENTACOES E CONSULTORIAS           000000000000000                           
1040001300228U 020000000000000000000000000000000000000000000000000000000000000000000000000000000000000000000000000000000000000000000000001302202600000000000013022026000000000000000                              00000000000000000000000       
1040001300229T 020000004910850000000   14999000002928917712928917        13022026000000000011858000000000                         091000004808370905JACKSON FLORENCIO MARTINS                         000000000000000                           
1040001300230U 020000000000000000000000000000000000000000000000000000000000000000000000000000000000000000000000000000000000000000000000001302202600000000000013022026000000000000000                              00000000000000000000000       
1040001300231T 020000004910850000000   14999000002928918512928918        08062026000000000014226000000000                         091000000419957910FABIO VIEIRA                                      000000000000000                           
1040001300232U 020000000000000000000000000000000000000000000000000000000000000000000000000000000000000000000000000000000000000000000000001302202600000000000013022026000000000000000                              00000000000000000000000       
1040001300233T 020000004910850000000   14999000002928919312928919        06032026000000000115859000000000                         092051289188000170AURA EMPREENDIMENTOS IMOBILIARIOS LTDA            000000000000000A4                         
1040001300234U 020000000000000000000000000000000000000000000000000000000000000000000000000000000000000000000000000000000000000000000000001302202600000000000013022026000000000000000                              00000000000000000000000       
1040001300235T 020000004910850000000   14999000002929087612929087        06032026000000000088274000000000                         092059395521000138AW ADMINISTRADORA DE BENS LTDA                    000000000000000                           
1040001300236U 020000000000000000000000000000000000000000000000000000000000000000000000000000000000000000000000000000000000000000000000001302202600000000000013022026000000000000000                              00000000000000000000000       
1040001300237T 020000004910850000000   14999000002929088412929088        06032026000000000208052000000000                         092041503040000133TMM EMPREENDIMENTOS IMOBILIARIOS LTDA             000000000000000A4                         
1040001300238U 020000000000000000000000000000000000000000000000000000000000000000000000000000000000000000000000000000000000000000000000001302202600000000000013022026000000000000000                              00000000000000000000000       
1040001300239T 020000004910850000000   14999000002929089212929089        06032026000000000024765000000000                         092015556776000160K-PACK INDUSTRIA E COMERCIO DE EMBALAGEN          000000000000000A4                         
1040001300240U 020000000000000000000000000000000000000000000000000000000000000000000000000000000000000000000000000000000000000000000000001302202600000000000013022026000000000000000                              00000000000000000000000       
1040001300241T 020000004910850000000   14999000002929090612929090        06032026000000000215139000000000                         092015556776000160K-PACK INDUSTRIA E COMERCIO DE EMBALAGEN          000000000000000A4                         
1040001300242U 020000000000000000000000000000000000000000000000000000000000000000000000000000000000000000000000000000000000000000000000001302202600000000000013022026000000000000000                              00000000000000000000000       
1040001300243T 020000004910850000000   14999000002929091412929091        06032026000000000424435000000000                         092057985146000150BACK AUTOMOVEIS LTDA                              000000000000000                           
1040001300244U 020000000000000000000000000000000000000000000000000000000000000000000000000000000000000000000000000000000000000000000000001302202600000000000013022026000000000000000                              00000000000000000000000       
1040001300245T 020000004910850000000   14999000002929092212929092        06032026000000000032938000000000                         092028662920000194T5 TECNOLOGIA LTDA                                000000000000000A4                         
1040001300246U 020000000000000000000000000000000000000000000000000000000000000000000000000000000000000000000000000000000000000000000000001302202600000000000013022026000000000000000                              00000000000000000000000       
1040001300247T 020000004910850000000   14999000002929093012929093        06042026000000000032938000000000                         092028662920000194T5 TECNOLOGIA LTDA                                000000000000000A4                         
1040001300248U 020000000000000000000000000000000000000000000000000000000000000000000000000000000000000000000000000000000000000000000000001302202600000000000013022026000000000000000                              00000000000000000000000       
1040001300249T 020000004910850000000   14999000002929094912929094        06052026000000000032938000000000                         092028662920000194T5 TECNOLOGIA LTDA                                000000000000000A4                         
1040001300250U 020000000000000000000000000000000000000000000000000000000000000000000000000000000000000000000000000000000000000000000000001302202600000000000013022026000000000000000                              00000000000000000000000       
1040001300251T 020000004910850000000   14999000002929095712929095        05062026000000000032938000000000                         092028662920000194T5 TECNOLOGIA LTDA                                000000000000000A4                         
1040001300252U 020000000000000000000000000000000000000000000000000000000000000000000000000000000000000000000000000000000000000000000000001302202600000000000013022026000000000000000                              00000000000000000000000       
1040001300253T 020000004910850000000   14999000002929096512929096        06032026000000000158926000000000                         092054825416000178B&F COMERCIO DE COMPONENTES E PECAS ELET          000000000000000A4                         
1040001300254U 020000000000000000000000000000000000000000000000000000000000000000000000000000000000000000000000000000000000000000000000001302202600000000000013022026000000000000000                              00000000000000000000000       
1040001300255T 020000004910850000000   14999000002929097312929097        06032026000000000157088000000000                         09204884289600018248.842.896 VILMAR BLOEMER                         000000000000000                           
1040001300256U 020000000000000000000000000000000000000000000000000000000000000000000000000000000000000000000000000000000000000000000000001302202600000000000013022026000000000000000                              00000000000000000000000       
1040001300257T 020000004910850000000   14999000002929098112929098        06032026000000000135187000000000                         092011466607000188MAICO CONSTANTINO LTDA                            000000000000000                           
1040001300258U 020000000000000000000000000000000000000000000000000000000000000000000000000000000000000000000000000000000000000000000000001302202600000000000013022026000000000000000                              00000000000000000000000       
1040001300259T 020000004910850000000   14999000002929099012929099        06032026000000000189132000000000                         092085245256000111BIGOMAR COMERCIO DE PECAS E OFICINA MECA          000000000000000A4                         
1040001300260U 020000000000000000000000000000000000000000000000000000000000000000000000000000000000000000000000000000000000000000000000001302202600000000000013022026000000000000000                              00000000000000000000000       
1040001300261T 020000004910850000000   14999000002929100712929100        06032026000000000124249000000000                         092005918318000170BKS COMERCIO E REPRESENTACOES LTDA                000000000000000                           
1040001300262U 020000000000000000000000000000000000000000000000000000000000000000000000000000000000000000000000000000000000000000000000001302202600000000000013022026000000000000000                              00000000000000000000000       
1040001300263T 020000004910850000000   14999000002929101512929101        06032026000000000260830000000000                         092013628140000150BRAZIL SISTEM SISTEMAS DE INFORMATICA LT          000000000000000A4                         
1040001300264U 020000000000000000000000000000000000000000000000000000000000000000000000000000000000000000000000000000000000000000000000001302202600000000000013022026000000000000000                              00000000000000000000000       
1040001300265T 020000004910850000000   14999000002929102312929102        06032026000000000343994000000000                         092082775594000177CASA DA PEDRA COMERCIO DE PEDRAS E LANCH          000000000000000A4                         
1040001300266U 020000000000000000000000000000000000000000000000000000000000000000000000000000000000000000000000000000000000000000000000001302202600000000000013022026000000000000000                              00000000000000000000000       
1040001300267T 020000004910850000000   14999000002929103112929103        06032026000000000010397000000000                         092082775594000177CASA DA PEDRA COMERCIO DE PEDRAS E LANCH          000000000000000A4                         
1040001300268U 020000000000000000000000000000000000000000000000000000000000000000000000000000000000000000000000000000000000000000000000001302202600000000000013022026000000000000000                              00000000000000000000000       
1040001300269T 020000004910850000000   14999000002929104012929104        06032026000000000010613000000000                         092018416794000134CERVEJARIA DO VALE LTDA                           000000000000000                           
1040001300270U 020000000000000000000000000000000000000000000000000000000000000000000000000000000000000000000000000000000000000000000000001302202600000000000013022026000000000000000                              00000000000000000000000       
1040001300271T 020000004910850000000   14999000002929105812929105        06032026000000001132219000000000                         092018416794000134CERVEJARIA DO VALE LTDA                           000000000000000                           
1040001300272U 020000000000000000000000000000000000000000000000000000000000000000000000000000000000000000000000000000000000000000000000001302202600000000000013022026000000000000000                              00000000000000000000000       
1040001300273T 020000004910850000000   14999000002929106612929106        08062026000000000023549000000000                         091000096658738904VALDETE DA SILVA                                  000000000000000                           
1040001300274U 020000000000000000000000000000000000000000000000000000000000000000000000000000000000000000000000000000000000000000000000001302202600000000000013022026000000000000000                              00000000000000000000000       
1040001300275T 020000004910850000000   14999000002929107412929107        07072026000000000023548000000000                         091000096658738904VALDETE DA SILVA                                  000000000000000                           
1040001300276U 020000000000000000000000000000000000000000000000000000000000000000000000000000000000000000000000000000000000000000000000001302202600000000000013022026000000000000000                              00000000000000000000000       
1040001300277T 020000004910850000000   14999000002929108212929108        07082026000000000023548000000000                         091000096658738904VALDETE DA SILVA                                  000000000000000                           
1040001300278U 020000000000000000000000000000000000000000000000000000000000000000000000000000000000000000000000000000000000000000000000001302202600000000000013022026000000000000000                              00000000000000000000000       
1040001300279T 020000004910850000000   14999000002929109012929109        08092026000000000023548000000000                         091000096658738904VALDETE DA SILVA                                  000000000000000                           
1040001300280U 020000000000000000000000000000000000000000000000000000000000000000000000000000000000000000000000000000000000000000000000001302202600000000000013022026000000000000000                              00000000000000000000000       
1040001300281T 020000004910850000000   14999000002929110412929110        06032026000000000208052000000000                         092055877595000150RAMON DOLBERT NEGOCIOS IMOBILIARIOS LTDA          000000000000000                           
1040001300282U 020000000000000000000000000000000000000000000000000000000000000000000000000000000000000000000000000000000000000000000000001302202600000000000013022026000000000000000                              00000000000000000000000       
1040001300283T 020000004910850000000   14999000002929111212929111        08062026000000000073827000000000                         091000006035668984MESSIAS MAIA DE VINCENZI                          000000000000000                           
1040001300284U 020000000000000000000000000000000000000000000000000000000000000000000000000000000000000000000000000000000000000000000000001302202600000000000013022026000000000000000                              00000000000000000000000       
1040001300285T 020000004910850000000   14999000002929112012929112        08062026000000000061701000000000                         091000080013074920EDMUNDO MACHADO CALASANS E OUTRA                  000000000000000                           
1040001300286U 020000000000000000000000000000000000000000000000000000000000000000000000000000000000000000000000000000000000000000000000001302202600000000000013022026000000000000000                              00000000000000000000000       
1040001300287T 020000004910850000000   14999000002929113912929113        06032026000000000033913000000000                         091000080013074920EDMUNDO MACHADO CALASANS E OUTRA                  000000000000000                           
1040001300288U 020000000000000000000000000000000000000000000000000000000000000000000000000000000000000000000000000000000000000000000000001302202600000000000013022026000000000000000                              00000000000000000000000       
1040001300289T 020000004910850000000   14999000002929114712929114        06032026000000000006956000000000                         092065070635000100SACRED TECH LTDA                                  000000000000000                           
1040001300290U 020000000000000000000000000000000000000000000000000000000000000000000000000000000000000000000000000000000000000000000000001302202600000000000013022026000000000000000                              00000000000000000000000       
1040001300291T 020000004910850000000   14999000002929115512929115        06032026000000000239094000000000                         092065070635000100SACRED TECH LTDA                                  000000000000000                           
1040001300292U 020000000000000000000000000000000000000000000000000000000000000000000000000000000000000000000000000000000000000000000000001302202600000000000013022026000000000000000                              00000000000000000000000       
1040001300293T 020000004910850000000   14999000002929116312929116        06032026000000000041455000000000                         092051902247000134MAO NA VACA ASSISTENCIA VETERINARIA LTDA          000000000000000A4                         
1040001300294U 020000000000000000000000000000000000000000000000000000000000000000000000000000000000000000000000000000000000000000000000001302202600000000000013022026000000000000000                              00000000000000000000000       
1040001300295T 020000004910850000000   14999000002929117112929117        06042026000000000041456000000000                         092051902247000134MAO NA VACA ASSISTENCIA VETERINARIA LTDA          000000000000000A4                         
1040001300296U 020000000000000000000000000000000000000000000000000000000000000000000000000000000000000000000000000000000000000000000000001302202600000000000013022026000000000000000                              00000000000000000000000       
1040001300297T 020000004910850000000   14999000002929118012929118        06052026000000000041456000000000                         092051902247000134MAO NA VACA ASSISTENCIA VETERINARIA LTDA          000000000000000A4                         
1040001300298U 020000000000000000000000000000000000000000000000000000000000000000000000000000000000000000000000000000000000000000000000001302202600000000000013022026000000000000000                              00000000000000000000000       
1040001300299T 020000004910850000000   14999000002929119812929119        05062026000000000041456000000000                         092051902247000134MAO NA VACA ASSISTENCIA VETERINARIA LTDA          000000000000000A4                         
1040001300300U 020000000000000000000000000000000000000000000000000000000000000000000000000000000000000000000000000000000000000000000000001302202600000000000013022026000000000000000                              00000000000000000000000       
1040001300301T 020000004910850000000   14999000002929120112929120        06032026000000000024772000000000                         092051902247000134MAO NA VACA ASSISTENCIA VETERINARIA LTDA          000000000000000A4                         
1040001300302U 020000000000000000000000000000000000000000000000000000000000000000000000000000000000000000000000000000000000000000000000001302202600000000000013022026000000000000000                              00000000000000000000000       
1040001300303T 020000004910850000000   14999000002929121012929121        06032026000000000080918000000000                         092046731281000153CIE PARTICIPACOES LTDA.                           000000000000000                           
1040001300304U 020000000000000000000000000000000000000000000000000000000000000000000000000000000000000000000000000000000000000000000000001302202600000000000013022026000000000000000                              00000000000000000000000       
1040001300305T 020000004910850000000   14999000002929122812929122        06032026000000000134462000000000                         092047498470000190CLINICA MEDICA BORBA LTDA                         000000000000000A4                         
1040001300306U 020000000000000000000000000000000000000000000000000000000000000000000000000000000000000000000000000000000000000000000000001302202600000000000013022026000000000000000                              00000000000000000000000       
1040001300307T 020000004910850000000   14999000002929123612929123        06032026000000000119522000000000                         092011304091000175CLINICA MEDICA BRACONORTENSE LTDA                 000000000000000A4                         
1040001300308U 020000000000000000000000000000000000000000000000000000000000000000000000000000000000000000000000000000000000000000000000001302202600000000000013022026000000000000000                              00000000000000000000000       
1040001300309T 020000004910850000000   14999000002929124412929124        06032026000000000196494000000000                         092082578212000115COMERCIAL AGRO SCHUELTER LTDA                     000000000000000                           
1040001300310U 020000000000000000000000000000000000000000000000000000000000000000000000000000000000000000000000000000000000000000000000001302202600000000000013022026000000000000000                              00000000000000000000000       
1040001300311T 020000004910850000000   14999000002929125212929125        06032026000000000069778000000000                         092082578212000115COMERCIAL AGRO SCHUELTER LTDA                     000000000000000                           
1040001300312U 020000000000000000000000000000000000000000000000000000000000000000000000000000000000000000000000000000000000000000000000001302202600000000000013022026000000000000000                              00000000000000000000000       
1040001300313T 020000004910850000000   14999000002929126012929126        06032026000000000490050000000000                         092018660862000106EFFISA INDUSTRIA DE MAQUINAS LTDA                 000000000000000A4                         
1040001300314U 020000000000000000000000000000000000000000000000000000000000000000000000000000000000000000000000000000000000000000000000001302202600000000000013022026000000000000000                              00000000000000000000000       
1040001300315T 020000004910850000000   14999000002929127912929127        06032026000000000163522000000000                         092003908174000145ENMENDAS DE MADEIRAS DELLA GIUSTINA LTDA          000000000000000A4                         
1040001300316U 020000000000000000000000000000000000000000000000000000000000000000000000000000000000000000000000000000000000000000000000001302202600000000000013022026000000000000000                              00000000000000000000000       
1040001300317T 020000004910850000000   14999000002929128712929128        06032026000000000095226000000000                         092063180639000116ESPACO FIT ACADEMIA LTDA                          000000000000000                           
1040001300318U 020000000000000000000000000000000000000000000000000000000000000000000000000000000000000000000000000000000000000000000000001302202600000000000013022026000000000000000                              00000000000000000000000       
1040001300319T 020000004910850000000   14999000002929129512929129        06032026000000000013866000000000                         092063180639000116ESPACO FIT ACADEMIA LTDA                          000000000000000                           
1040001300320U 020000000000000000000000000000000000000000000000000000000000000000000000000000000000000000000000000000000000000000000000001302202600000000000013022026000000000000000                              00000000000000000000000       
1040001300321T 020000004910850000000   14999000002929130912929130        06032026000000000218684000000000                         092083191973000182ESQUADRIAS DE ALUMINIO E FERRRARIA N.S.           000000000000000                           
1040001300322U 020000000000000000000000000000000000000000000000000000000000000000000000000000000000000000000000000000000000000000000000001302202600000000000013022026000000000000000                              00000000000000000000000       
1040001300323T 020000004910850000000   14999000002929131712929131        08062026000000000053964000000000                         091000034352406953VALENTINA DE BONA SALVADOR                        000000000000000                           
1040001300324U 020000000000000000000000000000000000000000000000000000000000000000000000000000000000000000000000000000000000000000000000001302202600000000000013022026000000000000000                              00000000000000000000000       
1040001300325T 020000004910850000000   14999000002929132512929132        08062026000000000084556000000000                         091000034352406953VALENTINA DE BONA SALVADOR                        000000000000000                           
1040001300326U 020000000000000000000000000000000000000000000000000000000000000000000000000000000000000000000000000000000000000000000000001302202600000000000013022026000000000000000                              00000000000000000000000       
1040001300327T 020000004910850000000   14999000002929133312929133        08062026000000000024572000000000                         091000034352406953VALENTINA DE BONA SALVADOR                        000000000000000                           
1040001300328U 020000000000000000000000000000000000000000000000000000000000000000000000000000000000000000000000000000000000000000000000001302202600000000000013022026000000000000000                              00000000000000000000000       
1040001300329T 020000004910850000000   14999000002929134112929134        08062026000000000015744000000000                         091000034352406953VALENTINA DE BONA SALVADOR                        000000000000000                           
1040001300330U 020000000000000000000000000000000000000000000000000000000000000000000000000000000000000000000000000000000000000000000000001302202600000000000013022026000000000000000                              00000000000000000000000       
1040001300331T 020000004910850000000   14999000002929135012929135        07072026000000000024570000000000                         091000034352406953VALENTINA DE BONA SALVADOR                        000000000000000                           
1040001300332U 020000000000000000000000000000000000000000000000000000000000000000000000000000000000000000000000000000000000000000000000001302202600000000000013022026000000000000000                              00000000000000000000000       
1040001300333T 020000004910850000000   14999000002929136812929136        07072026000000000015742000000000                         091000034352406953VALENTINA DE BONA SALVADOR                        000000000000000                           
1040001300334U 020000000000000000000000000000000000000000000000000000000000000000000000000000000000000000000000000000000000000000000000001302202600000000000013022026000000000000000                              00000000000000000000000       
1040001300335T 020000004910850000000   14999000002929137612929137        07082026000000000015742000000000                         091000034352406953VALENTINA DE BONA SALVADOR                        000000000000000                           
1040001300336U 020000000000000000000000000000000000000000000000000000000000000000000000000000000000000000000000000000000000000000000000001302202600000000000013022026000000000000000                              00000000000000000000000       
1040001300337T 020000004910850000000   14999000002929138412929138        07082026000000000024570000000000                         091000034352406953VALENTINA DE BONA SALVADOR                        000000000000000                           
1040001300338U 020000000000000000000000000000000000000000000000000000000000000000000000000000000000000000000000000000000000000000000000001302202600000000000013022026000000000000000                              00000000000000000000000       
1040001300339T 020000004910850000000   14999000002929139212929139        08092026000000000015742000000000                         091000034352406953VALENTINA DE BONA SALVADOR                        000000000000000                           
1040001300340U 020000000000000000000000000000000000000000000000000000000000000000000000000000000000000000000000000000000000000000000000001302202600000000000013022026000000000000000                              00000000000000000000000       
1040001300341T 020000004910850000000   14999000002929140612929140        08092026000000000024570000000000                         091000034352406953VALENTINA DE BONA SALVADOR                        000000000000000                           
1040001300342U 020000000000000000000000000000000000000000000000000000000000000000000000000000000000000000000000000000000000000000000000001302202600000000000013022026000000000000000                              00000000000000000000000       
1040001300343T 020000004910850000000   14999000002929141412929141        08062026000000000026923000000000                         092019734980000184BEGA CONTABILIDADE LTDA                           000000000000000                           
1040001300344U 020000000000000000000000000000000000000000000000000000000000000000000000000000000000000000000000000000000000000000000000001302202600000000000013022026000000000000000                              00000000000000000000000       
1040001300345T 020000004910850000000   14999000002929142212929142        06032026000000000147309000000000                         092019734980000184BEGA CONTABILIDADE LTDA                           000000000000000                           
1040001300346U 020000000000000000000000000000000000000000000000000000000000000000000000000000000000000000000000000000000000000000000000001302202600000000000013022026000000000000000                              00000000000000000000000       
1040001300347T 020000004910850000000   14999000002929143012929143        06032026000000000005306000000000                         092019734980000184BEGA CONTABILIDADE LTDA                           000000000000000                           
1040001300348U 020000000000000000000000000000000000000000000000000000000000000000000000000000000000000000000000000000000000000000000000001302202600000000000013022026000000000000000                              00000000000000000000000       
1040001300349T 020000004910850000000   14999000002929144912929144        06032026000000000139227000000000                         092019734980000184BEGA CONTABILIDADE LTDA                           000000000000000                           
1040001300350U 020000000000000000000000000000000000000000000000000000000000000000000000000000000000000000000000000000000000000000000000001302202600000000000013022026000000000000000                              00000000000000000000000       
1040001300351T 020000004910850000000   14999000002929145712929145        06032026000000000158926000000000                         092003377118000121MERCADAO DAS TINTAS LTDA                          000000000000000A4                         
1040001300352U 020000000000000000000000000000000000000000000000000000000000000000000000000000000000000000000000000000000000000000000000001302202600000000000013022026000000000000000                              00000000000000000000000       
1040001300353T 020000004910850000000   14999000002929146512929146        06032026000000000102986000000000                         092047257962000194ESSER & ESSER PARTICIPACOES LTDA                  000000000000000                           
1040001300354U 020000000000000000000000000000000000000000000000000000000000000000000000000000000000000000000000000000000000000000000000001302202600000000000013022026000000000000000                              00000000000000000000000       
1040001300355T 020000004910850000000   14999000002929147312929147        08062026000000000033849000000000                         091000006916063904PATILA VANDRESEN DE SOUZA                         000000000000000                           
1040001300356U 020000000000000000000000000000000000000000000000000000000000000000000000000000000000000000000000000000000000000000000000001302202600000000000013022026000000000000000                              00000000000000000000000       
1040001300357T 020000004910850000000   14999000002929148112929148        06032026000000000223290000000000                         092079495966000105ESTOFARIA BRACONORTENSE LTDA                      000000000000000                           
1040001300358U 020000000000000000000000000000000000000000000000000000000000000000000000000000000000000000000000000000000000000000000000001302202600000000000013022026000000000000000                              00000000000000000000000       
1040001300359T 020000004910850000000   14999000002929149012929149        06032026000000000013955000000000                         092079495966000105ESTOFARIA BRACONORTENSE LTDA                      000000000000000                           
1040001300360U 020000000000000000000000000000000000000000000000000000000000000000000000000000000000000000000000000000000000000000000000001302202600000000000013022026000000000000000                              00000000000000000000000       
1040001300361T 020000004910850000000   14999000002929150312929150        08062026000000000081261000000000                         091000041713605953SEBASTIAO MOTTA DE SOUZA                          000000000000000                           
1040001300362U 020000000000000000000000000000000000000000000000000000000000000000000000000000000000000000000000000000000000000000000000001302202600000000000013022026000000000000000                              00000000000000000000000       
1040001300363T 020000004910850000000   14999000002929151112929151        08062026000000000127171000000000                         091000041713605953SEBASTIAO MOTTA DE SOUZA                          000000000000000A4                         
1040001300364U 020000000000000000000000000000000000000000000000000000000000000000000000000000000000000000000000000000000000000000000000001302202600000000000013022026000000000000000                              00000000000000000000000       
1040001300365T 020000004910850000000   14999000002929152012929152        08062026000000000080495000000000                         091000041713605953SEBASTIAO MOTTA DE SOUZA                          000000000000000A4                         
1040001300366U 020000000000000000000000000000000000000000000000000000000000000000000000000000000000000000000000000000000000000000000000001302202600000000000013022026000000000000000                              00000000000000000000000       
1040001300367T 020000004910850000000   14999000002929153812929153        08062026000000000081261000000000                         091000041713605953SEBASTIAO MOTTA DE SOUZA                          000000000000000A4                         
1040001300368U 020000000000000000000000000000000000000000000000000000000000000000000000000000000000000000000000000000000000000000000000001302202600000000000013022026000000000000000                              00000000000000000000000       
1040001300369T 020000004910850000000   14999000002929154612929154        08062026000000000081261000000000                         091000041713605953SEBASTIAO MOTTA DE SOUZA                          000000000000000A4                         
1040001300370U 020000000000000000000000000000000000000000000000000000000000000000000000000000000000000000000000000000000000000000000000001302202600000000000013022026000000000000000                              00000000000000000000000       
1040001300371T 020000004910850000000   14999000002929155412929155        06032026000000000087179000000000                         092023160499000108DECOR CORTINAS E PERSIANAS LTDA                   000000000000000A4                         
1040001300372U 020000000000000000000000000000000000000000000000000000000000000000000000000000000000000000000000000000000000000000000000001302202600000000000013022026000000000000000                              00000000000000000000000       
1040001300373T 020000004910850000000   14999000002929156212929156        06042026000000000087181000000000                         092023160499000108DECOR CORTINAS E PERSIANAS LTDA                   000000000000000A4                         
1040001300374U 020000000000000000000000000000000000000000000000000000000000000000000000000000000000000000000000000000000000000000000000001302202600000000000013022026000000000000000                              00000000000000000000000       
1040001300375T 020000004910850000000   14999000002929157012929157        06052026000000000087181000000000                         092023160499000108DECOR CORTINAS E PERSIANAS LTDA                   000000000000000A4                         
1040001300376U 020000000000000000000000000000000000000000000000000000000000000000000000000000000000000000000000000000000000000000000000001302202600000000000013022026000000000000000                              00000000000000000000000       
1040001300377T 020000004910850000000   14999000002929158912929158        05062026000000000087181000000000                         092023160499000108DECOR CORTINAS E PERSIANAS LTDA                   000000000000000A4                         
1040001300378U 020000000000000000000000000000000000000000000000000000000000000000000000000000000000000000000000000000000000000000000000001302202600000000000013022026000000000000000                              00000000000000000000000       
1040001300379T 020000004910850000000   14999000002929159712929159        06032026000000000011918000000000                         092023160499000108DECOR CORTINAS E PERSIANAS LTDA                   000000000000000A4                         
1040001300380U 020000000000000000000000000000000000000000000000000000000000000000000000000000000000000000000000000000000000000000000000001302202600000000000013022026000000000000000                              00000000000000000000000       
1040001300381T 020000004910850000000   14999000002929160012929160        06032026000000000059604000000000                         092035386966000193MICKAEL CORREA CARBONI                            000000000000000A4                         
1040001300382U 020000000000000000000000000000000000000000000000000000000000000000000000000000000000000000000000000000000000000000000000001302202600000000000013022026000000000000000                              00000000000000000000000       
1040001300383T 020000004910850000000   14999000002929161912929161        06032026000000000148947000000000                         092035386966000193MICKAEL CORREA CARBONI                            000000000000000A4                         
1040001300384U 020000000000000000000000000000000000000000000000000000000000000000000000000000000000000000000000000000000000000000000000001302202600000000000013022026000000000000000                              00000000000000000000000       
1040001300385T 020000004910850000000   14999000002929162712929162        08062026000000000128413000000000                         091000093219865020FERNANDO ROCHA                                    000000000000000                           
1040001300386U 020000000000000000000000000000000000000000000000000000000000000000000000000000000000000000000000000000000000000000000000001302202600000000000013022026000000000000000                              00000000000000000000000       
1040001300387T 020000004910850000000   14999000002929163512929163        06032026000000000059604000000000                         092059074471000197QUALIPEL INDUSTRIA E COMERCIO DE PAPEL L          000000000000000A4                         
1040001300388U 020000000000000000000000000000000000000000000000000000000000000000000000000000000000000000000000000000000000000000000000001302202600000000000013022026000000000000000                              00000000000000000000000       
1040001300389T 020000004910850000000   14999000002929164312929164        06032026000000000127670000000000                         092059074471000197QUALIPEL INDUSTRIA E COMERCIO DE PAPEL L          000000000000000A4                         
1040001300390U 020000000000000000000000000000000000000000000000000000000000000000000000000000000000000000000000000000000000000000000000001302202600000000000013022026000000000000000                              00000000000000000000000       
1040001300391T 020000004910850000000   14999000002929165112929165        06032026000000000059604000000000                         092018128605000128QUALILUX INDUSTRIA E COMERCIO DE PAPEL L          000000000000000A4                         
1040001300392U 020000000000000000000000000000000000000000000000000000000000000000000000000000000000000000000000000000000000000000000000001302202600000000000013022026000000000000000                              00000000000000000000000       
1040001300393T 020000004910850000000   14999000002929166012929166        06032026000000000127670000000000                         092018128605000128QUALILUX INDUSTRIA E COMERCIO DE PAPEL L          000000000000000A4                         
1040001300394U 020000000000000000000000000000000000000000000000000000000000000000000000000000000000000000000000000000000000000000000000001302202600000000000013022026000000000000000                              00000000000000000000000       
1040001300395T 020000004910850000000   14999000002929167812929167        06032026000000000215185000000000                         09204623087700017046.230.877 GABRIELA OENNING BERTO                 000000000000000                           
1040001300396U 020000000000000000000000000000000000000000000000000000000000000000000000000000000000000000000000000000000000000000000000001302202600000000000013022026000000000000000                              00000000000000000000000       
1040001300397T 020000004910850000000   14999000002929168612929168        06032026000000000480226000000000                         092056058812000142GUSTAVO A. BALLE PEREZ LTDA                       000000000000000                           
1040001300398U 020000000000000000000000000000000000000000000000000000000000000000000000000000000000000000000000000000000000000000000000001302202600000000000013022026000000000000000                              00000000000000000000000       
1040001300399T 020000004910850000000   14999000002929169412929169        06032026000000000037349000000000                         092052778823000146INOVA TRANSPORTES LTDA                            000000000000000A4                         
1040001300400U 020000000000000000000000000000000000000000000000000000000000000000000000000000000000000000000000000000000000000000000000001302202600000000000013022026000000000000000                              00000000000000000000000       
1040001300401T 020000004910850000000   14999000002929170812929170        06042026000000000037351000000000                         092052778823000146INOVA TRANSPORTES LTDA                            000000000000000A4                         
1040001300402U 020000000000000000000000000000000000000000000000000000000000000000000000000000000000000000000000000000000000000000000000001302202600000000000013022026000000000000000                              00000000000000000000000       
1040001300403T 020000004910850000000   14999000002929171612929171        06052026000000000037351000000000                         092052778823000146INOVA TRANSPORTES LTDA                            000000000000000A4                         
1040001300404U 020000000000000000000000000000000000000000000000000000000000000000000000000000000000000000000000000000000000000000000000001302202600000000000013022026000000000000000                              00000000000000000000000       
1040001300405T 020000004910850000000   14999000002929172412929172        05062026000000000037351000000000                         092052778823000146INOVA TRANSPORTES LTDA                            000000000000000A4                         
1040001300406U 020000000000000000000000000000000000000000000000000000000000000000000000000000000000000000000000000000000000000000000000001302202600000000000013022026000000000000000                              00000000000000000000000       
1040001300407T 020000004910850000000   14999000002929173212929173        06032026000000000035382000000000                         092056058812000142GUSTAVO A. BALLE PEREZ LTDA                       000000000000000                           
1040001300408U 020000000000000000000000000000000000000000000000000000000000000000000000000000000000000000000000000000000000000000000000001302202600000000000013022026000000000000000                              00000000000000000000000       
1040001300409T 020000004910850000000   14999000002929174012929174        06032026000000000144094000000000                         092009688891000195MARCIO CANDIDO LTDA                               000000000000000                           
1040001300410U 020000000000000000000000000000000000000000000000000000000000000000000000000000000000000000000000000000000000000000000000001302202600000000000013022026000000000000000                              00000000000000000000000       
1040001300411T 020000004910850000000   14999000002929175912929175        06032026000000000219431000000000                         092041837417000190HAAS TECNOLOGIA EM INSUMOS AGRICOLAS LTD          000000000000000                           
1040001300412U 020000000000000000000000000000000000000000000000000000000000000000000000000000000000000000000000000000000000000000000000001302202600000000000013022026000000000000000                              00000000000000000000000       
