10400000         2829265510001450000000000000000000001070749108500000000MUNICIPIO DE BRACO DO NORTE   C ECON FEDERAL                          20302202602004500193404000000                    RETORNO-PRODUCAO                  000            
10400011T0100030 20829265510001450000000000000000000001070749108500000000MUNICIPIO DE BRACO DO NORTE                                                                                   00001934030220260000000000                          00   
1040001300001T 060000004910850000000   14999000002900037112900037        030220260000000000766140770000002900037                  092040586974000113JOSIAS BITENCOURT TORRES                          000000000000199620300                     
1040001300002U 060000000000000000000000000300850000000000000000000000000000000000000000465290000000000465290000000000000000000000000000000302202603022026000003022026000000000000000240586974000113               00000000000000000000000       
1040001300003T 060000004910850000000   14999000002911411312911411        030220260000000001935760000000002911411                  092027816878000156PINHEIRAL SUPERMERCADO LTDA                       000000000000199620300                     
1040001300004U 060000000000000000000000000452730000000000000000000000000000000000000001483030000000001483030000000000000000000000000000000302202603022026000003022026000000000000000000000000000000               00000000000000000000000       
1040001300005T 060000004910850000000   14999000002911425312911425        030220260000000001476900000000002911425                  092048340842000119PINHEIRAL SUPERMERCADO E MATERIAIS DE CO          000000000000199620300                     
1040001300006U 060000000000000000000000000317810000000000000000000000000000000000000001159090000000001159090000000000000000000000000000000302202603022026000003022026000000000000000000000000000000               00000000000000000000000       
1040001300007T 060000004910850000000   14999000002911571312911571        040220260000000000196730010000002911571                  091000002547353989JUCIMARA MAZZUCO                                  000000000000199620300                     
1040001300008U 060000000000000000000000000054870000000000000000000000000000000000000000141860000000000141860000000000000000000000000000000302202603022026000003022026000000000000000100002547353989               00000000000000000000000       
1040001300009T 060000004910850000000   14999000002912651012912651        090220260000000000214581040107002912651                  091000003668249962ANNY GIANNE CAMILO                                000000000000199610300                     
1040001300010U 060000000000000000000000000043200000000000000000000000000000000000000000171380000000000171380000000000000000000000000000000302202603022026000003022026000000000000000100049545914904               00000000000000000000000       
1040001300011T 060000004910850000000   14999000002929507012929507        160320260000000008117230000000002929507                  091000068554915968ADELICO OENNING                                   000000000000199620300                     
1040001300012U 060000000000000000000000000000000000000000000000000000000000000000000008117230000000008117230000000000000000000000000000000302202603022026000003022026000000000000000000000000000000               00000000000000000000000       
1040001300013T 060000004910850000000   14999000002929853212929853        170220260000000000559980000000002929853                  092005591782000285BOING & DACOREGIO LTDA                            000000000000199620300                     
1040001300014U 060000000000000000000000000000000000000000000000000000000000000000000000559980000000000559980000000000000000000000000000000302202603022026000003022026000000000000000000000000000000               00000000000000000000000       
1040001300015T 060000004910850000000   14999000002929855912929855        170220260000000000019800000000002929855                  092005591782000102BOING & DACOREGIO LTDA                            000000000000199620300                     
1040001300016U 060000000000000000000000000000000000000000000000000000000000000000000000019800000000000019800000000000000000000000000000000302202603022026000003022026000000000000000000000000000000               00000000000000000000000       
1040001300017T 060000004910850000000   14999000002930681012930681        010320260000000000077530000000002930681                  091000060737190949MANOEL CARLOS OURIQUES VIEIRA                     000000000000199620300                     
1040001300018U 060000000000000000000000000000000000000000000000000000000000000000000000077530000000000077530000000000000000000000000000000302202603022026000003022026000000000000000000000000000000               00000000000000000000000       
1040001300019T 060000004910850000000   14999000002930683712930683        010320260000000000077530000000002930683                  091000051383284920JOACIR OURIQUES VIEIRA                            000000000000199620300                     
1040001300020U 060000000000000000000000000000000000000000000000000000000000000000000000077530000000000077530000000000000000000000000000000302202603022026000003022026000000000000000000000000000000               00000000000000000000000       
1040001300021T 060000004910850000000   14999000002933533012933533        030220260000000001044780000000002933533                  091000092795099934LEVINO BLASIUS                                    000000000000199620300                     
1040001300022U 060000000000000000000000000358130000000000000000000000000000000000000000686650000000000686650000000000000000000000000000000302202603022026000003022026000000000000000000000000000000               00000000000000000000000       
1040001300023T 060000004910850000000   14999000002934011312934011        050320260000000000189490000000002934011                  092049842957000174VISADA BN ARQUITETURA, ENGENHARIA E AMBI          000000000000199620300                     
1040001300024U 060000000000000000000000000000000000000000000000000000000000000000000000189490000000000189490000000000000000000000000000000302202603022026000003022026000000000000000000000000000000               00000000000000000000000       
1040001300025T 060000004910850000000   14999000002791748012791748        040220260000000000178137560734602791748                  092037483139000143MARLON SOUZA OLIVEIRA LTDA                        000000000000199040301                     
1040001300026U 060000000000000000000000000000000000000000000000000000000000000000000000178130000000000178130000000000000000000000000000000302202604022026000004022026000000000000000100009906577959               00000000000000000000000       
1040001300027T 060000004910850000000   14999000002792619612792619        080220260000000000466180010073802792619                  092036457744000187EDSON JUNIOR WIGGERS LTDA                         000000000000199040301                     
1040001300028U 060000000000000000000000000000000000000000000000000000000000000000000000466180000000000466180000000000000000000000000000000302202604022026000004022026000000000000000100010764499998               00000000000000000000000       
1040001300029T 060000004910850000000   14999000002803408612803408        040220260000000000178217560056502803408                  092022718436000153FILHOS PEREIRA LTDA                               000000000000199040101                     
1040001300030U 060000000000000000000000000000000000000000000000000000000000000000000000178210000000000178210000000000000000000000000000000302202604022026000004022026000000000000000200000000000000               00000000000000000000000       
1040001300031T 060000004910850000000   14999000002859001912859001        090220260000000000226460010073802859001                  091000082697396934SALETE BEZA DA SILVA                              000000000000199040301                     
1040001300032U 060000000000000000000000000000000000000000000000000000000000000000000000226460000000000226460000000000000000000000000000000302202604022026000004022026000000000000000100045621470915               00000000000000000000000       
1040001300033T 060000004910850000000   14999000002877608212877608        090220260000000000284943410463502877608                  091000054284023934ADECIR PEREIRA MAGNUS                             000000000000199040301                     
1040001300034U 060000000000000000000000000000000000000000000000000000000000000000000000284940000000000284940000000000000000000000000000000302202604022026000004022026000000000000000100073996971915               00000000000000000000000       
1040001300035T 060000004910850000000   14999000002894334512894334        100220260000000000568697560056502894334                  091000025236245915ADILIA DE OLIVEIRA SOUZA                          000000000000199040301                     
1040001300036U 060000000000000000000000000118160000000000000000000000000000000000000000450530000000000450530000000000000000000000000000000302202604022026000004022026000000000000000100030581222920               00000000000000000000000       
1040001300037T 060000004910850000000   14999000002898014312898014        240220260000000001320961360140502898014                  092029928110000108CM SERVICOS LTDA                                  000000000000199040301                     
1040001300038U 060000000000000000000000000000000000000000000000000000000000000000000001320960000000001320960000000000000000000000000000000302202604022026000004022026000000000000000100081648600930               00000000000000000000000       
1040001300039T 060000004910850000000   14999000002900049512900049        030220260000000005906790010073802900049                  091000090689712987MAURICIO MEURER                                   000000000000199040301                     
1040001300040U 060000000000000000000000001922530000000000000000000000000000000000000003984260000000003984260000000000000000000000000000000302202604022026000004022026000000000000000100090689712987               00000000000000000000000       
1040001300041T 060000004910850000000   14999000002900070312900070        030220260000000001558372600000102900070                  091000085438375968VANILDA LEANDRO OURIQUES                          000000000000199040301                     
1040001300042U 060000000000000000000000000000000000000000000000000000000000000000000001558370000000001558370000000000000000000000000000000302202604022026000004022026000000000000000255465224000160               00000000000000000000000       
1040001300043T 060000004910850000000   14999000002900111412900111        030220260000000000624987560056502900111                  091000010323511953LAURO MATES                                       000000000000199040301                     
1040001300044U 060000000000000000000000000348510000000000000000000000000000000000000000276470000000000276470000000000000000000000000000000302202604022026000004022026000000000000000216579541000156               00000000000000000000000       
1040001300045T 060000004910850000000   14999000002900117312900117        030220260000000000368730810000102900117                  091000009723635992HENRIQUE JUNIOR OENNING                           000000000000199040301                     
1040001300046U 060000000000000000000000000000000000000000000000000000000000000000000000368730000000000368730000000000000000000000000000000302202604022026000004022026000000000000000100009723635992               00000000000000000000000       
1040001300047T 060000004910850000000   14999000002900729512900729        090220260000000001311791040107002900729                  091000037855000925JOSE BLASIUS                                      000000000000199020101                     
1040001300048U 060000000000000000000000000610210000000000000000000000000000000000000000701580000000000701580000000000000000000000000000000302202604022026000004022026000000000000000000000000000000               00000000000000000000000       
1040001300049T 060000004910850000000   14999000002906001312906001        030220260000000001342677560056502906001                  092000557712000106BALDEBRAS METALURGICA LTDA                        000000000000199040301                     
1040001300050U 060000000000000000000000000000000000000000000000000000000000000000000001342670000000001342670000000000000000000000000000000302202604022026000004022026000000000000000200557712000106               00000000000000000000000       
1040001300051T 060000004910850000000   14999000002906370512906370        050220260000000000234857480590502906370                  091000022387170997JOAO FURLAN DE BONA                               000000000000199040301                     
1040001300052U 060000000000000000000000000066320000000000000000000000000000000000000000168530000000000168530000000000000000000000000000000302202604022026000004022026000000000000000240496862000171               00000000000000000000000       
1040001300053T 060000004910850000000   14999000002906514712906514        060220260000000000785271040445302906514                  091000067899803934HARLEY TOMAZ                                      000000000000199020101                     
1040001300054U 060000000000000000000000000294540000000000000000000000000000000000000000490730000000000490730000000000000000000000000000000302202604022026000004022026000000000000000000000000000000               00000000000000000000000       
1040001300055T 060000004910850000000   14999000002906732812906732        060320260000000001956221360140502906732                  092049996876000129ALLETS SERVICOS LTDA                              000000000000199040301                     
1040001300056U 060000000000000000000000000000000000000000000000000000000000000000000001956220000000001956220000000000000000000000000000000302202604022026000004022026000000000000000249996876000129               00000000000000000000000       
1040001300057T 060000004910850000000   14999000002907515012907515        060320260000000002087751040107002907515                  092028011802000116CLINIFACE CLINICA ODONTOLOGICA LTDA               000000000000199020101                     
1040001300058U 060000000000000000000000000000000000000000000000000000000000000000000002087750000000002087750000000000000000000000000000000302202604022026000004022026000000000000000000000000000000               00000000000000000000000       
1040001300059T 060000004910850000000   14999000002907520712907520        060320260000000000942001040107002907520                  092028011802000116CLINIFACE CLINICA ODONTOLOGICA LTDA               000000000000199020101                     
1040001300060U 060000000000000000000000000000000000000000000000000000000000000000000000942000000000000942000000000000000000000000000000000302202604022026000004022026000000000000000000000000000000               00000000000000000000000       
1040001300061T 060000004910850000000   14999000002909377912909377        080620260000000000361161040107002909377                  091000047253835972SALESIO DUTRA                                     000000000000199020101                     
1040001300062U 060000000000000000000000000090290000000000000000000000000000000000000000270870000000000270870000000000000000000000000000000302202604022026000004022026000000000000000000000000000000               00000000000000000000000       
1040001300063T 060000004910850000000   14999000002911437712911437        030220260000000001160950330333902911437                  091000073922218920SIRLENE MATES JOCKEN                              000000000000199040301                     
1040001300064U 060000000000000000000000000376800000000000000000000000000000000000000000784150000000000784150000000000000000000000000000000302202604022026000004022026000000000000000243489766000194               00000000000000000000000       
1040001300065T 060000004910850000000   14999000002911558612911558        040220260000000001356107560056502911558                  091000004582026907LUCAS VOLPATO DA SILVA                            000000000000199040301                     
1040001300066U 060000000000000000000000000259690000000000000000000000000000000000000001096410000000001096410000000000000000000000000000000302202604022026000004022026000000000000000254595527000135               00000000000000000000000       
1040001300067T 060000004910850000000   14999000002911786412911786        090220260000000000348621040107002911786                  092081619967000158UNIAO IND.COM.DE QUADROS LTDA                     000000000000199060301                     
1040001300068U 060000000000000000000000000131470000000000000000000000000000000000000000217150000000000217150000000000000000000000000000000302202604022026000004022026000000000000000000000000000000               00000000000000000000000       
1040001300069T 060000004910850000000   14999000002913636212913636        050620260000000000697781040107002913636                  092017312389000103LEO ADMINISTRADORA DE IMOVEIS LTDA                000000000000199020101                     
1040001300070U 060000000000000000000000000000000000000000000000000000000000000000000000697780000000000697780000000000000000000000000000000302202604022026000004022026000000000000000000000000000000               00000000000000000000000       
1040001300071T 060000004910850000000   14999000002921236012921236        060320260000000002647940010073802921236                  092054172864000110BN SERVICOS FINANCEIROS LTDA                      000000000000199040301                     
1040001300072U 060000000000000000000000000000000000000000000000000000000000000000000002647940000000002647940000000000000000000000000000000302202604022026000004022026000000000000000100004275510992               00000000000000000000000       
1040001300073T 060000004910850000000   14999000002922275712922275        100220260000000000088807480590502922275                  091000008326905976Juciara Anastacio Vieira                          000000000000199040301                     
1040001300074U 060000000000000000000000000000000000000000000000000000000000000000000000088800000000000088800000000000000000000000000000000302202604022026000004022026000000000000000100008326905976               00000000000000000000000       
1040001300075T 060000004910850000000   14999000002923397012923397        060320260000000001103421360140502923397                  092031098638000130DAFF PARTICIPACOES LTDA                           000000000000199040301                     
1040001300076U 060000000000000000000000000000000000000000000000000000000000000000000001103420000000001103420000000000000000000000000000000302202604022026000004022026000000000000000100090765079968               00000000000000000000000       
1040001300077T 060000004910850000000   14999000002923503412923503        260220260000000000510547480590502923503                  091000006447973989MARCELO BECKER RICKEN                             000000000000199040301                     
1040001300078U 060000000000000000000000000000000000000000000000000000000000000000000000510540000000000510540000000000000000000000000000000302202604022026000004022026000000000000000100006447973989               00000000000000000000000       
1040001300079T 060000004910850000000   14999000002923504212923504        260320260000000000516997480590502923504                  091000006447973989MARCELO BECKER RICKEN                             000000000000199040301                     
1040001300080U 060000000000000000000000000000000000000000000000000000000000000000000000516990000000000516990000000000000000000000000000000302202604022026000004022026000000000000000100006447973989               00000000000000000000000       
1040001300081T 060000004910850000000   14999000002923531012923531        270420260000000000523377480590502923531                  091000006447973989MARCELO BECKER RICKEN                             000000000000199040301                     
1040001300082U 060000000000000000000000000000000000000000000000000000000000000000000000523370000000000523370000000000000000000000000000000302202604022026000004022026000000000000000100006447973989               00000000000000000000000       
1040001300083T 060000004910850000000   14999000002923853012923853        060320260000000002592641040107002923853                  091000005434271963AMANDA PICKLER BRATTI                             000000000000199060301                     
1040001300084U 060000000000000000000000000000000000000000000000000000000000000000000002592640000000002592640000000000000000000000000000000302202604022026000004022026000000000000000000000000000000               00000000000000000000000       
1040001300085T 060000004910850000000   14999000002923874212923874        030220260000000000000021040107002923874                  092019348706000177COMERCIAL DE ALIMENTOS DOCES ROSINHA LTD          000000000000199020101                     
1040001300086U 060000000000001980000000000000000000000000000000000000000000000000000000002000000000000002000000000000000000000000000000000302202604022026000004022026000000000000000000000000000000               00000000000000000000000       
1040001300087T 060000004910850000000   14999000002923877712923877        030220260000000000000021040107002923877                  092004563019000105DOMICIO JERONIMO LTDA                             000000000000199020101                     
1040001300088U 060000000000001980000000000000000000000000000000000000000000000000000000002000000000000002000000000000000000000000000000000302202604022026000004022026000000000000000000000000000000               00000000000000000000000       
1040001300089T 060000004910850000000   14999000002923887412923887        030220260000000000015160010268802923887                  091000001886892903INACIO BOEING                                     000000000000199040301                     
1040001300090U 060000000000000000000000000000000000000000000000000000000000000000000000015160000000000015160000000000000000000000000000000302202604022026000004022026000000000000000100001886892903               00000000000000000000000       
1040001300091T 060000004910850000000   14999000002923888212923888        030220260000000000015160010268802923888                  091000001886892903INACIO BOEING                                     000000000000199040301                     
1040001300092U 060000000000000000000000000000000000000000000000000000000000000000000000015160000000000015160000000000000000000000000000000302202604022026000004022026000000000000000100001886892903               00000000000000000000000       
1040001300093T 060000004910850000000   14999000002923909912923909        030220260000000001000177480590502923909                  092013048463000175KN ESPELHOS LTDA                                  000000000000199040301                     
1040001300094U 060000000000000000000000000000000000000000000000000000000000000000000001000170000000001000170000000000000000000000000000000302202604022026000004022026000000000000000213048463000256               00000000000000000000000       
1040001300095T 060000004910850000000   14999000002924724512924724        030220260000000000117235090000102924724                  092045038788000163RVA RESTAURANTE E PIZZARIA LTDA                   000000000000199040301                     
1040001300096U 060000000000000000000000000000000000000000000000000000000000000000000000117230000000000117230000000000000000000000000000000302202604022026000004022026000000000000000245038788000163               00000000000000000000000       
1040001300097T 060000004910850000000   14999000002924936112924936        190220260000000000378682600000102924936                  091000011631569902ZAQUEU BOMBAZAR                                   000000000000199040301                     
1040001300098U 060000000000000000000000000000000000000000000000000000000000000000000000378680000000000378680000000000000000000000000000000302202604022026000004022026000000000000000100011631569902               00000000000000000000000       
1040001300099T 060000004910850000000   14999000002930239412930239        180220260000000000003601040107002930239                  091000054239362920PEDRO JOAO MORAES                                 000000000000199020101                     
1040001300100U 060000000000000000000000000000000000000000000000000000000000000000000000003600000000000003600000000000000000000000000000000302202604022026000004022026000000000000000000000000000000               00000000000000000000000       
1040001300101T 060000004910850000000   14999000002930258012930258        100220260000000000002737560056502930258                  092045241184000110ESTETICA BRACO DO NORTE LTDA                      000000000000199040301                     
1040001300102U 060000000000000000000000000000000000000000000000000000000000000000000000002730000000000002730000000000000000000000000000000302202604022026000004022026000000000000000245241184000110               00000000000000000000000       
1040001300103T 060000004910850000000   14999000002930466412930466        170220260000000000126910010027202930466                  092050238298000493IFEIER BIJUTERIAS E ACESSORIOS LTDA               000000000000199040301                     
1040001300104U 060000000000000000000000000000000000000000000000000000000000000000000000126910000000000126910000000000000000000000000000000302202604022026000004022026000000000000000100023815028825               00000000000000000000000       
1040001300105T 060000004910850000000   14999000002930467212930467        170220260000000000117230010027202930467                  092050238298000493IFEIER BIJUTERIAS E ACESSORIOS LTDA               000000000000199040301                     
1040001300106U 060000000000000000000000000000000000000000000000000000000000000000000000117230000000000117230000000000000000000000000000000302202604022026000004022026000000000000000100023815028825               00000000000000000000000       
1040001300107T 060000004910850000000   14999000002930733712930733        020320260000000000077531040107002930733                  091000008143190927GUILHERME SOUZA EDUARDO                           000000000000199060301                     
1040001300108U 060000000000000000000000000000000000000000000000000000000000000000000000077530000000000077530000000000000000000000000000000302202604022026000004022026000000000000000000000000000000               00000000000000000000000       
1040001300109T 060000004910850000000   14999000002933509812933509        020320260000000000115447560056502933509                  092020778368000192NASA PRE MOLDADOS E CONSTRUCOES LTDA              000000000000199040301                     
1040001300110U 060000000000000000000000000000000000000000000000000000000000000000000000115440000000000115440000000000000000000000000000000302202604022026000004022026000000000000000220778368000192               00000000000000000000000       
1040001300111T 060000004910850000000   14999000002933634512933634        020320260000000002552320010073802933634                  091000064316220900FATIMA MARIA DE BONA CANCILIER                    000000000000199040301                     
1040001300112U 060000000000000000000000000000000000000000000000000000000000000000000002552320000000002552320000000000000000000000000000000302202604022026000004022026000000000000000100064316220900               00000000000000000000000       
1040001300113T 060000004910850000000   14999000002933666312933666        030520260000000002815231360176002933666                  092063333350000190D2 INVESTIMENTOS E PARTICIPACOES LTDA             000000000000199040301                     
1040001300114U 060000000000000000000000000000000000000000000000000000000000000000000002815230000000002815230000000000000000000000000000000302202604022026000004022026000000000000000235701277000126               00000000000000000000000       
1040001300115T 060000004910850000000   14999000002933809712933809        100220260000000000117237560056502933809                  092048628245000194RK TRANSPORTES E COMERCIO DE CEREAIS LTD          000000000000199040301                     
1040001300116U 060000000000000000000000000000000000000000000000000000000000000000000000117230000000000117230000000000000000000000000000000302202604022026000004022026000000000000000248628245000194               00000000000000000000000       
1040001300117T 060000004910850000000   14999000002933812712933812        040520260000000002717231330262802933812                  091000002162424959VANIO NAZARIO                                     000000000000199040301                     
1040001300118U 060000000000000000000000000000000000000000000000000000000000000000000002717230000000002717230000000000000000000000000000000302202604022026000004022026000000000000000100002162424959               00000000000000000000000       
1040001300119T 060000004910850000000   14999000002933957312933957        050320260000000008164617560056502933957                  091000010996760962SCHIRLEY BESSA TORRES                             000000000000199040301                     
1040001300120U 060000000000000000000000000000000000000000000000000000000000000000000008164610000000008164610000000000000000000000000000000302202604022026000004022026000000000000000100001654040940               00000000000000000000000       
1040001300121T 060000004910850000000   14999000002934012112934012        030220260000000000405130010073802934012                  091000092404154915FELICITA VANDRESE VIEMES                          000000000000199040301                     
1040001300122U 060000000000000000000000000102780000000000000000000000000000000000000000302350000000000302350000000000000000000000000000000302202604022026000004022026000000000000000100085399019949               00000000000000000000000       
1040001300123T 060000004910850000000   14999000002934013012934013        020320260000000000077533480000102934013                  091000048919950920DIVO MEURER DE ANDRADE                            000000000000199040301                     
1040001300124U 060000000000000000000000000000000000000000000000000000000000000000000000077530000000000077530000000000000000000000000000000302202604022026000004022026000000000000000100004688316909               00000000000000000000000       
1040001300125T 020000004910850000000   14999000002909913012909913        10022026000000000011772000000000                         092009423897000130CAVALHEIRO MAQUINAS LTDA ME                       000000000000000A4                         
1040001300126U 020000000000000000000000000000000000000000000000000000000000000000000000000000000000000000000000000000000000000000000000000302202600000000000000000000000000000000000                              00000000000000000000000       
1040001300127T 020000004910850000000   14999000002909918112909918        10022026000000000050214000000000                         092002432724000563JS LABORATORIO DE ANALISES CLINICAS LTDA          000000000000000A4                         
1040001300128U 020000000000000000000000000000000000000000000000000000000000000000000000000000000000000000000000000000000000000000000000000302202600000000000000000000000000000000000                              00000000000000000000000       
1040001300129T 020000004910850000000   14999000002909926212909926        10022026000000000000800000000000                         092002814090000180ASSOCIACAO COMUNITARIA BRACONORTENSE              000000000000000                           
1040001300130U 020000000000000000000000000000000000000000000000000000000000000000000000000000000000000000000000000000000000000000000000000302202600000000000000000000000000000000000                              00000000000000000000000       
1040001300131T 020000004910850000000   14999000002909930012909930        10022026000000000002612000000000                         092006067388000124SI REFRIGERACAO LTDA                              000000000000000A4                         
1040001300132U 020000000000000000000000000000000000000000000000000000000000000000000000000000000000000000000000000000000000000000000000000302202600000000000000000000000000000000000                              00000000000000000000000       
1040001300133T 020000004910850000000   14999000002909946712909946        10022026000000000439040000000000                         092014524108000198RAFAEL AUTOMOVEIS LTDA                            000000000000000A4                         
1040001300134U 020000000000000000000000000000000000000000000000000000000000000000000000000000000000000000000000000000000000000000000000000302202600000000000000000000000000000000000                              00000000000000000000000       
1040001300135T 020000004910850000000   14999000002909953012909953        10022026000000000004320000000000                         092005626926000100UNESA INDUSTRIA E COMERCIO DE MAQUINAS L          000000000000000A4                         
1040001300136U 020000000000000000000000000000000000000000000000000000000000000000000000000000000000000000000000000000000000000000000000000302202600000000000000000000000000000000000                              00000000000000000000000       
1040001300137T 020000004910850000000   14999000002909957212909957        10022026000000000004456000000000                         092002705039000130LUCRETUR AGENCIA DE VIAGENS E TURISMO LT          000000000000000A4                         
1040001300138U 020000000000000000000000000000000000000000000000000000000000000000000000000000000000000000000000000000000000000000000000000302202600000000000000000000000000000000000                              00000000000000000000000       
1040001300139T 020000004910850000000   14999000002909958012909958        10022026000000000162511000000000                         092007943402000179VANCREDI ASSESSORIA EMPRESARIAL E DE COB          000000000000000                           
1040001300140U 020000000000000000000000000000000000000000000000000000000000000000000000000000000000000000000000000000000000000000000000000302202600000000000000000000000000000000000                              00000000000000000000000       
1040001300141T 020000004910850000000   14999000002909961012909961        10022026000000000103319000000000                         092007432074000146MACROFRIO EQUIPAMENTOS E ISOLAMENTOS PAR          000000000000000A4                         
1040001300142U 020000000000000000000000000000000000000000000000000000000000000000000000000000000000000000000000000000000000000000000000000302202600000000000000000000000000000000000                              00000000000000000000000       
1040001300143T 020000004910850000000   14999000002909964512909964        10022026000000000603413000000000                         092001273320000692CONCRETAR CONCRETO USINADO LTDA                   000000000000000A4                         
1040001300144U 020000000000000000000000000000000000000000000000000000000000000000000000000000000000000000000000000000000000000000000000000302202600000000000000000000000000000000000                              00000000000000000000000       
1040001300145T 020000004910850000000   14999000002922236612922236        10022026000000000932048000000000                         092002032856000174BRACO DO NORTE AUTO PECAS LTDA                    000000000000000A4                         
1040001300146U 020000000000000000000000000000000000000000000000000000000000000000000000000000000000000000000000000000000000000000000000000302202600000000000000000000000000000000000                              00000000000000000000000       
1040001300147T 020000004910850000000   14999000002922238212922238        10022026000000000097400000000000                         092002760947000126RICHARD NIEHUES & CIA LTDA                        000000000000000                           
1040001300148U 020000000000000000000000000000000000000000000000000000000000000000000000000000000000000000000000000000000000000000000000000302202600000000000000000000000000000000000                              00000000000000000000000       
1040001300149T 020000004910850000000   14999000002922239012922239        10022026000000000326440000000000                         092004209189000188COLEGIO RADIAR LTDA                               000000000000000A4                         
1040001300150U 020000000000000000000000000000000000000000000000000000000000000000000000000000000000000000000000000000000000000000000000000302202600000000000000000000000000000000000                              00000000000000000000000       
1040001300151T 020000004910850000000   14999000002922240412922240        10022026000000000034240000000000                         092010683074000123ADILSON ADILIO CARDOSO LTDA                       000000000000000A4                         
1040001300152U 020000000000000000000000000000000000000000000000000000000000000000000000000000000000000000000000000000000000000000000000000302202600000000000000000000000000000000000                              00000000000000000000000       
1040001300153T 020000004910850000000   14999000002922241212922241        10022026000000000112043000000000                         092021172278000116KD REFRIGERACAO LTDA                              000000000000000A4                         
1040001300154U 020000000000000000000000000000000000000000000000000000000000000000000000000000000000000000000000000000000000000000000000000302202600000000000000000000000000000000000                              00000000000000000000000       
1040001300155T 020000004910850000000   14999000002922243912922243        10022026000000000050413000000000                         092002429265000135NUTRIVALE REPRESENTACOES LTDA - ME                000000000000000                           
1040001300156U 020000000000000000000000000000000000000000000000000000000000000000000000000000000000000000000000000000000000000000000000000302202600000000000000000000000000000000000                              00000000000000000000000       
1040001300157T 020000004910850000000   14999000002922244712922244        10022026000000000242620000000000                         092014663374000100SILVA & SILVA RECAPAGEM LTDA                      000000000000000                           
1040001300158U 020000000000000000000000000000000000000000000000000000000000000000000000000000000000000000000000000000000000000000000000000302202600000000000000000000000000000000000                              00000000000000000000000       
1040001300159T 020000004910850000000   14999000002922245512922245        10022026000000000938399000000000                         092002063330000151CLINICA RAD.DR ENEAS PAULO A DA ROCHA LT          000000000000000                           
1040001300160U 020000000000000000000000000000000000000000000000000000000000000000000000000000000000000000000000000000000000000000000000000302202600000000000000000000000000000000000                              00000000000000000000000       
1040001300161T 020000004910850000000   14999000002922247112922247        10022026000000000016800000000000                         091000007557148908MARIANE DA ROSA PEREIRA                           000000000000000A4                         
1040001300162U 020000000000000000000000000000000000000000000000000000000000000000000000000000000000000000000000000000000000000000000000000302202600000000000000000000000000000000000                              00000000000000000000000       
1040001300163T 020000004910850000000   14999000002922248012922248        10022026000000002031213000000000                         092000204957000150SILBECK SOFTWARE LTDA                             000000000000000A4                         
1040001300164U 020000000000000000000000000000000000000000000000000000000000000000000000000000000000000000000000000000000000000000000000000302202600000000000000000000000000000000000                              00000000000000000000000       
1040001300165T 020000004910850000000   14999000002922250112922250        10022026000000000008000000000000                         091000009383054921NATALIA BUSS TURAZZI                              000000000000000A4                         
1040001300166U 020000000000000000000000000000000000000000000000000000000000000000000000000000000000000000000000000000000000000000000000000302202600000000000000000000000000000000000                              00000000000000000000000       
1040001300167T 020000004910850000000   14999000002922251012922251        10022026000000000040000000000000                         091000008488260946RAFAEL TEIXEIRA VALENTIN                          000000000000000                           
1040001300168U 020000000000000000000000000000000000000000000000000000000000000000000000000000000000000000000000000000000000000000000000000302202600000000000000000000000000000000000                              00000000000000000000000       
1040001300169T 020000004910850000000   14999000002922252812922252        10022026000000000027472000000000                         092001456022000123LUIZ NORBERTO SCHLICKMANN LTDA                    000000000000000                           
1040001300170U 020000000000000000000000000000000000000000000000000000000000000000000000000000000000000000000000000000000000000000000000000302202600000000000000000000000000000000000                              00000000000000000000000       
1040001300171T 020000004910850000000   14999000002922253612922253        10022026000000000001200000000000                         092004742267000105CASA DO PICA-PAU MAQUINAS AGRICOLAS LTDA          000000000000000A4                         
1040001300172U 020000000000000000000000000000000000000000000000000000000000000000000000000000000000000000000000000000000000000000000000000302202600000000000000000000000000000000000                              00000000000000000000000       
1040001300173T 020000004910850000000   14999000002922254412922254        10022026000000000031692000000000                         092003073349000141SANDRA IMOVEIS LTDA                               000000000000000                           
1040001300174U 020000000000000000000000000000000000000000000000000000000000000000000000000000000000000000000000000000000000000000000000000302202600000000000000000000000000000000000                              00000000000000000000000       
1040001300175T 020000004910850000000   14999000002922255212922255        10022026000000000166471000000000                         092010764705000724IPG - INSTITUTO DE POS GRADUACAO LTDA             000000000000000                           
1040001300176U 020000000000000000000000000000000000000000000000000000000000000000000000000000000000000000000000000000000000000000000000000302202600000000000000000000000000000000000                              00000000000000000000000       
1040001300177T 020000004910850000000   14999000002922256012922256        10022026000000000009600000000000                         092010332049000103CASTELINHO MOTORS LTDA                            000000000000000                           
1040001300178U 020000000000000000000000000000000000000000000000000000000000000000000000000000000000000000000000000000000000000000000000000302202600000000000000000000000000000000000                              00000000000000000000000       
1040001300179T 020000004910850000000   14999000002922257912922257        10022026000000000033160000000000                         092000682958000100REFRINORTE REFRIGERACAO LTDA                      000000000000000A4                         
1040001300180U 020000000000000000000000000000000000000000000000000000000000000000000000000000000000000000000000000000000000000000000000000302202600000000000000000000000000000000000                              00000000000000000000000       
1040001300181T 020000004910850000000   14999000002922258712922258        10022026000000000038162000000000                         092010222216000155JF SOLUTIONS INDUSTRIAIS LTDA                     000000000000000A4                         
1040001300182U 020000000000000000000000000000000000000000000000000000000000000000000000000000000000000000000000000000000000000000000000000302202600000000000000000000000000000000000                              00000000000000000000000       
1040001300183T 020000004910850000000   14999000002922259512922259        10022026000000000012800000000000                         092017312389000103LEO ADMINISTRADORA DE IMOVEIS LTDA                000000000000000A4                         
1040001300184U 020000000000000000000000000000000000000000000000000000000000000000000000000000000000000000000000000000000000000000000000000302202600000000000000000000000000000000000                              00000000000000000000000       
1040001300185T 020000004910850000000   14999000002922260912922260        10022026000000000475801000000000                         092015686263000173CLINI VALE CLINICA MEDICA LTDA                    000000000000000A4                         
1040001300186U 020000000000000000000000000000000000000000000000000000000000000000000000000000000000000000000000000000000000000000000000000302202600000000000000000000000000000000000                              00000000000000000000000       
1040001300187T 020000004910850000000   14999000002922261712922261        10022026000000000058544000000000                         092023822379000110ODAIR MARCELINO FERREIRA                          000000000000000                           
1040001300188U 020000000000000000000000000000000000000000000000000000000000000000000000000000000000000000000000000000000000000000000000000302202600000000000000000000000000000000000                              00000000000000000000000       
1040001300189T 020000004910850000000   14999000002922262512922262        10022026000000000003536000000000                         092002432724000725JS LABORATORIO DE ANALISES CLINICAS LTDA          000000000000000A4                         
1040001300190U 020000000000000000000000000000000000000000000000000000000000000000000000000000000000000000000000000000000000000000000000000302202600000000000000000000000000000000000                              00000000000000000000000       
1040001300191T 020000004910850000000   14999000002922263312922263        10022026000000000351843000000000                         092009354487000185MAGRINI SERVICOS MEDICOS LTDA                     000000000000000A4                         
1040001300192U 020000000000000000000000000000000000000000000000000000000000000000000000000000000000000000000000000000000000000000000000000302202600000000000000000000000000000000000                              00000000000000000000000       
1040001300193T 020000004910850000000   14999000002922264112922264        10022026000000000000120000000000                         092009089425000436PREVITAL LABORATORIO DE ANALISES CLINICA          000000000000000A4                         
1040001300194U 020000000000000000000000000000000000000000000000000000000000000000000000000000000000000000000000000000000000000000000000000302202600000000000000000000000000000000000                              00000000000000000000000       
1040001300195T 020000004910850000000   14999000002922265012922265        10022026000000001998096000000000                         092024092271000182SOFTCAM SOLUCOES LTDA                             000000000000000                           
1040001300196U 020000000000000000000000000000000000000000000000000000000000000000000000000000000000000000000000000000000000000000000000000302202600000000000000000000000000000000000                              00000000000000000000000       
1040001300197T 020000004910850000000   14999000002922266812922266        10022026000000000003240000000000                         092009658940000147TAKAEL COMERCIO E TRANSPORTES DE CEREAIS          000000000000000                           
1040001300198U 020000000000000000000000000000000000000000000000000000000000000000000000000000000000000000000000000000000000000000000000000302202600000000000000000000000000000000000                              00000000000000000000000       
1040001300199T 020000004910850000000   14999000002922267612922267        10022026000000000007676000000000                         092010593158000176ANTONIO MIRANDA JUNIOR                            000000000000000A4                         
1040001300200U 020000000000000000000000000000000000000000000000000000000000000000000000000000000000000000000000000000000000000000000000000302202600000000000000000000000000000000000                              00000000000000000000000       
1040001300201T 020000004910850000000   14999000002922268412922268        10022026000000000064145000000000                         092007361957000102COMCRED FOMENTO MERCANTIL LTDA                    000000000000000                           
1040001300202U 020000000000000000000000000000000000000000000000000000000000000000000000000000000000000000000000000000000000000000000000000302202600000000000000000000000000000000000                              00000000000000000000000       
1040001300203T 020000004910850000000   14999000002922269212922269        10022026000000000007160000000000                         092009356547000107TOP CENTER COMERCIO DE MAQUINAS LTDA              000000000000000A4                         
1040001300204U 020000000000000000000000000000000000000000000000000000000000000000000000000000000000000000000000000000000000000000000000000302202600000000000000000000000000000000000                              00000000000000000000000       
1040001300205T 020000004910850000000   14999000002922270612922270        10022026000000000032895000000000                         092004972095000166SAMURAI PARTICIPACAOES LTDA                       000000000000000                           
1040001300206U 020000000000000000000000000000000000000000000000000000000000000000000000000000000000000000000000000000000000000000000000000302202600000000000000000000000000000000000                              00000000000000000000000       
1040001300207T 020000004910850000000   14999000002922272212922272        10022026000000000000800000000000                         092016603390000124JUNIOR DA SILVA LTDA                              000000000000000A4                         
1040001300208U 020000000000000000000000000000000000000000000000000000000000000000000000000000000000000000000000000000000000000000000000000302202600000000000000000000000000000000000                              00000000000000000000000       
1040001300209T 020000004910850000000   14999000002922273012922273        10022026000000000305406000000000                         092007054573000147VINCITORE VEICULOS LTDA                           000000000000000A4                         
1040001300210U 020000000000000000000000000000000000000000000000000000000000000000000000000000000000000000000000000000000000000000000000000302202600000000000000000000000000000000000                              00000000000000000000000       
1040001300211T 020000004910850000000   14999000002922274912922274        10022026000000000198175000000000                         092008706238000149FERNANDO VOLPATO ACADEMIA LTDA                    000000000000000A4                         
1040001300212U 020000000000000000000000000000000000000000000000000000000000000000000000000000000000000000000000000000000000000000000000000302202600000000000000000000000000000000000                              00000000000000000000000       
1040001300213T 020000004910850000000   14999000002922275712922275        10022026000000000008880000000000                         091000008326905976Juciara Anastacio Vieira                          000000000000000                           
1040001300214U 020000000000000000000000000000000000000000000000000000000000000000000000000000000000000000000000000000000000000000000000000302202600000000000000000000000000000000000                              00000000000000000000000       
1040001300215T 020000004910850000000   14999000002922276512922276        10022026000000000002584000000000                         091000005355236960DIEGO DOMINGOS ESPINDOLA                          000000000000000A4                         
1040001300216U 020000000000000000000000000000000000000000000000000000000000000000000000000000000000000000000000000000000000000000000000000302202600000000000000000000000000000000000                              00000000000000000000000       
1040001300217T 020000004910850000000   14999000002922277312922277        10022026000000000083410000000000                         092034788374000135KIMBERLI GARCIA MATES                             000000000000000A4                         
1040001300218U 020000000000000000000000000000000000000000000000000000000000000000000000000000000000000000000000000000000000000000000000000302202600000000000000000000000000000000000                              00000000000000000000000       
1040001300219T 020000004910850000000   14999000002922278112922278        10022026000000000127992000000000                         092007578004000109EVERALDO DA SILVA FERREIRA                        000000000000000                           
1040001300220U 020000000000000000000000000000000000000000000000000000000000000000000000000000000000000000000000000000000000000000000000000302202600000000000000000000000000000000000                              00000000000000000000000       
1040001300221T 020000004910850000000   14999000002922279012922279        10022026000000000074095000000000                         092008043677000119COMPRA CERTA COMERCIO DE VEICULOS E MOTO          000000000000000A4                         
1040001300222U 020000000000000000000000000000000000000000000000000000000000000000000000000000000000000000000000000000000000000000000000000302202600000000000000000000000000000000000                              00000000000000000000000       
1040001300223T 020000004910850000000   14999000002922280312922280        10022026000000000105600000000000                         092026442024002723FACIL PROMOTORA DE VENDAS E SERVICOS S/A          000000000000000                           
1040001300224U 020000000000000000000000000000000000000000000000000000000000000000000000000000000000000000000000000000000000000000000000000302202600000000000000000000000000000000000                              00000000000000000000000       
1040001300225T 020000004910850000000   14999000002922281112922281        10022026000000000108676000000000                         092008195203000192VIDA PLENA CENTRO DE SAUDE LTDA                   000000000000000A4                         
1040001300226U 020000000000000000000000000000000000000000000000000000000000000000000000000000000000000000000000000000000000000000000000000302202600000000000000000000000000000000000                              00000000000000000000000       
1040001300227T 020000004910850000000   14999000002922282012922282        10022026000000000157126000000000                         092012728433000147LOMPA REPRESENTACOES LTDA ME                      000000000000000                           
1040001300228U 020000000000000000000000000000000000000000000000000000000000000000000000000000000000000000000000000000000000000000000000000302202600000000000000000000000000000000000                              00000000000000000000000       
1040001300229T 020000004910850000000   14999000002922283812922283        10022026000000000171800000000000                         092023087314000179ENGTER ENGENHARIA SS                              000000000000000A4                         
1040001300230U 020000000000000000000000000000000000000000000000000000000000000000000000000000000000000000000000000000000000000000000000000302202600000000000000000000000000000000000                              00000000000000000000000       
1040001300231T 020000004910850000000   14999000002922284612922284        10022026000000000355700000000000                         092012936637000173TRACO FORTE CONCRETOS LTDA                        000000000000000A4                         
1040001300232U 020000000000000000000000000000000000000000000000000000000000000000000000000000000000000000000000000000000000000000000000000302202600000000000000000000000000000000000                              00000000000000000000000       
1040001300233T 020000004910850000000   14999000002922285412922285        10022026000000000156939000000000                         092022469904000101JOANA PRA LTDA                                    000000000000000A4                         
1040001300234U 020000000000000000000000000000000000000000000000000000000000000000000000000000000000000000000000000000000000000000000000000302202600000000000000000000000000000000000                              00000000000000000000000       
1040001300235T 020000004910850000000   14999000002922286212922286        10022026000000002598630000000000                         092012731480000140CLINICA DE IMAGEM E DIAGNOSTICO DO VALE           000000000000000A4                         
1040001300236U 020000000000000000000000000000000000000000000000000000000000000000000000000000000000000000000000000000000000000000000000000302202600000000000000000000000000000000000                              00000000000000000000000       
1040001300237T 020000004910850000000   14999000002922287012922287        10022026000000000015250000000000                         092035803317000140ALEX JUNIOR WIEMES                                000000000000000A4                         
1040001300238U 020000000000000000000000000000000000000000000000000000000000000000000000000000000000000000000000000000000000000000000000000302202600000000000000000000000000000000000                              00000000000000000000000       
1040001300239T 020000004910850000000   14999000002922288912922288        10022026000000000136760000000000                         092016796341000155EDER WIEMES LTDA                                  000000000000000A4                         
1040001300240U 020000000000000000000000000000000000000000000000000000000000000000000000000000000000000000000000000000000000000000000000000302202600000000000000000000000000000000000                              00000000000000000000000       
1040001300241T 020000004910850000000   14999000002922289712922289        10022026000000000010000000000000                         092022770941000147MURILO COLONETTI BACK                             000000000000000                           
1040001300242U 020000000000000000000000000000000000000000000000000000000000000000000000000000000000000000000000000000000000000000000000000302202600000000000000000000000000000000000                              00000000000000000000000       
1040001300243T 020000004910850000000   14999000002922290012922290        10022026000000000009036000000000                         092016749396000104PRIMOS GUINCHOS LTDA                              000000000000000A4                         
1040001300244U 020000000000000000000000000000000000000000000000000000000000000000000000000000000000000000000000000000000000000000000000000302202600000000000000000000000000000000000                              00000000000000000000000       
1040001300245T 020000004910850000000   14999000002922291912922291        10022026000000000048182000000000                         092037166307000177DEBONA COMERCIO DE VEICULOS LTDA                  000000000000000                           
1040001300246U 020000000000000000000000000000000000000000000000000000000000000000000000000000000000000000000000000000000000000000000000000302202600000000000000000000000000000000000                              00000000000000000000000       
1040001300247T 020000004910850000000   14999000002922292712922292        10022026000000000069200000000000                         092033524327000111HELPPDESK SERVICO DE SUPORTE LTDA                 000000000000000A4                         
1040001300248U 020000000000000000000000000000000000000000000000000000000000000000000000000000000000000000000000000000000000000000000000000302202600000000000000000000000000000000000                              00000000000000000000000       
1040001300249T 020000004910850000000   14999000002922293512922293        10022026000000000068392000000000                         092016695624000100FLACH INDUSTRIA DE CARREGADORES  EQUIPAM          000000000000000A4                         
1040001300250U 020000000000000000000000000000000000000000000000000000000000000000000000000000000000000000000000000000000000000000000000000302202600000000000000000000000000000000000                              00000000000000000000000       
1040001300251T 020000004910850000000   14999000002922294312922294        10022026000000001373115000000000                         092002432724000130JS LABORATORIO DE ANALISES CLINICAS LTDA          000000000000000A4                         
1040001300252U 020000000000000000000000000000000000000000000000000000000000000000000000000000000000000000000000000000000000000000000000000302202600000000000000000000000000000000000                              00000000000000000000000       
1040001300253T 020000004910850000000   14999000002922295112922295        10022026000000000013764000000000                         092038831290000198AZS SERVICOS ADMINISTRATIVOS LTDA                 000000000000000A4                         
1040001300254U 020000000000000000000000000000000000000000000000000000000000000000000000000000000000000000000000000000000000000000000000000302202600000000000000000000000000000000000                              00000000000000000000000       
1040001300255T 020000004910850000000   14999000002922296012922296        10022026000000000012000000000000                         092010553085000199RODRIGUES & VIRTUOSO PROJETOS AGROPECUAR          000000000000000A4                         
1040001300256U 020000000000000000000000000000000000000000000000000000000000000000000000000000000000000000000000000000000000000000000000000302202600000000000000000000000000000000000                              00000000000000000000000       
1040001300257T 020000004910850000000   14999000002922297812922297        10022026000000000026424000000000                         092010934913000139DF IMPORTACAO E FABRICACAO DE EQUIPAMENT          000000000000000A4                         
1040001300258U 020000000000000000000000000000000000000000000000000000000000000000000000000000000000000000000000000000000000000000000000000302202600000000000000000000000000000000000                              00000000000000000000000       
1040001300259T 020000004910850000000   14999000002922298612922298        10022026000000000086890000000000                         092017106991000194GRL REPRESENTACOES LTDA                           000000000000000                           
1040001300260U 020000000000000000000000000000000000000000000000000000000000000000000000000000000000000000000000000000000000000000000000000302202600000000000000000000000000000000000                              00000000000000000000000       
1040001300261T 020000004910850000000   14999000002922299412922299        10022026000000000061838000000000                         092018445301000194LAUNI VEICULOS LTDA                               000000000000000A4                         
1040001300262U 020000000000000000000000000000000000000000000000000000000000000000000000000000000000000000000000000000000000000000000000000302202600000000000000000000000000000000000                              00000000000000000000000       
1040001300263T 020000004910850000000   14999000002922300112922300        10022026000000000004000000000000                         092012713820000100FRAGA CONSTRUCOES E ENGENHARIA LTDA               000000000000000A4                         
1040001300264U 020000000000000000000000000000000000000000000000000000000000000000000000000000000000000000000000000000000000000000000000000302202600000000000000000000000000000000000                              00000000000000000000000       
1040001300265T 020000004910850000000   14999000002922301012922301        10022026000000001204490000000000                         092041778823000120SUICOM COMERCIO E SERVICOS LTDA                   000000000000000A4                         
1040001300266U 020000000000000000000000000000000000000000000000000000000000000000000000000000000000000000000000000000000000000000000000000302202600000000000000000000000000000000000                              00000000000000000000000       
1040001300267T 020000004910850000000   14999000002922302812922302        10022026000000000096320000000000                         092042526733000104EDVANIA VIEIRA OLIVEIRA                           000000000000000A4                         
1040001300268U 020000000000000000000000000000000000000000000000000000000000000000000000000000000000000000000000000000000000000000000000000302202600000000000000000000000000000000000                              00000000000000000000000       
1040001300269T 020000004910850000000   14999000002922303612922303        10022026000000000135000000000000                         092021304239000125IRMAOS PERON LTDA ME                              000000000000000A4                         
1040001300270U 020000000000000000000000000000000000000000000000000000000000000000000000000000000000000000000000000000000000000000000000000302202600000000000000000000000000000000000                              00000000000000000000000       
1040001300271T 020000004910850000000   14999000002922304412922304        10022026000000000015048000000000                         092043878132000123SCHUEROFF ASSESSORIA VETERINARIA LTDA             000000000000000                           
1040001300272U 020000000000000000000000000000000000000000000000000000000000000000000000000000000000000000000000000000000000000000000000000302202600000000000000000000000000000000000                              00000000000000000000000       
1040001300273T 020000004910850000000   14999000002922305212922305        10022026000000000005640000000000                         092083072421000155MARISON DA SILVA SOMBRIO ME                       000000000000000                           
1040001300274U 020000000000000000000000000000000000000000000000000000000000000000000000000000000000000000000000000000000000000000000000000302202600000000000000000000000000000000000                              00000000000000000000000       
1040001300275T 020000004910850000000   14999000002922306012922306        10022026000000000626000000000000                         092021802825000108LUCAS HENRIQUE ORTOPEDISTA LTDA                   000000000000000                           
1040001300276U 020000000000000000000000000000000000000000000000000000000000000000000000000000000000000000000000000000000000000000000000000302202600000000000000000000000000000000000                              00000000000000000000000       
1040001300277T 020000004910850000000   14999000002922307912922307        10022026000000001005631000000000                         092017211866000144LOGPRO SERVICOS ADMINISTRATIVOS PARA TER          000000000000000                           
1040001300278U 020000000000000000000000000000000000000000000000000000000000000000000000000000000000000000000000000000000000000000000000000302202600000000000000000000000000000000000                              00000000000000000000000       
1040001300279T 020000004910850000000   14999000002922308712922308        10022026000000000267387000000000                         092021498575000156LIDI TRANSPORTES                                  000000000000000A4                         
1040001300280U 020000000000000000000000000000000000000000000000000000000000000000000000000000000000000000000000000000000000000000000000000302202600000000000000000000000000000000000                              00000000000000000000000       
1040001300281T 020000004910850000000   14999000002922309512922309        10022026000000000193549000000000                         092022827872000160REALIZA MULTIMARCAS LTDA                          000000000000000A4                         
1040001300282U 020000000000000000000000000000000000000000000000000000000000000000000000000000000000000000000000000000000000000000000000000302202600000000000000000000000000000000000                              00000000000000000000000       
1040001300283T 020000004910850000000   14999000002922310912922310        10022026000000000008400000000000                         092031759482000191OLIMPO CENTRO DE TREINAMENTO LTDA                 000000000000000                           
1040001300284U 020000000000000000000000000000000000000000000000000000000000000000000000000000000000000000000000000000000000000000000000000302202600000000000000000000000000000000000                              00000000000000000000000       
1040001300285T 020000004910850000000   14999000002922311712922311        10022026000000000098930000000000                         092018404908000126JEFERSON SCHUELTER                                000000000000000A4                         
1040001300286U 020000000000000000000000000000000000000000000000000000000000000000000000000000000000000000000000000000000000000000000000000302202600000000000000000000000000000000000                              00000000000000000000000       
1040001300287T 020000004910850000000   14999000002922312512922312        10022026000000000037280000000000                         092018397502000163MARCIO SPERRY DA SILVA LTDA                       000000000000000                           
1040001300288U 020000000000000000000000000000000000000000000000000000000000000000000000000000000000000000000000000000000000000000000000000302202600000000000000000000000000000000000                              00000000000000000000000       
1040001300289T 020000004910850000000   14999000002922313312922313        10022026000000000082237000000000                         092085241339001376UNIMED DE TUBARAO COOPERATIVA DE TRABALH          000000000000000A4                         
1040001300290U 020000000000000000000000000000000000000000000000000000000000000000000000000000000000000000000000000000000000000000000000000302202600000000000000000000000000000000000                              00000000000000000000000       
1040001300291T 020000004910850000000   14999000002922314112922314        10022026000000000014495000000000                         092018665439000107FABIO DE J. DAMASCENO                             000000000000000A4                         
1040001300292U 020000000000000000000000000000000000000000000000000000000000000000000000000000000000000000000000000000000000000000000000000302202600000000000000000000000000000000000                              00000000000000000000000       
1040001300293T 020000004910850000000   14999000002922315012922315        10022026000000000045440000000000                         092034329046000170DELTA MEDICINA DO TRABALHO LTDA                   000000000000000A4                         
1040001300294U 020000000000000000000000000000000000000000000000000000000000000000000000000000000000000000000000000000000000000000000000000302202600000000000000000000000000000000000                              00000000000000000000000       
1040001300295T 020000004910850000000   14999000002922316812922316        10022026000000000037280000000000                         092028924349000139ODONTOLOGIA MEURER LTDA                           000000000000000                           
1040001300296U 020000000000000000000000000000000000000000000000000000000000000000000000000000000000000000000000000000000000000000000000000302202600000000000000000000000000000000000                              00000000000000000000000       
1040001300297T 020000004910850000000   14999000002922317612922317        10022026000000000219833000000000                         092033457233000177G.C. SERVICOS MEDICOS LTDA                        000000000000000A4                         
1040001300298U 020000000000000000000000000000000000000000000000000000000000000000000000000000000000000000000000000000000000000000000000000302202600000000000000000000000000000000000                              00000000000000000000000       
1040001300299T 020000004910850000000   14999000002922318412922318        10022026000000001734480000000000                         092014311217000127CLIMBA SISTEMAS LTDA                              000000000000000A4                         
1040001300300U 020000000000000000000000000000000000000000000000000000000000000000000000000000000000000000000000000000000000000000000000000302202600000000000000000000000000000000000                              00000000000000000000000       
1040001300301T 020000004910850000000   14999000002922319212922319        10022026000000000016388000000000                         092040050855000222M4 STORE COMERCIO DIGITAL LTDA                    000000000000000                           
1040001300302U 020000000000000000000000000000000000000000000000000000000000000000000000000000000000000000000000000000000000000000000000000302202600000000000000000000000000000000000                              00000000000000000000000       
1040001300303T 020000004910850000000   14999000002922320612922320        10022026000000000019400000000000                         09203992809300015439.928.093 PEDRO CONCEICAO DOS SANTOS             000000000000000A4                         
1040001300304U 020000000000000000000000000000000000000000000000000000000000000000000000000000000000000000000000000000000000000000000000000302202600000000000000000000000000000000000                              00000000000000000000000       
1040001300305T 020000004910850000000   14999000002922321412922321        10022026000000000213542000000000                         092050290638000182MF PECAS E ACESSORIOS LTDA                        000000000000000A4                         
1040001300306U 020000000000000000000000000000000000000000000000000000000000000000000000000000000000000000000000000000000000000000000000000302202600000000000000000000000000000000000                              00000000000000000000000       
1040001300307T 020000004910850000000   14999000002922322212922322        10022026000000000038076000000000                         092030228086000175EDMARA DELLA GIUSTINA VOLPATO DA SILVA            000000000000000                           
1040001300308U 020000000000000000000000000000000000000000000000000000000000000000000000000000000000000000000000000000000000000000000000000302202600000000000000000000000000000000000                              00000000000000000000000       
1040001300309T 020000004910850000000   14999000002922323012922323        10022026000000000000002000000000                         092007605075000145SUPER LIDER ALIMENTOS LTDA                        000000000000000A4                         
1040001300310U 020000000000000000000000000000000000000000000000000000000000000000000000000000000000000000000000000000000000000000000000000302202600000000000000000000000000000000000                              00000000000000000000000       
1040001300311T 020000004910850000000   14999000002922324912922324        10022026000000000327687000000000                         092026040911000136R4 SOLUCOES CONTABEIS LTDA                        000000000000000A4                         
1040001300312U 020000000000000000000000000000000000000000000000000000000000000000000000000000000000000000000000000000000000000000000000000302202600000000000000000000000000000000000                              00000000000000000000000       
1040001300313T 020000004910850000000   14999000002922325712922325        10022026000000000128355000000000                         092026510256000132RVC CLINICA MEDICA LTDA                           000000000000000                           
1040001300314U 020000000000000000000000000000000000000000000000000000000000000000000000000000000000000000000000000000000000000000000000000302202600000000000000000000000000000000000                              00000000000000000000000       
1040001300315T 020000004910850000000   14999000002922326512922326        10022026000000000178886000000000                         092046147616000190OLIVIO DELA JUSTINA 75782820934                   000000000000000                           
1040001300316U 020000000000000000000000000000000000000000000000000000000000000000000000000000000000000000000000000000000000000000000000000302202600000000000000000000000000000000000                              00000000000000000000000       
1040001300317T 020000004910850000000   14999000002922327312922327        10022026000000000001240000000000                         09202822150200016128.221.502 JORDANA DA SILVA SPINDOLA WIG          000000000000000                           
1040001300318U 020000000000000000000000000000000000000000000000000000000000000000000000000000000000000000000000000000000000000000000000000302202600000000000000000000000000000000000                              00000000000000000000000       
1040001300319T 020000004910850000000   14999000002922328112922328        10022026000000000031708000000000                         092027835456000128ANDRE LUIZ CORSI                                  000000000000000A4                         
1040001300320U 020000000000000000000000000000000000000000000000000000000000000000000000000000000000000000000000000000000000000000000000000302202600000000000000000000000000000000000                              00000000000000000000000       
1040001300321T 020000004910850000000   14999000002922329012922329        10022026000000000028072000000000                         092032240387000140PM CAMARGO REPRESENTACOES LTDA                    000000000000000                           
1040001300322U 020000000000000000000000000000000000000000000000000000000000000000000000000000000000000000000000000000000000000000000000000302202600000000000000000000000000000000000                              00000000000000000000000       
1040001300323T 020000004910850000000   14999000002922330312922330        10022026000000000357087000000000                         092032015811000152DUTRA PRE MOLDADOS LTDA                           000000000000000A4                         
1040001300324U 020000000000000000000000000000000000000000000000000000000000000000000000000000000000000000000000000000000000000000000000000302202600000000000000000000000000000000000                              00000000000000000000000       
1040001300325T 020000004910850000000   14999000002922331112922331        10022026000000000046800000000000                         092027758311000170DAMINA LTDA                                       000000000000000A4                         
1040001300326U 020000000000000000000000000000000000000000000000000000000000000000000000000000000000000000000000000000000000000000000000000302202600000000000000000000000000000000000                              00000000000000000000000       
1040001300327T 020000004910850000000   14999000002922332012922332        10022026000000000032000000000000                         092028212725000162MEUSUL PORTAL DE NOTICIAS LTDA                    000000000000000                           
1040001300328U 020000000000000000000000000000000000000000000000000000000000000000000000000000000000000000000000000000000000000000000000000302202600000000000000000000000000000000000                              00000000000000000000000       
1040001300329T 020000004910850000000   14999000002922333812922333        10022026000000000005280000000000                         092039591153000196GRAN CAR VEICULOS OS MULTIMARCAS LTDA             000000000000000A4                         
1040001300330U 020000000000000000000000000000000000000000000000000000000000000000000000000000000000000000000000000000000000000000000000000302202600000000000000000000000000000000000                              00000000000000000000000       
1040001300331T 020000004910850000000   14999000002922334612922334        10022026000000000335664000000000                         092028621967000100G3 AUTOMATION INDUSTRIA E COMERCIO DE MA          000000000000000A4                         
1040001300332U 020000000000000000000000000000000000000000000000000000000000000000000000000000000000000000000000000000000000000000000000000302202600000000000000000000000000000000000                              00000000000000000000000       
1040001300333T 020000004910850000000   14999000002922335412922335        10022026000000000000004000000000                         092041726401000100RF FREIOS SERVICOS LTDA                           000000000000000                           
1040001300334U 020000000000000000000000000000000000000000000000000000000000000000000000000000000000000000000000000000000000000000000000000302202600000000000000000000000000000000000                              00000000000000000000000       
1040001300335T 020000004910850000000   14999000002922336212922336        10022026000000000007200000000000                         092036154835000143EDUARDO WITTHINRICH BIANCHINI 0594630398          000000000000000A4                         
1040001300336U 020000000000000000000000000000000000000000000000000000000000000000000000000000000000000000000000000000000000000000000000000302202600000000000000000000000000000000000                              00000000000000000000000       
1040001300337T 020000004910850000000   14999000002922337012922337        10022026000000000191946000000000                         092035363726000173COLEGIO RADIAR INFANTIL LTDA                      000000000000000                           
1040001300338U 020000000000000000000000000000000000000000000000000000000000000000000000000000000000000000000000000000000000000000000000000302202600000000000000000000000000000000000                              00000000000000000000000       
1040001300339T 020000004910850000000   14999000002922338912922338        10022026000000000142940000000000                         092040968809000126ELESUL INSTALACAO E MANUTENCAO ELETRICA           000000000000000                           
1040001300340U 020000000000000000000000000000000000000000000000000000000000000000000000000000000000000000000000000000000000000000000000000302202600000000000000000000000000000000000                              00000000000000000000000       
1040001300341T 020000004910850000000   14999000002922339712922339        10022026000000000037200000000000                         092029171497000192VP ASSESSORIA EMPRESARIAL E DE COBRANCA           000000000000000A4                         
1040001300342U 020000000000000000000000000000000000000000000000000000000000000000000000000000000000000000000000000000000000000000000000000302202600000000000000000000000000000000000                              00000000000000000000000       
1040001300343T 020000004910850000000   14999000002922340012922340        10022026000000000016500000000000                         092059473382000113JOICE ANTUNES PSICOLOGIA LTDA                     000000000000000                           
1040001300344U 020000000000000000000000000000000000000000000000000000000000000000000000000000000000000000000000000000000000000000000000000302202600000000000000000000000000000000000                              00000000000000000000000       
1040001300345T 020000004910850000000   14999000002922341912922341        10022026000000000158797000000000                         092046010694000149MICHEL MATIAS REPRESENTACOES COMERCIAIS           000000000000000A4                         
1040001300346U 020000000000000000000000000000000000000000000000000000000000000000000000000000000000000000000000000000000000000000000000000302202600000000000000000000000000000000000                              00000000000000000000000       
1040001300347T 020000004910850000000   14999000002922342712922342        10022026000000000087048000000000                         092058520514000158HD SERVICOS MEDICOS LTDA                          000000000000000A4                         
1040001300348U 020000000000000000000000000000000000000000000000000000000000000000000000000000000000000000000000000000000000000000000000000302202600000000000000000000000000000000000                              00000000000000000000000       
1040001300349T 020000004910850000000   14999000002922344312922344        10022026000000000049400000000000                         092035304496000171VALERIA DANTAS DE ARAUJO                          000000000000000A4                         
1040001300350U 020000000000000000000000000000000000000000000000000000000000000000000000000000000000000000000000000000000000000000000000000302202600000000000000000000000000000000000                              00000000000000000000000       
1040001300351T 020000004910850000000   14999000002922345112922345        10022026000000000008000000000000                         092039955046000108AGLAIE BOTEGA POSSAMAI SOCIEDADE INDIVID          000000000000000                           
1040001300352U 020000000000000000000000000000000000000000000000000000000000000000000000000000000000000000000000000000000000000000000000000302202600000000000000000000000000000000000                              00000000000000000000000       
1040001300353T 020000004910850000000   14999000002922346012922346        10022026000000000112596000000000                         092035520797000132TRUCK CENTER SOMBRIO BORRACHARIA E ALINH          000000000000000A4                         
1040001300354U 020000000000000000000000000000000000000000000000000000000000000000000000000000000000000000000000000000000000000000000000000302202600000000000000000000000000000000000                              00000000000000000000000       
1040001300355T 020000004910850000000   14999000002922347812922347        10022026000000000086000000000000                         092078522174000101PREIS COMERCIAL AGROPECUARIA                      000000000000000A4                         
1040001300356U 020000000000000000000000000000000000000000000000000000000000000000000000000000000000000000000000000000000000000000000000000302202600000000000000000000000000000000000                              00000000000000000000000       
1040001300357T 020000004910850000000   14999000002922348612922348        10022026000000001045480000000000                         092035701277000126CIADOCARRO VEICULOS MULTIMARCAS LTDA              000000000000000A4                         
1040001300358U 020000000000000000000000000000000000000000000000000000000000000000000000000000000000000000000000000000000000000000000000000302202600000000000000000000000000000000000                              00000000000000000000000       
1040001300359T 020000004910850000000   14999000002922349412922349        10022026000000000044074000000000                         092044895672000188L.C. PROAGRO LTDA                                 000000000000000A4                         
1040001300360U 020000000000000000000000000000000000000000000000000000000000000000000000000000000000000000000000000000000000000000000000000302202600000000000000000000000000000000000                              00000000000000000000000       
1040001300361T 020000004910850000000   14999000002922350812922350        10022026000000000019703000000000                         092037821450000155JMORGAN COMERCIO DIGITAL LTDA                     000000000000000A4                         
1040001300362U 020000000000000000000000000000000000000000000000000000000000000000000000000000000000000000000000000000000000000000000000000302202600000000000000000000000000000000000                              00000000000000000000000       
1040001300363T 020000004910850000000   14999000002922351612922351        10022026000000000100000000000000                         092037418277000149LIDERALTO LTDA                                    000000000000000A4                         
1040001300364U 020000000000000000000000000000000000000000000000000000000000000000000000000000000000000000000000000000000000000000000000000302202600000000000000000000000000000000000                              00000000000000000000000       
1040001300365T 020000004910850000000   14999000002922354012922354        10022026000000000088980000000000                         092053163375000139THALLES INSTALACOES DE FIBRA LTDA                 000000000000000                           
1040001300366U 020000000000000000000000000000000000000000000000000000000000000000000000000000000000000000000000000000000000000000000000000302202600000000000000000000000000000000000                              00000000000000000000000       
1040001300367T 020000004910850000000   14999000002922356712922356        10022026000000000001600000000000                         092041760565000154SANTOS SERVICOS DE TERRAPLANAGEM LTDA             000000000000000A4                         
1040001300368U 020000000000000000000000000000000000000000000000000000000000000000000000000000000000000000000000000000000000000000000000000302202600000000000000000000000000000000000                              00000000000000000000000       
1040001300369T 020000004910850000000   14999000002922357512922357        10022026000000000007000000000000                         092037507101000163DIRLEIA SPINDOLA 06038461906                      000000000000000                           
1040001300370U 020000000000000000000000000000000000000000000000000000000000000000000000000000000000000000000000000000000000000000000000000302202600000000000000000000000000000000000                              00000000000000000000000       
1040001300371T 020000004910850000000   14999000002922358312922358        10022026000000000003168000000000                         092051838091000170ASSOCIACAO DE AMPARO AOS SEGURADOS DO I.          000000000000000A4                         
1040001300372U 020000000000000000000000000000000000000000000000000000000000000000000000000000000000000000000000000000000000000000000000000302202600000000000000000000000000000000000                              00000000000000000000000       
1040001300373T 020000004910850000000   14999000002922359112922359        10022026000000000098186000000000                         092047277121000149UNIC CONSULTORIA E PROMOCAO DE VENDAS LT          000000000000000                           
1040001300374U 020000000000000000000000000000000000000000000000000000000000000000000000000000000000000000000000000000000000000000000000000302202600000000000000000000000000000000000                              00000000000000000000000       
1040001300375T 020000004910850000000   14999000002922360512922360        10022026000000000192827000000000                         092049995941000100SEVEN AUTO SOM LTDA                               000000000000000                           
1040001300376U 020000000000000000000000000000000000000000000000000000000000000000000000000000000000000000000000000000000000000000000000000302202600000000000000000000000000000000000                              00000000000000000000000       
1040001300377T 020000004910850000000   14999000002922361312922361        10022026000000000019200000000000                         092044978256000143RAFAELLA DA SILVA HOLMER LTDA                     000000000000000                           
1040001300378U 020000000000000000000000000000000000000000000000000000000000000000000000000000000000000000000000000000000000000000000000000302202600000000000000000000000000000000000                              00000000000000000000000       
1040001300379T 020000004910850000000   14999000002922362112922362        10022026000000000062336000000000                         092049109824000193VALDINEI BLASIUS LTDA                             000000000000000                           
1040001300380U 020000000000000000000000000000000000000000000000000000000000000000000000000000000000000000000000000000000000000000000000000302202600000000000000000000000000000000000                              00000000000000000000000       
1040001300381T 020000004910850000000   14999000002922363012922363        10022026000000000460741000000000                         092050305141000190REFERENCIA MULTIMARCAS LTDA                       000000000000000A4                         
1040001300382U 020000000000000000000000000000000000000000000000000000000000000000000000000000000000000000000000000000000000000000000000000302202600000000000000000000000000000000000                              00000000000000000000000       
1040001300383T 020000004910850000000   14999000002922364812922364        10022026000000000075587000000000                         092042926670000183LESSA'S MULTIMARCAS LTDA                          000000000000000A4                         
1040001300384U 020000000000000000000000000000000000000000000000000000000000000000000000000000000000000000000000000000000000000000000000000302202600000000000000000000000000000000000                              00000000000000000000000       
1040001300385T 020000004910850000000   14999000002922365612922365        10022026000000000002800000000000                         092047378838000187SELEMAR MARIOT 90689569904                        000000000000000                           
1040001300386U 020000000000000000000000000000000000000000000000000000000000000000000000000000000000000000000000000000000000000000000000000302202600000000000000000000000000000000000                              00000000000000000000000       
1040001300387T 020000004910850000000   14999000002922366412922366        10022026000000000033124000000000                         09204144190900016241.441.909 FABIANO PEDERIVA DOS SANTOS            000000000000000A4                         
1040001300388U 020000000000000000000000000000000000000000000000000000000000000000000000000000000000000000000000000000000000000000000000000302202600000000000000000000000000000000000                              00000000000000000000000       
1040001300389T 020000004910850000000   14999000002922368012922368        10022026000000000004120000000000                         092053848006000180CLINICAR SERVICOS AUTOMOTIVOS LTDA                000000000000000                           
1040001300390U 020000000000000000000000000000000000000000000000000000000000000000000000000000000000000000000000000000000000000000000000000302202600000000000000000000000000000000000                              00000000000000000000000       
1040001300391T 020000004910850000000   14999000002922369912922369        10022026000000000099208000000000                         092055837131000110SCHUELTER SERVICOS MEDICOS LTDA                   000000000000000                           
1040001300392U 020000000000000000000000000000000000000000000000000000000000000000000000000000000000000000000000000000000000000000000000000302202600000000000000000000000000000000000                              00000000000000000000000       
1040001300393T 020000004910850000000   14999000002922370212922370        10022026000000000048222000000000                         092057467582000138MEURER GESTAO IMOBILIARIA LTDA                    000000000000000                           
1040001300394U 020000000000000000000000000000000000000000000000000000000000000000000000000000000000000000000000000000000000000000000000000302202600000000000000000000000000000000000                              00000000000000000000000       
1040001300395T 020000004910850000000   14999000002922371012922371        10022026000000002472276000000000                         092045517797000137SOOH MIDIA LTDA                                   000000000000000                           
1040001300396U 020000000000000000000000000000000000000000000000000000000000000000000000000000000000000000000000000000000000000000000000000302202600000000000000000000000000000000000                              00000000000000000000000       
1040001300397T 020000004910850000000   14999000002922372912922372        10022026000000000974082000000000                         092041801996000111CLINICA CIRURGICA ODONTOLOGICA BRACO DO           000000000000000                           
1040001300398U 020000000000000000000000000000000000000000000000000000000000000000000000000000000000000000000000000000000000000000000000000302202600000000000000000000000000000000000                              00000000000000000000000       
1040001300399T 020000004910850000000   14999000002922373712922373        10022026000000000017248000000000                         09204827883900011248.278.839 GABRIEL TORRES BLASIUS                 000000000000000A4                         
1040001300400U 020000000000000000000000000000000000000000000000000000000000000000000000000000000000000000000000000000000000000000000000000302202600000000000000000000000000000000000                              00000000000000000000000       
1040001300401T 020000004910850000000   14999000002922375312922375        10022026000000000001800000000000                         092046874685000104POTENCIAL KIDS  LTDA                              000000000000000                           
1040001300402U 020000000000000000000000000000000000000000000000000000000000000000000000000000000000000000000000000000000000000000000000000302202600000000000000000000000000000000000                              00000000000000000000000       
1040001300403T 020000004910850000000   14999000002922377012922377        10022026000000000004991000000000                         092045033465000187LUIZ CARLOS ROHDEN MEURER LTDA                    000000000000000A4                         
1040001300404U 020000000000000000000000000000000000000000000000000000000000000000000000000000000000000000000000000000000000000000000000000302202600000000000000000000000000000000000                              00000000000000000000000       
1040001300405T 020000004910850000000   14999000002922379612922379        10022026000000000086436000000000                         092046817942000249OLIM MAQ COMERCIO DE MAQUINAS AGRICOLAS           000000000000000A4                         
1040001300406U 020000000000000000000000000000000000000000000000000000000000000000000000000000000000000000000000000000000000000000000000000302202600000000000000000000000000000000000                              00000000000000000000000       
1040001300407T 020000004910850000000   14999000002922380012922380        10022026000000000240000000000000                         092048427545000105EB COMERCIO DE FORROS E DIVISORIAS LTDA           000000000000000A4                         
1040001300408U 020000000000000000000000000000000000000000000000000000000000000000000000000000000000000000000000000000000000000000000000000302202600000000000000000000000000000000000                              00000000000000000000000       
1040001300409T 020000004910850000000   14999000002922381812922381        10022026000000000013500000000000                         092047781903000110ADAIR RIBEIRO 03866724900                         000000000000000A4                         
1040001300410U 020000000000000000000000000000000000000000000000000000000000000000000000000000000000000000000000000000000000000000000000000302202600000000000000000000000000000000000                              00000000000000000000000       
1040001300411T 020000004910850000000   14999000002922382612922382        10022026000000000052970000000000                         092054003565000151MILAGREX REPRESENTACAO LTDA                       000000000000000A4                         
1040001300412U 020000000000000000000000000000000000000000000000000000000000000000000000000000000000000000000000000000000000000000000000000302202600000000000000000000000000000000000                              00000000000000000000000       
