10400000         2829265510001450000000000000000000001070749108500000000MUNICIPIO DE BRACO DO NORTE   C ECON FEDERAL                          20502202602005700193604000000                    RETORNO-PRODUCAO                  000            
10400011T0100030 20829265510001450000000000000000000001070749108500000000MUNICIPIO DE BRACO DO NORTE                                                                                   00001936050220260000000000                          00   
1040001300001T 060000004910850000000   14999000002883831212883831        070220260000000000226590000000002883831                  092020810174000127TAFAREL MAIA RODRIGUES                            000000000000199620300                     
1040001300002U 060000000000000000000000000000000000000000000000000000000000000000000000226590000000000226590000000000000000000000000000000502202605022026000005022026000000000000000000000000000000               00000000000000000000000       
1040001300003T 060000004910850000000   14999000002904470012904470        230220260000000000354141040107002904470                  091000050622935968MARCIO NUNES BEZA                                 000000000000199610300                     
1040001300004U 060000000000000000000000000079790000000000000000000000000000000000000000274350000000000274350000000000000000000000000000000502202605022026000005022026000000000000000100058647040910               00000000000000000000000       
1040001300005T 060000004910850000000   14999000002906255512906255        050220260000000001915910000000002906255                  092081362162000171AUTO ELETRICA RIO BONITO LTDA                     000000000000199620300                     
1040001300006U 060000000000000000000000000713130000000000000000000000000000000000000001202780000000001202780000000000000000000000000000000502202605022026000005022026000000000000000000000000000000               00000000000000000000000       
1040001300007T 060000004910850000000   14999000002906269512906269        050220260000000000442560000000002906269                  091000003466810906VALDIRENE DA CRUZ SILVA                           000000000000199620300                     
1040001300008U 060000000000000000000000000136350000000000000000000000000000000000000000306210000000000306210000000000000000000000000000000502202605022026000005022026000000000000000000000000000000               00000000000000000000000       
1040001300009T 060000004910850000000   14999000002911881012911881        010320260000000004392800000000002911881                  091000050623451972JOELCIO GAIDZINSKI                                000000000000199620300                     
1040001300010U 060000000000000000000000000000000000000000000000000000000000000000000004392800000000004392800000000000000000000000000000000502202605022026000005022026000000000000000000000000000000               00000000000000000000000       
1040001300011T 060000004910850000000   14999000002915604512915604        230220260000000000825620000000002915604                  091000005924345912JORGE LUIZ VIEIRA                                 000000000000199620300                     
1040001300012U 060000000000000000000000000359320000000000000000000000000000000000000000466300000000000466300000000000000000000000000000000502202605022026000005022026000000000000000000000000000000               00000000000000000000000       
1040001300013T 060000004910850000000   14999000002934620012934620        050220260000000000123150000000002934620                  091000094692130920OLINDA SOETHE WEBER                               000000000000199620300                     
1040001300014U 060000000000000000000000000016070000000000000000000000000000000000000000107080000000000107080000000000000000000000000000000502202605022026000005022026000000000000000000000000000000               00000000000000000000000       
1040001300015T 060000004910850000000   14999000002934621912934621        050220260000000000123510000000002934621                  091000094692130920OLINDA SOETHE WEBER                               000000000000199620300                     
1040001300016U 060000000000000000000000000016070000000000000000000000000000000000000000107440000000000107440000000000000000000000000000000502202605022026000005022026000000000000000000000000000000               00000000000000000000000       
1040001300017T 060000004910850000000   14999000002934622712934622        050220260000000000122720000000002934622                  091000094692130920OLINDA SOETHE WEBER                               000000000000199620300                     
1040001300018U 060000000000000000000000000016070000000000000000000000000000000000000000106650000000000106650000000000000000000000000000000502202605022026000005022026000000000000000000000000000000               00000000000000000000000       
1040001300019T 060000004910850000000   14999000002934738012934738        050220260000000000117660000000002934738                  091000089547012991IVONETE STRAPAZOLI                                000000000000199620300                     
1040001300020U 060000000000000000000000000000000000000000000000000000000000000000000000117660000000000117660000000000000000000000000000000502202605022026000005022026000000000000000000000000000000               00000000000000000000000       
1040001300021T 060000004910850000000   14999000002934745212934745        060220260000000000520680000000002934745                  091000000605170002DIONEI DE SOUZA GONCALVES                         000000000000199620300                     
1040001300022U 060000000000000000000000000159890000000000000000000000000000000000000000360790000000000360790000000000000000000000000000000502202605022026000005022026000000000000000000000000000000               00000000000000000000000       
1040001300023T 060000004910850000000   14999000002708006812708006        060220260000000000245220010073802708006                  091000049455060949ARI MARTINS MOREIRA                               000000000000199040301                     
1040001300024U 060000000000000000000000000000000000000000000000000000000000000000000000245220000000000245220000000000000000000000000000000502202606022026000006022026000000000000000100056443250915               00000000000000000000000       
1040001300025T 060000004910850000000   14999000002743740312743740        220320260000000000175987560056502743740                  092025192077000131IZALEIA RINALDI PIZONI LTDA                       000000000000199040301                     
1040001300026U 060000000000000000000000000000000000000000000000000000000000000000000000175980000000000175980000000000000000000000000000000502202606022026000006022026000000000000000225192077000131               00000000000000000000000       
1040001300027T 060000004910850000000   14999000002841175012841175        050220260000000000441551360140902841175                  091000020743319087CELSO BORGES DE SOUZA                             000000000000199040301                     
1040001300028U 060000000000000000000000000000000000000000000000000000000000000000000000441550000000000441550000000000000000000000000000000502202606022026000006022026000000000000000100053116747920               00000000000000000000000       
1040001300029T 060000004910850000000   14999000002884613712884613        080220260000000000228601040107002884613                  091000096664037904JAIRO WILLEMANN                                   000000000000199020101                     
1040001300030U 060000000000000000000000000000000000000000000000000000000000000000000000228600000000000228600000000000000000000000000000000502202606022026000006022026000000000000000000000000000000               00000000000000000000000       
1040001300031T 060000004910850000000   14999000002894167912894167        050220260000000000310997560056502894167                  091000007787738928FERNANDO BORGEVER                                 000000000000199040301                     
1040001300032U 060000000000000000000000000000000000000000000000000000000000000000000000310990000000000310990000000000000000000000000000000502202606022026000006022026000000000000000100007787738928               00000000000000000000000       
1040001300033T 060000004910850000000   14999000002894192012894192        100220260000000000506891040107002894192                  092004533593000102LADIO OENNING                                     000000000000199020101                     
1040001300034U 060000000000000000000000000120860000000000000000000000000000000000000000386030000000000386030000000000000000000000000000000502202606022026000006022026000000000000000000000000000000               00000000000000000000000       
1040001300035T 060000004910850000000   14999000002898174312898174        100220260000000000401962600000102898174                  091000006405121941DIEGO FERREIRA VIEIRA                             000000000000199040301                     
1040001300036U 060000000000000000000000000000000000000000000000000000000000000000000000401960000000000401960000000000000000000000000000000502202606022026000006022026000000000000000232768847000107               00000000000000000000000       
1040001300037T 060000004910850000000   14999000002900666312900666        090220260000000001105321040107002900666                  091000042271657091VITOR PAULO RAMOS                                 000000000000199020101                     
1040001300038U 060000000000000000000000000277420000000000000000000000000000000000000000827900000000000827900000000000000000000000000000000502202606022026000006022026000000000000000000000000000000               00000000000000000000000       
1040001300039T 060000004910850000000   14999000002901570012901570        090220260000000000223111040107002901570                  091000037855000925JOSE BLASIUS                                      000000000000199020101                     
1040001300040U 060000000000000000000000000113580000000000000000000000000000000000000000109530000000000109530000000000000000000000000000000502202606022026000006022026000000000000000000000000000000               00000000000000000000000       
1040001300041T 060000004910850000000   14999000002901702912901702        100220260000000001526187480590502901702                  091000000007896905VANIO ROHLING                                     000000000000199040301                     
1040001300042U 060000000000000000000000000690390000000000000000000000000000000000000000835790000000000835790000000000000000000000000000000502202606022026000006022026000000000000000100000007896905               00000000000000000000000       
1040001300043T 060000004910850000000   14999000002904484012904484        230220260000000000318660010073802904484                  091000047253053915ANTENOR JACINTO MARTINS                           000000000000199040301                     
1040001300044U 060000000000000000000000000072660000000000000000000000000000000000000000246000000000000246000000000000000000000000000000000502202606022026000006022026000000000000000100050613111915               00000000000000000000000       
1040001300045T 060000004910850000000   14999000002904493012904493        230220260000000000178120010073802904493                  091000007227229904ACACIO AGOSTINHO MARTINS                          000000000000199040301                     
1040001300046U 060000000000000000000000000040560000000000000000000000000000000000000000137560000000000137560000000000000000000000000000000502202606022026000006022026000000000000000100050613111915               00000000000000000000000       
1040001300047T 060000004910850000000   14999000002905527312905527        260220260000000000397411040107002905527                  091000060736941991GENTIL DA SILVA ROSA                              000000000000199020101                     
1040001300048U 060000000000000000000000000116480000000000000000000000000000000000000000280930000000000280930000000000000000000000000000000502202606022026000006022026000000000000000000000000000000               00000000000000000000000       
1040001300049T 060000004910850000000   14999000002906445012906445        050220260000000000175001040107002906445                  091000085375640953ANTONIO OURIQUES VIEIRA                           000000000000199020101                     
1040001300050U 060000000000000000000000000032580000000000000000000000000000000000000000142420000000000142420000000000000000000000000000000502202606022026000006022026000000000000000000000000000000               00000000000000000000000       
1040001300051T 060000004910850000000   14999000002907391312907391        060220260000000000293591040107002907391                  091000085375640953ANTONIO OURIQUES VIEIRA                           000000000000199020101                     
1040001300052U 060000000000000000000000000000000000000000000000000000000000000000000000293590000000000293590000000000000000000000000000000502202606022026000006022026000000000000000000000000000000               00000000000000000000000       
1040001300053T 060000004910850000000   14999000002908132012908132        180220260000000000565411040041002908132                  091000051383284920JOACIR OURIQUES VIEIRA                            000000000000199020101                     
1040001300054U 060000000000000000000000000110640000000000000000000000000000000000000000454770000000000454770000000000000000000000000000000502202606022026000006022026000000000000000000000000000000               00000000000000000000000       
1040001300055T 060000004910850000000   14999000002909348512909348        100220260000000000710161040107002909348                  091000079949525934VANIO HERMELINDO                                  000000000000199020101                     
1040001300056U 060000000000000000000000000298500000000000000000000000000000000000000000411660000000000411660000000000000000000000000000000502202606022026000006022026000000000000000000000000000000               00000000000000000000000       
1040001300057T 060000004910850000000   14999000002909913012909913        100220260000000000117720010073802909913                  092009423897000130CAVALHEIRO MAQUINAS LTDA ME                       000000000000199040301                     
1040001300058U 060000000000000000000000000000000000000000000000000000000000000000000000117720000000000117720000000000000000000000000000000502202606022026000006022026000000000000000209423897000130               00000000000000000000000       
1040001300059T 060000004910850000000   14999000002911634512911634        050220260000000000181427560056502911634                  092054714923000134VOLUNTAS ENGENHARIA E MEIO AMBIENTE LTDA          000000000000199040301                     
1040001300060U 060000000000000000000000000038000000000000000000000000000000000000000000143420000000000143420000000000000000000000000000000502202606022026000006022026000000000000000254714923000134               00000000000000000000000       
1040001300061T 060000004910850000000   14999000002911664712911664        050220260000000000276333410064302911664                  091000054240220904ANTONIO DONIZETE RODRIGUES                        000000000000199040301                     
1040001300062U 060000000000000000000000000059480000000000000000000000000000000000000000216850000000000216850000000000000000000000000000000502202606022026000006022026000000000000000100054240220904               00000000000000000000000       
1040001300063T 060000004910850000000   14999000002912845912912845        100220260000000000145971040041002912845                  091000006994192989ANTONIO VIEIRA JACINTO                            000000000000199020101                     
1040001300064U 060000000000000000000000000032130000000000000000000000000000000000000000113840000000000113840000000000000000000000000000000502202606022026000006022026000000000000000000000000000000               00000000000000000000000       
1040001300065T 060000004910850000000   14999000002912881512912881        100220260000000000704260010444402912881                  091000002628248921RICARDO SEBOLD BRANCO                             000000000000199040301                     
1040001300066U 060000000000000000000000000185870000000000000000000000000000000000000000518390000000000518390000000000000000000000000000000502202606022026000006022026000000000000000100003600569970               00000000000000000000000       
1040001300067T 060000004910850000000   14999000002914620112914620        060320260000000000138647560056502914620                  092021942361000127NEI LANCHES LTDA                                  000000000000199040301                     
1040001300068U 060000000000000000000000000000000000000000000000000000000000000000000000138640000000000138640000000000000000000000000000000502202606022026000006022026000000000000000221942361000127               00000000000000000000000       
1040001300069T 060000004910850000000   14999000002919075812919075        040320260000000000229457560056502919075                  091000007637017931JOSE FELISBINO JUNIOR                             000000000000199040301                     
1040001300070U 060000000000000000000000000000000000000000000000000000000000000000000000229450000000000229450000000000000000000000000000000502202606022026000006022026000000000000000100007637017931               00000000000000000000000       
1040001300071T 060000004910850000000   14999000002919081212919081        050220260000000000260401040107002919081                  091000011649115970GUSTAVO RALDI DA SILVA                            000000000000199060301                     
1040001300072U 060000000000000000000000000000000000000000000000000000000000000000000000260400000000000260400000000000000000000000000000000502202606022026000006022026000000000000000000000000000000               00000000000000000000000       
1040001300073T 060000004910850000000   14999000002919085512919085        050220260000000006304450010073802919085                  091000037640143934CARLOS SANTOS DE SOUZA ROHDEN                     000000000000199040301                     
1040001300074U 060000000000000000000000000000000000000000000000000000000000000000000006304450000000006304450000000000000000000000000000000502202606022026000006022026000000000000000100037640143934               00000000000000000000000       
1040001300075T 060000004910850000000   14999000002919087112919087        050220260000000003211420010073802919087                  091000037640143934CARLOS SANTOS DE SOUZA ROHDEN                     000000000000199040301                     
1040001300076U 060000000000000000000000000000000000000000000000000000000000000000000003211420000000003211420000000000000000000000000000000502202606022026000006022026000000000000000100037640143934               00000000000000000000000       
1040001300077T 060000004910850000000   14999000002919089812919089        050220260000000018646970010073802919089                  091000037640143934CARLOS SANTOS DE SOUZA ROHDEN                     000000000000199040301                     
1040001300078U 060000000000000000000000000000000000000000000000000000000000000000000018646970000000018646970000000000000000000000000000000502202606022026000006022026000000000000000100037640143934               00000000000000000000000       
1040001300079T 060000004910850000000   14999000002920812612920812        050220260000000000475861040445302920812                  091000063246163987ESPOLIO DE CECILIA VIEIRA ALVES                   000000000000199020101                     
1040001300080U 060000000000000000000000000172870000000000000000000000000000000000000000302990000000000302990000000000000000000000000000000502202606022026000006022026000000000000000000000000000000               00000000000000000000000       
1040001300081T 060000004910850000000   14999000002920838012920838        060320260000000001907111360140502920838                  092075837336000293WKD COMERCIO DE PNEUS E PECAS LTDA                000000000000199040301                     
1040001300082U 060000000000000000000000000000000000000000000000000000000000000000000001907110000000001907110000000000000000000000000000000502202606022026000006022026000000000000000275837336000293               00000000000000000000000       
1040001300083T 060000004910850000000   14999000002922137812922137        060320260000000001120255090000102922137                  092022059829000100GUSTAVO DA SILVA ME                               000000000000199040301                     
1040001300084U 060000000000000000000000000000000000000000000000000000000000000000000001120250000000001120250000000000000000000000000000000502202606022026000006022026000000000000000222059829000100               00000000000000000000000       
1040001300085T 060000004910850000000   14999000002922943312922943        060320260000000003022262600000102922943                  092011959338000191DETY CORTINAS LTDA                                000000000000199040301                     
1040001300086U 060000000000000000000000000000000000000000000000000000000000000000000003022260000000003022260000000000000000000000000000000502202606022026000006022026000000000000000211959338000191               00000000000000000000000       
1040001300087T 060000004910850000000   14999000002922983212922983        120220260000000000228501040107002922983                  091000030006120920HONORATO SOMBRIO PEREIRA                          000000000000199020101                     
1040001300088U 060000000000000000000000000000000000000000000000000000000000000000000000228500000000000228500000000000000000000000000000000502202606022026000006022026000000000000000000000000000000               00000000000000000000000       
1040001300089T 060000004910850000000   14999000002923266312923266        060320260000000001738867560056502923266                  092059598984000105EM ADMINISTRADORA LTDA                            000000000000199040301                     
1040001300090U 060000000000000000000000000000000000000000000000000000000000000000000001738860000000001738860000000000000000000000000000000502202606022026000006022026000000000000000259598984000105               00000000000000000000000       
1040001300091T 060000004910850000000   14999000002923683912923683        060320260000000002162187560056502923683                  092013267050000181MARCIO ORACIO SOUZA                               000000000000199040301                     
1040001300092U 060000000000000000000000000000000000000000000000000000000000000000000002162180000000002162180000000000000000000000000000000502202606022026000006022026000000000000000213267050000181               00000000000000000000000       
1040001300093T 060000004910850000000   14999000002924051812924051        050220260000000000006437560109302924051                  092046817942000249OLIM MAQ COMERCIO DE MAQUINAS AGRICOLAS           000000000000199040301                     
1040001300094U 060000000000000000000000000000000000000000000000000000000000000000000000006430000000000006430000000000000000000000000000000502202606022026000006022026000000000000000246817942000168               00000000000000000000000       
1040001300095T 060000004910850000000   14999000002924061512924061        050220260000000000254541330262802924061                  091000009345685960RAFAELA BECKHAUSER ULIANO                         000000000000199040301                     
1040001300096U 060000000000000000000000000000000000000000000000000000000000000000000000254540000000000254540000000000000000000000000000000502202606022026000006022026000000000000000210817523000189               00000000000000000000000       
1040001300097T 060000004910850000000   14999000002924062312924062        050220260000000000240061330262802924062                  091000009345685960RAFAELA BECKHAUSER ULIANO                         000000000000199040301                     
1040001300098U 060000000000000000000000000000000000000000000000000000000000000000000000240060000000000240060000000000000000000000000000000502202606022026000006022026000000000000000210817523000189               00000000000000000000000       
1040001300099T 060000004910850000000   14999000002924108512924108        060320260000000000697787560056502924108                  092024120613000120LV MIX COMERCIO DE CEREAIS LTDA                   000000000000199040301                     
1040001300100U 060000000000000000000000000000000000000000000000000000000000000000000000697780000000000697780000000000000000000000000000000502202606022026000006022026000000000000000224120613000120               00000000000000000000000       
1040001300101T 060000004910850000000   14999000002924109312924109        060320260000000003191707560056502924109                  092024120613000120LV MIX COMERCIO DE CEREAIS LTDA                   000000000000199040301                     
1040001300102U 060000000000000000000000000000000000000000000000000000000000000000000003191700000000003191700000000000000000000000000000000502202606022026000006022026000000000000000224120613000120               00000000000000000000000       
1040001300103T 060000004910850000000   14999000002924115812924115        050220260000000000056030330333902924115                  092061194051000196LVCB PARTICIPACOES LTDA.                          000000000000199040301                     
1040001300104U 060000000000000000000000000000000000000000000000000000000000000000000000056030000000000056030000000000000000000000000000000502202606022026000006022026000000000000000243489766000194               00000000000000000000000       
1040001300105T 060000004910850000000   14999000002924116612924116        050220260000000000731800330333902924116                  092061194051000196LVCB PARTICIPACOES LTDA.                          000000000000199040301                     
1040001300106U 060000000000000000000000000000000000000000000000000000000000000000000000731800000000000731800000000000000000000000000000000502202606022026000006022026000000000000000243489766000194               00000000000000000000000       
1040001300107T 060000004910850000000   14999000002924121212924121        060320260000000002080521360140502924121                  092048580779000198NOVA ESTRELA PARTICIPACOES LTDA                   000000000000199040301                     
1040001300108U 060000000000000000000000000000000000000000000000000000000000000000000002080520000000002080520000000000000000000000000000000502202606022026000006022026000000000000000100009522627976               00000000000000000000000       
1040001300109T 060000004910850000000   14999000002924720212924720        190220260000000000712541040107002924720                  091000047903392034SOLANGE ANTUNES                                   000000000000199020101                     
1040001300110U 060000000000000000000000000000000000000000000000000000000000000000000000712540000000000712540000000000000000000000000000000502202606022026000006022026000000000000000000000000000000               00000000000000000000000       
1040001300111T 060000004910850000000   14999000002929433212929433        250220260000000000570881040107002929433                  091000055720072934ESPOLIO SALUSTIANO DE LIMA CARLOTA                000000000000199020101                     
1040001300112U 060000000000000000000000000000000000000000000000000000000000000000000000570880000000000570880000000000000000000000000000000502202606022026000006022026000000000000000000000000000000               00000000000000000000000       
1040001300113T 060000004910850000000   14999000002929580012929580        260220260000000004491180010073802929580                  091000000943223920ESPOLIO DE JOSE KUERTEN                           000000000000199040301                     
1040001300114U 060000000000000000000000000000000000000000000000000000000000000000000004491180000000004491180000000000000000000000000000000502202606022026000006022026000000000000000278324514000190               00000000000000000000000       
1040001300115T 060000004910850000000   14999000002930241612930241        100220260000000000969140010190802930241                  092000000000073822BANCO DO BRASIL S/A                               000000000000199040301                     
1040001300116U 060000000000000000000000000000000000000000000000000000000000000000000000969140000000000969140000000000000000000000000000000502202606022026000006022026000000000000000200000000583278               00000000000000000000000       
1040001300117T 060000004910850000000   14999000002930682912930682        100220260000000001574472600000102930682                  091000053886780910NILTON VEBER                                      000000000000199040401                     
1040001300118U 060000000000000000000000000000000000000000000000000000000000000000000001574470000000001574470000000000000000000000000000000502202606022026000006022026000000000000000100011497005990               00000000000000000000000       
1040001300119T 060000004910850000000   14999000002934195012934195        050220260000000000202691040385002934195                  091000061424200997JUCELI DO NASCIMENTO CARVALHO                     000000000000199060401                     
1040001300120U 060000000000000000000000000047410000000000000000000000000000000000000000155280000000000155280000000000000000000000000000000502202606022026000006022026000000000000000000000000000000               00000000000000000000000       
1040001300121T 060000004910850000000   14999000002934200012934200        060320260000000000496201040107002934200                  091000055991165904MANOEL TAVARES                                    000000000000199020101                     
1040001300122U 060000000000000000000000000099240000000000000000000000000000000000000000396960000000000396960000000000000000000000000000000502202606022026000006022026000000000000000000000000000000               00000000000000000000000       
1040001300123T 060000004910850000000   14999000002934201912934201        060320260000000000387661040107002934201                  091000055991165904MANOEL TAVARES                                    000000000000199020101                     
1040001300124U 060000000000000000000000000019380000000000000000000000000000000000000000368280000000000368280000000000000000000000000000000502202606022026000006022026000000000000000000000000000000               00000000000000000000000       
1040001300125T 060000004910850000000   14999000002934319812934319        270220260000000000117232370033602934319                  092041460321000156DSM COMERCIO ONLINE LTDA                          000000000000199040301                     
1040001300126U 060000000000000000000000000000000000000000000000000000000000000000000000117230000000000117230000000000000000000000000000000502202606022026000006022026000000000000000241460321000156               00000000000000000000000       
1040001300127T 060000004910850000000   14999000002934320112934320        050320260000000000117232370033602934320                  092041460321000407DSM COMERCIO ONLINE LTDA                          000000000000199040301                     
1040001300128U 060000000000000000000000000000000000000000000000000000000000000000000000117230000000000117230000000000000000000000000000000502202606022026000006022026000000000000000241460321000156               00000000000000000000000       
1040001300129T 060000004910850000000   14999000002934617012934617        060220260000000000159020010073802934617                  091000005866163900ALINE LOPES                                       000000000000199040301                     
1040001300130U 060000000000000000000000000041780000000000000000000000000000000000000000117240000000000117240000000000000000000000000000000502202606022026000006022026000000000000000100005866163900               00000000000000000000000       
1040001300131T 060000004910850000000   14999000002934675812934675        070320260000000002002981040107002934675                  091000001134150954ALEXANDER DAMIAN MARTINEZ RODRIGUEZ               000000000000199020101                     
1040001300132U 060000000000000000000000000000000000000000000000000000000000000000000002002980000000002002980000000000000000000000000000000502202606022026000006022026000000000000000000000000000000               00000000000000000000000       
1040001300133T 060000004910850000000   14999000002934677412934677        050220260000000000176151040107002934677                  091000085375640953ANTONIO OURIQUES VIEIRA                           000000000000199020101                     
1040001300134U 060000000000000000000000000032580000000000000000000000000000000000000000143570000000000143570000000000000000000000000000000502202606022026000006022026000000000000000000000000000000               00000000000000000000000       
1040001300135T 060000004910850000000   14999000002934680412934680        070320260000000000328041040107002934680                  091000007553601926LUCILENE WIEMES SEIBICHLER                        000000000000199020101                     
1040001300136U 060000000000000000000000000000000000000000000000000000000000000000000000328040000000000328040000000000000000000000000000000502202606022026000006022026000000000000000000000000000000               00000000000000000000000       
1040001300137T 060000004910850000000   14999000002934687112934687        050320260000000000077537560056502934687                  091000002065077980JOSE CARLOS RAMOS DO BONFIM                       000000000000199040301                     
1040001300138U 060000000000000000000000000000000000000000000000000000000000000000000000077530000000000077530000000000000000000000000000000502202606022026000006022026000000000000000100002065077980               00000000000000000000000       
1040001300139T 060000004910850000000   14999000002934747912934747        070320260000000000730187560056502934747                  091000079618375900EDESIO REDIVO VIANA                               000000000000199040301                     
1040001300140U 060000000000000000000000000000000000000000000000000000000000000000000000730180000000000730180000000000000000000000000000000502202606022026000006022026000000000000000203799288000102               00000000000000000000000       
1040001300141T 060000004910850000000   14999000002934749512934749        050220260000000000289130010208902934749                  091000003009438907CHARLES ALVES AGOSTINHO                           000000000000199040301                     
1040001300142U 060000000000000000000000000070180000000000000000000000000000000000000000218950000000000218950000000000000000000000000000000502202606022026000006022026000000000000000100003009438907               00000000000000000000000       
1040001300143T 060000004910850000000   14999000002934750912934750        170220260000000000287850010208902934750                  091000003009438907CHARLES ALVES AGOSTINHO                           000000000000199040301                     
1040001300144U 060000000000000000000000000070180000000000000000000000000000000000000000217670000000000217670000000000000000000000000000000502202606022026000006022026000000000000000100003009438907               00000000000000000000000       
1040001300145T 020000004910850000000   14999000002922405912922405        10022026000000000357087000000000                         092032015811000152DUTRA PRE MOLDADOS LTDA                           000000000000000A4                         
1040001300146U 020000000000000000000000000000000000000000000000000000000000000000000000000000000000000000000000000000000000000000000000000502202600000000000000000000000000000000000                              00000000000000000000000       
1040001300147T 020000004910850000000   14999000002922406712922406        10022026000000000000104000000000                         092016695624000100FLACH INDUSTRIA DE CARREGADORES  EQUIPAM          000000000000000A4                         
1040001300148U 020000000000000000000000000000000000000000000000000000000000000000000000000000000000000000000000000000000000000000000000000502202600000000000000000000000000000000000                              00000000000000000000000       
1040001300149T 020000004910850000000   14999000002922432612922432        10022026000000000013212000000000                         092010934913000139DF IMPORTACAO E FABRICACAO DE EQUIPAMENT          000000000000000A4                         
1040001300150U 020000000000000000000000000000000000000000000000000000000000000000000000000000000000000000000000000000000000000000000000000502202600000000000000000000000000000000000                              00000000000000000000000       
1040001300151T 020000004910850000000   14999000002922442312922442        10022026000000000974078000000000                         092041801996000111CLINICA CIRURGICA ODONTOLOGICA BRACO DO           000000000000000                           
1040001300152U 020000000000000000000000000000000000000000000000000000000000000000000000000000000000000000000000000000000000000000000000000502202600000000000000000000000000000000000                              00000000000000000000000       
1040001300153T 020000004910850000000   14999000002909907612909907        10022026000000000010000000000000                         092000648407000120MIRANDINHA MOTOS LTDA                             000000000000000A4                         
1040001300154U 020000000000000000000000000000000000000000000000000000000000000000000000000000000000000000000000000000000000000000000000000502202600000000000005022026000000000000000                              00000000000000000000000       
1040001300155T 020000004910850000000   14999000002922367212922367        10022026000000000141266000000000                         092007943402000179VANCREDI ASSESSORIA EMPRESARIAL E DE COB          000000000000000                           
1040001300156U 020000000000000000000000000000000000000000000000000000000000000000000000000000000000000000000000000000000000000000000000000502202600000000000005022026000000000000000                              00000000000000000000000       
1040001300157T 020000004910850000000   14999000002922398212922398        10022026000000000244922000000000                         092084684182003253SOCIEDADE DE EDUCACAO SUPERIOR E CULTURA          000000000000000A4                         
1040001300158U 020000000000000000000000000000000000000000000000000000000000000000000000000000000000000000000000000000000000000000000000000502202600000000000005022026000000000000000                              00000000000000000000000       
1040001300159T 020000004910850000000   14999000002922417212922417        10022026000000000007835000000000                         092007943402000179VANCREDI ASSESSORIA EMPRESARIAL E DE COB          000000000000000                           
1040001300160U 020000000000000000000000000000000000000000000000000000000000000000000000000000000000000000000000000000000000000000000000000502202600000000000005022026000000000000000                              00000000000000000000000       
1040001300161T 020000004910850000000   14999000002922433412922433        10022026000000000149101000000000                         092007943402000179VANCREDI ASSESSORIA EMPRESARIAL E DE COB          000000000000000                           
1040001300162U 020000000000000000000000000000000000000000000000000000000000000000000000000000000000000000000000000000000000000000000000000502202600000000000005022026000000000000000                              00000000000000000000000       
1040001300163T 020000004910850000000   14999000002922438512922438        10022026000000000013410000000000                         092007943402000179VANCREDI ASSESSORIA EMPRESARIAL E DE COB          000000000000000                           
1040001300164U 020000000000000000000000000000000000000000000000000000000000000000000000000000000000000000000000000000000000000000000000000502202600000000000005022026000000000000000                              00000000000000000000000       
1040001300165T 020000004910850000000   14999000002924051812924051        05022026000000000000643000000000                         092046817942000249OLIM MAQ COMERCIO DE MAQUINAS AGRICOLAS           000000000000000                           
1040001300166U 020000000000000000000000000000000000000000000000000000000000000000000000000000000000000000000000000000000000000000000000000502202600000000000005022026000000000000000                              00000000000000000000000       
1040001300167T 020000004910850000000   14999000002924052612924052        06032026000000000208052000000000                         092053189123000189GW3 ADMINISTRACAO DE BENS LTDA                    000000000000000                           
1040001300168U 020000000000000000000000000000000000000000000000000000000000000000000000000000000000000000000000000000000000000000000000000502202600000000000005022026000000000000000                              00000000000000000000000       
1040001300169T 020000004910850000000   14999000002924053412924053        06032026000000000082757000000000                         092027585927000197BOEING E JOCKEN ADMINISTRADORA DE BENS L          000000000000000A4                         
1040001300170U 020000000000000000000000000000000000000000000000000000000000000000000000000000000000000000000000000000000000000000000000000502202600000000000005022026000000000000000                              00000000000000000000000       
1040001300171T 020000004910850000000   14999000002924054212924054        05022026000000000121142000000000                         092027585927000197BOEING E JOCKEN ADMINISTRADORA DE BENS L          000000000000000                           
1040001300172U 020000000000000000000000000000000000000000000000000000000000000000000000000000000000000000000000000000000000000000000000000502202600000000000005022026000000000000000                              00000000000000000000000       
1040001300173T 020000004910850000000   14999000002924055012924055        05022026000000000096976000000000                         091000052306100934LEONI NACH WESTPHAL                               000000000000000                           
1040001300174U 020000000000000000000000000000000000000000000000000000000000000000000000000000000000000000000000000000000000000000000000000502202600000000000005022026000000000000000                              00000000000000000000000       
1040001300175T 020000004910850000000   14999000002924056912924056        06032026000000000047765000000000                         092022201645000125TATIANA AGOSTINHO MARTINS                         000000000000000                           
1040001300176U 020000000000000000000000000000000000000000000000000000000000000000000000000000000000000000000000000000000000000000000000000502202600000000000005022026000000000000000                              00000000000000000000000       
1040001300177T 020000004910850000000   14999000002924057712924057        06032026000000000208775000000000                         092022201645000125TATIANA AGOSTINHO MARTINS                         000000000000000                           
1040001300178U 020000000000000000000000000000000000000000000000000000000000000000000000000000000000000000000000000000000000000000000000000502202600000000000005022026000000000000000                              00000000000000000000000       
1040001300179T 020000004910850000000   14999000002924058512924058        06032026000000000010613000000000                         092081332959000126ALTAIR ROVEDA BOGER                               000000000000000A4                         
1040001300180U 020000000000000000000000000000000000000000000000000000000000000000000000000000000000000000000000000000000000000000000000000502202600000000000005022026000000000000000                              00000000000000000000000       
1040001300181T 020000004910850000000   14999000002924059312924059        06032026000000000088259000000000                         092081332959000126ALTAIR ROVEDA BOGER                               000000000000000A4                         
1040001300182U 020000000000000000000000000000000000000000000000000000000000000000000000000000000000000000000000000000000000000000000000000502202600000000000005022026000000000000000                              00000000000000000000000       
1040001300183T 020000004910850000000   14999000002924060712924060        26022026000000000898936000000000                         092011387553000165WEBER PARTICIPACOES LTDA                          000000000000000                           
1040001300184U 020000000000000000000000000000000000000000000000000000000000000000000000000000000000000000000000000000000000000000000000000502202600000000000005022026000000000000000                              00000000000000000000000       
1040001300185T 020000004910850000000   14999000002924061512924061        05022026000000000025454000000000                         091000009345685960RAFAELA BECKHAUSER ULIANO                         000000000000000                           
1040001300186U 020000000000000000000000000000000000000000000000000000000000000000000000000000000000000000000000000000000000000000000000000502202600000000000005022026000000000000000                              00000000000000000000000       
1040001300187T 020000004910850000000   14999000002924062312924062        05022026000000000024006000000000                         091000009345685960RAFAELA BECKHAUSER ULIANO                         000000000000000                           
1040001300188U 020000000000000000000000000000000000000000000000000000000000000000000000000000000000000000000000000000000000000000000000000502202600000000000005022026000000000000000                              00000000000000000000000       
1040001300189T 020000004910850000000   14999000002924063112924063        06032026000000000147309000000000                         091000069227578900DEOCLESIO JOAQUIM                                 000000000000000A4                         
1040001300190U 020000000000000000000000000000000000000000000000000000000000000000000000000000000000000000000000000000000000000000000000000502202600000000000005022026000000000000000                              00000000000000000000000       
1040001300191T 020000004910850000000   14999000002924064012924064        06032026000000000139227000000000                         091000069227578900DEOCLESIO JOAQUIM                                 000000000000000A4                         
1040001300192U 020000000000000000000000000000000000000000000000000000000000000000000000000000000000000000000000000000000000000000000000000502202600000000000005022026000000000000000                              00000000000000000000000       
1040001300193T 020000004910850000000   14999000002924065812924065        06032026000000000032845000000000                         092052910673000182BAGGIO REPRESENTACOES LTDA                        000000000000000                           
1040001300194U 020000000000000000000000000000000000000000000000000000000000000000000000000000000000000000000000000000000000000000000000000502202600000000000005022026000000000000000                              00000000000000000000000       
1040001300195T 020000004910850000000   14999000002924066612924066        06042026000000000032845000000000                         092052910673000182BAGGIO REPRESENTACOES LTDA                        000000000000000                           
1040001300196U 020000000000000000000000000000000000000000000000000000000000000000000000000000000000000000000000000000000000000000000000000502202600000000000005022026000000000000000                              00000000000000000000000       
1040001300197T 020000004910850000000   14999000002924067412924067        06052026000000000032845000000000                         092052910673000182BAGGIO REPRESENTACOES LTDA                        000000000000000                           
1040001300198U 020000000000000000000000000000000000000000000000000000000000000000000000000000000000000000000000000000000000000000000000000502202600000000000005022026000000000000000                              00000000000000000000000       
1040001300199T 020000004910850000000   14999000002924068212924068        05062026000000000032845000000000                         092052910673000182BAGGIO REPRESENTACOES LTDA                        000000000000000                           
1040001300200U 020000000000000000000000000000000000000000000000000000000000000000000000000000000000000000000000000000000000000000000000000502202600000000000005022026000000000000000                              00000000000000000000000       
1040001300201T 020000004910850000000   14999000002924069012924069        06032026000000000193071000000000                         092083456244000100AUREA INDUSTRIA E COMERCIO LTDA                   000000000000000A4                         
1040001300202U 020000000000000000000000000000000000000000000000000000000000000000000000000000000000000000000000000000000000000000000000000502202600000000000005022026000000000000000                              00000000000000000000000       
1040001300203T 020000004910850000000   14999000002924070412924070        06032026000000000062800000000000                         092083456244000100AUREA INDUSTRIA E COMERCIO LTDA                   000000000000000A4                         
1040001300204U 020000000000000000000000000000000000000000000000000000000000000000000000000000000000000000000000000000000000000000000000000502202600000000000005022026000000000000000                              00000000000000000000000       
1040001300205T 020000004910850000000   14999000002924087912924087        06032026000000000062800000000000                         092083456244000534AUREA INDUSTRIA E COMERCIO LTDA                   000000000000000A4                         
1040001300206U 020000000000000000000000000000000000000000000000000000000000000000000000000000000000000000000000000000000000000000000000000502202600000000000005022026000000000000000                              00000000000000000000000       
1040001300207T 020000004910850000000   14999000002924088712924088        06032026000000000217205000000000                         092083456244000534AUREA INDUSTRIA E COMERCIO LTDA                   000000000000000A4                         
1040001300208U 020000000000000000000000000000000000000000000000000000000000000000000000000000000000000000000000000000000000000000000000000502202600000000000005022026000000000000000                              00000000000000000000000       
1040001300209T 020000004910850000000   14999000002924089512924089        06032026000000000624158000000000                         092083456244000704AUREA INDUSTRIA E COMERCIO LTDA                   000000000000000A4                         
1040001300210U 020000000000000000000000000000000000000000000000000000000000000000000000000000000000000000000000000000000000000000000000000502202600000000000005022026000000000000000                              00000000000000000000000       
1040001300211T 020000004910850000000   14999000002924090912924090        06032026000000000265974000000000                         092083456244000453AUREA INDUSTRIA E COMERCIO LTDA                   000000000000000A4                         
1040001300212U 020000000000000000000000000000000000000000000000000000000000000000000000000000000000000000000000000000000000000000000000000502202600000000000005022026000000000000000                              00000000000000000000000       
1040001300213T 020000004910850000000   14999000002924091712924091        06032026000000000243441000000000                         092045517797000137SOOH MIDIA LTDA                                   000000000000000                           
1040001300214U 020000000000000000000000000000000000000000000000000000000000000000000000000000000000000000000000000000000000000000000000000502202600000000000005022026000000000000000                              00000000000000000000000       
1040001300215T 020000004910850000000   14999000002924092512924092        06032026000000000076076000000000                         092045517797000137SOOH MIDIA LTDA                                   000000000000000                           
1040001300216U 020000000000000000000000000000000000000000000000000000000000000000000000000000000000000000000000000000000000000000000000000502202600000000000005022026000000000000000                              00000000000000000000000       
1040001300217T 020000004910850000000   14999000002924093312924093        06042026000000000076075000000000                         092045517797000137SOOH MIDIA LTDA                                   000000000000000                           
1040001300218U 020000000000000000000000000000000000000000000000000000000000000000000000000000000000000000000000000000000000000000000000000502202600000000000005022026000000000000000                              00000000000000000000000       
1040001300219T 020000004910850000000   14999000002924094112924094        06052026000000000076075000000000                         092045517797000137SOOH MIDIA LTDA                                   000000000000000                           
1040001300220U 020000000000000000000000000000000000000000000000000000000000000000000000000000000000000000000000000000000000000000000000000502202600000000000005022026000000000000000                              00000000000000000000000       
1040001300221T 020000004910850000000   14999000002924095012924095        05062026000000000076075000000000                         092045517797000137SOOH MIDIA LTDA                                   000000000000000                           
1040001300222U 020000000000000000000000000000000000000000000000000000000000000000000000000000000000000000000000000000000000000000000000000502202600000000000005022026000000000000000                              00000000000000000000000       
1040001300223T 020000004910850000000   14999000002924096812924096        10022026000000002472276000000000                         092045517797000137SOOH MIDIA LTDA                                   000000000000000                           
1040001300224U 020000000000000000000000000000000000000000000000000000000000000000000000000000000000000000000000000000000000000000000000000502202600000000000005022026000000000000000                              00000000000000000000000       
1040001300225T 020000004910850000000   14999000002924097612924097        06032026000000000099001000000000                         092010172265000120CORTI - LAR CORTINAS & PERSIANAS LTDA             000000000000000A4                         
1040001300226U 020000000000000000000000000000000000000000000000000000000000000000000000000000000000000000000000000000000000000000000000000502202600000000000005022026000000000000000                              00000000000000000000000       
1040001300227T 020000004910850000000   14999000002924098412924098        06042026000000000099001000000000                         092010172265000120CORTI - LAR CORTINAS & PERSIANAS LTDA             000000000000000A4                         
1040001300228U 020000000000000000000000000000000000000000000000000000000000000000000000000000000000000000000000000000000000000000000000000502202600000000000005022026000000000000000                              00000000000000000000000       
1040001300229T 020000004910850000000   14999000002924099212924099        06052026000000000099001000000000                         092010172265000120CORTI - LAR CORTINAS & PERSIANAS LTDA             000000000000000A4                         
1040001300230U 020000000000000000000000000000000000000000000000000000000000000000000000000000000000000000000000000000000000000000000000000502202600000000000005022026000000000000000                              00000000000000000000000       
1040001300231T 020000004910850000000   14999000002924100012924100        05062026000000000099001000000000                         092010172265000120CORTI - LAR CORTINAS & PERSIANAS LTDA             000000000000000A4                         
1040001300232U 020000000000000000000000000000000000000000000000000000000000000000000000000000000000000000000000000000000000000000000000000502202600000000000005022026000000000000000                              00000000000000000000000       
1040001300233T 020000004910850000000   14999000002924101812924101        06032026000000000065015000000000                         092000648407000120MIRANDINHA MOTOS LTDA                             000000000000000A4                         
1040001300234U 020000000000000000000000000000000000000000000000000000000000000000000000000000000000000000000000000000000000000000000000000502202600000000000005022026000000000000000                              00000000000000000000000       
1040001300235T 020000004910850000000   14999000002924102612924102        06042026000000000065014000000000                         092000648407000120MIRANDINHA MOTOS LTDA                             000000000000000A4                         
1040001300236U 020000000000000000000000000000000000000000000000000000000000000000000000000000000000000000000000000000000000000000000000000502202600000000000005022026000000000000000                              00000000000000000000000       
1040001300237T 020000004910850000000   14999000002924103412924103        06052026000000000065014000000000                         092000648407000120MIRANDINHA MOTOS LTDA                             000000000000000A4                         
1040001300238U 020000000000000000000000000000000000000000000000000000000000000000000000000000000000000000000000000000000000000000000000000502202600000000000005022026000000000000000                              00000000000000000000000       
1040001300239T 020000004910850000000   14999000002924104212924104        05062026000000000065014000000000                         092000648407000120MIRANDINHA MOTOS LTDA                             000000000000000A4                         
1040001300240U 020000000000000000000000000000000000000000000000000000000000000000000000000000000000000000000000000000000000000000000000000502202600000000000005022026000000000000000                              00000000000000000000000       
1040001300241T 020000004910850000000   14999000002924105012924105        10022026000000000010000000000000                         092000648407000120MIRANDINHA MOTOS LTDA                             000000000000000A4                         
1040001300242U 020000000000000000000000000000000000000000000000000000000000000000000000000000000000000000000000000000000000000000000000000502202600000000000005022026000000000000000                              00000000000000000000000       
1040001300243T 020000004910850000000   14999000002924106912924106        06032026000000000062800000000000                         092000807422000254LATICINIOS EXTERKOETER LTDA                       000000000000000                           
1040001300244U 020000000000000000000000000000000000000000000000000000000000000000000000000000000000000000000000000000000000000000000000000502202600000000000005022026000000000000000                              00000000000000000000000       
1040001300245T 020000004910850000000   14999000002924107712924107        06032026000000000106189000000000                         092000807422000254LATICINIOS EXTERKOETER LTDA                       000000000000000                           
1040001300246U 020000000000000000000000000000000000000000000000000000000000000000000000000000000000000000000000000000000000000000000000000502202600000000000005022026000000000000000                              00000000000000000000000       
1040001300247T 020000004910850000000   14999000002924108512924108        06032026000000000069778000000000                         092024120613000120LV MIX COMERCIO DE CEREAIS LTDA                   000000000000000                           
1040001300248U 020000000000000000000000000000000000000000000000000000000000000000000000000000000000000000000000000000000000000000000000000502202600000000000005022026000000000000000                              00000000000000000000000       
1040001300249T 020000004910850000000   14999000002924109312924109        06032026000000000319170000000000                         092024120613000120LV MIX COMERCIO DE CEREAIS LTDA                   000000000000000                           
1040001300250U 020000000000000000000000000000000000000000000000000000000000000000000000000000000000000000000000000000000000000000000000000502202600000000000005022026000000000000000                              00000000000000000000000       
1040001300251T 020000004910850000000   14999000002924110712924110        06032026000000000024765000000000                         092059957337000134SUL NORTE GRAOS TRANSPORTES LTDA                  000000000000000A4                         
1040001300252U 020000000000000000000000000000000000000000000000000000000000000000000000000000000000000000000000000000000000000000000000000502202600000000000005022026000000000000000                              00000000000000000000000       
1040001300253T 020000004910850000000   14999000002924111512924111        06032026000000000119522000000000                         092059957337000134SUL NORTE GRAOS TRANSPORTES LTDA                  000000000000000A4                         
1040001300254U 020000000000000000000000000000000000000000000000000000000000000000000000000000000000000000000000000000000000000000000000000502202600000000000005022026000000000000000                              00000000000000000000000       
1040001300255T 020000004910850000000   14999000002924112312924112        06032026000000000114144000000000                         092023306248000180NORTE CALCADOS LTDA                               000000000000000A4                         
1040001300256U 020000000000000000000000000000000000000000000000000000000000000000000000000000000000000000000000000000000000000000000000000502202600000000000005022026000000000000000                              00000000000000000000000       
1040001300257T 020000004910850000000   14999000002924113112924113        06032026000000000048845000000000                         092061194051000196LVCB PARTICIPACOES LTDA.                          000000000000000                           
1040001300258U 020000000000000000000000000000000000000000000000000000000000000000000000000000000000000000000000000000000000000000000000000502202600000000000005022026000000000000000                              00000000000000000000000       
1040001300259T 020000004910850000000   14999000002924114012924114        06032026000000000091032000000000                         092061194051000196LVCB PARTICIPACOES LTDA.                          000000000000000                           
1040001300260U 020000000000000000000000000000000000000000000000000000000000000000000000000000000000000000000000000000000000000000000000000502202600000000000005022026000000000000000                              00000000000000000000000       
1040001300261T 020000004910850000000   14999000002924115812924115        05022026000000000005603000000000                         092061194051000196LVCB PARTICIPACOES LTDA.                          000000000000000                           
1040001300262U 020000000000000000000000000000000000000000000000000000000000000000000000000000000000000000000000000000000000000000000000000502202600000000000005022026000000000000000                              00000000000000000000000       
1040001300263T 020000004910850000000   14999000002924116612924116        05022026000000000073180000000000                         092061194051000196LVCB PARTICIPACOES LTDA.                          000000000000000                           
1040001300264U 020000000000000000000000000000000000000000000000000000000000000000000000000000000000000000000000000000000000000000000000000502202600000000000005022026000000000000000                              00000000000000000000000       
1040001300265T 020000004910850000000   14999000002924117412924117        06032026000000000027911000000000                         092043489766000275ATACADO VENCEDOR LTDA                             000000000000000A4                         
1040001300266U 020000000000000000000000000000000000000000000000000000000000000000000000000000000000000000000000000000000000000000000000000502202600000000000005022026000000000000000                              00000000000000000000000       
1040001300267T 020000004910850000000   14999000002924118212924118        06032026000000000638339000000000                         092043489766000275ATACADO VENCEDOR LTDA                             000000000000000A4                         
1040001300268U 020000000000000000000000000000000000000000000000000000000000000000000000000000000000000000000000000000000000000000000000000502202600000000000005022026000000000000000                              00000000000000000000000       
1040001300269T 020000004910850000000   14999000002924119012924119        06032026000000000027911000000000                         092043489766000194ATACADO VENCEDOR LTDA                             000000000000000A4                         
1040001300270U 020000000000000000000000000000000000000000000000000000000000000000000000000000000000000000000000000000000000000000000000000502202600000000000005022026000000000000000                              00000000000000000000000       
1040001300271T 020000004910850000000   14999000002924120412924120        06032026000000000538599000000000                         092043489766000194ATACADO VENCEDOR LTDA                             000000000000000A4                         
1040001300272U 020000000000000000000000000000000000000000000000000000000000000000000000000000000000000000000000000000000000000000000000000502202600000000000005022026000000000000000                              00000000000000000000000       
1040001300273T 020000004910850000000   14999000002924121212924121        06032026000000000208052000000000                         092048580779000198NOVA ESTRELA PARTICIPACOES LTDA                   000000000000000                           
1040001300274U 020000000000000000000000000000000000000000000000000000000000000000000000000000000000000000000000000000000000000000000000000502202600000000000005022026000000000000000                              00000000000000000000000       
1040001300275T 020000004910850000000   14999000002924122012924122        06032026000000000587005000000000                         092014420963000159EMBUTIDOS BIANCA LTDA                             000000000000000A4                         
1040001300276U 020000000000000000000000000000000000000000000000000000000000000000000000000000000000000000000000000000000000000000000000000502202600000000000005022026000000000000000                              00000000000000000000000       
1040001300277T 020000004910850000000   14999000002924123912924123        05022026000000000546637000000000                         092036202032000117RGGS CONSTRUTORA E INCORPORADORA LTDA             000000000000000                           
1040001300278U 020000000000000000000000000000000000000000000000000000000000000000000000000000000000000000000000000000000000000000000000000502202600000000000005022026000000000000000                              00000000000000000000000       
1040001300279T 020000004910850000000   14999000002924124712924124        05032026000000000049815000000000                         091000037528602949EDISON HUBERTO VOSS                               000000000000000                           
1040001300280U 020000000000000000000000000000000000000000000000000000000000000000000000000000000000000000000000000000000000000000000000000502202600000000000005022026000000000000000                              00000000000000000000000       
1040001300281T 020000004910850000000   14999000002924125512924125        05062026000000000024908000000000                         091000037528602949EDISON HUBERTO VOSS                               000000000000000                           
1040001300282U 020000000000000000000000000000000000000000000000000000000000000000000000000000000000000000000000000000000000000000000000000502202600000000000005022026000000000000000                              00000000000000000000000       
1040001300283T 020000004910850000000   14999000002924126312924126        05032026000000000026090000000000                         091000037528602949EDISON HUBERTO VOSS                               000000000000000                           
1040001300284U 020000000000000000000000000000000000000000000000000000000000000000000000000000000000000000000000000000000000000000000000000502202600000000000005022026000000000000000                              00000000000000000000000       
1040001300285T 020000004910850000000   14999000002924127112924127        05032026000000000052181000000000                         091000037528602949EDISON HUBERTO VOSS                               000000000000000                           
1040001300286U 020000000000000000000000000000000000000000000000000000000000000000000000000000000000000000000000000000000000000000000000000502202600000000000005022026000000000000000                              00000000000000000000000       
1040001300287T 020000004910850000000   14999000002924128012924128        05032026000000000012566000000000                         091000037528602949EDISON HUBERTO VOSS                               000000000000000                           
1040001300288U 020000000000000000000000000000000000000000000000000000000000000000000000000000000000000000000000000000000000000000000000000502202600000000000005022026000000000000000                              00000000000000000000000       
1040001300289T 020000004910850000000   14999000002924129812924129        05032026000000000012563000000000                         091000037528602949EDISON HUBERTO VOSS                               000000000000000                           
1040001300290U 020000000000000000000000000000000000000000000000000000000000000000000000000000000000000000000000000000000000000000000000000502202600000000000005022026000000000000000                              00000000000000000000000       
1040001300291T 020000004910850000000   14999000002924130112924130        05032026000000000012563000000000                         091000037528602949EDISON HUBERTO VOSS                               000000000000000                           
1040001300292U 020000000000000000000000000000000000000000000000000000000000000000000000000000000000000000000000000000000000000000000000000502202600000000000005022026000000000000000                              00000000000000000000000       
1040001300293T 020000004910850000000   14999000002924131012924131        05032026000000000006282000000000                         091000037528602949EDISON HUBERTO VOSS                               000000000000000                           
1040001300294U 020000000000000000000000000000000000000000000000000000000000000000000000000000000000000000000000000000000000000000000000000502202600000000000005022026000000000000000                              00000000000000000000000       
1040001300295T 020000004910850000000   14999000002924132812924132        05032026000000000006282000000000                         091000037528602949EDISON HUBERTO VOSS                               000000000000000                           
1040001300296U 020000000000000000000000000000000000000000000000000000000000000000000000000000000000000000000000000000000000000000000000000502202600000000000005022026000000000000000                              00000000000000000000000       
1040001300297T 020000004910850000000   14999000002924133612924133        05032026000000000006282000000000                         091000037528602949EDISON HUBERTO VOSS                               000000000000000                           
1040001300298U 020000000000000000000000000000000000000000000000000000000000000000000000000000000000000000000000000000000000000000000000000502202600000000000005022026000000000000000                              00000000000000000000000       
1040001300299T 020000004910850000000   14999000002924134412924134        05032026000000000006282000000000                         091000037528602949EDISON HUBERTO VOSS                               000000000000000                           
1040001300300U 020000000000000000000000000000000000000000000000000000000000000000000000000000000000000000000000000000000000000000000000000502202600000000000005022026000000000000000                              00000000000000000000000       
1040001300301T 020000004910850000000   14999000002924135212924135        05032026000000000012563000000000                         091000037528602949EDISON HUBERTO VOSS                               000000000000000                           
1040001300302U 020000000000000000000000000000000000000000000000000000000000000000000000000000000000000000000000000000000000000000000000000502202600000000000005022026000000000000000                              00000000000000000000000       
1040001300303T 020000004910850000000   14999000002924136012924136        06032026000000000362176000000000                         092008176528000128KIAGA INDUSTRIA E COMERCIO LTDA                   000000000000000A4                         
1040001300304U 020000000000000000000000000000000000000000000000000000000000000000000000000000000000000000000000000000000000000000000000000502202600000000000005022026000000000000000                              00000000000000000000000       
1040001300305T 020000004910850000000   14999000002924137912924137        05022026000000000000004000000000                         092008176528000128KIAGA INDUSTRIA E COMERCIO LTDA                   000000000000000                           
1040001300306U 020000000000000000000000000000000000000000000000000000000000000000000000000000000000000000000000000000000000000000000000000502202600000000000005022026000000000000000                              00000000000000000000000       
1040001300307T 020000004910850000000   14999000002924138712924138        06032026000000000024422000000000                         092095762621000208ARILTON KUHNEN ME                                 000000000000000                           
1040001300308U 020000000000000000000000000000000000000000000000000000000000000000000000000000000000000000000000000000000000000000000000000502202600000000000005022026000000000000000                              00000000000000000000000       
1040001300309T 020000004910850000000   14999000002924139512924139        06032026000000000151308000000000                         092095762621000208ARILTON KUHNEN ME                                 000000000000000                           
1040001300310U 020000000000000000000000000000000000000000000000000000000000000000000000000000000000000000000000000000000000000000000000000502202600000000000005022026000000000000000                              00000000000000000000000       
1040001300311T 020000004910850000000   14999000002924140912924140        17022026000000000047013000000000                         091000082473463972DIOLENE WESSLER SCHLICKMANN KUHNEN                000000000000000                           
1040001300312U 020000000000000000000000000000000000000000000000000000000000000000000000000000000000000000000000000000000000000000000000000502202600000000000005022026000000000000000                              00000000000000000000000       
1040001300313T 020000004910850000000   14999000002924141712924141        05022026000000000107125000000000                         091000077091388968MADILENE DA SILVA DE MEDEIROS                     000000000000000                           
1040001300314U 020000000000000000000000000000000000000000000000000000000000000000000000000000000000000000000000000000000000000000000000000502202600000000000005022026000000000000000                              00000000000000000000000       
1040001300315T 020000004910850000000   14999000002924142512924142        06032026000000000187830000000000                         092012061082000163JANIO NACK RESTAURANTE LTDA                       000000000000000A4                         
1040001300316U 020000000000000000000000000000000000000000000000000000000000000000000000000000000000000000000000000000000000000000000000000502202600000000000005022026000000000000000                              00000000000000000000000       
1040001300317T 020000004910850000000   14999000002924143312924143        06032026000000000024765000000000                         092012061082000163JANIO NACK RESTAURANTE LTDA                       000000000000000A4                         
1040001300318U 020000000000000000000000000000000000000000000000000000000000000000000000000000000000000000000000000000000000000000000000000502202600000000000005022026000000000000000                              00000000000000000000000       
1040001300319T 020000004910850000000   14999000002924144112924144        05032026000000000036024000000000                         091000095084371972JOAQUIM KEMPER                                    000000000000000                           
1040001300320U 020000000000000000000000000000000000000000000000000000000000000000000000000000000000000000000000000000000000000000000000000502202600000000000005022026000000000000000                              00000000000000000000000       
1040001300321T 020000004910850000000   14999000002924145012924145        05032026000000000040282000000000                         091000095084371972JOAQUIM KEMPER                                    000000000000000                           
1040001300322U 020000000000000000000000000000000000000000000000000000000000000000000000000000000000000000000000000000000000000000000000000502202600000000000005022026000000000000000                              00000000000000000000000       
1040001300323T 020000004910850000000   14999000002924146812924146        05032026000000000005737000000000                         091000095084371972JOAQUIM KEMPER                                    000000000000000                           
1040001300324U 020000000000000000000000000000000000000000000000000000000000000000000000000000000000000000000000000000000000000000000000000502202600000000000005022026000000000000000                              00000000000000000000000       
1040001300325T 020000004910850000000   14999000002924147612924147        05032026000000000005477000000000                         091000095084371972JOAQUIM KEMPER                                    000000000000000                           
1040001300326U 020000000000000000000000000000000000000000000000000000000000000000000000000000000000000000000000000000000000000000000000000502202600000000000005022026000000000000000                              00000000000000000000000       
1040001300327T 020000004910850000000   14999000002924148412924148        05032026000000000141793000000000                         091000095084371972JOAQUIM KEMPER                                    000000000000000                           
1040001300328U 020000000000000000000000000000000000000000000000000000000000000000000000000000000000000000000000000000000000000000000000000502202600000000000005022026000000000000000                              00000000000000000000000       
1040001300329T 020000004910850000000   14999000002924149212924149        05032026000000000135366000000000                         091000095084371972JOAQUIM KEMPER                                    000000000000000                           
1040001300330U 020000000000000000000000000000000000000000000000000000000000000000000000000000000000000000000000000000000000000000000000000502202600000000000005022026000000000000000                              00000000000000000000000       
1040001300331T 020000004910850000000   14999000002924150612924150        05032026000000000049979000000000                         091000095084371972JOAQUIM KEMPER                                    000000000000000                           
1040001300332U 020000000000000000000000000000000000000000000000000000000000000000000000000000000000000000000000000000000000000000000000000502202600000000000005022026000000000000000                              00000000000000000000000       
1040001300333T 020000004910850000000   14999000002924151412924151        05032026000000000047714000000000                         091000095084371972JOAQUIM KEMPER                                    000000000000000                           
1040001300334U 020000000000000000000000000000000000000000000000000000000000000000000000000000000000000000000000000000000000000000000000000502202600000000000005022026000000000000000                              00000000000000000000000       
1040001300335T 020000004910850000000   14999000002924152212924152        05032026000000000034342000000000                         091000095084371972JOAQUIM KEMPER                                    000000000000000                           
1040001300336U 020000000000000000000000000000000000000000000000000000000000000000000000000000000000000000000000000000000000000000000000000502202600000000000005022026000000000000000                              00000000000000000000000       
1040001300337T 020000004910850000000   14999000002924153012924153        05032026000000000032785000000000                         091000095084371972JOAQUIM KEMPER                                    000000000000000                           
1040001300338U 020000000000000000000000000000000000000000000000000000000000000000000000000000000000000000000000000000000000000000000000000502202600000000000005022026000000000000000                              00000000000000000000000       
1040001300339T 020000004910850000000   14999000002924154912924154        05032026000000000046885000000000                         091000095084371972JOAQUIM KEMPER                                    000000000000000                           
1040001300340U 020000000000000000000000000000000000000000000000000000000000000000000000000000000000000000000000000000000000000000000000000502202600000000000005022026000000000000000                              00000000000000000000000       
1040001300341T 020000004910850000000   14999000002924155712924155        05032026000000000044760000000000                         091000095084371972JOAQUIM KEMPER                                    000000000000000                           
1040001300342U 020000000000000000000000000000000000000000000000000000000000000000000000000000000000000000000000000000000000000000000000000502202600000000000005022026000000000000000                              00000000000000000000000       
1040001300343T 020000004910850000000   14999000002924156512924156        05032026000000000052037000000000                         091000095084371972JOAQUIM KEMPER                                    000000000000000                           
1040001300344U 020000000000000000000000000000000000000000000000000000000000000000000000000000000000000000000000000000000000000000000000000502202600000000000005022026000000000000000                              00000000000000000000000       
1040001300345T 020000004910850000000   14999000002924157312924157        05032026000000000058842000000000                         091000095084371972JOAQUIM KEMPER                                    000000000000000                           
1040001300346U 020000000000000000000000000000000000000000000000000000000000000000000000000000000000000000000000000000000000000000000000000502202600000000000005022026000000000000000                              00000000000000000000000       
1040001300347T 020000004910850000000   14999000002924158112924158        05032026000000000061635000000000                         091000095084371972JOAQUIM KEMPER                                    000000000000000                           
1040001300348U 020000000000000000000000000000000000000000000000000000000000000000000000000000000000000000000000000000000000000000000000000502202600000000000005022026000000000000000                              00000000000000000000000       
1040001300349T 020000004910850000000   14999000002924159012924159        05032026000000000057319000000000                         091000095084371972JOAQUIM KEMPER                                    000000000000000                           
1040001300350U 020000000000000000000000000000000000000000000000000000000000000000000000000000000000000000000000000000000000000000000000000502202600000000000005022026000000000000000                              00000000000000000000000       
1040001300351T 020000004910850000000   14999000002924160312924160        05032026000000000054722000000000                         091000095084371972JOAQUIM KEMPER                                    000000000000000                           
1040001300352U 020000000000000000000000000000000000000000000000000000000000000000000000000000000000000000000000000000000000000000000000000502202600000000000005022026000000000000000                              00000000000000000000000       
1040001300353T 020000004910850000000   14999000002924161112924161        05032026000000000037585000000000                         091000095084371972JOAQUIM KEMPER                                    000000000000000                           
1040001300354U 020000000000000000000000000000000000000000000000000000000000000000000000000000000000000000000000000000000000000000000000000502202600000000000005022026000000000000000                              00000000000000000000000       
1040001300355T 020000004910850000000   14999000002924162012924162        05032026000000000040282000000000                         091000095084371972JOAQUIM KEMPER                                    000000000000000                           
1040001300356U 020000000000000000000000000000000000000000000000000000000000000000000000000000000000000000000000000000000000000000000000000502202600000000000005022026000000000000000                              00000000000000000000000       
1040001300357T 020000004910850000000   14999000002924163812924163        05032026000000000038457000000000                         091000095084371972JOAQUIM KEMPER                                    000000000000000                           
1040001300358U 020000000000000000000000000000000000000000000000000000000000000000000000000000000000000000000000000000000000000000000000000502202600000000000005022026000000000000000                              00000000000000000000000       
1040001300359T 020000004910850000000   14999000002924164612924164        05032026000000000040282000000000                         091000095084371972JOAQUIM KEMPER                                    000000000000000                           
1040001300360U 020000000000000000000000000000000000000000000000000000000000000000000000000000000000000000000000000000000000000000000000000502202600000000000005022026000000000000000                              00000000000000000000000       
1040001300361T 020000004910850000000   14999000002924165412924165        05032026000000000035734000000000                         091000095084371972JOAQUIM KEMPER                                    000000000000000                           
1040001300362U 020000000000000000000000000000000000000000000000000000000000000000000000000000000000000000000000000000000000000000000000000502202600000000000005022026000000000000000                              00000000000000000000000       
1040001300363T 020000004910850000000   14999000002924166212924166        05032026000000000037429000000000                         091000095084371972JOAQUIM KEMPER                                    000000000000000                           
1040001300364U 020000000000000000000000000000000000000000000000000000000000000000000000000000000000000000000000000000000000000000000000000502202600000000000005022026000000000000000                              00000000000000000000000       
1040001300365T 020000004910850000000   14999000002924167012924167        05032026000000000034392000000000                         091000095084371972JOAQUIM KEMPER                                    000000000000000                           
1040001300366U 020000000000000000000000000000000000000000000000000000000000000000000000000000000000000000000000000000000000000000000000000502202600000000000005022026000000000000000                              00000000000000000000000       
1040001300367T 020000004910850000000   14999000002924168912924168        05032026000000000038457000000000                         091000095084371972JOAQUIM KEMPER                                    000000000000000                           
1040001300368U 020000000000000000000000000000000000000000000000000000000000000000000000000000000000000000000000000000000000000000000000000502202600000000000005022026000000000000000                              00000000000000000000000       
1040001300369T 020000004910850000000   14999000002924169712924169        05032026000000000032224000000000                         091000095084371972JOAQUIM KEMPER                                    000000000000000                           
1040001300370U 020000000000000000000000000000000000000000000000000000000000000000000000000000000000000000000000000000000000000000000000000502202600000000000005022026000000000000000                              00000000000000000000000       
1040001300371T 020000004910850000000   14999000002924170012924170        05032026000000000033754000000000                         091000095084371972JOAQUIM KEMPER                                    000000000000000                           
1040001300372U 020000000000000000000000000000000000000000000000000000000000000000000000000000000000000000000000000000000000000000000000000502202600000000000005022026000000000000000                              00000000000000000000000       
1040001300373T 020000004910850000000   14999000002924171912924171        05032026000000000032224000000000                         091000095084371972JOAQUIM KEMPER                                    000000000000000                           
1040001300374U 020000000000000000000000000000000000000000000000000000000000000000000000000000000000000000000000000000000000000000000000000502202600000000000005022026000000000000000                              00000000000000000000000       
1040001300375T 020000004910850000000   14999000002924172712924172        05032026000000000033754000000000                         091000095084371972JOAQUIM KEMPER                                    000000000000000                           
1040001300376U 020000000000000000000000000000000000000000000000000000000000000000000000000000000000000000000000000000000000000000000000000502202600000000000005022026000000000000000                              00000000000000000000000       
1040001300377T 020000004910850000000   14999000002924173512924173        05032026000000000035882000000000                         091000095084371972JOAQUIM KEMPER                                    000000000000000                           
1040001300378U 020000000000000000000000000000000000000000000000000000000000000000000000000000000000000000000000000000000000000000000000000502202600000000000005022026000000000000000                              00000000000000000000000       
1040001300379T 020000004910850000000   14999000002924174312924174        08062026000000000042166000000000                         091000095084371972JOAQUIM KEMPER                                    000000000000000                           
1040001300380U 020000000000000000000000000000000000000000000000000000000000000000000000000000000000000000000000000000000000000000000000000502202600000000000005022026000000000000000                              00000000000000000000000       
1040001300381T 020000004910850000000   14999000002924175112924175        08062026000000000035333000000000                         091000095084371972JOAQUIM KEMPER                                    000000000000000                           
1040001300382U 020000000000000000000000000000000000000000000000000000000000000000000000000000000000000000000000000000000000000000000000000502202600000000000005022026000000000000000                              00000000000000000000000       
1040001300383T 020000004910850000000   14999000002924176012924176        08062026000000000035949000000000                         091000095084371972JOAQUIM KEMPER                                    000000000000000                           
1040001300384U 020000000000000000000000000000000000000000000000000000000000000000000000000000000000000000000000000000000000000000000000000502202600000000000005022026000000000000000                              00000000000000000000000       
1040001300385T 020000004910850000000   14999000002924177812924177        08062026000000000006005000000000                         091000095084371972JOAQUIM KEMPER                                    000000000000000                           
1040001300386U 020000000000000000000000000000000000000000000000000000000000000000000000000000000000000000000000000000000000000000000000000502202600000000000005022026000000000000000                              00000000000000000000000       
1040001300387T 020000004910850000000   14999000002924178612924178        08062026000000000148429000000000                         091000095084371972JOAQUIM KEMPER                                    000000000000000                           
1040001300388U 020000000000000000000000000000000000000000000000000000000000000000000000000000000000000000000000000000000000000000000000000502202600000000000005022026000000000000000                              00000000000000000000000       
1040001300389T 020000004910850000000   14999000002924179412924179        08062026000000000052318000000000                         091000095084371972JOAQUIM KEMPER                                    000000000000000                           
1040001300390U 020000000000000000000000000000000000000000000000000000000000000000000000000000000000000000000000000000000000000000000000000502202600000000000005022026000000000000000                              00000000000000000000000       
1040001300391T 020000004910850000000   14999000002924180812924180        08062026000000000037710000000000                         091000095084371972JOAQUIM KEMPER                                    000000000000000                           
1040001300392U 020000000000000000000000000000000000000000000000000000000000000000000000000000000000000000000000000000000000000000000000000502202600000000000005022026000000000000000                              00000000000000000000000       
1040001300393T 020000004910850000000   14999000002924181612924181        08062026000000000039181000000000                         091000095084371972JOAQUIM KEMPER                                    000000000000000                           
1040001300394U 020000000000000000000000000000000000000000000000000000000000000000000000000000000000000000000000000000000000000000000000000502202600000000000005022026000000000000000                              00000000000000000000000       
1040001300395T 020000004910850000000   14999000002924182412924182        08062026000000000035333000000000                         091000095084371972JOAQUIM KEMPER                                    000000000000000                           
1040001300396U 020000000000000000000000000000000000000000000000000000000000000000000000000000000000000000000000000000000000000000000000000502202600000000000005022026000000000000000                              00000000000000000000000       
1040001300397T 020000004910850000000   14999000002924183212924183        08062026000000000042166000000000                         091000095084371972JOAQUIM KEMPER                                    000000000000000                           
1040001300398U 020000000000000000000000000000000000000000000000000000000000000000000000000000000000000000000000000000000000000000000000000502202600000000000005022026000000000000000                              00000000000000000000000       
1040001300399T 020000004910850000000   14999000002924184012924184        08062026000000000060002000000000                         091000095084371972JOAQUIM KEMPER                                    000000000000000                           
1040001300400U 020000000000000000000000000000000000000000000000000000000000000000000000000000000000000000000000000000000000000000000000000502202600000000000005022026000000000000000                              00000000000000000000000       
1040001300401T 020000004910850000000   14999000002924185912924185        08062026000000000064519000000000                         091000095084371972JOAQUIM KEMPER                                    000000000000000                           
1040001300402U 020000000000000000000000000000000000000000000000000000000000000000000000000000000000000000000000000000000000000000000000000502202600000000000005022026000000000000000                              00000000000000000000000       
1040001300403T 020000004910850000000   14999000002924186712924186        08062026000000000057058000000000                         091000095084371972JOAQUIM KEMPER                                    000000000000000                           
1040001300404U 020000000000000000000000000000000000000000000000000000000000000000000000000000000000000000000000000000000000000000000000000502202600000000000005022026000000000000000                              00000000000000000000000       
1040001300405T 020000004910850000000   14999000002924189112924189        08062026000000000049078000000000                         091000095084371972JOAQUIM KEMPER                                    000000000000000                           
1040001300406U 020000000000000000000000000000000000000000000000000000000000000000000000000000000000000000000000000000000000000000000000000502202600000000000005022026000000000000000                              00000000000000000000000       
1040001300407T 020000004910850000000   14999000002924190512924190        05032026000000000058566000000000                         091000095084371972JOAQUIM KEMPER                                    000000000000000                           
1040001300408U 020000000000000000000000000000000000000000000000000000000000000000000000000000000000000000000000000000000000000000000000000502202600000000000005022026000000000000000                              00000000000000000000000       
1040001300409T 020000004910850000000   14999000002924191312924191        05032026000000000040392000000000                         091000095084371972JOAQUIM KEMPER                                    000000000000000                           
1040001300410U 020000000000000000000000000000000000000000000000000000000000000000000000000000000000000000000000000000000000000000000000000502202600000000000005022026000000000000000                              00000000000000000000000       
1040001300411T 020000004910850000000   14999000002924192112924192        08062026000000000044289000000000                         091000095084371972JOAQUIM KEMPER                                    000000000000000                           
1040001300412U 020000000000000000000000000000000000000000000000000000000000000000000000000000000000000000000000000000000000000000000000000502202600000000000005022026000000000000000                              00000000000000000000000       
