10400000         2829265510001450000000000000000000001070749108500000000MUNICIPIO DE BRACO DO NORTE   C ECON FEDERAL                          21202202601545100194104000000                    RETORNO-PRODUCAO                  000            
10400011T0100030 20829265510001450000000000000000000001070749108500000000MUNICIPIO DE BRACO DO NORTE                                                                                   00001941120220260000000000                          00   
1040001300001T 060000004910850000000   14999000002895386312895386        120220260000000003812100000000002895386                  091000007190636986KAIAN DA SILVA MARCIANO                           000000000000199620300                     
1040001300002U 060000000000000000000000001677000000000000000000000000000000000000000002135100000000002135100000000000000000000000000000001202202612022026000012022026000000000000000000000000000000               00000000000000000000000       
1040001300003T 060000004910850000000   14999000002895420712895420        120220260000000000319710000000002895420                  091000002438949961GILBERTO ULIANO JUNIOR                            000000000000199620300                     
1040001300004U 060000000000000000000000000066970000000000000000000000000000000000000000252740000000000252740000000000000000000000000000001202202612022026000012022026000000000000000000000000000000               00000000000000000000000       
1040001300005T 060000004910850000000   14999000002913701612913701        160220260000000000433652370000002913701                  092037657211000101SCHL PARTICIPACOES S.A                            000000000000199620300                     
1040001300006U 060000000000000000000000000147580000000000000000000000000000000000000000286070000000000286070000000000000000000000000000001202202612022026000012022026000000000000000100099945177915               00000000000000000000000       
1040001300007T 060000004910850000000   14999000002913707512913707        160220260000000000229122370000002913707                  092033523530000173LANAC PARTICIPACOES S.A                           000000000000199620300                     
1040001300008U 060000000000000000000000000077970000000000000000000000000000000000000000151150000000000151150000000000000000000000000000001202202612022026000012022026000000000000000100099945177915               00000000000000000000000       
1040001300009T 060000004910850000000   14999000002913713012913713        160220260000000000128912370000002913713                  091000099945177915CLEYTON SCHLICKMANN                               000000000000199620300                     
1040001300010U 060000000000000000000000000025310000000000000000000000000000000000000000103600000000000103600000000000000000000000000000001202202612022026000012022026000000000000000100099945177915               00000000000000000000000       
1040001300011T 060000004910850000000   14999000002913721012913721        160220260000000000161972370000002913721                  091000099945177915CLEYTON SCHLICKMANN                               000000000000199620300                     
1040001300012U 060000000000000000000000000042930000000000000000000000000000000000000000119040000000000119040000000000000000000000000000001202202612022026000012022026000000000000000100099945177915               00000000000000000000000       
1040001300013T 060000004910850000000   14999000002928864212928864        220420260000000006517230010000002928864                  091000011508002916DOUGLAS LAGO VOLPATO                              000000000000199620300                     
1040001300014U 060000000000000000000000000000000000000000000000000000000000000000000006517230000000006517230000000000000000000000000000001202202612022026000012022026000000000000000100074401114949               00000000000000000000000       
1040001300015T 060000004910850000000   14999000002936838712936838        110520260000000007706603230000002936838                  091000047129115904RAQUEL VOLPATO DEBIASI                            000000000000199620300                     
1040001300016U 060000000000000000000000000000000000000000000000000000000000000000000007706600000000007706600000000000000000000000000000001202202612022026000012022026000000000000000100008826047910               00000000000000000000000       
1040001300017T 060000004910850000000   14999000002936950212936950        110520260000000004917230000000002936950                  091000011738531970LEONARDO MATES DUSSMANN                           000000000000199620300                     
1040001300018U 060000000000000000000000000000000000000000000000000000000000000000000004917230000000004917230000000000000000000000000000001202202612022026000012022026000000000000000000000000000000               00000000000000000000000       
1040001300019T 060000004910850000000   14999000002937481612937481        110320260000000000120720000000002937481                  091000001732912955JANIR MARCOS MEDEIROS                             000000000000199620300                     
1040001300020U 060000000000000000000000000000000000000000000000000000000000000000000000120720000000000120720000000000000000000000000000001202202612022026000012022026000000000000000000000000000000               00000000000000000000000       
1040001300021T 060000004910850000000   14999000002938130812938130        080620260000000000436791040107002938130                  091000007104004971THIAGO DELLA GIUSTINA                             000000000000199610300                     
1040001300022U 060000000000000000000000000059170000000000000000000000000000000000000000377620000000000377620000000000000000000000000000001202202612022026000012022026000000000000000100007104004971               00000000000000000000000       
1040001300023T 060000004910850000000   14999000002938369612938369        120220260000000000415230000000002938369                  091000006857662924LUIZ LOCH LOCKS                                   000000000000199620300                     
1040001300024U 060000000000000000000000000000000000000000000000000000000000000000000000415230000000000415230000000000000000000000000000001202202612022026000012022026000000000000000000000000000000               00000000000000000000000       
1040001300025T 060000004910850000000   14999000002938517612938517        120220260000000001024740000000002938517                  092010709719000150SIMIANO REPRESENTACOES COMERCIAIS LTDA            000000000000199620300                     
1040001300026U 060000000000000000000000000266920000000000000000000000000000000000000000757820000000000757820000000000000000000000000000001202202612022026000012022026000000000000000000000000000000               00000000000000000000000       
1040001300027T 060000004910850000000   14999000002832741512832741        120220260000000000574391360140502832741                  092010298323000167RAFAEL SOMBRIO FERNANDES & CIA LTDA               000000000000199040301                     
1040001300028U 060000000000000000000000000000000000000000000000000000000000000000000000574390000000000574390000000000000000000000000000001202202613022026000013022026000000000000000239506642000100               00000000000000000000000       
1040001300029T 060000004910850000000   14999000002882081212882081        010320260000000000242620010073802882081                  091000028832108968SANTELINO JERONIMO                                000000000000199040301                     
1040001300030U 060000000000000000000000000000000000000000000000000000000000000000000000242620000000000242620000000000000000000000000000001202202613022026000013022026000000000000000100005025911966               00000000000000000000000       
1040001300031T 060000004910850000000   14999000002891148612891148        120220260000000000224827560056502891148                  092017211866000144LOGPRO SERVICOS ADMINISTRATIVOS PARA TER          000000000000199040301                     
1040001300032U 060000000000000000000000000000000000000000000000000000000000000000000000224820000000000224820000000000000000000000000000001202202613022026000013022026000000000000000217211866000144               00000000000000000000000       
1040001300033T 060000004910850000000   14999000002895392812895392        120220260000000000559002370033602895392                  091000079617964953CLEBER LUCIANO PEREIRA                            000000000000199040301                     
1040001300034U 060000000000000000000000000153440000000000000000000000000000000000000000405560000000000405560000000000000000000000000000001202202613022026000013022026000000000000000207663078000135               00000000000000000000000       
1040001300035T 060000004910850000000   14999000002896958112896958        170220260000000000670697560056502896958                  091000003251753908JORDANA SALVALAGIO RALDI                          000000000000199040301                     
1040001300036U 060000000000000000000000000256860000000000000000000000000000000000000000413830000000000413830000000000000000000000000000001202202613022026000013022026000000000000000100000591434954               00000000000000000000000       
1040001300037T 060000004910850000000   14999000002897564612897564        230220260000000000195851040107002897564                  091000004148378947MARGARETE MACHADO CAMILO                          000000000000199020101                     
1040001300038U 060000000000000000000000000050380000000000000000000000000000000000000000145470000000000145470000000000000000000000000000001202202613022026000013022026000000000000000000000000000000               00000000000000000000000       
1040001300039T 060000004910850000000   14999000002900410512900410        090320260000000001188397480156502900410                  091000082695466900ESPOLIO WANDA JUNKES THIESEN                      000000000000199040301                     
1040001300040U 060000000000000000000000000407240000000000000000000000000000000000000000781150000000000781150000000000000000000000000000001202202613022026000013022026000000000000000227230904000160               00000000000000000000000       
1040001300041T 060000004910850000000   14999000002903451912903451        160220260000000000814160770000102903451                  091000000374143994FERNANDO DE SOUZA BATISTA                         000000000000199040301                     
1040001300042U 060000000000000000000000000000000000000000000000000000000000000000000000814160000000000814160000000000000000000000000000001202202613022026000013022026000000000000000100003362687938               00000000000000000000000       
1040001300043T 060000004910850000000   14999000002903567112903567        170220260000000000150250010208902903567                  091000002139193970CLAUDEMAR HEMKEMEIER                              000000000000199040301                     
1040001300044U 060000000000000000000000000000000000000000000000000000000000000000000000150250000000000150250000000000000000000000000000001202202613022026000013022026000000000000000203073349000141               00000000000000000000000       
1040001300045T 060000004910850000000   14999000002903575212903575        170220260000000000334390010208902903575                  091000000773653996SILVESTRE SEZINO DE GODOY                         000000000000199040301                     
1040001300046U 060000000000000000000000000000000000000000000000000000000000000000000000334390000000000334390000000000000000000000000000001202202613022026000013022026000000000000000203073349000141               00000000000000000000000       
1040001300047T 060000004910850000000   14999000002904207412904207        230220260000000000107181040107002904207                  091000065939344968JOSE FELISBINO                                    000000000000199060301                     
1040001300048U 060000000000000000000000000000000000000000000000000000000000000000000000107180000000000107180000000000000000000000000000001202202613022026000013022026000000000000000000000000000000               00000000000000000000000       
1040001300049T 060000004910850000000   14999000002905552412905552        020320260000000000169910770000102905552                  091000006589166960KARINI GRACIA DA SILVA                            000000000000199040301                     
1040001300050U 060000000000000000000000000041720000000000000000000000000000000000000000128190000000000128190000000000000000000000000000001202202613022026000013022026000000000000000100006589166960               00000000000000000000000       
1040001300051T 060000004910850000000   14999000002907279812907279        120220260000000004333151040107002907279                  092085325272000114AUGUSTO SILVA MOTTA                               000000000000199020101                     
1040001300052U 060000000000000000000000002124720000000000000000000000000000000000000002208430000000002208430000000000000000000000000000001202202613022026000013022026000000000000000000000000000000               00000000000000000000000       
1040001300053T 060000004910850000000   14999000002908486912908486        190220260000000000192141040107002908486                  091000007837589955NAGILA VIEIRA DAMAZIO                             000000000000199020101                     
1040001300054U 060000000000000000000000000034650000000000000000000000000000000000000000157490000000000157490000000000000000000000000000001202202613022026000013022026000000000000000000000000000000               00000000000000000000000       
1040001300055T 060000004910850000000   14999000002913471812913471        120220260000000000618901040107002913471                  092037603556000182ISRAEL NEGOCIOS LTDA                              000000000000199020101                     
1040001300056U 060000000000000000000000000260260000000000000000000000000000000000000000358640000000000358640000000000000000000000000000001202202613022026000013022026000000000000000000000000000000               00000000000000000000000       
1040001300057T 060000004910850000000   14999000002913487412913487        120220260000000002305061040107002913487                  091000025812599904MOISES NAZARIO COSTA                              000000000000199020101                     
1040001300058U 060000000000000000000000000498820000000000000000000000000000000000000001806240000000001806240000000000000000000000000000001202202613022026000013022026000000000000000000000000000000               00000000000000000000000       
1040001300059T 060000004910850000000   14999000002913557912913557        120220260000000001255430010422102913557                  091000090689968949EDESIO RODRIGUES NAZARIO                          000000000000199040301                     
1040001300060U 060000000000000000000000000544700000000000000000000000000000000000000000710730000000000710730000000000000000000000000000001202202613022026000013022026000000000000000100058646515915               00000000000000000000000       
1040001300061T 060000004910850000000   14999000002913589712913589        120220260000000000462397560056502913589                  091000002341990916GEOVANE MARTINS FERREIRA                          000000000000199040301                     
1040001300062U 060000000000000000000000000198650000000000000000000000000000000000000000263740000000000263740000000000000000000000000000001202202613022026000013022026000000000000000100003324533910               00000000000000000000000       
1040001300063T 060000004910850000000   14999000002919718312919718        050320260000000000414271330262802919718                  091000006857662924LUIZ LOCH LOCKS                                   000000000000199040301                     
1040001300064U 060000000000000000000000000000000000000000000000000000000000000000000000414270000000000414270000000000000000000000000000001202202613022026000013022026000000000000000100006857662924               00000000000000000000000       
1040001300065T 060000004910850000000   14999000002922508012922508        120220260000000000161400330333902922508                  092043858808000117DS AUTOMOVEIS LTDA                                000000000000199040301                     
1040001300066U 060000000000000000000000000000000000000000000000000000000000000000000000161400000000000161400000000000000000000000000000001202202613022026000013022026000000000000000243858808000117               00000000000000000000000       
1040001300067T 060000004910850000000   14999000002922766012922766        060320260000000000138662600000102922766                  092047867621000130LAIS DACOREGGIO V. LTDA                           000000000000199040301                     
1040001300068U 060000000000000000000000000000000000000000000000000000000000000000000000138660000000000138660000000000000000000000000000001202202613022026000013022026000000000000000100009065019979               00000000000000000000000       
1040001300069T 060000004910850000000   14999000002923005912923005        120220260000000000205277560056502923005                  091000046089918920MOACIR CEOLIN                                     000000000000199040301                     
1040001300070U 060000000000000000000000000000000000000000000000000000000000000000000000205270000000000205270000000000000000000000000000001202202613022026000013022026000000000000000100092453589920               00000000000000000000000       
1040001300071T 060000004910850000000   14999000002923010512923010        120220260000000001415822370038202923010                  091000053250796972ALOISIO HEIDEMANN                                 000000000000199040301                     
1040001300072U 060000000000000000000000000000000000000000000000000000000000000000000001415820000000001415820000000000000000000000000000001202202613022026000013022026000000000000000100053250796972               00000000000000000000000       
1040001300073T 060000004910850000000   14999000002923251512923251        060320260000000001197940010369202923251                  092040245152000179H2PLAST INDUSTRIA E COMERCIO DE PLASTICO          000000000000199040301                     
1040001300074U 060000000000000000000000000000000000000000000000000000000000000000000001197940000000001197940000000000000000000000000000001202202613022026000013022026000000000000000240245152000179               00000000000000000000000       
1040001300075T 060000004910850000000   14999000002924517012924517        020320260000000000117233410200002924517                  09208014517000010180.145.170 ALOISIO CRESCENCIO HEIDEMANN           000000000000199040301                     
1040001300076U 060000000000000000000000000000000000000000000000000000000000000000000000117230000000000117230000000000000000000000000000001202202613022026000013022026000000000000000100003437177940               00000000000000000000000       
1040001300077T 060000004910850000000   14999000002925536112925536        080620260000000000096931040107002925536                  091000008214812909DAIANI JOCHEN FREITAS                             000000000000199020101                     
1040001300078U 060000000000000000000000000000000000000000000000000000000000000000000000096930000000000096930000000000000000000000000000001202202613022026000013022026000000000000000000000000000000               00000000000000000000000       
1040001300079T 060000004910850000000   14999000002925546912925546        080620260000000000375772600000102925546                  091000017599679987JOSE IRINEU DE SOUZA                              000000000000199040301                     
1040001300080U 060000000000000000000000000000000000000000000000000000000000000000000000375770000000000375770000000000000000000000000000001202202613022026000013022026000000000000000100005271784975               00000000000000000000000       
1040001300081T 060000004910850000000   14999000002928198212928198        060320260000000000387661040107002928198                  091000075813319972EVERALDO CORREA HASKEL                            000000000000199020101                     
1040001300082U 060000000000000000000000000019380000000000000000000000000000000000000000368280000000000368280000000000000000000000000000001202202613022026000013022026000000000000000000000000000000               00000000000000000000000       
1040001300083T 060000004910850000000   14999000002928199012928199        060320260000000000496201040107002928199                  091000075813319972EVERALDO CORREA HASKEL                            000000000000199020101                     
1040001300084U 060000000000000000000000000099240000000000000000000000000000000000000000396960000000000396960000000000000000000000000000001202202613022026000013022026000000000000000000000000000000               00000000000000000000000       
1040001300085T 060000004910850000000   14999000002928473612928473        060320260000000000477657560056502928473                  092000465800000188WILSON TENFEN & CIA LTDA                          000000000000199040301                     
1040001300086U 060000000000000000000000000000000000000000000000000000000000000000000000477650000000000477650000000000000000000000000000001202202613022026000013022026000000000000000200465800000188               00000000000000000000000       
1040001300087T 060000004910850000000   14999000002928475212928475        060320260000000002269587480590502928475                  092010665555000106ZANATTA COMERCIO DE PNEUS LTDA                    000000000000199040301                     
1040001300088U 060000000000000000000000000000000000000000000000000000000000000000000002269580000000002269580000000000000000000000000000001202202613022026000013022026000000000000000210665555000106               00000000000000000000000       
1040001300089T 060000004910850000000   14999000002928480912928480        080620260000000000407640010369202928480                  092009431070000179SONEGO CONSTRUCOES LTDA                           000000000000199040301                     
1040001300090U 060000000000000000000000000000000000000000000000000000000000000000000000407640000000000407640000000000000000000000000000001202202613022026000013022026000000000000000100002861306963               00000000000000000000000       
1040001300091T 060000004910850000000   14999000002928481712928481        080620260000000000011990010369202928481                  092009431070000179SONEGO CONSTRUCOES LTDA                           000000000000199040301                     
1040001300092U 060000000000000000000000000000000000000000000000000000000000000000000000011990000000000011990000000000000000000000000000001202202613022026000013022026000000000000000100002861306963               00000000000000000000000       
1040001300093T 060000004910850000000   14999000002928513912928513        120220260000000000294667560056502928513                  092017211866000144LOGPRO SERVICOS ADMINISTRATIVOS PARA TER          000000000000199040301                     
1040001300094U 060000000000000000000000000000000000000000000000000000000000000000000000294660000000000294660000000000000000000000000000001202202613022026000013022026000000000000000217211866000144               00000000000000000000000       
1040001300095T 060000004910850000000   14999000002928514712928514        120220260000000000224057560056502928514                  092017211866000144LOGPRO SERVICOS ADMINISTRATIVOS PARA TER          000000000000199040301                     
1040001300096U 060000000000000000000000000000000000000000000000000000000000000000000000224050000000000224050000000000000000000000000000001202202613022026000013022026000000000000000217211866000144               00000000000000000000000       
1040001300097T 060000004910850000000   14999000002928602012928602        120220260000000000357550010073802928602                  091000072160624934MARCOS SCHMIDT DELLA GIUSTINA                     000000000000199040301                     
1040001300098U 060000000000000000000000000000000000000000000000000000000000000000000000357550000000000357550000000000000000000000000000001202202613022026000013022026000000000000000100010208454900               00000000000000000000000       
1040001300099T 060000004910850000000   14999000002928746812928746        120220260000000000463067560056502928746                  092044859975000145MP INSTALACOES HIDRAULICAS LTDA                   000000000000199040301                     
1040001300100U 060000000000000000000000000000000000000000000000000000000000000000000000463060000000000463060000000000000000000000000000001202202613022026000013022026000000000000000244859975000145               00000000000000000000000       
1040001300101T 060000004910850000000   14999000002928877412928877        120220260000000000245461040107002928877                  091000004525834978CRISTIANE LESSA MARIANO                           000000000000199060301                     
1040001300102U 060000000000000000000000000000000000000000000000000000000000000000000000245460000000000245460000000000000000000000000000001202202613022026000013022026000000000000000000000000000000               00000000000000000000000       
1040001300103T 060000004910850000000   14999000002929486312929486        160220260000000000659210010073802929486                  092040788826000181VISNORTE VISTORIA VEICULAR LTDA                   000000000000199040301                     
1040001300104U 060000000000000000000000000000000000000000000000000000000000000000000000659210000000000659210000000000000000000000000000001202202613022026000013022026000000000000000100055061672968               00000000000000000000000       
1040001300105T 060000004910850000000   14999000002934199312934199        240220260000000001977167560281202934199                  091000025210645991ERVIZO MATTEI ASCARI                              000000000000199040301                     
1040001300106U 060000000000000000000000000772260000000000000000000000000000000000000001204900000000001204900000000000000000000000000000001202202613022026000013022026000000000000000100025210645991               00000000000000000000000       
1040001300107T 060000004910850000000   14999000002937068312937068        120220260000000000133087560056502937068                  092010934913000139DF IMPORTACAO E FABRICACAO DE EQUIPAMENT          000000000000199040301                     
1040001300108U 060000000000000000000000000000000000000000000000000000000000000000000000133080000000000133080000000000000000000000000000001202202613022026000013022026000000000000000210934913000139               00000000000000000000000       
1040001300109T 060000004910850000000   14999000002937084512937084        120220260000000000423052370033602937084                  092061744510000168EDIFICIO COMERCIAL E RESIDENCIAL GIRASSO          000000000000199040301                     
1040001300110U 060000000000000000000000000000000000000000000000000000000000000000000000423050000000000423050000000000000000000000000000001202202613022026000013022026000000000000000261744510000168               00000000000000000000000       
1040001300111T 060000004910850000000   14999000002937482412937482        120220260000000000151531040107002937482                  091000003571277902SILVIA PHILIPPI                                   000000000000199020101                     
1040001300112U 060000000000000000000000000035050000000000000000000000000000000000000000116480000000000116480000000000000000000000000000001202202613022026000013022026000000000000000000000000000000               00000000000000000000000       
1040001300113T 060000004910850000000   14999000002937483212937483        200220260000000000150721040107002937483                  091000003571277902SILVIA PHILIPPI                                   000000000000199020101                     
1040001300114U 060000000000000000000000000035050000000000000000000000000000000000000000115670000000000115670000000000000000000000000000001202202613022026000013022026000000000000000000000000000000               00000000000000000000000       
1040001300115T 060000004910850000000   14999000002937663012937663        060320260000000001791557560056502937663                  092031422954000116FABIO ZAPELINI REPRESENTACOES                     000000000000199040301                     
1040001300116U 060000000000000000000000000358310000000000000000000000000000000000000001433240000000001433240000000000000000000000000000001202202613022026000013022026000000000000000231422954000116               00000000000000000000000       
1040001300117T 060000004910850000000   14999000002938129412938129        120520260000000002475230010540002938129                  091000005342913926MONICA MORGAN VERONEZI                            000000000000199040301                     
1040001300118U 060000000000000000000000000000000000000000000000000000000000000000000002475230000000002475230000000000000000000000000000001202202613022026000013022026000000000000000100005342913926               00000000000000000000000       
1040001300119T 060000004910850000000   14999000002938134012938134        130220260000000001181957480156502938134                  091000082695466900ESPOLIO DE WANDA JUNKES THIESEN                   000000000000199040301                     
1040001300120U 060000000000000000000000000407170000000000000000000000000000000000000000774780000000000774780000000000000000000000000000001202202613022026000013022026000000000000000227230904000160               00000000000000000000000       
1040001300121T 060000004910850000000   14999000002938199512938199        140320260000000000583387480156502938199                  091000082695466900ESPOLIO DE WANDA JUNKES THIESEN                   000000000000199040301                     
1040001300122U 060000000000000000000000000000000000000000000000000000000000000000000000583380000000000583380000000000000000000000000000001202202613022026000013022026000000000000000227230904000160               00000000000000000000000       
1040001300123T 060000004910850000000   14999000002938200212938200        080620260000000000907917480156502938200                  091000082695466900ESPOLIO DE WANDA JUNKES THIESEN                   000000000000199040301                     
1040001300124U 060000000000000000000000000138450000000000000000000000000000000000000000769460000000000769460000000000000000000000000000001202202613022026000013022026000000000000000227230904000160               00000000000000000000000       
1040001300125T 060000004910850000000   14999000002938428512938428        120220260000000000273611040107002938428                  091000003458684980SERGIO PATRICIO                                   000000000000199020101                     
1040001300126U 060000000000000000000000000063940000000000000000000000000000000000000000209670000000000209670000000000000000000000000000001202202613022026000013022026000000000000000000000000000000               00000000000000000000000       
1040001300127T 060000004910850000000   14999000002938508712938508        080620260000000000934711040107002938508                  091000090741129949CELIRIA SCHMOELLER                                000000000000199020101                     
1040001300128U 060000000000000000000000000181560000000000000000000000000000000000000000753150000000000753150000000000000000000000000000001202202613022026000013022026000000000000000000000000000000               00000000000000000000000       
1040001300129T 020000004910850000000   14999000002922519512922519        22022026000000000001188000000000                         092016796341000155EDER WIEMES LTDA                                  000000000000000A4                         
1040001300130U 020000000000000000000000000000000000000000000000000000000000000000000000000000000000000000000000000000000000000000000000001202202600000000000000000000000000000000000                              00000000000000000000000       
1040001300131T 020000004910850000000   14999000002922527612922527        22022026000000000020000000000000                         092028754618000166CENTRO EMPRESARIAL DE SAUDE LA DAMA BRAC          000000000000000A4                         
1040001300132U 020000000000000000000000000000000000000000000000000000000000000000000000000000000000000000000000000000000000000000000000001202202600000000000000000000000000000000000                              00000000000000000000000       
1040001300133T 020000004910850000000   14999000002922508012922508        12022026000000000016140000000000                         092043858808000117DS AUTOMOVEIS LTDA                                000000000000000                           
1040001300134U 020000000000000000000000000000000000000000000000000000000000000000000000000000000000000000000000000000000000000000000000001202202600000000000012022026000000000000000                              00000000000000000000000       
1040001300135T 020000004910850000000   14999000002922514412922514        22022026000000000013212000000000                         092010934913000139DF IMPORTACAO E FABRICACAO DE EQUIPAMENT          000000000000000A4                         
1040001300136U 020000000000000000000000000000000000000000000000000000000000000000000000000000000000000000000000000000000000000000000000001202202600000000000012022026000000000000000                              00000000000000000000000       
1040001300137T 020000004910850000000   14999000002928478712928478        19032029000000002389111000000000                         092020778368000192NASA PRE MOLDADOS E CONSTRUCOES LTDA              000000000000000A4                         
1040001300138U 020000000000000000000000000000000000000000000000000000000000000000000000000000000000000000000000000000000000000000000000001202202600000000000012022026000000000000000                              00000000000000000000000       
1040001300139T 020000004910850000000   14999000002928479512928479        12022026000000000194235000000000                         092049995941000100SEVEN AUTO SOM LTDA                               000000000000000                           
1040001300140U 020000000000000000000000000000000000000000000000000000000000000000000000000000000000000000000000000000000000000000000000001202202600000000000012022026000000000000000                              00000000000000000000000       
1040001300141T 020000004910850000000   14999000002928480912928480        08062026000000000040764000000000                         092009431070000179SONEGO CONSTRUCOES LTDA                           000000000000000                           
1040001300142U 020000000000000000000000000000000000000000000000000000000000000000000000000000000000000000000000000000000000000000000000001202202600000000000012022026000000000000000                              00000000000000000000000       
1040001300143T 020000004910850000000   14999000002928481712928481        08062026000000000001199000000000                         092009431070000179SONEGO CONSTRUCOES LTDA                           000000000000000                           
1040001300144U 020000000000000000000000000000000000000000000000000000000000000000000000000000000000000000000000000000000000000000000000001202202600000000000012022026000000000000000                              00000000000000000000000       
1040001300145T 020000004910850000000   14999000002928482512928482        08062026000000000037367000000000                         091000004380840980LETICIA SOUZA FORNAZZA                            000000000000000                           
1040001300146U 020000000000000000000000000000000000000000000000000000000000000000000000000000000000000000000000000000000000000000000000001202202600000000000012022026000000000000000                              00000000000000000000000       
1040001300147T 020000004910850000000   14999000002928483312928483        08062026000000000024852000000000                         091000007856959908RENAN JERONIMO BLOEMER                            000000000000000A4                         
1040001300148U 020000000000000000000000000000000000000000000000000000000000000000000000000000000000000000000000000000000000000000000000001202202600000000000012022026000000000000000                              00000000000000000000000       
1040001300149T 020000004910850000000   14999000002928484112928484        08062026000000000120197000000000                         091000007856959908RENAN JERONIMO BLOEMER                            000000000000000A4                         
1040001300150U 020000000000000000000000000000000000000000000000000000000000000000000000000000000000000000000000000000000000000000000000001202202600000000000012022026000000000000000                              00000000000000000000000       
1040001300151T 020000004910850000000   14999000002928485012928485        08062026000000000068604000000000                         091000001585686999RODRIGO VILA                                      000000000000000A4                         
1040001300152U 020000000000000000000000000000000000000000000000000000000000000000000000000000000000000000000000000000000000000000000000001202202600000000000012022026000000000000000                              00000000000000000000000       
1040001300153T 020000004910850000000   14999000002928486812928486        08062026000000000051620000000000                         091000087155729949MARCIA CAETANO                                    000000000000000A4                         
1040001300154U 020000000000000000000000000000000000000000000000000000000000000000000000000000000000000000000000000000000000000000000000001202202600000000000012022026000000000000000                              00000000000000000000000       
1040001300155T 020000004910850000000   14999000002928487612928487        08062026000000000045853000000000                         091000024599603953ANTONIO CAETANO                                   000000000000000                           
1040001300156U 020000000000000000000000000000000000000000000000000000000000000000000000000000000000000000000000000000000000000000000000001202202600000000000012022026000000000000000                              00000000000000000000000       
1040001300157T 020000004910850000000   14999000002928488412928488        08062026000000000054381000000000                         091000024599603953ANTONIO CAETANO                                   000000000000000                           
1040001300158U 020000000000000000000000000000000000000000000000000000000000000000000000000000000000000000000000000000000000000000000000001202202600000000000012022026000000000000000                              00000000000000000000000       
1040001300159T 020000004910850000000   14999000002928489212928489        08062026000000000043449000000000                         091000024599603953ANTONIO CAETANO                                   000000000000000                           
1040001300160U 020000000000000000000000000000000000000000000000000000000000000000000000000000000000000000000000000000000000000000000000001202202600000000000012022026000000000000000                              00000000000000000000000       
1040001300161T 020000004910850000000   14999000002928490612928490        06032026000000000094200000000000                         092032514232000154OENNING SERVICOS MEDICOS LTDA                     000000000000000                           
1040001300162U 020000000000000000000000000000000000000000000000000000000000000000000000000000000000000000000000000000000000000000000000001202202600000000000012022026000000000000000                              00000000000000000000000       
1040001300163T 020000004910850000000   14999000002928491412928491        06032026000000000119522000000000                         092032514232000154OENNING SERVICOS MEDICOS LTDA                     000000000000000                           
1040001300164U 020000000000000000000000000000000000000000000000000000000000000000000000000000000000000000000000000000000000000000000000001202202600000000000012022026000000000000000                              00000000000000000000000       
1040001300165T 020000004910850000000   14999000002928492212928492        06032026000000000086956000000000                         092015288668000153TEODOCI MATOS                                     000000000000000                           
1040001300166U 020000000000000000000000000000000000000000000000000000000000000000000000000000000000000000000000000000000000000000000000001202202600000000000012022026000000000000000                              00000000000000000000000       
1040001300167T 020000004910850000000   14999000002928493012928493        08062026000000000002861000000000                         091000003602572919REGINALDO OENNING                                 000000000000000                           
1040001300168U 020000000000000000000000000000000000000000000000000000000000000000000000000000000000000000000000000000000000000000000000001202202600000000000012022026000000000000000                              00000000000000000000000       
1040001300169T 020000004910850000000   14999000002928494912928494        08062026000000000002861000000000                         091000003602572919REGINALDO OENNING                                 000000000000000                           
1040001300170U 020000000000000000000000000000000000000000000000000000000000000000000000000000000000000000000000000000000000000000000000001202202600000000000012022026000000000000000                              00000000000000000000000       
1040001300171T 020000004910850000000   14999000002928495712928495        08062026000000000063268000000000                         091000003602572919REGINALDO OENNING                                 000000000000000                           
1040001300172U 020000000000000000000000000000000000000000000000000000000000000000000000000000000000000000000000000000000000000000000000001202202600000000000012022026000000000000000                              00000000000000000000000       
1040001300173T 020000004910850000000   14999000002928496512928496        08062026000000000077456000000000                         091000003425807951VALTER SCHMOELLER                                 000000000000000                           
1040001300174U 020000000000000000000000000000000000000000000000000000000000000000000000000000000000000000000000000000000000000000000000001202202600000000000012022026000000000000000                              00000000000000000000000       
1040001300175T 020000004910850000000   14999000002928497312928497        06032026000000000180182000000000                         092031273209000152KAP AGENCIA LTDA                                  000000000000000                           
1040001300176U 020000000000000000000000000000000000000000000000000000000000000000000000000000000000000000000000000000000000000000000000001202202600000000000012022026000000000000000                              00000000000000000000000       
1040001300177T 020000004910850000000   14999000002928498112928498        08062026000000000097491000000000                         091000049646893953VALDEMAR ZOCCHE                                   000000000000000A4                         
1040001300178U 020000000000000000000000000000000000000000000000000000000000000000000000000000000000000000000000000000000000000000000000001202202600000000000012022026000000000000000                              00000000000000000000000       
1040001300179T 020000004910850000000   14999000002928499012928499        08062026000000000125538000000000                         091000049646893953VALDEMAR ZOCCHE                                   000000000000000A4                         
1040001300180U 020000000000000000000000000000000000000000000000000000000000000000000000000000000000000000000000000000000000000000000000001202202600000000000012022026000000000000000                              00000000000000000000000       
1040001300181T 020000004910850000000   14999000002928500712928500        08062026000000000128507000000000                         091000082445710987VALERIA DE FATIMA CARARA ZOCCHE                   000000000000000A4                         
1040001300182U 020000000000000000000000000000000000000000000000000000000000000000000000000000000000000000000000000000000000000000000000001202202600000000000012022026000000000000000                              00000000000000000000000       
1040001300183T 020000004910850000000   14999000002928501512928501        08062026000000000086884000000000                         091000082445710987VALERIA DE FATIMA CARARA ZOCCHE                   000000000000000A4                         
1040001300184U 020000000000000000000000000000000000000000000000000000000000000000000000000000000000000000000000000000000000000000000000001202202600000000000012022026000000000000000                              00000000000000000000000       
1040001300185T 020000004910850000000   14999000002928502312928502        08062026000000000207530000000000                         091000082445710987VALERIA DE FATIMA CARARA ZOCCHE                   000000000000000A4                         
1040001300186U 020000000000000000000000000000000000000000000000000000000000000000000000000000000000000000000000000000000000000000000000001202202600000000000012022026000000000000000                              00000000000000000000000       
1040001300187T 020000004910850000000   14999000002928503112928503        08062026000000000057093000000000                         091000082445710987VALERIA DE FATIMA CARARA ZOCCHE                   000000000000000A4                         
1040001300188U 020000000000000000000000000000000000000000000000000000000000000000000000000000000000000000000000000000000000000000000000001202202600000000000012022026000000000000000                              00000000000000000000000       
1040001300189T 020000004910850000000   14999000002928504012928504        08062026000000000024852000000000                         091000006803348903BRUNO CARARA ZOCCHE                               000000000000000A4                         
1040001300190U 020000000000000000000000000000000000000000000000000000000000000000000000000000000000000000000000000000000000000000000000001202202600000000000012022026000000000000000                              00000000000000000000000       
1040001300191T 020000004910850000000   14999000002928505812928505        06032026000000000080918000000000                         092010230414000160MATOS PARTICIPACOES LTDA                          000000000000000                           
1040001300192U 020000000000000000000000000000000000000000000000000000000000000000000000000000000000000000000000000000000000000000000000001202202600000000000012022026000000000000000                              00000000000000000000000       
1040001300193T 020000004910850000000   14999000002928506612928506        08062026000000000171997000000000                         091000000100518990LEANDRO DELLA GIUSTINA                            000000000000000                           
1040001300194U 020000000000000000000000000000000000000000000000000000000000000000000000000000000000000000000000000000000000000000000000001202202600000000000012022026000000000000000                              00000000000000000000000       
1040001300195T 020000004910850000000   14999000002928507412928507        08062026000000000074774000000000                         091000034382275920JAIME DELLA GIUSTINA                              000000000000000                           
1040001300196U 020000000000000000000000000000000000000000000000000000000000000000000000000000000000000000000000000000000000000000000000001202202600000000000012022026000000000000000                              00000000000000000000000       
1040001300197T 020000004910850000000   14999000002928508212928508        08062026000000000079012000000000                         091000034382275920JAIME DELLA GIUSTINA                              000000000000000                           
1040001300198U 020000000000000000000000000000000000000000000000000000000000000000000000000000000000000000000000000000000000000000000000001202202600000000000012022026000000000000000                              00000000000000000000000       
1040001300199T 020000004910850000000   14999000002928509012928509        08062026000000000086143000000000                         091000034382275920JAIME DELLA GIUSTINA                              000000000000000                           
1040001300200U 020000000000000000000000000000000000000000000000000000000000000000000000000000000000000000000000000000000000000000000000001202202600000000000012022026000000000000000                              00000000000000000000000       
1040001300201T 020000004910850000000   14999000002928510412928510        08062026000000000074164000000000                         091000034382275920JAIME DELLA GIUSTINA                              000000000000000                           
1040001300202U 020000000000000000000000000000000000000000000000000000000000000000000000000000000000000000000000000000000000000000000000001202202600000000000012022026000000000000000                              00000000000000000000000       
1040001300203T 020000004910850000000   14999000002928511212928511        08062026000000000061209000000000                         091000005786889998MAYCON DIAS MADEIRA                               000000000000000A4                         
1040001300204U 020000000000000000000000000000000000000000000000000000000000000000000000000000000000000000000000000000000000000000000000001202202600000000000012022026000000000000000                              00000000000000000000000       
1040001300205T 020000004910850000000   14999000002928512012928512        06032026000000000087021000000000                         092052046237000107LRA OPTICA LTDA                                   000000000000000A4                         
1040001300206U 020000000000000000000000000000000000000000000000000000000000000000000000000000000000000000000000000000000000000000000000001202202600000000000012022026000000000000000                              00000000000000000000000       
1040001300207T 020000004910850000000   14999000002928513912928513        12022026000000000029466000000000                         092017211866000144LOGPRO SERVICOS ADMINISTRATIVOS PARA TER          000000000000000                           
1040001300208U 020000000000000000000000000000000000000000000000000000000000000000000000000000000000000000000000000000000000000000000000001202202600000000000012022026000000000000000                              00000000000000000000000       
1040001300209T 020000004910850000000   14999000002928514712928514        12022026000000000022405000000000                         092017211866000144LOGPRO SERVICOS ADMINISTRATIVOS PARA TER          000000000000000                           
1040001300210U 020000000000000000000000000000000000000000000000000000000000000000000000000000000000000000000000000000000000000000000000001202202600000000000012022026000000000000000                              00000000000000000000000       
1040001300211T 020000004910850000000   14999000002928515512928515        06032026000000000013866000000000                         092038459294000197MONIQUE EING MEURER                               000000000000000                           
1040001300212U 020000000000000000000000000000000000000000000000000000000000000000000000000000000000000000000000000000000000000000000000001202202600000000000012022026000000000000000                              00000000000000000000000       
1040001300213T 020000004910850000000   14999000002928516312928516        06032026000000000045486000000000                         092038459294000197MONIQUE EING MEURER                               000000000000000                           
1040001300214U 020000000000000000000000000000000000000000000000000000000000000000000000000000000000000000000000000000000000000000000000001202202600000000000012022026000000000000000                              00000000000000000000000       
1040001300215T 020000004910850000000   14999000002928517112928517        06042026000000000045486000000000                         092038459294000197MONIQUE EING MEURER                               000000000000000                           
1040001300216U 020000000000000000000000000000000000000000000000000000000000000000000000000000000000000000000000000000000000000000000000001202202600000000000012022026000000000000000                              00000000000000000000000       
1040001300217T 020000004910850000000   14999000002928518012928518        06052026000000000045486000000000                         092038459294000197MONIQUE EING MEURER                               000000000000000                           
1040001300218U 020000000000000000000000000000000000000000000000000000000000000000000000000000000000000000000000000000000000000000000000001202202600000000000012022026000000000000000                              00000000000000000000000       
1040001300219T 020000004910850000000   14999000002928519812928519        05062026000000000045486000000000                         092038459294000197MONIQUE EING MEURER                               000000000000000                           
1040001300220U 020000000000000000000000000000000000000000000000000000000000000000000000000000000000000000000000000000000000000000000000001202202600000000000012022026000000000000000                              00000000000000000000000       
1040001300221T 020000004910850000000   14999000002928520112928520        08062026000000000039060000000000                         091000005563361942TATIANE DA SILVA CARDOSO                          000000000000000A4                         
1040001300222U 020000000000000000000000000000000000000000000000000000000000000000000000000000000000000000000000000000000000000000000000001202202600000000000012022026000000000000000                              00000000000000000000000       
1040001300223T 020000004910850000000   14999000002928521012928521        08062026000000000001388000000000                         091000005563361942TATIANE DA SILVA CARDOSO                          000000000000000A4                         
1040001300224U 020000000000000000000000000000000000000000000000000000000000000000000000000000000000000000000000000000000000000000000000001202202600000000000012022026000000000000000                              00000000000000000000000       
1040001300225T 020000004910850000000   14999000002928522812928522        08062026000000000000498000000000                         091000005563361942TATIANE DA SILVA CARDOSO                          000000000000000A4                         
1040001300226U 020000000000000000000000000000000000000000000000000000000000000000000000000000000000000000000000000000000000000000000000001202202600000000000012022026000000000000000                              00000000000000000000000       
1040001300227T 020000004910850000000   14999000002928523612928523        08062026000000000011384000000000                         091000005563361942TATIANE DA SILVA CARDOSO                          000000000000000A4                         
1040001300228U 020000000000000000000000000000000000000000000000000000000000000000000000000000000000000000000000000000000000000000000000001202202600000000000012022026000000000000000                              00000000000000000000000       
1040001300229T 020000004910850000000   14999000002928524412928524        07072026000000000000495000000000                         091000005563361942TATIANE DA SILVA CARDOSO                          000000000000000A4                         
1040001300230U 020000000000000000000000000000000000000000000000000000000000000000000000000000000000000000000000000000000000000000000000001202202600000000000012022026000000000000000                              00000000000000000000000       
1040001300231T 020000004910850000000   14999000002928525212928525        07072026000000000011383000000000                         091000005563361942TATIANE DA SILVA CARDOSO                          000000000000000A4                         
1040001300232U 020000000000000000000000000000000000000000000000000000000000000000000000000000000000000000000000000000000000000000000000001202202600000000000012022026000000000000000                              00000000000000000000000       
1040001300233T 020000004910850000000   14999000002928526012928526        07082026000000000011383000000000                         091000005563361942TATIANE DA SILVA CARDOSO                          000000000000000A4                         
1040001300234U 020000000000000000000000000000000000000000000000000000000000000000000000000000000000000000000000000000000000000000000000001202202600000000000012022026000000000000000                              00000000000000000000000       
1040001300235T 020000004910850000000   14999000002928527912928527        07082026000000000000495000000000                         091000005563361942TATIANE DA SILVA CARDOSO                          000000000000000A4                         
1040001300236U 020000000000000000000000000000000000000000000000000000000000000000000000000000000000000000000000000000000000000000000000001202202600000000000012022026000000000000000                              00000000000000000000000       
1040001300237T 020000004910850000000   14999000002928528712928528        08092026000000000011383000000000                         091000005563361942TATIANE DA SILVA CARDOSO                          000000000000000A4                         
1040001300238U 020000000000000000000000000000000000000000000000000000000000000000000000000000000000000000000000000000000000000000000000001202202600000000000012022026000000000000000                              00000000000000000000000       
1040001300239T 020000004910850000000   14999000002928529512928529        08092026000000000000495000000000                         091000005563361942TATIANE DA SILVA CARDOSO                          000000000000000A4                         
1040001300240U 020000000000000000000000000000000000000000000000000000000000000000000000000000000000000000000000000000000000000000000000001202202600000000000012022026000000000000000                              00000000000000000000000       
1040001300241T 020000004910850000000   14999000002928530912928530        06032026000000000189138000000000                         092029303402000147V & B PARTICIPACOES LTDA                          000000000000000                           
1040001300242U 020000000000000000000000000000000000000000000000000000000000000000000000000000000000000000000000000000000000000000000000001202202600000000000012022026000000000000000                              00000000000000000000000       
1040001300243T 020000004910850000000   14999000002928531712928531        06032026000000000059105000000000                         092029303402000147V & B PARTICIPACOES LTDA                          000000000000000                           
1040001300244U 020000000000000000000000000000000000000000000000000000000000000000000000000000000000000000000000000000000000000000000000001202202600000000000012022026000000000000000                              00000000000000000000000       
1040001300245T 020000004910850000000   14999000002928532512928532        06042026000000000059106000000000                         092029303402000147V & B PARTICIPACOES LTDA                          000000000000000                           
1040001300246U 020000000000000000000000000000000000000000000000000000000000000000000000000000000000000000000000000000000000000000000000001202202600000000000012022026000000000000000                              00000000000000000000000       
1040001300247T 020000004910850000000   14999000002928533312928533        06052026000000000059106000000000                         092029303402000147V & B PARTICIPACOES LTDA                          000000000000000                           
1040001300248U 020000000000000000000000000000000000000000000000000000000000000000000000000000000000000000000000000000000000000000000000001202202600000000000012022026000000000000000                              00000000000000000000000       
1040001300249T 020000004910850000000   14999000002928534112928534        05062026000000000059106000000000                         092029303402000147V & B PARTICIPACOES LTDA                          000000000000000                           
1040001300250U 020000000000000000000000000000000000000000000000000000000000000000000000000000000000000000000000000000000000000000000000001202202600000000000012022026000000000000000                              00000000000000000000000       
1040001300251T 020000004910850000000   14999000002928535012928535        08062026000000000003622000000000                         092011387553000165WEBER PARTICIPACOES LTDA                          000000000000000                           
1040001300252U 020000000000000000000000000000000000000000000000000000000000000000000000000000000000000000000000000000000000000000000000001202202600000000000012022026000000000000000                              00000000000000000000000       
1040001300253T 020000004910850000000   14999000002928536812928536        08062026000000001635849000000000                         092011387553000165WEBER PARTICIPACOES LTDA                          000000000000000                           
1040001300254U 020000000000000000000000000000000000000000000000000000000000000000000000000000000000000000000000000000000000000000000000001202202600000000000012022026000000000000000                              00000000000000000000000       
1040001300255T 020000004910850000000   14999000002928537612928537        08062026000000000509351000000000                         092011387553000165WEBER PARTICIPACOES LTDA                          000000000000000                           
1040001300256U 020000000000000000000000000000000000000000000000000000000000000000000000000000000000000000000000000000000000000000000000001202202600000000000012022026000000000000000                              00000000000000000000000       
1040001300257T 020000004910850000000   14999000002928538412928538        07072026000000000509349000000000                         092011387553000165WEBER PARTICIPACOES LTDA                          000000000000000                           
1040001300258U 020000000000000000000000000000000000000000000000000000000000000000000000000000000000000000000000000000000000000000000000001202202600000000000012022026000000000000000                              00000000000000000000000       
1040001300259T 020000004910850000000   14999000002928539212928539        07082026000000000509349000000000                         092011387553000165WEBER PARTICIPACOES LTDA                          000000000000000                           
1040001300260U 020000000000000000000000000000000000000000000000000000000000000000000000000000000000000000000000000000000000000000000000001202202600000000000012022026000000000000000                              00000000000000000000000       
1040001300261T 020000004910850000000   14999000002928540612928540        08092026000000000509349000000000                         092011387553000165WEBER PARTICIPACOES LTDA                          000000000000000                           
1040001300262U 020000000000000000000000000000000000000000000000000000000000000000000000000000000000000000000000000000000000000000000000001202202600000000000012022026000000000000000                              00000000000000000000000       
1040001300263T 020000004910850000000   14999000002928541412928541        08062026000000000001132000000000                         092011387553000165WEBER PARTICIPACOES LTDA                          000000000000000                           
1040001300264U 020000000000000000000000000000000000000000000000000000000000000000000000000000000000000000000000000000000000000000000000001202202600000000000012022026000000000000000                              00000000000000000000000       
1040001300265T 020000004910850000000   14999000002928542212928542        07072026000000000001132000000000                         092011387553000165WEBER PARTICIPACOES LTDA                          000000000000000                           
1040001300266U 020000000000000000000000000000000000000000000000000000000000000000000000000000000000000000000000000000000000000000000000001202202600000000000012022026000000000000000                              00000000000000000000000       
1040001300267T 020000004910850000000   14999000002928543012928543        07082026000000000001132000000000                         092011387553000165WEBER PARTICIPACOES LTDA                          000000000000000                           
1040001300268U 020000000000000000000000000000000000000000000000000000000000000000000000000000000000000000000000000000000000000000000000001202202600000000000012022026000000000000000                              00000000000000000000000       
1040001300269T 020000004910850000000   14999000002928544912928544        08092026000000000001132000000000                         092011387553000165WEBER PARTICIPACOES LTDA                          000000000000000                           
1040001300270U 020000000000000000000000000000000000000000000000000000000000000000000000000000000000000000000000000000000000000000000000001202202600000000000012022026000000000000000                              00000000000000000000000       
1040001300271T 020000004910850000000   14999000002928545712928545        08062026000000000001132000000000                         092011387553000165WEBER PARTICIPACOES LTDA                          000000000000000                           
1040001300272U 020000000000000000000000000000000000000000000000000000000000000000000000000000000000000000000000000000000000000000000000001202202600000000000012022026000000000000000                              00000000000000000000000       
1040001300273T 020000004910850000000   14999000002928546512928546        07072026000000000001132000000000                         092011387553000165WEBER PARTICIPACOES LTDA                          000000000000000                           
1040001300274U 020000000000000000000000000000000000000000000000000000000000000000000000000000000000000000000000000000000000000000000000001202202600000000000012022026000000000000000                              00000000000000000000000       
1040001300275T 020000004910850000000   14999000002928547312928547        07082026000000000001132000000000                         092011387553000165WEBER PARTICIPACOES LTDA                          000000000000000                           
1040001300276U 020000000000000000000000000000000000000000000000000000000000000000000000000000000000000000000000000000000000000000000000001202202600000000000012022026000000000000000                              00000000000000000000000       
1040001300277T 020000004910850000000   14999000002928548112928548        08092026000000000001132000000000                         092011387553000165WEBER PARTICIPACOES LTDA                          000000000000000                           
1040001300278U 020000000000000000000000000000000000000000000000000000000000000000000000000000000000000000000000000000000000000000000000001202202600000000000012022026000000000000000                              00000000000000000000000       
1040001300279T 020000004910850000000   14999000002928549012928549        08062026000000000000360000000000                         092011387553000165WEBER PARTICIPACOES LTDA                          000000000000000                           
1040001300280U 020000000000000000000000000000000000000000000000000000000000000000000000000000000000000000000000000000000000000000000000001202202600000000000012022026000000000000000                              00000000000000000000000       
1040001300281T 020000004910850000000   14999000002928550312928550        07072026000000000000360000000000                         092011387553000165WEBER PARTICIPACOES LTDA                          000000000000000                           
1040001300282U 020000000000000000000000000000000000000000000000000000000000000000000000000000000000000000000000000000000000000000000000001202202600000000000012022026000000000000000                              00000000000000000000000       
1040001300283T 020000004910850000000   14999000002928551112928551        07082026000000000000360000000000                         092011387553000165WEBER PARTICIPACOES LTDA                          000000000000000                           
1040001300284U 020000000000000000000000000000000000000000000000000000000000000000000000000000000000000000000000000000000000000000000000001202202600000000000012022026000000000000000                              00000000000000000000000       
1040001300285T 020000004910850000000   14999000002928552012928552        08092026000000000000360000000000                         092011387553000165WEBER PARTICIPACOES LTDA                          000000000000000                           
1040001300286U 020000000000000000000000000000000000000000000000000000000000000000000000000000000000000000000000000000000000000000000000001202202600000000000012022026000000000000000                              00000000000000000000000       
1040001300287T 020000004910850000000   14999000002928553812928553        08062026000000000028018000000000                         092011387553000165WEBER PARTICIPACOES LTDA                          000000000000000                           
1040001300288U 020000000000000000000000000000000000000000000000000000000000000000000000000000000000000000000000000000000000000000000000001202202600000000000012022026000000000000000                              00000000000000000000000       
1040001300289T 020000004910850000000   14999000002928554612928554        07072026000000000028014000000000                         092011387553000165WEBER PARTICIPACOES LTDA                          000000000000000                           
1040001300290U 020000000000000000000000000000000000000000000000000000000000000000000000000000000000000000000000000000000000000000000000001202202600000000000012022026000000000000000                              00000000000000000000000       
1040001300291T 020000004910850000000   14999000002928555412928555        07082026000000000028014000000000                         092011387553000165WEBER PARTICIPACOES LTDA                          000000000000000                           
1040001300292U 020000000000000000000000000000000000000000000000000000000000000000000000000000000000000000000000000000000000000000000000001202202600000000000012022026000000000000000                              00000000000000000000000       
1040001300293T 020000004910850000000   14999000002928556212928556        08092026000000000028014000000000                         092011387553000165WEBER PARTICIPACOES LTDA                          000000000000000                           
1040001300294U 020000000000000000000000000000000000000000000000000000000000000000000000000000000000000000000000000000000000000000000000001202202600000000000012022026000000000000000                              00000000000000000000000       
1040001300295T 020000004910850000000   14999000002928557012928557        08062026000000000012500000000000                         092011387553000165WEBER PARTICIPACOES LTDA                          000000000000000                           
1040001300296U 020000000000000000000000000000000000000000000000000000000000000000000000000000000000000000000000000000000000000000000000001202202600000000000012022026000000000000000                              00000000000000000000000       
1040001300297T 020000004910850000000   14999000002928558912928558        07072026000000000012495000000000                         092011387553000165WEBER PARTICIPACOES LTDA                          000000000000000                           
1040001300298U 020000000000000000000000000000000000000000000000000000000000000000000000000000000000000000000000000000000000000000000000001202202600000000000012022026000000000000000                              00000000000000000000000       
1040001300299T 020000004910850000000   14999000002928559712928559        07082026000000000012495000000000                         092011387553000165WEBER PARTICIPACOES LTDA                          000000000000000                           
1040001300300U 020000000000000000000000000000000000000000000000000000000000000000000000000000000000000000000000000000000000000000000000001202202600000000000012022026000000000000000                              00000000000000000000000       
1040001300301T 020000004910850000000   14999000002928560012928560        08092026000000000012495000000000                         092011387553000165WEBER PARTICIPACOES LTDA                          000000000000000                           
1040001300302U 020000000000000000000000000000000000000000000000000000000000000000000000000000000000000000000000000000000000000000000000001202202600000000000012022026000000000000000                              00000000000000000000000       
1040001300303T 020000004910850000000   14999000002928561912928561        08062026000000000011724000000000                         092011387553000165WEBER PARTICIPACOES LTDA                          000000000000000                           
1040001300304U 020000000000000000000000000000000000000000000000000000000000000000000000000000000000000000000000000000000000000000000000001202202600000000000012022026000000000000000                              00000000000000000000000       
1040001300305T 020000004910850000000   14999000002928562712928562        07072026000000000011723000000000                         092011387553000165WEBER PARTICIPACOES LTDA                          000000000000000                           
1040001300306U 020000000000000000000000000000000000000000000000000000000000000000000000000000000000000000000000000000000000000000000000001202202600000000000012022026000000000000000                              00000000000000000000000       
1040001300307T 020000004910850000000   14999000002928563512928563        07082026000000000011723000000000                         092011387553000165WEBER PARTICIPACOES LTDA                          000000000000000                           
1040001300308U 020000000000000000000000000000000000000000000000000000000000000000000000000000000000000000000000000000000000000000000000001202202600000000000012022026000000000000000                              00000000000000000000000       
1040001300309T 020000004910850000000   14999000002928564312928564        08092026000000000011723000000000                         092011387553000165WEBER PARTICIPACOES LTDA                          000000000000000                           
1040001300310U 020000000000000000000000000000000000000000000000000000000000000000000000000000000000000000000000000000000000000000000000001202202600000000000012022026000000000000000                              00000000000000000000000       
1040001300311T 020000004910850000000   14999000002928565112928565        08062026000000000012732000000000                         092011387553000165WEBER PARTICIPACOES LTDA                          000000000000000                           
1040001300312U 020000000000000000000000000000000000000000000000000000000000000000000000000000000000000000000000000000000000000000000000001202202600000000000012022026000000000000000                              00000000000000000000000       
1040001300313T 020000004910850000000   14999000002928566012928566        07072026000000000012727000000000                         092011387553000165WEBER PARTICIPACOES LTDA                          000000000000000                           
1040001300314U 020000000000000000000000000000000000000000000000000000000000000000000000000000000000000000000000000000000000000000000000001202202600000000000012022026000000000000000                              00000000000000000000000       
1040001300315T 020000004910850000000   14999000002928567812928567        07082026000000000012727000000000                         092011387553000165WEBER PARTICIPACOES LTDA                          000000000000000                           
1040001300316U 020000000000000000000000000000000000000000000000000000000000000000000000000000000000000000000000000000000000000000000000001202202600000000000012022026000000000000000                              00000000000000000000000       
1040001300317T 020000004910850000000   14999000002928568612928568        08092026000000000012727000000000                         092011387553000165WEBER PARTICIPACOES LTDA                          000000000000000                           
1040001300318U 020000000000000000000000000000000000000000000000000000000000000000000000000000000000000000000000000000000000000000000000001202202600000000000012022026000000000000000                              00000000000000000000000       
1040001300319T 020000004910850000000   14999000002928569412928569        08062026000000000020208000000000                         092011387553000165WEBER PARTICIPACOES LTDA                          000000000000000                           
1040001300320U 020000000000000000000000000000000000000000000000000000000000000000000000000000000000000000000000000000000000000000000000001202202600000000000012022026000000000000000                              00000000000000000000000       
1040001300321T 020000004910850000000   14999000002928570812928570        07072026000000000020205000000000                         092011387553000165WEBER PARTICIPACOES LTDA                          000000000000000                           
1040001300322U 020000000000000000000000000000000000000000000000000000000000000000000000000000000000000000000000000000000000000000000000001202202600000000000012022026000000000000000                              00000000000000000000000       
1040001300323T 020000004910850000000   14999000002928571612928571        07082026000000000020205000000000                         092011387553000165WEBER PARTICIPACOES LTDA                          000000000000000                           
1040001300324U 020000000000000000000000000000000000000000000000000000000000000000000000000000000000000000000000000000000000000000000000001202202600000000000012022026000000000000000                              00000000000000000000000       
1040001300325T 020000004910850000000   14999000002928572412928572        08092026000000000020205000000000                         092011387553000165WEBER PARTICIPACOES LTDA                          000000000000000                           
1040001300326U 020000000000000000000000000000000000000000000000000000000000000000000000000000000000000000000000000000000000000000000000001202202600000000000012022026000000000000000                              00000000000000000000000       
1040001300327T 020000004910850000000   14999000002928573212928573        08062026000000000012185000000000                         092011387553000165WEBER PARTICIPACOES LTDA                          000000000000000                           
1040001300328U 020000000000000000000000000000000000000000000000000000000000000000000000000000000000000000000000000000000000000000000000001202202600000000000012022026000000000000000                              00000000000000000000000       
1040001300329T 020000004910850000000   14999000002928574012928574        07072026000000000012182000000000                         092011387553000165WEBER PARTICIPACOES LTDA                          000000000000000                           
1040001300330U 020000000000000000000000000000000000000000000000000000000000000000000000000000000000000000000000000000000000000000000000001202202600000000000012022026000000000000000                              00000000000000000000000       
1040001300331T 020000004910850000000   14999000002928575912928575        07082026000000000012182000000000                         092011387553000165WEBER PARTICIPACOES LTDA                          000000000000000                           
1040001300332U 020000000000000000000000000000000000000000000000000000000000000000000000000000000000000000000000000000000000000000000000001202202600000000000012022026000000000000000                              00000000000000000000000       
1040001300333T 020000004910850000000   14999000002928576712928576        08092026000000000012182000000000                         092011387553000165WEBER PARTICIPACOES LTDA                          000000000000000                           
1040001300334U 020000000000000000000000000000000000000000000000000000000000000000000000000000000000000000000000000000000000000000000000001202202600000000000012022026000000000000000                              00000000000000000000000       
1040001300335T 020000004910850000000   14999000002928577512928577        20022026000000000192827000000000                         092049995941000100SEVEN AUTO SOM LTDA                               000000000000000                           
1040001300336U 020000000000000000000000000000000000000000000000000000000000000000000000000000000000000000000000000000000000000000000000001202202600000000000012022026000000000000000                              00000000000000000000000       
1040001300337T 020000004910850000000   14999000002928578312928578        08062026000000000011714000000000                         092011387553000165WEBER PARTICIPACOES LTDA                          000000000000000                           
1040001300338U 020000000000000000000000000000000000000000000000000000000000000000000000000000000000000000000000000000000000000000000000001202202600000000000012022026000000000000000                              00000000000000000000000       
1040001300339T 020000004910850000000   14999000002928579112928579        07072026000000000011712000000000                         092011387553000165WEBER PARTICIPACOES LTDA                          000000000000000                           
1040001300340U 020000000000000000000000000000000000000000000000000000000000000000000000000000000000000000000000000000000000000000000000001202202600000000000012022026000000000000000                              00000000000000000000000       
1040001300341T 020000004910850000000   14999000002928580512928580        07082026000000000011712000000000                         092011387553000165WEBER PARTICIPACOES LTDA                          000000000000000                           
1040001300342U 020000000000000000000000000000000000000000000000000000000000000000000000000000000000000000000000000000000000000000000000001202202600000000000012022026000000000000000                              00000000000000000000000       
1040001300343T 020000004910850000000   14999000002928581312928581        08092026000000000011712000000000                         092011387553000165WEBER PARTICIPACOES LTDA                          000000000000000                           
1040001300344U 020000000000000000000000000000000000000000000000000000000000000000000000000000000000000000000000000000000000000000000000001202202600000000000012022026000000000000000                              00000000000000000000000       
1040001300345T 020000004910850000000   14999000002928582112928582        08062026000000000011950000000000                         092011387553000165WEBER PARTICIPACOES LTDA                          000000000000000                           
1040001300346U 020000000000000000000000000000000000000000000000000000000000000000000000000000000000000000000000000000000000000000000000001202202600000000000012022026000000000000000                              00000000000000000000000       
1040001300347T 020000004910850000000   14999000002928583012928583        07072026000000000011948000000000                         092011387553000165WEBER PARTICIPACOES LTDA                          000000000000000                           
1040001300348U 020000000000000000000000000000000000000000000000000000000000000000000000000000000000000000000000000000000000000000000000001202202600000000000012022026000000000000000                              00000000000000000000000       
1040001300349T 020000004910850000000   14999000002928584812928584        07082026000000000011948000000000                         092011387553000165WEBER PARTICIPACOES LTDA                          000000000000000                           
1040001300350U 020000000000000000000000000000000000000000000000000000000000000000000000000000000000000000000000000000000000000000000000001202202600000000000012022026000000000000000                              00000000000000000000000       
1040001300351T 020000004910850000000   14999000002928585612928585        08092026000000000011948000000000                         092011387553000165WEBER PARTICIPACOES LTDA                          000000000000000                           
1040001300352U 020000000000000000000000000000000000000000000000000000000000000000000000000000000000000000000000000000000000000000000000001202202600000000000012022026000000000000000                              00000000000000000000000       
1040001300353T 020000004910850000000   14999000002928586412928586        08062026000000000012375000000000                         092011387553000165WEBER PARTICIPACOES LTDA                          000000000000000                           
1040001300354U 020000000000000000000000000000000000000000000000000000000000000000000000000000000000000000000000000000000000000000000000001202202600000000000012022026000000000000000                              00000000000000000000000       
1040001300355T 020000004910850000000   14999000002928587212928587        07072026000000000012373000000000                         092011387553000165WEBER PARTICIPACOES LTDA                          000000000000000                           
1040001300356U 020000000000000000000000000000000000000000000000000000000000000000000000000000000000000000000000000000000000000000000000001202202600000000000012022026000000000000000                              00000000000000000000000       
1040001300357T 020000004910850000000   14999000002928588012928588        07082026000000000012373000000000                         092011387553000165WEBER PARTICIPACOES LTDA                          000000000000000                           
1040001300358U 020000000000000000000000000000000000000000000000000000000000000000000000000000000000000000000000000000000000000000000000001202202600000000000012022026000000000000000                              00000000000000000000000       
1040001300359T 020000004910850000000   14999000002928589912928589        08092026000000000012373000000000                         092011387553000165WEBER PARTICIPACOES LTDA                          000000000000000                           
1040001300360U 020000000000000000000000000000000000000000000000000000000000000000000000000000000000000000000000000000000000000000000000001202202600000000000012022026000000000000000                              00000000000000000000000       
1040001300361T 020000004910850000000   14999000002928590212928590        08062026000000000020350000000000                         092011387553000165WEBER PARTICIPACOES LTDA                          000000000000000                           
1040001300362U 020000000000000000000000000000000000000000000000000000000000000000000000000000000000000000000000000000000000000000000000001202202600000000000012022026000000000000000                              00000000000000000000000       
1040001300363T 020000004910850000000   14999000002928591012928591        07072026000000000020348000000000                         092011387553000165WEBER PARTICIPACOES LTDA                          000000000000000                           
1040001300364U 020000000000000000000000000000000000000000000000000000000000000000000000000000000000000000000000000000000000000000000000001202202600000000000012022026000000000000000                              00000000000000000000000       
1040001300365T 020000004910850000000   14999000002928592912928592        07082026000000000020348000000000                         092011387553000165WEBER PARTICIPACOES LTDA                          000000000000000                           
1040001300366U 020000000000000000000000000000000000000000000000000000000000000000000000000000000000000000000000000000000000000000000000001202202600000000000012022026000000000000000                              00000000000000000000000       
1040001300367T 020000004910850000000   14999000002928593712928593        08092026000000000020348000000000                         092011387553000165WEBER PARTICIPACOES LTDA                          000000000000000                           
1040001300368U 020000000000000000000000000000000000000000000000000000000000000000000000000000000000000000000000000000000000000000000000001202202600000000000012022026000000000000000                              00000000000000000000000       
1040001300369T 020000004910850000000   14999000002928594512928594        08062026000000000010825000000000                         092011387553000165WEBER PARTICIPACOES LTDA                          000000000000000                           
1040001300370U 020000000000000000000000000000000000000000000000000000000000000000000000000000000000000000000000000000000000000000000000001202202600000000000012022026000000000000000                              00000000000000000000000       
1040001300371T 020000004910850000000   14999000002928595312928595        07072026000000000010825000000000                         092011387553000165WEBER PARTICIPACOES LTDA                          000000000000000                           
1040001300372U 020000000000000000000000000000000000000000000000000000000000000000000000000000000000000000000000000000000000000000000000001202202600000000000012022026000000000000000                              00000000000000000000000       
1040001300373T 020000004910850000000   14999000002928596112928596        07082026000000000010825000000000                         092011387553000165WEBER PARTICIPACOES LTDA                          000000000000000                           
1040001300374U 020000000000000000000000000000000000000000000000000000000000000000000000000000000000000000000000000000000000000000000000001202202600000000000012022026000000000000000                              00000000000000000000000       
1040001300375T 020000004910850000000   14999000002928597012928597        08092026000000000010825000000000                         092011387553000165WEBER PARTICIPACOES LTDA                          000000000000000                           
1040001300376U 020000000000000000000000000000000000000000000000000000000000000000000000000000000000000000000000000000000000000000000000001202202600000000000012022026000000000000000                              00000000000000000000000       
1040001300377T 020000004910850000000   14999000002928598812928598        08062026000000000011123000000000                         092011387553000165WEBER PARTICIPACOES LTDA                          000000000000000                           
1040001300378U 020000000000000000000000000000000000000000000000000000000000000000000000000000000000000000000000000000000000000000000000001202202600000000000012022026000000000000000                              00000000000000000000000       
1040001300379T 020000004910850000000   14999000002928599612928599        07072026000000000011122000000000                         092011387553000165WEBER PARTICIPACOES LTDA                          000000000000000                           
1040001300380U 020000000000000000000000000000000000000000000000000000000000000000000000000000000000000000000000000000000000000000000000001202202600000000000012022026000000000000000                              00000000000000000000000       
1040001300381T 020000004910850000000   14999000002928600312928600        07082026000000000011122000000000                         092011387553000165WEBER PARTICIPACOES LTDA                          000000000000000                           
1040001300382U 020000000000000000000000000000000000000000000000000000000000000000000000000000000000000000000000000000000000000000000000001202202600000000000012022026000000000000000                              00000000000000000000000       
1040001300383T 020000004910850000000   14999000002928601112928601        08092026000000000011122000000000                         092011387553000165WEBER PARTICIPACOES LTDA                          000000000000000                           
1040001300384U 020000000000000000000000000000000000000000000000000000000000000000000000000000000000000000000000000000000000000000000000001202202600000000000012022026000000000000000                              00000000000000000000000       
1040001300385T 020000004910850000000   14999000002928602012928602        12022026000000000035755000000000                         091000072160624934MARCOS SCHMIDT DELLA GIUSTINA                     000000000000000                           
1040001300386U 020000000000000000000000000000000000000000000000000000000000000000000000000000000000000000000000000000000000000000000000001202202600000000000012022026000000000000000                              00000000000000000000000       
1040001300387T 020000004910850000000   14999000002928603812928603        08062026000000000031094000000000                         092011387553000165WEBER PARTICIPACOES LTDA                          000000000000000                           
1040001300388U 020000000000000000000000000000000000000000000000000000000000000000000000000000000000000000000000000000000000000000000000001202202600000000000012022026000000000000000                              00000000000000000000000       
1040001300389T 020000004910850000000   14999000002928604612928604        07072026000000000031093000000000                         092011387553000165WEBER PARTICIPACOES LTDA                          000000000000000                           
1040001300390U 020000000000000000000000000000000000000000000000000000000000000000000000000000000000000000000000000000000000000000000000001202202600000000000012022026000000000000000                              00000000000000000000000       
1040001300391T 020000004910850000000   14999000002928605412928605        07082026000000000031093000000000                         092011387553000165WEBER PARTICIPACOES LTDA                          000000000000000                           
1040001300392U 020000000000000000000000000000000000000000000000000000000000000000000000000000000000000000000000000000000000000000000000001202202600000000000012022026000000000000000                              00000000000000000000000       
1040001300393T 020000004910850000000   14999000002928606212928606        08092026000000000031093000000000                         092011387553000165WEBER PARTICIPACOES LTDA                          000000000000000                           
1040001300394U 020000000000000000000000000000000000000000000000000000000000000000000000000000000000000000000000000000000000000000000000001202202600000000000012022026000000000000000                              00000000000000000000000       
1040001300395T 020000004910850000000   14999000002928607012928607        08062026000000000018667000000000                         091000051092620982SIRINEU ESPINDOLA                                 000000000000000                           
1040001300396U 020000000000000000000000000000000000000000000000000000000000000000000000000000000000000000000000000000000000000000000000001202202600000000000012022026000000000000000                              00000000000000000000000       
1040001300397T 020000004910850000000   14999000002928725512928725        07072026000000000018668000000000                         091000051092620982SIRINEU ESPINDOLA                                 000000000000000                           
1040001300398U 020000000000000000000000000000000000000000000000000000000000000000000000000000000000000000000000000000000000000000000000001202202600000000000012022026000000000000000                              00000000000000000000000       
1040001300399T 020000004910850000000   14999000002928726312928726        07082026000000000018668000000000                         091000051092620982SIRINEU ESPINDOLA                                 000000000000000                           
1040001300400U 020000000000000000000000000000000000000000000000000000000000000000000000000000000000000000000000000000000000000000000000001202202600000000000012022026000000000000000                              00000000000000000000000       
1040001300401T 020000004910850000000   14999000002928727112928727        08092026000000000018668000000000                         091000051092620982SIRINEU ESPINDOLA                                 000000000000000                           
1040001300402U 020000000000000000000000000000000000000000000000000000000000000000000000000000000000000000000000000000000000000000000000001202202600000000000012022026000000000000000                              00000000000000000000000       
1040001300403T 020000004910850000000   14999000002928728012928728        16022026000000000015769000000000                         091000005178108914ANGELITA PERIN MATUCHAKI                          000000000000000A4                         
1040001300404U 020000000000000000000000000000000000000000000000000000000000000000000000000000000000000000000000000000000000000000000000001202202600000000000012022026000000000000000                              00000000000000000000000       
1040001300405T 020000004910850000000   14999000002928729812928729        06032026000000000010613000000000                         092011574994000176FACIL DISTRIBUIDORA LTDA                          000000000000000A4                         
1040001300406U 020000000000000000000000000000000000000000000000000000000000000000000000000000000000000000000000000000000000000000000000001202202600000000000012022026000000000000000                              00000000000000000000000       
1040001300407T 020000004910850000000   14999000002928730112928730        06032026000000000214554000000000                         092011574994000176FACIL DISTRIBUIDORA LTDA                          000000000000000A4                         
1040001300408U 020000000000000000000000000000000000000000000000000000000000000000000000000000000000000000000000000000000000000000000000001202202600000000000012022026000000000000000                              00000000000000000000000       
1040001300409T 020000004910850000000   14999000002928731012928731        06032026000000000010613000000000                         092039939308000132VALE UTILIDADES DISTRIBUIDORA LTDA                000000000000000A4                         
1040001300410U 020000000000000000000000000000000000000000000000000000000000000000000000000000000000000000000000000000000000000000000000001202202600000000000012022026000000000000000                              00000000000000000000000       
1040001300411T 020000004910850000000   14999000002928732812928732        06032026000000000214554000000000                         092039939308000132VALE UTILIDADES DISTRIBUIDORA LTDA                000000000000000A4                         
1040001300412U 020000000000000000000000000000000000000000000000000000000000000000000000000000000000000000000000000000000000000000000000001202202600000000000012022026000000000000000                              00000000000000000000000       
