10400000         2829265510001450000000000000000000001070749108500000000MUNICIPIO DE BRACO DO NORTE   C ECON FEDERAL                          20902202602302400193804000000                    RETORNO-PRODUCAO                  000            
10400011T0100030 20829265510001450000000000000000000001070749108500000000MUNICIPIO DE BRACO DO NORTE                                                                                   00001938090220260000000000                          00   
1040001300001T 060000004910850000000   14999000002892217812892217        200220260000000000200060000000002892217                  092016603390000124JUNIOR DA SILVA LTDA                              000000000000199620300                     
1040001300002U 060000000000000000000000000000000000000000000000000000000000000000000000200060000000000200060000000000000000000000000000000902202609022026000009022026000000000000000000000000000000               00000000000000000000000       
1040001300003T 060000004910850000000   14999000002893188612893188        090220260000000001417871040107002893188                  091000002348374978DALSIZA MARCELINO MONTEIRO                        000000000000199610300                     
1040001300004U 060000000000000000000000000594280000000000000000000000000000000000000000823590000000000823590000000000000000000000000000000702202609022026000009022026000000000000000100064151522972               00000000000000000000000       
1040001300005T 060000004910850000000   14999000002893271812893271        090220260000000000838310000000002893271                  091000001522153950MICHELE APARECIDA CORREA                          000000000000199620300                     
1040001300006U 060000000000000000000000000229460000000000000000000000000000000000000000608850000000000608850000000000000000000000000000000902202609022026000009022026000000000000000000000000000000               00000000000000000000000       
1040001300007T 060000004910850000000   14999000002893289012893289        090220260000000000321580000000002893289                  091000003554510939EVERALDO DA SILVA FERREIRA                        000000000000199620300                     
1040001300008U 060000000000000000000000000087350000000000000000000000000000000000000000234230000000000234230000000000000000000000000000000902202609022026000009022026000000000000000000000000000000               00000000000000000000000       
1040001300009T 060000004910850000000   14999000002893376512893376        090220260000000000402401040107002893376                  091000072160632953VALERIO DA SILVA                                  000000000000199610300                     
1040001300010U 060000000000000000000000000140820000000000000000000000000000000000000000261580000000000261580000000000000000000000000000000902202609022026000009022026000000000000000100072160632953               00000000000000000000000       
1040001300011T 060000004910850000000   14999000002893779512893779        160220260000000000323272600000002893779                  091000006757298902MARCIA MACHADO BEZA                               000000000000199620300                     
1040001300012U 060000000000000000000000000098890000000000000000000000000000000000000000224380000000000224380000000000000000000000000000000902202609022026000009022026000000000000000100006757298902               00000000000000000000000       
1040001300013T 060000004910850000000   14999000002894127012894127        100220260000000000855930000000002894127                  092033598537000154ROTA COMERCIO DE AUTOMOVEIS LTDA                  000000000000199620300                     
1040001300014U 060000000000000000000000000326810000000000000000000000000000000000000000529120000000000529120000000000000000000000000000000902202609022026000009022026000000000000000000000000000000               00000000000000000000000       
1040001300015T 060000004910850000000   14999000002894619012894619        110220260000000000925610000000002894619                  091000001657576981SANTO DA SILVA                                    000000000000199620300                     
1040001300016U 060000000000000000000000000193090000000000000000000000000000000000000000732520000000000732520000000000000000000000000000000902202609022026000009022026000000000000000000000000000000               00000000000000000000000       
1040001300017T 060000004910850000000   14999000002896731712896731        170220260000000000734350000000002896731                  091000007801361954LAYSI CARVALHO                                    000000000000199620300                     
1040001300018U 060000000000000000000000000273180000000000000000000000000000000000000000461170000000000461170000000000000000000000000000000902202609022026000009022026000000000000000000000000000000               00000000000000000000000       
1040001300019T 060000004910850000000   14999000002900419912900419        090220260000000000422852600000002900419                  091000048095591904JONAS DA SILVA                                    000000000000199620300                     
1040001300020U 060000000000000000000000000154600000000000000000000000000000000000000000268250000000000268250000000000000000000000000000000902202609022026000009022026000000000000000100058646051900               00000000000000000000000       
1040001300021T 060000004910850000000   14999000002901788612901788        100220260000000000449690000000002901788                  091000098623168968VENI THOMAZ                                       000000000000199620300                     
1040001300022U 060000000000000000000000000178140000000000000000000000000000000000000000271550000000000271550000000000000000000000000000000902202609022026000009022026000000000000000000000000000000               00000000000000000000000       
1040001300023T 060000004910850000000   14999000002906665812906665        090220260000000000295040000000002906665                  091000001657576981SANTO DA SILVA                                    000000000000199620300                     
1040001300024U 060000000000000000000000000055050000000000000000000000000000000000000000239990000000000239990000000000000000000000000000000902202609022026000009022026000000000000000000000000000000               00000000000000000000000       
1040001300025T 060000004910850000000   14999000002911944112911944        090220260000000000550240010000002911944                  091000066554357904WILSON TENFEN                                     000000000000199620300                     
1040001300026U 060000000000000000000000000063030000000000000000000000000000000000000000487210000000000487210000000000000000000000000000000902202609022026000009022026000000000000000100066554357904               00000000000000000000000       
1040001300027T 060000004910850000000   14999000002912686312912686        090220260000000000827890000000002912686                  091000098349201991GILSON OSNI CANDIDO                               000000000000199620300                     
1040001300028U 060000000000000000000000000230060000000000000000000000000000000000000000597830000000000597830000000000000000000000000000000902202609022026000009022026000000000000000000000000000000               00000000000000000000000       
1040001300029T 060000004910850000000   14999000002912833512912833        100220260000000000159491040107002912833                  091000002348374978DALSIZA MARCELINO MONTEIRO                        000000000000199610300                     
1040001300030U 060000000000000000000000000031150000000000000000000000000000000000000000128340000000000128340000000000000000000000000000000902202609022026000009022026000000000000000100002348374978               00000000000000000000000       
1040001300031T 060000004910850000000   14999000002913459912913459        120220260000000000162811040107002913459                  091000094695105934LAERCIO TAVARES                                   000000000000199610300                     
1040001300032U 060000000000000000000000000036160000000000000000000000000000000000000000126650000000000126650000000000000000000000000000000702202609022026000009022026000000000000000100005276305943               00000000000000000000000       
1040001300033T 060000004910850000000   14999000002913534012913534        120220260000000001177530010000002913534                  091000090689968949EDESIO RODRIGUES NAZARIO                          000000000000199620300                     
1040001300034U 060000000000000000000000000510900000000000000000000000000000000000000000666630000000000666630000000000000000000000000000000802202609022026000009022026000000000000000100007113809960               00000000000000000000000       
1040001300035T 060000004910850000000   14999000002914077712914077        160220260000000002356490010000002914077                  091000034342524953ESPOLIO DE GETULIO JOAO MAIER                     000000000000199620300                     
1040001300036U 060000000000000000000000000920850000000000000000000000000000000000000001435640000000001435640000000000000000000000000000000702202609022026000009022026000000000000000100004699112986               00000000000000000000000       
1040001300037T 060000004910850000000   14999000002916339412916339        120220260000000000498030000000002916339                  091000005104598977EDALTO DEMETRIO                                   000000000000199620300                     
1040001300038U 060000000000000000000000000134190000000000000000000000000000000000000000363840000000000363840000000000000000000000000000000702202609022026000009022026000000000000000000000000000000               00000000000000000000000       
1040001300039T 060000004910850000000   14999000002920373612920373        090220260000000000397842370000002920373                  091000030351340904CELITO WESSLER                                    000000000000199620300                     
1040001300040U 060000000000000000000000000092750000000000000000000000000000000000000000305090000000000305090000000000000000000000000000000902202609022026000009022026000000000000000100030351340904               00000000000000000000000       
1040001300041T 060000004910850000000   14999000002934215912934215        040320260000000000077530000000002934215                  091000000014444925DEYVID DA COREGIO PEREIRA                         000000000000199620300                     
1040001300042U 060000000000000000000000000000000000000000000000000000000000000000000000077530000000000077530000000000000000000000000000000902202609022026000009022026000000000000000000000000000000               00000000000000000000000       
1040001300043T 060000004910850000000   14999000002935165412935165        070520260000000003515230000000002935165                  092057391833000148MB EMPREENDIMENTOS E ENGENHARIA LTDA              000000000000199620300                     
1040001300044U 060000000000000000000000000000000000000000000000000000000000000000000003515230000000003515230000000000000000000000000000000902202609022026000009022026000000000000000000000000000000               00000000000000000000000       
1040001300045T 060000004910850000000   14999000002935420312935420        090220260000000000898670000000002935420                  091000028924240978ESPOLIO DE VITRO TOMAZ DA ROSA                    000000000000199620300                     
1040001300046U 060000000000000000000000000427910000000000000000000000000000000000000000470760000000000470760000000000000000000000000000000902202609022026000009022026000000000000000000000000000000               00000000000000000000000       
1040001300047T 060000004910850000000   14999000002935978712935978        130220260000000000077532900000002935978                  09205973534600018059.735.346 MARIANA ALBERTON ASCARI                000000000000199620300                     
1040001300048U 060000000000000000000000000000000000000000000000000000000000000000000000077530000000000077530000000000000000000000000000000902202609022026000009022026000000000000000100012700234979               00000000000000000000000       
1040001300049T 060000004910850000000   14999000002702670512702670        110220260000000000171582600000102702670                  091000006702004923CLESIA APARECIDA COSTA ZEFERINO                   000000000000199040301                     
1040001300050U 060000000000000000000000000000000000000000000000000000000000000000000000171580000000000171580000000000000000000000000000000902202610022026000010022026000000000000000100013752525932               00000000000000000000000       
1040001300051T 060000004910850000000   14999000002739989712739989        140320260000000000171520010073802739989                  091000078147808968CRISTIANO DA SILVA MENEGUEL                       000000000000199040301                     
1040001300052U 060000000000000000000000000000000000000000000000000000000000000000000000171520000000000171520000000000000000000000000000000902202610022026000010022026000000000000000100002437499962               00000000000000000000000       
1040001300053T 060000004910850000000   14999000002795657512795657        130220260000000000170601040107002795657                  091000001951219961LAURIDES MARCANZONI PERETO                        000000000000199020101                     
1040001300054U 060000000000000000000000000000000000000000000000000000000000000000000000170600000000000170600000000000000000000000000000000902202610022026000010022026000000000000000000000000000000               00000000000000000000000       
1040001300055T 060000004910850000000   14999000002822990112822990        070220260000000000173661040107002822990                  091000037530607987ESPOLIO DE PEDRO SANDRINI MARTINELLI              000000000000199060301                     
1040001300056U 060000000000000000000000000000000000000000000000000000000000000000000000173660000000000173660000000000000000000000000000000902202610022026000010022026000000000000000000000000000000               00000000000000000000000       
1040001300057T 060000004910850000000   14999000002824064612824064        120220260000000000173887560056502824064                  092043250608000187ATWE ELETRONICOS LTDA                             000000000000199040301                     
1040001300058U 060000000000000000000000000000000000000000000000000000000000000000000000173880000000000173880000000000000000000000000000000902202610022026000010022026000000000000000100010117101966               00000000000000000000000       
1040001300059T 060000004910850000000   14999000002831780012831780        080220260000000000846977560056502831780                  092017211866000144LOGPRO SERVICOS ADMINISTRATIVOS PARA TER          000000000000199040301                     
1040001300060U 060000000000000000000000000000000000000000000000000000000000000000000000846970000000000846970000000000000000000000000000000902202610022026000010022026000000000000000217211866000144               00000000000000000000000       
1040001300061T 060000004910850000000   14999000002840182812840182        020220260000000000170250810000102840182                  092035520797000132TRUCK CENTER SOMBRIO BORRACHARIA E ALINH          000000000000199040301                     
1040001300062U 060000000000003790000000000000000000000000000000000000000000000000000000174040000000000174040000000000000000000000000000000902202610022026000010022026000000000000000235520797000132               00000000000000000000000       
1040001300063T 060000004910850000000   14999000002877427612877427        090220260000000000223511040385002877427                  091000094224510944EDEMIR SILVA                                      000000000000199020101                     
1040001300064U 060000000000000000000000000000000000000000000000000000000000000000000000223510000000000223510000000000000000000000000000000902202610022026000010022026000000000000000000000000000000               00000000000000000000000       
1040001300065T 060000004910850000000   14999000002891537612891537        140220260000000000234201040041002891537                  091000086752499934IVANEUSA DE SOUZA                                 000000000000199020101                     
1040001300066U 060000000000000000000000000000000000000000000000000000000000000000000000234200000000000234200000000000000000000000000000000902202610022026000010022026000000000000000000000000000000               00000000000000000000000       
1040001300067T 060000004910850000000   14999000002893762012893762        090220260000000000297911040107002893762                  091000071275894968ESPOLIO DE MARIA JOANA PRA                        000000000000199020101                     
1040001300068U 060000000000000000000000000072150000000000000000000000000000000000000000225760000000000225760000000000000000000000000000000902202610022026000010022026000000000000000000000000000000               00000000000000000000000       
1040001300069T 060000004910850000000   14999000002893770112893770        090220260000000000236811040107002893770                  091000081815409991CLEONICE PRA BUSS                                 000000000000199020101                     
1040001300070U 060000000000000000000000000057370000000000000000000000000000000000000000179440000000000179440000000000000000000000000000000902202610022026000010022026000000000000000000000000000000               00000000000000000000000       
1040001300071T 060000004910850000000   14999000002893801512893801        090220260000000005704437560056502893801                  091000002141223954ODAIR MARCELINO FERREIRA                          000000000000199040301                     
1040001300072U 060000000000000000000000002317970000000000000000000000000000000000000003386460000000003386460000000000000000000000000000000902202610022026000010022026000000000000000223822379000110               00000000000000000000000       
1040001300073T 060000004910850000000   14999000002893811212893811        090220260000000011137447560056502893811                  092023822379000110ODAIR MARCELINO FERREIRA                          000000000000199040301                     
1040001300074U 060000000000000000000000004652130000000000000000000000000000000000000006485310000000006485310000000000000000000000000000000902202610022026000010022026000000000000000223822379000110               00000000000000000000000       
1040001300075T 060000004910850000000   14999000002893852012893852        090220260000000000403211040107002893852                  091000004355614999EDEM JHON VOLPATO                                 000000000000199060301                     
1040001300076U 060000000000000000000000000163190000000000000000000000000000000000000000240020000000000240020000000000000000000000000000000902202610022026000010022026000000000000000000000000000000               00000000000000000000000       
1040001300077T 060000004910850000000   14999000002894254312894254        100220260000000001077421040107002894254                  091000034233121904ESPOLIO DE ANDRE MARTINS                          000000000000199020101                     
1040001300078U 060000000000000000000000000503890000000000000000000000000000000000000000573530000000000573530000000000000000000000000000000902202610022026000010022026000000000000000000000000000000               00000000000000000000000       
1040001300079T 060000004910850000000   14999000002894264012894264        100220260000000000415017560056502894264                  091000037533100930DANILO DA SILVA MARCILIO                          000000000000199040301                     
1040001300080U 060000000000000000000000000092370000000000000000000000000000000000000000322640000000000322640000000000000000000000000000000902202610022026000010022026000000000000000214524108000198               00000000000000000000000       
1040001300081T 060000004910850000000   14999000002894413912894413        100220260000000000618750770000102894413                  091000013331814938GABRIELA PADILHA MADEIRA                          000000000000199040301                     
1040001300082U 060000000000000000000000000163600000000000000000000000000000000000000000455150000000000455150000000000000000000000000000000902202610022026000010022026000000000000000100013331814938               00000000000000000000000       
1040001300083T 060000004910850000000   14999000002894925412894925        110220260000000001164757560056502894925                  091000004269005963MAURICIO DE SOUZA MARTINS                         000000000000199040301                     
1040001300084U 060000000000000000000000000393300000000000000000000000000000000000000000771450000000000771450000000000000000000000000000000902202610022026000010022026000000000000000100004269005963               00000000000000000000000       
1040001300085T 060000004910850000000   14999000002895161512895161        110220260000000000324581040107002895161                  091000003984661908SIMONE DIAS                                       000000000000199020101                     
1040001300086U 060000000000000000000000000137960000000000000000000000000000000000000000186620000000000186620000000000000000000000000000000902202610022026000010022026000000000000000000000000000000               00000000000000000000000       
1040001300087T 060000004910850000000   14999000002895170412895170        110220260000000000137931040107002895170                  091000082695180934ROSIANE BRUGNARA MARTINS                          000000000000199020101                     
1040001300088U 060000000000000000000000000029420000000000000000000000000000000000000000108510000000000108510000000000000000000000000000000902202610022026000010022026000000000000000000000000000000               00000000000000000000000       
1040001300089T 060000004910850000000   14999000002895369312895369        120220260000000000385191040107002895369                  091000051606534904MARGARETE LUIZ                                    000000000000199020101                     
1040001300090U 060000000000000000000000000127940000000000000000000000000000000000000000257250000000000257250000000000000000000000000000000902202610022026000010022026000000000000000000000000000000               00000000000000000000000       
1040001300091T 060000004910850000000   14999000002895398712895398        120220260000000000233581040107002895398                  091000002422472966ODAIR DA CRUZ                                     000000000000199020101                     
1040001300092U 060000000000000000000000000058180000000000000000000000000000000000000000175400000000000175400000000000000000000000000000000902202610022026000010022026000000000000000000000000000000               00000000000000000000000       
1040001300093T 060000004910850000000   14999000002895511412895511        120220260000000000334091040107002895511                  091000006658494940ELOISA DELLA GIUSTINA ANDRADE                     000000000000199020101                     
1040001300094U 060000000000000000000000000101410000000000000000000000000000000000000000232680000000000232680000000000000000000000000000000902202610022026000010022026000000000000000000000000000000               00000000000000000000000       
1040001300095T 060000004910850000000   14999000002896030412896030        160220260000000003597562370033602896030                  092017529022000146LK PARTICIPACOES E INVESTMENTOS LTDA              000000000000199040301                     
1040001300096U 060000000000000000000000001161870000000000000000000000000000000000000002435690000000002435690000000000000000000000000000000902202610022026000010022026000000000000000217529022000146               00000000000000000000000       
1040001300097T 060000004910850000000   14999000002896723612896723        170220260000000000794331040107002896723                  091000055062598915ESPOLIO DE ALVINA FERREIRA                        000000000000199020101                     
1040001300098U 060000000000000000000000000168270000000000000000000000000000000000000000626060000000000626060000000000000000000000000000000902202610022026000010022026000000000000000000000000000000               00000000000000000000000       
1040001300099T 060000004910850000000   14999000002896888712896888        170220260000000000453311040107002896888                  091000045621225953LEZI JOANA DOS SANTOS MAIER                       000000000000199020101                     
1040001300100U 060000000000000000000000000163000000000000000000000000000000000000000000290310000000000290310000000000000000000000000000000902202610022026000010022026000000000000000000000000000000               00000000000000000000000       
1040001300101T 060000004910850000000   14999000002897098912897098        180220260000000000213860010533302897098                  092052093194000110C&B COMERCIAL LTDA                                000000000000199040301                     
1040001300102U 060000000000000000000000000045900000000000000000000000000000000000000000167960000000000167960000000000000000000000000000000902202610022026000010022026000000000000000100001990824994               00000000000000000000000       
1040001300103T 060000004910850000000   14999000002897417812897417        190220260000000000925141040107002897417                  091000053424042900AIRTON FELIPE                                     000000000000199020101                     
1040001300104U 060000000000000000000000000252050000000000000000000000000000000000000000673090000000000673090000000000000000000000000000000902202610022026000010022026000000000000000000000000000000               00000000000000000000000       
1040001300105T 060000004910850000000   14999000002897671512897671        230220260000000000171910010073802897671                  091000008919286930KARINE MEDEIROS                                   000000000000199040301                     
1040001300106U 060000000000000000000000000000000000000000000000000000000000000000000000171910000000000171910000000000000000000000000000000902202610022026000010022026000000000000000100007188527962               00000000000000000000000       
1040001300107T 060000004910850000000   14999000002897763012897763        100220260000000000173995090000102897763                  092021105198000148FLAVIA RALDI PICKLER LTDA                         000000000000199040301                     
1040001300108U 060000000000000000000000000000000000000000000000000000000000000000000000173990000000000173990000000000000000000000000000000902202610022026000010022026000000000000000221105198000148               00000000000000000000000       
1040001300109T 060000004910850000000   14999000002898273112898273        250220260000000000398957560056502898273                  091000062971921972JANEO AFONSO MACHADO                              000000000000199040301                     
1040001300110U 060000000000000000000000000131890000000000000000000000000000000000000000267060000000000267060000000000000000000000000000000902202610022026000010022026000000000000000215002254000116               00000000000000000000000       
1040001300111T 060000004910850000000   14999000002899328812899328        020320260000000000207461040107002899328                  091000009524337967ERICA RAMOS                                       000000000000199060301                     
1040001300112U 060000000000000000000000000000000000000000000000000000000000000000000000207460000000000207460000000000000000000000000000000902202610022026000010022026000000000000000000000000000000               00000000000000000000000       
1040001300113T 060000004910850000000   14999000002899789512899789        020320260000000000430171040107002899789                  091000069621551900ESPOLIO DE CECILIA DE LIS ONOFRE                  000000000000199020101                     
1040001300114U 060000000000000000000000000148080000000000000000000000000000000000000000282090000000000282090000000000000000000000000000000902202610022026000010022026000000000000000000000000000000               00000000000000000000000       
1040001300115T 060000004910850000000   14999000002900371012900371        090220260000000000413947560056502900371                  091000077740378968BERTILO VANDERLINDE                               000000000000199040301                     
1040001300116U 060000000000000000000000000000000000000000000000000000000000000000000000413940000000000413940000000000000000000000000000000902202610022026000010022026000000000000000260001149000117               00000000000000000000000       
1040001300117T 060000004910850000000   14999000002900397412900397        090220260000000000252697480590502900397                  091000002356175989DALMO ALBERTON AGUIAR                             000000000000199040301                     
1040001300118U 060000000000000000000000000078640000000000000000000000000000000000000000174050000000000174050000000000000000000000000000000902202610022026000010022026000000000000000100002356175989               00000000000000000000000       
1040001300119T 060000004910850000000   14999000002900403212900403        090220260000000000259607480590502900403                  091000001812723938ROSEMARY ROECKER                                  000000000000199040301                     
1040001300120U 060000000000000000000000000080790000000000000000000000000000000000000000178810000000000178810000000000000000000000000000000902202610022026000010022026000000000000000100002356175989               00000000000000000000000       
1040001300121T 060000004910850000000   14999000002900531412900531        090220260000000000461791040107002900531                  092010683074000123ADILSON ADILIO CARDOSO LTDA                       000000000000199020101                     
1040001300122U 060000000000000000000000000101180000000000000000000000000000000000000000360610000000000360610000000000000000000000000000000902202610022026000010022026000000000000000000000000000000               00000000000000000000000       
1040001300123T 060000004910850000000   14999000002901517412901517        090220260000000000826412370033602901517                  092052060722000135SANTOS TECIDOS E SERVICOS PARA URNAS FUN          000000000000199040301                     
1040001300124U 060000000000000000000000000181760000000000000000000000000000000000000000644650000000000644650000000000000000000000000000000902202610022026000010022026000000000000000252060722000135               00000000000000000000000       
1040001300125T 060000004910850000000   14999000002901529812901529        090220260000000017549577560056502901529                  091000044281196900IRENE SCHMITZ SCHUELTER                           000000000000199040301                     
1040001300126U 060000000000000000000000007421980000000000000000000000000000000000000010127590000000010127590000000000000000000000000000000902202610022026000010022026000000000000000100004624714970               00000000000000000000000       
1040001300127T 060000004910850000000   14999000002901549212901549        090220260000000000338661040107002901549                  091000073922137920MANOEL AVELINO                                    000000000000199060301                     
1040001300128U 060000000000000000000000000085060000000000000000000000000000000000000000253600000000000253600000000000000000000000000000000902202610022026000010022026000000000000000000000000000000               00000000000000000000000       
1040001300129T 060000004910850000000   14999000002901581612901581        090220260000000001647801040040902901581                  091000037855620982ROSA MARIA VANDERLINDE                            000000000000199060301                     
1040001300130U 060000000000000000000000000590310000000000000000000000000000000000000001057490000000001057490000000000000000000000000000000902202610022026000010022026000000000000000000000000000000               00000000000000000000000       
1040001300131T 060000004910850000000   14999000002901589112901589        090220260000000000256270850134202901589                  092007226874000100ARBORE ENGENHARIA E REFLORESTAMENTO LTDA          000000000000199040301                     
1040001300132U 060000000000000000000000000050210000000000000000000000000000000000000000206060000000000206060000000000000000000000000000000902202610022026000010022026000000000000000207226874000100               00000000000000000000000       
1040001300133T 060000004910850000000   14999000002901882312901882        100220260000000000400831040107002901882                  091000002286747946LUCIANO COAN                                      000000000000199060301                     
1040001300134U 060000000000000000000000000118260000000000000000000000000000000000000000282570000000000282570000000000000000000000000000000902202610022026000010022026000000000000000000000000000000               00000000000000000000000       
1040001300135T 060000004910850000000   14999000002902596012902596        160220260000000000153641040107002902596                  091000054283175900GUSTAVO GOTERA                                    000000000000199020101                     
1040001300136U 060000000000000000000000000037760000000000000000000000000000000000000000115880000000000115880000000000000000000000000000000902202610022026000010022026000000000000000000000000000000               00000000000000000000000       
1040001300137T 060000004910850000000   14999000002903253212903253        160220260000000001518101040107002903253                  091000006332172983CRISTIANO MAXIMIANO                               000000000000199020101                     
1040001300138U 060000000000000000000000000686850000000000000000000000000000000000000000831250000000000831250000000000000000000000000000000902202610022026000010022026000000000000000000000000000000               00000000000000000000000       
1040001300139T 060000004910850000000   14999000002904317812904317        090220260000000000117231360140502904317                  092000472996000138EMIR SERVICOS MEDICOS LTDA                        000000000000199040301                     
1040001300140U 060000000000000000000000000000000000000000000000000000000000000000000000117230000000000117230000000000000000000000000000000902202610022026000010022026000000000000000200472996000138               00000000000000000000000       
1040001300141T 060000004910850000000   14999000002906757312906757        100220260000000000162653410200002906757                  091000002449037942ANDREA DA SILVA FELIX                             000000000000199040301                     
1040001300142U 060000000000000000000000000034670000000000000000000000000000000000000000127980000000000127980000000000000000000000000000000902202610022026000010022026000000000000000100002449037942               00000000000000000000000       
1040001300143T 060000004910850000000   14999000002906830812906830        100220260000000000392030010073802906830                  091000005311274867HUGO DOS SANTOS                                   000000000000199040301                     
1040001300144U 060000000000000000000000000143090000000000000000000000000000000000000000248940000000000248940000000000000000000000000000000902202610022026000010022026000000000000000100005311274867               00000000000000000000000       
1040001300145T 060000004910850000000   14999000002908284012908284        180220260000000000136491040107002908284                  091000005779980993ALEXANDRE DE BONA FURLAN                          000000000000199020101                     
1040001300146U 060000000000000000000000000025770000000000000000000000000000000000000000110720000000000110720000000000000000000000000000000902202610022026000010022026000000000000000000000000000000               00000000000000000000000       
1040001300147T 060000004910850000000   14999000002908371412908371        190220260000000000161491040107002908371                  091000065939735991SANDRA MEURER SPECK                               000000000000199060301                     
1040001300148U 060000000000000000000000000041650000000000000000000000000000000000000000119840000000000119840000000000000000000000000000000902202610022026000010022026000000000000000000000000000000               00000000000000000000000       
1040001300149T 060000004910850000000   14999000002908891012908891        230220260000000000290857560307802908891                  091000068260636972TEREZINHA DEMETRIO                                000000000000199040301                     
1040001300150U 060000000000000000000000000111740000000000000000000000000000000000000000179110000000000179110000000000000000000000000000000902202610022026000010022026000000000000000100009109702970               00000000000000000000000       
1040001300151T 060000004910850000000   14999000002909373612909373        090220260000000000346557560056502909373                  091000047253835972SALESIO DUTRA                                     000000000000199040301                     
1040001300152U 060000000000000000000000000090290000000000000000000000000000000000000000256260000000000256260000000000000000000000000000000902202610022026000010022026000000000000000207019412000112               00000000000000000000000       
1040001300153T 060000004910850000000   14999000002909949112909949        100220260000000000036241040107002909949                  092009247788000100BANIP FOMENTO MERCANTIL LTDA                      000000000000199060301                     
1040001300154U 060000000000000000000000000000000000000000000000000000000000000000000000036240000000000036240000000000000000000000000000000902202610022026000010022026000000000000000000000000000000               00000000000000000000000       
1040001300155T 060000004910850000000   14999000002910286712910286        020320260000000000407431040107002910286                  091000000053374029ALESSANDRA REIS GRIFANTE                          000000000000199060301                     
1040001300156U 060000000000000000000000000117470000000000000000000000000000000000000000289960000000000289960000000000000000000000000000000902202610022026000010022026000000000000000000000000000000               00000000000000000000000       
1040001300157T 060000004910850000000   14999000002911236612911236        090220260000000000355201040107002911236                  091000061207942987RAIMUNDO PORATH                                   000000000000199020101                     
1040001300158U 060000000000000000000000000081630000000000000000000000000000000000000000273570000000000273570000000000000000000000000000000902202610022026000010022026000000000000000000000000000000               00000000000000000000000       
1040001300159T 060000004910850000000   14999000002911901812911901        090220260000000000334592370033602911901                  091000007869209988DIANARA DE SOUZA NEGRI                            000000000000199040301                     
1040001300160U 060000000000000000000000000109000000000000000000000000000000000000000000225590000000000225590000000000000000000000000000000902202610022026000010022026000000000000000100007869209988               00000000000000000000000       
1040001300161T 060000004910850000000   14999000002911934412911934        090220260000000003680431040107002911934                  092005967469000118EJ7 SERVICOS LTDA                                 000000000000199020101                     
1040001300162U 060000000000000000000000001450510000000000000000000000000000000000000002229920000000002229920000000000000000000000000000000902202610022026000010022026000000000000000000000000000000               00000000000000000000000       
1040001300163T 060000004910850000000   14999000002912593012912593        090220260000000001308041040107002912593                  091000003430852919MARLETE NAZARIO                                   000000000000199020101                     
1040001300164U 060000000000000000000000000614200000000000000000000000000000000000000000693840000000000693840000000000000000000000000000000902202610022026000010022026000000000000000000000000000000               00000000000000000000000       
1040001300165T 060000004910850000000   14999000002912751712912751        090220260000000005481767560281602912751                  092008711300000190C.R.A.R. ADMINISTRADORA DE IMOVEIS LTDA           000000000000199040301                     
1040001300166U 060000000000000000000000001767160000000000000000000000000000000000000003714600000000003714600000000000000000000000000000000902202610022026000010022026000000000000000228981505000101               00000000000000000000000       
1040001300167T 060000004910850000000   14999000002912772012912772        090220260000000002569831040107002912772                  091000022396640968DIOMARIO DE OLIVEIRA WALTER                       000000000000199060301                     
1040001300168U 060000000000000000000000000678720000000000000000000000000000000000000001891110000000001891110000000000000000000000000000000902202610022026000010022026000000000000000000000000000000               00000000000000000000000       
1040001300169T 060000004910850000000   14999000002913563312913563        120220260000000000383017480590502913563                  091000094677301972LUCIANE MICHELS MICHELETO                         000000000000199040301                     
1040001300170U 060000000000000000000000000123630000000000000000000000000000000000000000259380000000000259380000000000000000000000000000000902202610022026000010022026000000000000000205570644000139               00000000000000000000000       
1040001300171T 060000004910850000000   14999000002913731812913731        160220260000000000429621040107002913731                  091000063296888934ROSILENE BARCELOS VARGAS DE SOUZA                 000000000000199060301                     
1040001300172U 060000000000000000000000000100920000000000000000000000000000000000000000328700000000000328700000000000000000000000000000000902202610022026000010022026000000000000000000000000000000               00000000000000000000000       
1040001300173T 060000004910850000000   14999000002913769512913769        070220260000000000228611040107002913769                  091000006439220918JULIO CESAR MARTINS CAETANO                       000000000000199020101                     
1040001300174U 060000000000000000000000000000000000000000000000000000000000000000000000228610000000000228610000000000000000000000000000000902202610022026000010022026000000000000000000000000000000               00000000000000000000000       
1040001300175T 060000004910850000000   14999000002913808012913808        160220260000000000809131040107002913808                  091000005764136903IARA NAZARIO MONTEIRO                             000000000000199060301                     
1040001300176U 060000000000000000000000000256130000000000000000000000000000000000000000553000000000000553000000000000000000000000000000000902202610022026000010022026000000000000000000000000000000               00000000000000000000000       
1040001300177T 060000004910850000000   14999000002913963912913963        090320260000000010111990010369202913963                  091000002725598907ANDERSON SALVALAGIO                               000000000000199040301                     
1040001300178U 060000000000000000000000000000000000000000000000000000000000000000000010111990000000010111990000000000000000000000000000000902202610022026000010022026000000000000000100002725598907               00000000000000000000000       
1040001300179T 060000004910850000000   14999000002914063712914063        170220260000000001434581040107002914063                  091000022386270904JOSE QUERINO ELISEU DEMETRIO                      000000000000199020101                     
1040001300180U 060000000000000000000000000282310000000000000000000000000000000000000001152270000000001152270000000000000000000000000000000902202610022026000010022026000000000000000000000000000000               00000000000000000000000       
1040001300181T 060000004910850000000   14999000002914261312914261        180220260000000000317417560056502914261                  091000098253468920SIMONE SALAZARIO ELIAS                            000000000000199040301                     
1040001300182U 060000000000000000000000000084300000000000000000000000000000000000000000233110000000000233110000000000000000000000000000000902202610022026000010022026000000000000000100098253468920               00000000000000000000000       
1040001300183T 060000004910850000000   14999000002915223612915223        230220260000000000218081040107002915223                  091000055098967953SAUL FLORIANO LAURENTINO                          000000000000199020101                     
1040001300184U 060000000000000000000000000058070000000000000000000000000000000000000000160010000000000160010000000000000000000000000000000902202610022026000010022026000000000000000000000000000000               00000000000000000000000       
1040001300185T 060000004910850000000   14999000002915441712915441        230220260000000003332661040107002915441                  091000002295125936EVA DA ROSA                                       000000000000199020101                     
1040001300186U 060000000000000000000000001445980000000000000000000000000000000000000001886680000000001886680000000000000000000000000000000902202610022026000010022026000000000000000000000000000000               00000000000000000000000       
1040001300187T 060000004910850000000   14999000002915573112915573        120220260000000000463711040107002915573                  091000002231633922NELSON EMIDIO DE RAMOS                            000000000000199020101                     
1040001300188U 060000000000000000000000000152370000000000000000000000000000000000000000311340000000000311340000000000000000000000000000000902202610022026000010022026000000000000000000000000000000               00000000000000000000000       
1040001300189T 060000004910850000000   14999000002915681912915681        230220260000000000194171360140502915681                  092085271310000101HEIDEMANN CONSTRUTORA E INCORPORADORA LT          000000000000199040301                     
1040001300190U 060000000000000000000000000038440000000000000000000000000000000000000000155730000000000155730000000000000000000000000000000902202610022026000010022026000000000000000100006599039979               00000000000000000000000       
1040001300191T 060000004910850000000   14999000002916174012916174        240220260000000000152351040107002916174                  091000004258370924NEUZA DE JESUS BONFIM                             000000000000199020101                     
1040001300192U 060000000000000000000000000040620000000000000000000000000000000000000000111730000000000111730000000000000000000000000000000902202610022026000010022026000000000000000000000000000000               00000000000000000000000       
1040001300193T 060000004910850000000   14999000002916180412916180        240220260000000000332911040107002916180                  091000006243324974VANILSE DE JESUS BONFIM                           000000000000199020101                     
1040001300194U 060000000000000000000000000104390000000000000000000000000000000000000000228520000000000228520000000000000000000000000000000902202610022026000010022026000000000000000000000000000000               00000000000000000000000       
1040001300195T 060000004910850000000   14999000002916600812916600        260320260000000000145042600000102916600                  091000004230798911FABIANA HEIDEMANN                                 000000000000199040301                     
1040001300196U 060000000000000000000000000028500000000000000000000000000000000000000000116540000000000116540000000000000000000000000000000902202610022026000010022026000000000000000100004230798911               00000000000000000000000       
1040001300197T 060000004910850000000   14999000002918153812918153        260220260000000000355651040107002918153                  091000079931200987ESPOLIO ANDERSON MARCELINO VOSS                   000000000000199020101                     
1040001300198U 060000000000000000000000000094950000000000000000000000000000000000000000260700000000000260700000000000000000000000000000000902202610022026000010022026000000000000000000000000000000               00000000000000000000000       
1040001300199T 060000004910850000000   14999000002919091012919091        040320260000000000246172370033602919091                  091000004205756933OLGA DA SILVA ALVES                               000000000000199040101                     
1040001300200U 060000000000000000000000000000000000000000000000000000000000000000000000246170000000000246170000000000000000000000000000000902202610022026000010022026000000000000000200000000000000               00000000000000000000000       
1040001300201T 060000004910850000000   14999000002920224112920224        070220260000000003599991040107002920224                  091000067130372915ETI GALVANI ULIANO                                000000000000199020101                     
1040001300202U 060000000000000000000000000000000000000000000000000000000000000000000003599990000000003599990000000000000000000000000000000902202610022026000010022026000000000000000000000000000000               00000000000000000000000       
1040001300203T 060000004910850000000   14999000002921223912921223        100220260000000000012507560056502921223                  092022966703000101CONDOMINIO RESIDENCIAL VILLA LOBOS                000000000000199040301                     
1040001300204U 060000000000000000000000000000000000000000000000000000000000000000000000012500000000000012500000000000000000000000000000000902202610022026000010022026000000000000000222966703000101               00000000000000000000000       
1040001300205T 060000004910850000000   14999000002921412612921412        060320260000000002269667560056502921412                  092042405383000128LOTEAMENTO MORADA DO BOSQUE LTDA                  000000000000199040301                     
1040001300206U 060000000000000000000000000000000000000000000000000000000000000000000002269660000000002269660000000000000000000000000000000902202610022026000010022026000000000000000242405383000128               00000000000000000000000       
1040001300207T 060000004910850000000   14999000002922245512922245        100220260000000009383990010073802922245                  092002063330000151CLINICA RAD.DR ENEAS PAULO A DA ROCHA LT          000000000000199040301                     
1040001300208U 060000000000000000000000000000000000000000000000000000000000000000000009383990000000009383990000000000000000000000000000000902202610022026000010022026000000000000000202063330000151               00000000000000000000000       
1040001300209T 060000004910850000000   14999000002922246312922246        100220260000000000122537480260402922246                  092061138823000172CRESCIMENTO E SUCESSO INVESTIMENTOS LTDA          000000000000199040301                     
1040001300210U 060000000000000000000000000000000000000000000000000000000000000000000000122530000000000122530000000000000000000000000000000902202610022026000010022026000000000000000261138823000172               00000000000000000000000       
1040001300211T 060000004910850000000   14999000002922250112922250        100220260000000000080003410200002922250                  091000009383054921NATALIA BUSS TURAZZI                              000000000000199040301                     
1040001300212U 060000000000000000000000000000000000000000000000000000000000000000000000080000000000000080000000000000000000000000000000000902202610022026000010022026000000000000000100009383054921               00000000000000000000000       
1040001300213T 060000004910850000000   14999000002922268412922268        100220260000000000641452370033602922268                  092007361957000102COMCRED FOMENTO MERCANTIL LTDA                    000000000000199040301                     
1040001300214U 060000000000000000000000000000000000000000000000000000000000000000000000641450000000000641450000000000000000000000000000000902202610022026000010022026000000000000000207361957000102               00000000000000000000000       
1040001300215T 060000004910850000000   14999000002922270612922270        100220260000000000328951040107002922270                  092004972095000166SAMURAI PARTICIPACAOES LTDA                       000000000000199020101                     
1040001300216U 060000000000000000000000000000000000000000000000000000000000000000000000328950000000000328950000000000000000000000000000000902202610022026000010022026000000000000000000000000000000               00000000000000000000000       
1040001300217T 060000004910850000000   14999000002922280312922280        100220260000000001056001040431102922280                  092026442024002723FACIL PROMOTORA DE VENDAS E SERVICOS S/A          000000000000199060301                     
1040001300218U 060000000000000000000000000000000000000000000000000000000000000000000001056000000000001056000000000000000000000000000000000902202610022026000010022026000000000000000000000000000000               00000000000000000000000       
1040001300219T 060000004910850000000   14999000002922309512922309        100220260000000001935491360140502922309                  092022827872000160REALIZA MULTIMARCAS LTDA                          000000000000199040301                     
1040001300220U 060000000000000000000000000000000000000000000000000000000000000000000001935490000000001935490000000000000000000000000000000902202610022026000010022026000000000000000222827872000160               00000000000000000000000       
1040001300221T 060000004910850000000   14999000002922340012922340        100220260000000000165002080003002922340                  092059473382000113JOICE ANTUNES PSICOLOGIA LTDA                     000000000000199040301                     
1040001300222U 060000000000000000000000000000000000000000000000000000000000000000000000165000000000000165000000000000000000000000000000000902202610022026000010022026000000000000000218189547000142               00000000000000000000000       
1040001300223T 060000004910850000000   14999000002922347812922347        100220260000000000860001040107002922347                  092078522174000101PREIS COMERCIAL AGROPECUARIA                      000000000000199020101                     
1040001300224U 060000000000000000000000000000000000000000000000000000000000000000000000860000000000000860000000000000000000000000000000000902202610022026000010022026000000000000000000000000000000               00000000000000000000000       
1040001300225T 060000004910850000000   14999000002922367212922367        100220260000000001412663410064302922367                  092007943402000179VANCREDI ASSESSORIA EMPRESARIAL E DE COB          000000000000199040301                     
1040001300226U 060000000000000000000000000000000000000000000000000000000000000000000001412660000000001412660000000000000000000000000000000902202610022026000010022026000000000000000207943402000179               00000000000000000000000       
1040001300227T 060000004910850000000   14999000002922387712922387        100220260000000003357883410064302922387                  092095781019000200PROLINCON VIGILANCIA LTDA                         000000000000199040301                     
1040001300228U 060000000000000000000000000000000000000000000000000000000000000000000003357880000000003357880000000000000000000000000000000902202610022026000010022026000000000000000295781019000129               00000000000000000000000       
1040001300229T 060000004910850000000   14999000002922393112922393        100220260000000000454407480153902922393                  092034329046000170DELTA MEDICINA DO TRABALHO LTDA                   000000000000199040301                     
1040001300230U 060000000000000000000000000000000000000000000000000000000000000000000000454400000000000454400000000000000000000000000000000902202610022026000010022026000000000000000234329046000170               00000000000000000000000       
1040001300231T 060000004910850000000   14999000002922399012922399        100220260000000000040001360140502922399                  092056051250000105CATARINA INVESTIMENTOS LTDA                       000000000000199040301                     
1040001300232U 060000000000000000000000000000000000000000000000000000000000000000000000040000000000000040000000000000000000000000000000000902202610022026000010022026000000000000000100004224859939               00000000000000000000000       
1040001300233T 060000004910850000000   14999000002922413012922413        100220260000000000383490010827902922413                  092086430576000538AGROWERNER COMERCIO DE MAQUINAS E IMPLEM          000000000000199040301                     
1040001300234U 060000000000000000000000000000000000000000000000000000000000000000000000383490000000000383490000000000000000000000000000000902202610022026000010022026000000000000000286430576000538               00000000000000000000000       
1040001300235T 060000004910850000000   14999000002922420212922420        100220260000000001678001360140502922420                  092023087314000179ENGTER ENGENHARIA SS                              000000000000199040301                     
1040001300236U 060000000000000000000000000000000000000000000000000000000000000000000001678000000000001678000000000000000000000000000000000902202610022026000010022026000000000000000223087314000179               00000000000000000000000       
1040001300237T 060000004910850000000   14999000002922424512922424        100220260000000003513487560056502922424                  092014524108000198RAFAEL AUTOMOVEIS LTDA                            000000000000199040301                     
1040001300238U 060000000000000000000000000000000000000000000000000000000000000000000003513480000000003513480000000000000000000000000000000902202610022026000010022026000000000000000214524108000198               00000000000000000000000       
1040001300239T 060000004910850000000   14999000002922437712922437        100220260000000000021600010073802922437                  092002063330000151CLINICA RAD.DR ENEAS PAULO A DA ROCHA LT          000000000000199040301                     
1040001300240U 060000000000000000000000000000000000000000000000000000000000000000000000021600000000000021600000000000000000000000000000000902202610022026000010022026000000000000000202063330000151               00000000000000000000000       
1040001300241T 060000004910850000000   14999000002922708212922708        060320260000000002730697560056502922708                  092003931923000155TECHOUSE INFORMATICA E TECNOLOGIA LTDA            000000000000199040301                     
1040001300242U 060000000000000000000000000000000000000000000000000000000000000000000002730690000000002730690000000000000000000000000000000902202610022026000010022026000000000000000203931923000155               00000000000000000000000       
1040001300243T 060000004910850000000   14999000002922709012922709        060320260000000000106137560056502922709                  092003931923000155TECHOUSE INFORMATICA E TECNOLOGIA LTDA            000000000000199040301                     
1040001300244U 060000000000000000000000000000000000000000000000000000000000000000000000106130000000000106130000000000000000000000000000000902202610022026000010022026000000000000000203931923000155               00000000000000000000000       
1040001300245T 060000004910850000000   14999000002922748112922748        060320260000000001632617560056502922748                  092035067695000103TH SERVICOS DE INFORMATICA LTDA                   000000000000199040301                     
1040001300246U 060000000000000000000000000000000000000000000000000000000000000000000001632610000000001632610000000000000000000000000000000902202610022026000010022026000000000000000235067695000103               00000000000000000000000       
1040001300247T 060000004910850000000   14999000002922749012922749        060320260000000000106137560056502922749                  092035067695000103TH SERVICOS DE INFORMATICA LTDA                   000000000000199040301                     
1040001300248U 060000000000000000000000000000000000000000000000000000000000000000000000106130000000000106130000000000000000000000000000000902202610022026000010022026000000000000000235067695000103               00000000000000000000000       
1040001300249T 060000004910850000000   14999000002922860712922860        120220260000000001172851040107002922860                  091000060370173953NILTON DEMETRIO                                   000000000000199020101                     
1040001300250U 060000000000000000000000000000000000000000000000000000000000000000000001172850000000001172850000000000000000000000000000000902202610022026000010022026000000000000000000000000000000               00000000000000000000000       
1040001300251T 060000004910850000000   14999000002923081412923081        120220260000000000314622370033602923081                  091000050961411953BERTILO SCHULZ                                    000000000000199040101                     
1040001300252U 060000000000000000000000000000000000000000000000000000000000000000000000314620000000000314620000000000000000000000000000000902202610022026000010022026000000000000000200000000000000               00000000000000000000000       
1040001300253T 060000004910850000000   14999000002924031312924031        100220260000000001138791360140502924031                  092054027609000183CENTRO DE AVALIACAO MEDICO DE CONDUTORES          000000000000199040301                     
1040001300254U 060000000000000000000000000000000000000000000000000000000000000000000001138790000000001138790000000000000000000000000000000902202610022026000010022026000000000000000254027609000183               00000000000000000000000       
1040001300255T 060000004910850000000   14999000002924318512924318        080620260000000000838427560056502924318                  091000007696459929RENATO RECH DUARTE                                000000000000199040301                     
1040001300256U 060000000000000000000000000000000000000000000000000000000000000000000000838420000000000838420000000000000000000000000000000902202610022026000010022026000000000000000229989810000102               00000000000000000000000       
1040001300257T 060000004910850000000   14999000002924325812924325        060320260000000002946187560056502924325                  092064927752000185LAVI CONTABILIDADE LTDA                           000000000000199040301                     
1040001300258U 060000000000000000000000000000000000000000000000000000000000000000000002946180000000002946180000000000000000000000000000000902202610022026000010022026000000000000000100003284068996               00000000000000000000000       
1040001300259T 060000004910850000000   14999000002924326612924326        060320260000000000048657560056502924326                  092064927752000185LAVI CONTABILIDADE LTDA                           000000000000199040301                     
1040001300260U 060000000000000000000000000000000000000000000000000000000000000000000000048650000000000048650000000000000000000000000000000902202610022026000010022026000000000000000100003284068996               00000000000000000000000       
1040001300261T 060000004910850000000   14999000002924327412924327        060320260000000001276257560056502924327                  092064927752000185LAVI CONTABILIDADE LTDA                           000000000000199040301                     
1040001300262U 060000000000000000000000000000000000000000000000000000000000000000000001276250000000001276250000000000000000000000000000000902202610022026000010022026000000000000000100003284068996               00000000000000000000000       
1040001300263T 060000004910850000000   14999000002924338012924338        090220260000000000045827560056502924338                  092062291510000112MATOS & CIA TRANSPORTES E TURISMO LTDA            000000000000199040301                     
1040001300264U 060000000000000000000000000000000000000000000000000000000000000000000000045820000000000045820000000000000000000000000000000902202610022026000010022026000000000000000262291510000112               00000000000000000000000       
1040001300265T 060000004910850000000   14999000002924351712924351        180220260000000000652781040192402924351                  091000030927102900NIVALDO MARTINS VIEIRA                            000000000000199020101                     
1040001300266U 060000000000000000000000000000000000000000000000000000000000000000000000652780000000000652780000000000000000000000000000000902202610022026000010022026000000000000000000000000000000               00000000000000000000000       
1040001300267T 060000004910850000000   14999000002924373812924373        060320260000000000247651040166202924373                  092010764705000724IPG - INSTITUTO DE POS GRADUACAO LTDA             000000000000199060301                     
1040001300268U 060000000000000000000000000000000000000000000000000000000000000000000000247650000000000247650000000000000000000000000000000902202610022026000010022026000000000000000000000000000000               00000000000000000000000       
1040001300269T 060000004910850000000   14999000002924374612924374        060320260000000001489761040166202924374                  092010764705000724IPG - INSTITUTO DE POS GRADUACAO LTDA             000000000000199060301                     
1040001300270U 060000000000000000000000000000000000000000000000000000000000000000000001489760000000001489760000000000000000000000000000000902202610022026000010022026000000000000000000000000000000               00000000000000000000000       
1040001300271T 060000004910850000000   14999000002924382712924382        090220260000000002855917560056502924382                  092046147616000190OLIVIO DELA JUSTINA 75782820934                   000000000000199040301                     
1040001300272U 060000000000000000000000000000000000000000000000000000000000000000000002855910000000002855910000000000000000000000000000000902202610022026000010022026000000000000000246147616000190               00000000000000000000000       
1040001300273T 060000004910850000000   14999000002924462912924462        090220260000000000147937480590502924462                  091000000885381920RODRIGO BATISTA FELISBERTO                        000000000000199040301                     
1040001300274U 060000000000000000000000000000000000000000000000000000000000000000000000147930000000000147930000000000000000000000000000000902202610022026000010022026000000000000000100005338343924               00000000000000000000000       
1040001300275T 060000004910850000000   14999000002924463712924463        090220260000000001259522370033602924463                  092020508002000101NUTRIS FABRICACAO E COMERCIO DE ALIMENTO          000000000000199040301                     
1040001300276U 060000000000000000000000000000000000000000000000000000000000000000000001259520000000001259520000000000000000000000000000000902202610022026000010022026000000000000000100010492724989               00000000000000000000000       
1040001300277T 060000004910850000000   14999000002924521812924521        130220260000000000110332600000102924521                  091000070535418949ELIZABETH VANDRESEN MACHADO                       000000000000199040301                     
1040001300278U 060000000000000000000000000000000000000000000000000000000000000000000000110330000000000110330000000000000000000000000000000902202610022026000010022026000000000000000100070535418949               00000000000000000000000       
1040001300279T 060000004910850000000   14999000002924525012924525        090220260000000000414731360170102924525                  091000007025690970LILIANA SCHUELTER VANDRESEN                       000000000000199040301                     
1040001300280U 060000000000000000000000000000000000000000000000000000000000000000000000414730000000000414730000000000000000000000000000000902202610022026000010022026000000000000000100007025690970               00000000000000000000000       
1040001300281T 060000004910850000000   14999000002924529312924529        080620260000000000508171040107002924529                  091000024977187920WILSON LUIZ HOBOLD                                000000000000199060301                     
1040001300282U 060000000000000000000000000000000000000000000000000000000000000000000000508170000000000508170000000000000000000000000000000902202610022026000010022026000000000000000000000000000000               00000000000000000000000       
1040001300283T 060000004910850000000   14999000002924530712924530        080620260000000000545281040107002924530                  091000024977187920WILSON LUIZ HOBOLD                                000000000000199060301                     
1040001300284U 060000000000000000000000000000000000000000000000000000000000000000000000545280000000000545280000000000000000000000000000000902202610022026000010022026000000000000000000000000000000               00000000000000000000000       
1040001300285T 060000004910850000000   14999000002924531512924531        080620260000000000160987480590502924531                  092042236584000149BNM URBANIZACAO LTDA                              000000000000199040301                     
1040001300286U 060000000000000000000000000000000000000000000000000000000000000000000000160980000000000160980000000000000000000000000000000902202610022026000010022026000000000000000100005942599912               00000000000000000000000       
1040001300287T 060000004910850000000   14999000002924533112924533        080620260000000000020477480590502924533                  091000005942599912JULIANO BUSS WIGGERS                              000000000000199040301                     
1040001300288U 060000000000000000000000000000000000000000000000000000000000000000000000020470000000000020470000000000000000000000000000000902202610022026000010022026000000000000000100005942599912               00000000000000000000000       
1040001300289T 060000004910850000000   14999000002924547112924547        090220260000000000148137560056502924547                  092045423812000188ASTRUM SOLAR ENERGIA LTDA                         000000000000199040301                     
1040001300290U 060000000000000000000000000000000000000000000000000000000000000000000000148130000000000148130000000000000000000000000000000902202610022026000010022026000000000000000245423812000188               00000000000000000000000       
1040001300291T 060000004910850000000   14999000002924607912924607        090220260000000000225651330262802924607                  092042275977000161BRUNA BERNARDINO CORREA                           000000000000199040301                     
1040001300292U 060000000000000000000000000000000000000000000000000000000000000000000000225650000000000225650000000000000000000000000000000902202610022026000010022026000000000000000242275977000161               00000000000000000000000       
1040001300293T 060000004910850000000   14999000002924636212924636        090220260000000000256261040385002924636                  091000006894560935ANELISE PEREIRA AVELINO                           000000000000199060301                     
1040001300294U 060000000000000000000000000000000000000000000000000000000000000000000000256260000000000256260000000000000000000000000000000902202610022026000010022026000000000000000000000000000000               00000000000000000000000       
1040001300295T 060000004910850000000   14999000002924637012924637        160220260000000000229261040385002924637                  091000006894560935ANELISE PEREIRA AVELINO                           000000000000199060301                     
1040001300296U 060000000000000000000000000000000000000000000000000000000000000000000000229260000000000229260000000000000000000000000000000902202610022026000010022026000000000000000000000000000000               00000000000000000000000       
1040001300297T 060000004910850000000   14999000002929061212929061        220220260000000000551862600000102929061                  091000007183442942JOAO PAULO RODRIGUES                              000000000000199040301                     
1040001300298U 060000000000000000000000000000000000000000000000000000000000000000000000551860000000000551860000000000000000000000000000000902202610022026000010022026000000000000000100009109701907               00000000000000000000000       
1040001300299T 060000004910850000000   14999000002929567312929567        270220260000000000117237480590502929567                  092052530651000197GOULART ADMINISTRADORA DE IMOVEIS LTDA            000000000000199040301                     
1040001300300U 060000000000000000000000000000000000000000000000000000000000000000000000117230000000000117230000000000000000000000000000000902202610022026000010022026000000000000000252530651000197               00000000000000000000000       
1040001300301T 060000004910850000000   14999000002930157612930157        100220260000000000005967560056502930157                  092012700280000120TOP TENDAS SUL LTDA                               000000000000199040301                     
1040001300302U 060000000000000000000000000000000000000000000000000000000000000000000000005960000000000005960000000000000000000000000000000902202610022026000010022026000000000000000212700280000120               00000000000000000000000       
1040001300303T 060000004910850000000   14999000002930196712930196        100220260000000000029337560056502930196                  092001675209000118EDIO DELLA GIUSTINA LTDA                          000000000000199040101                     
1040001300304U 060000000000000000000000000000000000000000000000000000000000000000000000029330000000000029330000000000000000000000000000000902202610022026000010022026000000000000000200000000000000               00000000000000000000000       
1040001300305T 060000004910850000000   14999000002930274212930274        100220260000000000760461360171102930274                  092014127654000195VITTA LARANJA IND. COM. DE SUCOS                  000000000000199040301                     
1040001300306U 060000000000000000000000000000000000000000000000000000000000000000000000760460000000000760460000000000000000000000000000000902202610022026000010022026000000000000000214127654000195               00000000000000000000000       
1040001300307T 060000004910850000000   14999000002930331512930331        100220260000000000003330010342502930331                  092003777341052042SERVICO SOCIAL DA INDUSTRIA                       000000000000199040301                     
1040001300308U 060000000000000000000000000000000000000000000000000000000000000000000000003330000000000003330000000000000000000000000000000902202610022026000010022026000000000000000203777341000166               00000000000000000000000       
1040001300309T 060000004910850000000   14999000002930361712930361        100220260000000000585947480596902930361                  092004344096000166INDUSTRIA E COMERCIO DE LATICINIOS DE MA          000000000000199040301                     
1040001300310U 060000000000000000000000000000000000000000000000000000000000000000000000585940000000000585940000000000000000000000000000000902202610022026000010022026000000000000000204344096000166               00000000000000000000000       
1040001300311T 060000004910850000000   14999000002930370612930370        100220260000000000027050010342502930370                  092003777341004315SERVICO SOCIAL DA INDUSTRIA                       000000000000199040301                     
1040001300312U 060000000000000000000000000000000000000000000000000000000000000000000000027050000000000027050000000000000000000000000000000902202610022026000010022026000000000000000203777341000166               00000000000000000000000       
1040001300313T 060000004910850000000   14999000002930387012930387        100220260000000000006687560056502930387                  092046336754000118REFRITHERM REFRIGERACAO LTDA                      000000000000199040301                     
1040001300314U 060000000000000000000000000000000000000000000000000000000000000000000000006680000000000006680000000000000000000000000000000902202610022026000010022026000000000000000246336754000118               00000000000000000000000       
1040001300315T 060000004910850000000   14999000002930401012930401        100220260000000007759331040107002930401                  092000360305107090CAIXA ECONOMICA FEDERAL                           000000000000199030101                     
1040001300316U 060000000000000000000000000000000000000000000000000000000000000000000007759330000000007759330000000000000000000000000000000902202610022026000010022026000000000000000000000000000000               00000000000000000000000       
1040001300317T 060000004910850000000   14999000002930409512930409        100220260000000013748101360437202930409                  091000052305945949MARIA GORETI KUERTEN COSTA                        000000000000199040301                     
1040001300318U 060000000000000000000000000000000000000000000000000000000000000000000013748100000000013748100000000000000000000000000000000902202610022026000010022026000000000000000283870873000182               00000000000000000000000       
1040001300319T 060000004910850000000   14999000002930411712930411        100220260000000013550320010190802930411                  092000000000073822BANCO DO BRASIL S/A                               000000000000199040301                     
1040001300320U 060000000000000000000000000000000000000000000000000000000000000000000013550320000000013550320000000000000000000000000000000902202610022026000010022026000000000000000200000000583278               00000000000000000000000       
1040001300321T 060000004910850000000   14999000002930434612930434        100220260000000000010800010073802930434                  092010343816000171LATICINIOS ESTRELA DO CAMPO LTDA                  000000000000199040301                     
1040001300322U 060000000000000000000000000000000000000000000000000000000000000000000000010800000000000010800000000000000000000000000000000902202610022026000010022026000000000000000210343816000171               00000000000000000000000       
1040001300323T 060000004910850000000   14999000002930437012930437        100220260000000008296881040107002930437                  092000360305107090CAIXA ECONOMICA FEDERAL                           000000000000199030101                     
1040001300324U 060000000000000000000000000000000000000000000000000000000000000000000008296880000000008296880000000000000000000000000000000902202610022026000010022026000000000000000000000000000000               00000000000000000000000       
1040001300325T 060000004910850000000   14999000002933519512933519        090220260000000000117231040107002933519                  092005277354000100AGUAS TERMAIS FONTE NOVA LTDA                     000000000000199020101                     
1040001300326U 060000000000000000000000000000000000000000000000000000000000000000000000117230000000000117230000000000000000000000000000000902202610022026000010022026000000000000000000000000000000               00000000000000000000000       
1040001300327T 060000004910850000000   14999000002933576412933576        280220260000000000744307480590502933576                  092009337400000161JOSE PERON & CIA LTDA                             000000000000199040301                     
1040001300328U 060000000000000000000000000000000000000000000000000000000000000000000000744300000000000744300000000000000000000000000000000902202610022026000010022026000000000000000209337400000161               00000000000000000000000       
1040001300329T 060000004910850000000   14999000002934010512934010        170220260000000000117230010073802934010                  091000002099909962JOELSON BAGIO BELTRAME                            000000000000199040301                     
1040001300330U 060000000000000000000000000000000000000000000000000000000000000000000000117230000000000117230000000000000000000000000000000902202610022026000010022026000000000000000100002099909962               00000000000000000000000       
1040001300331T 060000004910850000000   14999000002934212412934212        090220260000000000230421040107002934212                  091000063245825900ESPOLIO DE TERESINHA OLIVEIRA DAMIAO              000000000000199020101                     
1040001300332U 060000000000000000000000000043130000000000000000000000000000000000000000187290000000000187290000000000000000000000000000000902202610022026000010022026000000000000000000000000000000               00000000000000000000000       
1040001300333T 060000004910850000000   14999000002934213212934213        090220260000000000229021040107002934213                  091000063245825900ESPOLIO DE TERESINHA OLIVEIRA DAMIAO              000000000000199020101                     
1040001300334U 060000000000000000000000000043130000000000000000000000000000000000000000185890000000000185890000000000000000000000000000000902202610022026000010022026000000000000000000000000000000               00000000000000000000000       
1040001300335T 060000004910850000000   14999000002934318012934318        050520260000000002117237480590502934318                  091000037531484900MOISES DACOREGIO AGUIAR                           000000000000199040301                     
1040001300336U 060000000000000000000000000000000000000000000000000000000000000000000002117230000000002117230000000000000000000000000000000902202610022026000010022026000000000000000100037531484900               00000000000000000000000       
1040001300337T 060000004910850000000   14999000002934806812934806        100220260000000000053207560056502934806                  092041726401000100RF FREIOS SERVICOS LTDA                           000000000000199040301                     
1040001300338U 060000000000000000000000000000000000000000000000000000000000000000000000053200000000000053200000000000000000000000000000000902202610022026000010022026000000000000000241726401000100               00000000000000000000000       
1040001300339T 060000004910850000000   14999000002934815712934815        240220260000000000040002600000102934815                  091000011606359940Joao Vitor Brighente de Souza                     000000000000199040301                     
1040001300340U 060000000000000000000000000000000000000000000000000000000000000000000000040000000000000040000000000000000000000000000000000902202610022026000010022026000000000000000100011606359940               00000000000000000000000       
1040001300341T 060000004910850000000   14999000002934819012934819        100220260000000001120710010358202934819                  092076276849000154MINISTERIO PUBLICO DO ESTADO DE SANTA CA          000000000000199040301                     
1040001300342U 060000000000000000000000000000000000000000000000000000000000000000000001120710000000001120710000000000000000000000000000000902202610022026000010022026000000000000000276276849000154               00000000000000000000000       
1040001300343T 060000004910850000000   14999000002934826212934826        100220260000000000376050850133102934826                  092049996727000160COELHO EMPREENDIMENTOS IMOBILIARIOS LTDA          000000000000199040301                     
1040001300344U 060000000000000000000000000000000000000000000000000000000000000000000000376050000000000376050000000000000000000000000000000902202610022026000010022026000000000000000249996727000160               00000000000000000000000       
1040001300345T 060000004910850000000   14999000002934853012934853        100220260000000000321047480010002934853                  092003793242001573COOP  CREDITO, POUPANCA E INVEST DO SUL           000000000000199040301                     
1040001300346U 060000000000000000000000000000000000000000000000000000000000000000000000321040000000000321040000000000000000000000000000000902202610022026000010022026000000000000000203793242000178               00000000000000000000000       
1040001300347T 060000004910850000000   14999000002934855612934855        090220260000000001714391360140502934855                  092051854962000149CALI ADMINISTRADORA DE IMOVEIS LTDA               000000000000199040301                     
1040001300348U 060000000000000000000000000000000000000000000000000000000000000000000001714390000000001714390000000000000000000000000000000902202610022026000010022026000000000000000251854962000149               00000000000000000000000       
1040001300349T 060000004910850000000   14999000002934915312934915        100220260000000000003200770000102934915                  092028754618000166CENTRO EMPRESARIAL DE SAUDE LA DAMA BRAC          000000000000199040301                     
1040001300350U 060000000000000000000000000000000000000000000000000000000000000000000000003200000000000003200000000000000000000000000000000902202610022026000010022026000000000000000100004877344918               00000000000000000000000       
1040001300351T 060000004910850000000   14999000002934932312934932        100220260000000000003000330333902934932                  092041487533000127LLA ODONTOLOGIA LTDA                              000000000000199040301                     
1040001300352U 060000000000000000000000000000000000000000000000000000000000000000000000003000000000000003000000000000000000000000000000000902202610022026000010022026000000000000000241487533000127               00000000000000000000000       
1040001300353T 060000004910850000000   14999000002934938212934938        100220260000000003383251360140502934938                  092050627166000100MADI ADMINISTRADORA DE IMOVEIS LTDA               000000000000199040301                     
1040001300354U 060000000000000000000000000000000000000000000000000000000000000000000003383250000000003383250000000000000000000000000000000902202610022026000010022026000000000000000250627166000100               00000000000000000000000       
1040001300355T 060000004910850000000   14999000002935394012935394        090220260000000000362732600000102935394                  091000010319620930JOAO LEONATO MEDEIROS                             000000000000199040301                     
1040001300356U 060000000000000000000000000000000000000000000000000000000000000000000000362730000000000362730000000000000000000000000000000902202610022026000010022026000000000000000100006910144937               00000000000000000000000       
1040001300357T 060000004910850000000   14999000002935416512935416        080620260000000001099310010073802935416                  091000005084448967GUILHERME JESUS WISNIEVSKI                        000000000000199040301                     
1040001300358U 060000000000000000000000000257920000000000000000000000000000000000000000841390000000000841390000000000000000000000000000000902202610022026000010022026000000000000000100037594389972               00000000000000000000000       
1040001300359T 060000004910850000000   14999000002935418112935418        080620260000000000891971040107002935418                  091000004598681950ELIETE RODRIGUES ANSELMO                          000000000000199020101                     
1040001300360U 060000000000000000000000000195720000000000000000000000000000000000000000696250000000000696250000000000000000000000000000000902202610022026000010022026000000000000000000000000000000               00000000000000000000000       
1040001300361T 060000004910850000000   14999000002935423812935423        090220260000000000117237480590502935423                  092031594119000163JUNKES SERVICOS MEDICOS SS LTDA                   000000000000199040301                     
1040001300362U 060000000000000000000000000000000000000000000000000000000000000000000000117230000000000117230000000000000000000000000000000902202610022026000010022026000000000000000211415506000188               00000000000000000000000       
1040001300363T 060000004910850000000   14999000002935436012935436        160220260000000000117232600000102935436                  09206369236500014463.692.365 VICTOR BITENCOURT DA SILVA             000000000000199040301                     
1040001300364U 060000000000000000000000000000000000000000000000000000000000000000000000117230000000000117230000000000000000000000000000000902202610022026000010022026000000000000000263692365000144               00000000000000000000000       
1040001300365T 060000004910850000000   14999000002935904312935904        060320260000000003084183410742602935904                  092007324378000602DUTRA COMERCIO FARMACEUTICO LTDA                  000000000000199040301                     
1040001300366U 060000000000000000000000000616840000000000000000000000000000000000000002467340000000002467340000000000000000000000000000000902202610022026000010022026000000000000000207324378000190               00000000000000000000000       
1040001300367T 060000004910850000000   14999000002935906012935906        060320260000000000530723410742602935906                  092007324378000602DUTRA COMERCIO FARMACEUTICO LTDA                  000000000000199040301                     
1040001300368U 060000000000000000000000000053070000000000000000000000000000000000000000477650000000000477650000000000000000000000000000000902202610022026000010022026000000000000000207324378000190               00000000000000000000000       
1040001300369T 020000004910850000000   14999000002922383412922383        10022026000000000079188000000000                         092032015811000152DUTRA PRE MOLDADOS LTDA                           000000000000000A4                         
1040001300370U 020000000000000000000000000000000000000000000000000000000000000000000000000000000000000000000000000000000000000000000000000902202600000000000000000000000000000000000                              00000000000000000000000       
1040001300371T 020000004910850000000   14999000002922456312922456        10022026000000000001500000000000                         092000204957000150SILBECK SOFTWARE LTDA                             000000000000000A4                         
1040001300372U 020000000000000000000000000000000000000000000000000000000000000000000000000000000000000000000000000000000000000000000000000902202600000000000000000000000000000000000                              00000000000000000000000       
1040001300373T 020000004910850000000   14999000002922459812922459        10022026000000002575390000000000                         092012731480000140CLINICA DE IMAGEM E DIAGNOSTICO DO VALE           000000000000000A4                         
1040001300374U 020000000000000000000000000000000000000000000000000000000000000000000000000000000000000000000000000000000000000000000000000902202600000000000000000000000000000000000                              00000000000000000000000       
1040001300375T 020000004910850000000   14999000002922475012922475        10022026000000001186844000000000                         092082130709000176NEO SISTEMAS DE INFORMATICA LTDA                  000000000000000A4                         
1040001300376U 020000000000000000000000000000000000000000000000000000000000000000000000000000000000000000000000000000000000000000000000000902202600000000000000000000000000000000000                              00000000000000000000000       
1040001300377T 020000004910850000000   14999000002921223912921223        10022026000000000001250000000000                         092022966703000101CONDOMINIO RESIDENCIAL VILLA LOBOS                000000000000000                           
1040001300378U 020000000000000000000000000000000000000000000000000000000000000000000000000000000000000000000000000000000000000000000000000902202600000000000009022026000000000000000                              00000000000000000000000       
1040001300379T 020000004910850000000   14999000002921224712921224        10022026000000000006400000000000                         092007983903000189BIPACK - INDUSTRIAL DE EMBALAGENS LTDA            000000000000000A4                         
1040001300380U 020000000000000000000000000000000000000000000000000000000000000000000000000000000000000000000000000000000000000000000000000902202600000000000009022026000000000000000                              00000000000000000000000       
1040001300381T 020000004910850000000   14999000002922404012922404        10022026000000000000040000000000                         092002432724000130JS LABORATORIO DE ANALISES CLINICAS LTDA          000000000000000A4                         
1040001300382U 020000000000000000000000000000000000000000000000000000000000000000000000000000000000000000000000000000000000000000000000000902202600000000000009022026000000000000000                              00000000000000000000000       
1040001300383T 020000004910850000000   14999000002922409112922409        10022026000000000000024000000000                         092003005324000100MKM INTERNET SOLUTION PROVIDER LTDA               000000000000000A4                         
1040001300384U 020000000000000000000000000000000000000000000000000000000000000000000000000000000000000000000000000000000000000000000000000902202600000000000009022026000000000000000                              00000000000000000000000       
1040001300385T 020000004910850000000   14999000002922421012922421        10022026000000000003142000000000                         092002432724000130JS LABORATORIO DE ANALISES CLINICAS LTDA          000000000000000A4                         
1040001300386U 020000000000000000000000000000000000000000000000000000000000000000000000000000000000000000000000000000000000000000000000000902202600000000000009022026000000000000000                              00000000000000000000000       
1040001300387T 020000004910850000000   14999000002922426112922426        10022026000000001343013000000000                         092002432724000130JS LABORATORIO DE ANALISES CLINICAS LTDA          000000000000000A4                         
1040001300388U 020000000000000000000000000000000000000000000000000000000000000000000000000000000000000000000000000000000000000000000000000902202600000000000009022026000000000000000                              00000000000000000000000       
1040001300389T 020000004910850000000   14999000002922427012922427        10022026000000000004000000000000                         092014663374000100SILVA & SILVA RECAPAGEM LTDA                      000000000000000                           
1040001300390U 020000000000000000000000000000000000000000000000000000000000000000000000000000000000000000000000000000000000000000000000000902202600000000000009022026000000000000000                              00000000000000000000000       
1040001300391T 020000004910850000000   14999000002922436912922436        10022026000000000000925000000000                         092027516397000125MKM SERVICOS DIGITAIS LTDA                        000000000000000A4                         
1040001300392U 020000000000000000000000000000000000000000000000000000000000000000000000000000000000000000000000000000000000000000000000000902202600000000000009022026000000000000000                              00000000000000000000000       
1040001300393T 020000004910850000000   14999000002922447412922447        10022026000000000031040000000000                         092085383743000140ELETRO JO MATERIAIS ELETRICOS LTDA                000000000000000A4                         
1040001300394U 020000000000000000000000000000000000000000000000000000000000000000000000000000000000000000000000000000000000000000000000000902202600000000000009022026000000000000000                              00000000000000000000000       
1040001300395T 020000004910850000000   14999000002922448212922448        10022026000000000018128000000000                         092002432724000130JS LABORATORIO DE ANALISES CLINICAS LTDA          000000000000000A4                         
1040001300396U 020000000000000000000000000000000000000000000000000000000000000000000000000000000000000000000000000000000000000000000000000902202600000000000009022026000000000000000                              00000000000000000000000       
1040001300397T 020000004910850000000   14999000002922457112922457        10022026000000000084800000000000                         092082130709000176NEO SISTEMAS DE INFORMATICA LTDA                  000000000000000A4                         
1040001300398U 020000000000000000000000000000000000000000000000000000000000000000000000000000000000000000000000000000000000000000000000000902202600000000000009022026000000000000000                              00000000000000000000000       
1040001300399T 020000004910850000000   14999000002922458012922458        10022026000000000000904000000000                         092002432724000130JS LABORATORIO DE ANALISES CLINICAS LTDA          000000000000000A4                         
1040001300400U 020000000000000000000000000000000000000000000000000000000000000000000000000000000000000000000000000000000000000000000000000902202600000000000009022026000000000000000                              00000000000000000000000       
1040001300401T 020000004910850000000   14999000002922461012922461        10022026000000000002640000000000                         092012731480000140CLINICA DE IMAGEM E DIAGNOSTICO DO VALE           000000000000000A4                         
1040001300402U 020000000000000000000000000000000000000000000000000000000000000000000000000000000000000000000000000000000000000000000000000902202600000000000009022026000000000000000                              00000000000000000000000       
1040001300403T 020000004910850000000   14999000002922465212922465        10022026000000000000044000000000                         092002432724000130JS LABORATORIO DE ANALISES CLINICAS LTDA          000000000000000A4                         
1040001300404U 020000000000000000000000000000000000000000000000000000000000000000000000000000000000000000000000000000000000000000000000000902202600000000000009022026000000000000000                              00000000000000000000000       
1040001300405T 020000004910850000000   14999000002922468712922468        10022026000000000001940000000000                         092000682958000100REFRINORTE REFRIGERACAO LTDA                      000000000000000A4                         
1040001300406U 020000000000000000000000000000000000000000000000000000000000000000000000000000000000000000000000000000000000000000000000000902202600000000000009022026000000000000000                              00000000000000000000000       
1040001300407T 020000004910850000000   14999000002922469512922469        10022026000000000000868000000000                         092002432724000130JS LABORATORIO DE ANALISES CLINICAS LTDA          000000000000000A4                         
1040001300408U 020000000000000000000000000000000000000000000000000000000000000000000000000000000000000000000000000000000000000000000000000902202600000000000009022026000000000000000                              00000000000000000000000       
1040001300409T 020000004910850000000   14999000002922472512922472        10022026000000001373467000000000                         092002432724000130JS LABORATORIO DE ANALISES CLINICAS LTDA          000000000000000A4                         
1040001300410U 020000000000000000000000000000000000000000000000000000000000000000000000000000000000000000000000000000000000000000000000000902202600000000000009022026000000000000000                              00000000000000000000000       
1040001300411T 020000004910850000000   14999000002922473312922473        10022026000000000002483000000000                         092053959967000161MKM TECNOLOGIA DA INFORMACAO LTDA                 000000000000000A4                         
1040001300412U 020000000000000000000000000000000000000000000000000000000000000000000000000000000000000000000000000000000000000000000000000902202600000000000009022026000000000000000                              00000000000000000000000       
