10400000         2829265510001450000000000000000000001070749108500000000MUNICIPIO DE BRACO DO NORTE   C ECON FEDERAL                          23001202602010500193204000000                    RETORNO-PRODUCAO                  000            
10400011T0100030 20829265510001450000000000000000000001070749108500000000MUNICIPIO DE BRACO DO NORTE                                                                                   00001932300120260000000000                          00   
1040001300001T 060000004910850000000   14999000002908697712908697        200220260000000000158813410000002908697                  091000007200941948PAULA VIEIRA SANTANA                              000000000000199620300                     
1040001300002U 060000000000000000000000000040980000000000000000000000000000000000000000117830000000000117830000000000000000000000000000003001202630012026000030012026000000000000000100001014142938               00000000000000000000000       
1040001300003T 060000004910850000000   14999000002930612812930612        060220260000000000229421040107002930612                  091000034233156953ESPOLIO DE BENICIO EFFTING                        000000000000199610300                     
1040001300004U 060000000000000000000000000000000000000000000000000000000000000000000000229420000000000229420000000000000000000000000000003001202630012026000030012026000000000000000100005589400996               00000000000000000000000       
1040001300005T 060000004910850000000   14999000002707120412707120        010220260000000000254861040107002707120                  092009137718000107WJ AFIACOES E COMERCIO DE FERRAMENTAS LT          000000000000199020101                     
1040001300006U 060000000000000000000000000000000000000000000000000000000000000000000000254860000000000254860000000000000000000000000000003001202602022026000002022026000000000000000000000000000000               00000000000000000000000       
1040001300007T 060000004910850000000   14999000002711582112711582        300120260000000000295377560056502711582                  092017211866000144LOGPRO SERVICOS ADMINISTRATIVOS PARA TER          000000000000199040301                     
1040001300008U 060000000000000000000000000000000000000000000000000000000000000000000000295370000000000295370000000000000000000000000000003001202602022026000002022026000000000000000217211866000144               00000000000000000000000       
1040001300009T 060000004910850000000   14999000002796858112796858        300120260000000001276087560056502796858                  092017211866000144LOGPRO SERVICOS ADMINISTRATIVOS PARA TER          000000000000199040301                     
1040001300010U 060000000000000000000000000000000000000000000000000000000000000000000001276080000000001276080000000000000000000000000000003001202602022026000002022026000000000000000217211866000144               00000000000000000000000       
1040001300011T 060000004910850000000   14999000002882080412882080        010220260000000000242622600000102882080                  091000028832108968SANTELINO JERONIMO                                000000000000199040301                     
1040001300012U 060000000000000000000000000000000000000000000000000000000000000000000000242620000000000242620000000000000000000000000000003001202602022026000002022026000000000000000100005025911966               00000000000000000000000       
1040001300013T 060000004910850000000   14999000002899411012899411        300120260000000000380595090000102899411                  091000004627388926CRICEARA DA ROSA VOLPATO                          000000000000199040301                     
1040001300014U 060000000000000000000000000000000000000000000000000000000000000000000000380590000000000380590000000000000000000000000000003001202602022026000002022026000000000000000100004627388926               00000000000000000000000       
1040001300015T 060000004910850000000   14999000002899813112899813        020220260000000000207961040107002899813                  091000003062695978DULCE CARVALHO                                    000000000000199020101                     
1040001300016U 060000000000000000000000000000000000000000000000000000000000000000000000207960000000000207960000000000000000000000000000003001202602022026000002022026000000000000000000000000000000               00000000000000000000000       
1040001300017T 060000004910850000000   14999000002901751712901751        100220260000000000143231040385002901751                  091000034298258904MARCOS NECKER                                     000000000000199060301                     
1040001300018U 060000000000000000000000000000000000000000000000000000000000000000000000143230000000000143230000000000000000000000000000003001202602022026000002022026000000000000000000000000000000               00000000000000000000000       
1040001300019T 060000004910850000000   14999000002902538212902538        060320260000000002683422370033602902538                  092045033465000187LUIZ CARLOS ROHDEN MEURER LTDA                    000000000000199040301                     
1040001300020U 060000000000000000000000000000000000000000000000000000000000000000000002683420000000002683420000000000000000000000000000003001202602022026000002022026000000000000000245033465000187               00000000000000000000000       
1040001300021T 060000004910850000000   14999000002902540412902540        060320260000000000106132370033602902540                  092045033465000187LUIZ CARLOS ROHDEN MEURER LTDA                    000000000000199040301                     
1040001300022U 060000000000000000000000000000000000000000000000000000000000000000000000106130000000000106130000000000000000000000000000003001202602022026000002022026000000000000000245033465000187               00000000000000000000000       
1040001300023T 060000004910850000000   14999000002912589112912589        310120260000000000129470010073802912589                  091000045621268920ABEL FELIPPE                                      000000000000199040301                     
1040001300024U 060000000000000000000000000000000000000000000000000000000000000000000000129470000000000129470000000000000000000000000000003001202602022026000002022026000000000000000100045621268920               00000000000000000000000       
1040001300025T 060000004910850000000   14999000002914661912914661        060320260000000010262061040308002914661                  092082508433002080COMPANHIA CATARINENSE DE AGUAS E SANEAME          000000000000199060301                     
1040001300026U 060000000000000000000000000000000000000000000000000000000000000000000010262060000000010262060000000000000000000000000000003001202602022026000002022026000000000000000000000000000000               00000000000000000000000       
1040001300027T 060000004910850000000   14999000002914662712914662        060320260000000000697781040308002914662                  092082508433002080COMPANHIA CATARINENSE DE AGUAS E SANEAME          000000000000199060301                     
1040001300028U 060000000000000000000000000000000000000000000000000000000000000000000000697780000000000697780000000000000000000000000000003001202602022026000002022026000000000000000000000000000000               00000000000000000000000       
1040001300029T 060000004910850000000   14999000002915333012915333        230220260000000000369187560056502915333                  091000037796879920ESPOLIO DE ANIZIO TRAMONTIM                       000000000000199040301                     
1040001300030U 060000000000000000000000000082270000000000000000000000000000000000000000286910000000000286910000000000000000000000000000003001202602022026000002022026000000000000000213990900000175               00000000000000000000000       
1040001300031T 060000004910850000000   14999000002915357712915357        230220260000000001060147560056502915357                  091000037796879920ESPOLIO DE ANIZIO TRAMONTIM                       000000000000199040301                     
1040001300032U 060000000000000000000000000231540000000000000000000000000000000000000000828600000000000828600000000000000000000000000000003001202602022026000002022026000000000000000213990900000175               00000000000000000000000       
1040001300033T 060000004910850000000   14999000002919750712919750        310120260000000002045587560056502919750                  091000099997630904RODNEI PHILIPPI                                   000000000000199040301                     
1040001300034U 060000000000000000000000000000000000000000000000000000000000000000000002045580000000002045580000000000000000000000000000003001202602022026000002022026000000000000000100003125852927               00000000000000000000000       
1040001300035T 060000004910850000000   14999000002920112112920112        300120260000000000130522370038202920112                  092027118194000180AF CONSTRUCOES E PAVIMENTACAO LTDA                000000000000199040301                     
1040001300036U 060000000000000000000000000000000000000000000000000000000000000000000000130520000000000130520000000000000000000000000000003001202602022026000002022026000000000000000227118194000180               00000000000000000000000       
1040001300037T 060000004910850000000   14999000002921180112921180        300120260000000000529192370038202921180                  092027118194000180AF CONSTRUCOES E PAVIMENTACAO LTDA                000000000000199040301                     
1040001300038U 060000000000000000000000000000000000000000000000000000000000000000000000529190000000000529190000000000000000000000000000003001202602022026000002022026000000000000000227118194000180               00000000000000000000000       
1040001300039T 060000004910850000000   14999000002921205012921205        300120260000000000321607560000102921205                  092086829827001876COOPERATIVA DE CREDITO DE LIVRE ADMISSAO          000000000000199040301                     
1040001300040U 060000000000000000000000000000000000000000000000000000000000000000000000321600000000000321600000000000000000000000000000003001202602022026000002022026000000000000000286829827000128               00000000000000000000000       
1040001300041T 060000004910850000000   14999000002921210712921210        300120260000000000013350010354002921210                  092027273298000160MAXIMO COMERCIO DE MAQUINAS, EQUIP. E SO          000000000000199040301                     
1040001300042U 060000000000000000000000000000000000000000000000000000000000000000000000013350000000000013350000000000000000000000000000003001202602022026000002022026000000000000000227273298000160               00000000000000000000000       
1040001300043T 060000004910850000000   14999000002921216612921216        300120260000000002386811360140502921216                  092052192599000106DOMUS PALACE RESIDENCE SPE LTDA                   000000000000199040301                     
1040001300044U 060000000000000000000000000000000000000000000000000000000000000000000002386810000000002386810000000000000000000000000000003001202602022026000002022026000000000000000252192599000106               00000000000000000000000       
1040001300045T 060000004910850000000   14999000002921222012921222        140220260000000000028800330227102921222                  091000010466528930CARLOS MACIESKI MATUCHAKI                         000000000000199040301                     
1040001300046U 060000000000000000000000000000000000000000000000000000000000000000000000028800000000000028800000000000000000000000000000003001202602022026000002022026000000000000000100010466528930               00000000000000000000000       
1040001300047T 060000004910850000000   14999000002923698712923698        300120260000000000374507560000102923698                  092086829827001876COOPERATIVA DE CREDITO DE LIVRE ADMISSAO          000000000000199040301                     
1040001300048U 060000000000000000000000000000000000000000000000000000000000000000000000374500000000000374500000000000000000000000000000003001202602022026000002022026000000000000000286829827000128               00000000000000000000000       
1040001300049T 060000004910850000000   14999000002923701012923701        300120260000000000117661040107002923701                  092043818916000166MICHAEL SANTOS DA SILVA 12141662966               000000000000199020101                     
1040001300050U 060000000000000000000000000000000000000000000000000000000000000000000000117660000000000117660000000000000000000000000000003001202602022026000002022026000000000000000000000000000000               00000000000000000000000       
1040001300051T 060000004910850000000   14999000002923714212923714        300120260000000000023783410638202923714                  092083000836000202FRIGVAN FRIGORIFICO INDUSTRIA E COMERCIO          000000000000199040301                     
1040001300052U 060000000000000000000000000000000000000000000000000000000000000000000000023780000000000023780000000000000000000000000000003001202602022026000002022026000000000000000283000836000113               00000000000000000000000       
1040001300053T 060000004910850000000   14999000002923716912923716        300120260000000000747800010073802923716                  092002056288000141ASSOCIACAO CAMPESTRE BRACO DO NORTE               000000000000199040301                     
1040001300054U 060000000000000000000000000000000000000000000000000000000000000000000000747800000000000747800000000000000000000000000000003001202602022026000002022026000000000000000202056288000141               00000000000000000000000       
1040001300055T 060000004910850000000   14999000002923770312923770        300120260000000001379961360140502923770                  091000004104559970ROGER DA COSTA SCALCO                             000000000000199040301                     
1040001300056U 060000000000000000000000000000000000000000000000000000000000000000000001379960000000001379960000000000000000000000000000003001202602022026000002022026000000000000000100004104559970               00000000000000000000000       
1040001300057T 060000004910850000000   14999000002923771112923771        300120260000000001088741360140502923771                  091000004104559970ROGER DA COSTA SCALCO                             000000000000199040301                     
1040001300058U 060000000000000000000000000000000000000000000000000000000000000000000001088740000000001088740000000000000000000000000000003001202602022026000002022026000000000000000100004104559970               00000000000000000000000       
1040001300059T 060000004910850000000   14999000002923785112923785        300120260000000003339931330266702923785                  092015363133000108JOSE ANTONIO DIAS ME                              000000000000199040301                     
1040001300060U 060000000000000000000000000000000000000000000000000000000000000000000003339930000000003339930000000000000000000000000000003001202602022026000002022026000000000000000254861594000154               00000000000000000000000       
1040001300061T 060000004910850000000   14999000002923786012923786        300120260000000002962011330266702923786                  092039757206000104GERACAO PARTICIPACOES SOCIETARIAIS LTDA           000000000000199040301                     
1040001300062U 060000000000000000000000000000000000000000000000000000000000000000000002962010000000002962010000000000000000000000000000003001202602022026000002022026000000000000000254861594000154               00000000000000000000000       
1040001300063T 060000004910850000000   14999000002923787812923787        300120260000000000276431330266702923787                  092043818620000145SCHUELTER TRANSPORTES LTDA                        000000000000199040301                     
1040001300064U 060000000000000000000000000000000000000000000000000000000000000000000000276430000000000276430000000000000000000000000000003001202602022026000002022026000000000000000254861594000154               00000000000000000000000       
1040001300065T 060000004910850000000   14999000002923788612923788        300120260000000001465603480000102923788                  091000034297901900VALDIR HEIDEMANN MICHELS                          000000000000199040301                     
1040001300066U 060000000000000000000000000000000000000000000000000000000000000000000001465600000000001465600000000000000000000000000000003001202602022026000002022026000000000000000100003662725940               00000000000000000000000       
1040001300067T 060000004910850000000   14999000002923791612923791        230220260000000000012531360140502923791                  092086437845000164ASSOCIACAO BENEFICENTE SANTA TERESINHA            000000000000199040301                     
1040001300068U 060000000000000000000000000000000000000000000000000000000000000000000000012530000000000012530000000000000000000000000000003001202602022026000002022026000000000000000286437845000164               00000000000000000000000       
1040001300069T 060000004910850000000   14999000002928821912928821        310120260000000001846191360437202928821                  092002760947000126RICHARD NIEHUES & CIA LTDA                        000000000000199040301                     
1040001300070U 060000000000000000000000000000000000000000000000000000000000000000000001846190000000001846190000000000000000000000000000003001202602022026000002022026000000000000000283870873000182               00000000000000000000000       
1040001300071T 060000004910850000000   14999000002928938012928938        230420260000000018017231360140102928938                  092000075847000135COOPERATIVA DE CREDITO UNICRED CENTROSUL          000000000000199040301                     
1040001300072U 060000000000000000000000000000000000000000000000000000000000000000000018017230000000018017230000000000000000000000000000003001202602022026000002022026000000000000000200075847000135               00000000000000000000000       
1040001300073T 060000004910850000000   14999000002929073612929073        300120260000000000138097560155502929073                  092046208477000168BODEGA VIEIRA 03 LTDA                             000000000000199040301                     
1040001300074U 060000000000000000000000000000000000000000000000000000000000000000000000138090000000000138090000000000000000000000000000003001202602022026000002022026000000000000000246208477000168               00000000000000000000000       
1040001300075T 060000004910850000000   14999000002929500212929500        260420260000000016117232370033602929500                  092041460321000156DSM COMERCIO ONLINE LTDA                          000000000000199040301                     
1040001300076U 060000000000000000000000000000000000000000000000000000000000000000000016117230000000016117230000000000000000000000000000003001202602022026000002022026000000000000000241460321000156               00000000000000000000000       
1040001300077T 060000004910850000000   14999000002930112612930112        300120260000000000267752600000102930112                  091000002045246957MARLI MATOS                                       000000000000199040301                     
1040001300078U 060000000000000000000000000000000000000000000000000000000000000000000000267750000000000267750000000000000000000000000000003001202602022026000002022026000000000000000100008527412942               00000000000000000000000       
1040001300079T 060000004910850000000   14999000002930129012930129        020220260000000000200211040107002930129                  091000059487534920MARIA DE LOURDES OLIVEIRA CORREA                  000000000000199020101                     
1040001300080U 060000000000000000000000000039690000000000000000000000000000000000000000160520000000000160520000000000000000000000000000003001202602022026000002022026000000000000000000000000000000               00000000000000000000000       
1040001300081T 060000004910850000000   14999000002930620912930620        300120260000000000269011040107002930620                  091000017877520972FRANCISCO PETROSKI                                000000000000199020101                     
1040001300082U 060000000000000000000000000000000000000000000000000000000000000000000000269010000000000269010000000000000000000000000000003001202602022026000002022026000000000000000000000000000000               00000000000000000000000       
1040001300083T 060000004910850000000   14999000002930684512930684        010320260000000000077530010073802930684                  092075305656000111CABANA GRILL RESTAURANTE LTDA                     000000000000199040301                     
1040001300084U 060000000000000000000000000000000000000000000000000000000000000000000000077530000000000077530000000000000000000000000000003001202602022026000002022026000000000000000100005661113900               00000000000000000000000       
1040001300085T 020000004910850000000   14999000002909956412909956        30012026000000000058147000000000                         092052125950000146MEDGOV GESTAO DE SERVICOS DE SAUDE LTDA           000000000000000A4                         
1040001300086U 020000000000000000000000000000000000000000000000000000000000000000000000000000000000000000000000000000000000000000000000003001202600000000000000000000000000000000000                              00000000000000000000000       
1040001300087T 020000004910850000000   14999000002923679012923679        29012026000000000137964000000000                         091000004104559970ROGER DA COSTA SCALCO                             000000000000000                           
1040001300088U 020000000000000000000000000000000000000000000000000000000000000000000000000000000000000000000000000000000000000000000000003001202600000000000000000000000000000000000                              00000000000000000000000       
1040001300089T 020000004910850000000   14999000002923680412923680        29012026000000000108848000000000                         091000004104559970ROGER DA COSTA SCALCO                             000000000000000                           
1040001300090U 020000000000000000000000000000000000000000000000000000000000000000000000000000000000000000000000000000000000000000000000003001202600000000000000000000000000000000000                              00000000000000000000000       
1040001300091T 020000004910850000000   14999000002923681212923681        06032026000000000094200000000000                         092024170625000160CENTRO CATARINENSE DE OTORRINOLARINGOLOG          000000000000000                           
1040001300092U 020000000000000000000000000000000000000000000000000000000000000000000000000000000000000000000000000000000000000000000000003001202600000000000000000000000000000000000                              00000000000000000000000       
1040001300093T 020000004910850000000   14999000002923682012923682        06032026000000000131474000000000                         092024170625000160CENTRO CATARINENSE DE OTORRINOLARINGOLOG          000000000000000                           
1040001300094U 020000000000000000000000000000000000000000000000000000000000000000000000000000000000000000000000000000000000000000000000003001202600000000000000000000000000000000000                              00000000000000000000000       
1040001300095T 020000004910850000000   14999000002909959912909959        10022026000000000367701000000000                         092047960950036401MAGAZINE LUIZA S/A                                000000000000000                           
1040001300096U 020000000000000000000000000000000000000000000000000000000000000000000000000000000000000000000000000000000000000000000000003001202600000000000030012026000000000000000                              00000000000000000000000       
1040001300097T 020000004910850000000   14999000002921205012921205        30012026000000000032160000000000                         092086829827001876COOPERATIVA DE CREDITO DE LIVRE ADMISSAO          000000000000000                           
1040001300098U 020000000000000000000000000000000000000000000000000000000000000000000000000000000000000000000000000000000000000000000000003001202600000000000030012026000000000000000                              00000000000000000000000       
1040001300099T 020000004910850000000   14999000002921209312921209        10022026000000000001000000000000                         091000063246066949ANSELMO ANTONIO MEURER                            000000000000000                           
1040001300100U 020000000000000000000000000000000000000000000000000000000000000000000000000000000000000000000000000000000000000000000000003001202600000000000030012026000000000000000                              00000000000000000000000       
1040001300101T 020000004910850000000   14999000002921216612921216        30012026000000000238681000000000                         092052192599000106DOMUS PALACE RESIDENCE SPE LTDA                   000000000000000                           
1040001300102U 020000000000000000000000000000000000000000000000000000000000000000000000000000000000000000000000000000000000000000000000003001202600000000000030012026000000000000000                              00000000000000000000000       
1040001300103T 020000004910850000000   14999000002921222012921222        14022026000000000002880000000000                         091000010466528930CARLOS MACIESKI MATUCHAKI                         000000000000000                           
1040001300104U 020000000000000000000000000000000000000000000000000000000000000000000000000000000000000000000000000000000000000000000000003001202600000000000030012026000000000000000                              00000000000000000000000       
1040001300105T 020000004910850000000   14999000002921232812921232        30012026000000000072678000000000                         092041505682000171VALE INOVAR TECNOLOGIA LTDA                       000000000000000                           
1040001300106U 020000000000000000000000000000000000000000000000000000000000000000000000000000000000000000000000000000000000000000000000003001202600000000000030012026000000000000000                              00000000000000000000000       
1040001300107T 020000004910850000000   14999000002923683912923683        06032026000000000216218000000000                         092013267050000181MARCIO ORACIO SOUZA                               000000000000000                           
1040001300108U 020000000000000000000000000000000000000000000000000000000000000000000000000000000000000000000000000000000000000000000000003001202600000000000030012026000000000000000                              00000000000000000000000       
1040001300109T 020000004910850000000   14999000002923684712923684        06032026000000000181138000000000                         092017468941000157JOELMA TORRES NAIZ OENNING                        000000000000000A4                         
1040001300110U 020000000000000000000000000000000000000000000000000000000000000000000000000000000000000000000000000000000000000000000000003001202600000000000030012026000000000000000                              00000000000000000000000       
1040001300111T 020000004910850000000   14999000002923685512923685        06032026000000000031400000000000                         092005098813000180FREITAS AGOSTINHO TRANSPORTES COLETIVOS           000000000000000                           
1040001300112U 020000000000000000000000000000000000000000000000000000000000000000000000000000000000000000000000000000000000000000000000003001202600000000000030012026000000000000000                              00000000000000000000000       
1040001300113T 020000004910850000000   14999000002923686312923686        06032026000000000151703000000000                         092005098813000180FREITAS AGOSTINHO TRANSPORTES COLETIVOS           000000000000000                           
1040001300114U 020000000000000000000000000000000000000000000000000000000000000000000000000000000000000000000000000000000000000000000000003001202600000000000030012026000000000000000                              00000000000000000000000       
1040001300115T 020000004910850000000   14999000002923687112923687        06032026000000000048845000000000                         091000001952545978SAMIA AZMI IBRAHIM MUHAMMAD AHMAD DESTRO          000000000000000                           
1040001300116U 020000000000000000000000000000000000000000000000000000000000000000000000000000000000000000000000000000000000000000000000003001202600000000000030012026000000000000000                              00000000000000000000000       
1040001300117T 020000004910850000000   14999000002923688012923688        06032026000000000132658000000000                         091000001952545978SAMIA AZMI IBRAHIM MUHAMMAD AHMAD DESTRO          000000000000000                           
1040001300118U 020000000000000000000000000000000000000000000000000000000000000000000000000000000000000000000000000000000000000000000000003001202600000000000030012026000000000000000                              00000000000000000000000       
1040001300119T 020000004910850000000   14999000002923691012923691        30012026000000000029280000000000                         091000003061377980MARIO KNIESS                                      000000000000000                           
1040001300120U 020000000000000000000000000000000000000000000000000000000000000000000000000000000000000000000000000000000000000000000000003001202600000000000030012026000000000000000                              00000000000000000000000       
1040001300121T 020000004910850000000   14999000002923692812923692        06032026000000000108630000000000                         092036277415000154DLUXE MODAS LTDA                                  000000000000000A4                         
1040001300122U 020000000000000000000000000000000000000000000000000000000000000000000000000000000000000000000000000000000000000000000000003001202600000000000030012026000000000000000                              00000000000000000000000       
1040001300123T 020000004910850000000   14999000002923693612923693        06032026000000000010613000000000                         092036277415000154DLUXE MODAS LTDA                                  000000000000000A4                         
1040001300124U 020000000000000000000000000000000000000000000000000000000000000000000000000000000000000000000000000000000000000000000000003001202600000000000030012026000000000000000                              00000000000000000000000       
1040001300125T 020000004910850000000   14999000002923694412923694        06032026000000000005306000000000                         092064726513000167R4 CONTABILIDADE LTDA                             000000000000000                           
1040001300126U 020000000000000000000000000000000000000000000000000000000000000000000000000000000000000000000000000000000000000000000000003001202600000000000030012026000000000000000                              00000000000000000000000       
1040001300127T 020000004910850000000   14999000002923695212923695        06032026000000000139227000000000                         092064726513000167R4 CONTABILIDADE LTDA                             000000000000000                           
1040001300128U 020000000000000000000000000000000000000000000000000000000000000000000000000000000000000000000000000000000000000000000000003001202600000000000030012026000000000000000                              00000000000000000000000       
1040001300129T 020000004910850000000   14999000002923696012923696        06032026000000000134769000000000                         092055956942000130FORNASA GEOLOGIA E MEIO AMBIENTE LTDA             000000000000000A4                         
1040001300130U 020000000000000000000000000000000000000000000000000000000000000000000000000000000000000000000000000000000000000000000000003001202600000000000030012026000000000000000                              00000000000000000000000       
1040001300131T 020000004910850000000   14999000002923697912923697        06032026000000000131474000000000                         092021979756000102TRANSPORTES BIANCHINI LTDA                        000000000000000A4                         
1040001300132U 020000000000000000000000000000000000000000000000000000000000000000000000000000000000000000000000000000000000000000000000003001202600000000000030012026000000000000000                              00000000000000000000000       
1040001300133T 020000004910850000000   14999000002923698712923698        30012026000000000037450000000000                         092086829827001876COOPERATIVA DE CREDITO DE LIVRE ADMISSAO          000000000000000                           
1040001300134U 020000000000000000000000000000000000000000000000000000000000000000000000000000000000000000000000000000000000000000000000003001202600000000000030012026000000000000000                              00000000000000000000000       
1040001300135T 020000004910850000000   14999000002923699512923699        06032026000000000260830000000000                         092075796342000169RADIO VERDE VALE LTDA                             000000000000000A4                         
1040001300136U 020000000000000000000000000000000000000000000000000000000000000000000000000000000000000000000000000000000000000000000000003001202600000000000030012026000000000000000                              00000000000000000000000       
1040001300137T 020000004910850000000   14999000002923700212923700        20022026000000000100674000000000                         091000001900099934ESPOLIO DE PAULO DONATO RIGONE                    000000000000000                           
1040001300138U 020000000000000000000000000000000000000000000000000000000000000000000000000000000000000000000000000000000000000000000000003001202600000000000030012026000000000000000                              00000000000000000000000       
1040001300139T 020000004910850000000   14999000002923701012923701        30012026000000000011766000000000                         092043818916000166MICHAEL SANTOS DA SILVA 12141662966               000000000000000                           
1040001300140U 020000000000000000000000000000000000000000000000000000000000000000000000000000000000000000000000000000000000000000000000003001202600000000000030012026000000000000000                              00000000000000000000000       
1040001300141T 020000004910850000000   14999000002923702912923702        06032026000000000073562000000000                         092032139204000102S&B BRUDER PARTICIPACOES S.A.                     000000000000000                           
1040001300142U 020000000000000000000000000000000000000000000000000000000000000000000000000000000000000000000000000000000000000000000000003001202600000000000030012026000000000000000                              00000000000000000000000       
1040001300143T 020000004910850000000   14999000002923703712923703        06032026000000000106391000000000                         092022726952000120BNBOX EMBALAGENS DE PAPELAO LTDA                  000000000000000A4                         
1040001300144U 020000000000000000000000000000000000000000000000000000000000000000000000000000000000000000000000000000000000000000000000003001202600000000000030012026000000000000000                              00000000000000000000000       
1040001300145T 020000004910850000000   14999000002923704512923704        06032026000000000127670000000000                         092021830869000133EMBALAGENS DE PAPELAO DO VALE EIRELI EPP          000000000000000A4                         
1040001300146U 020000000000000000000000000000000000000000000000000000000000000000000000000000000000000000000000000000000000000000000000003001202600000000000030012026000000000000000                              00000000000000000000000       
1040001300147T 020000004910850000000   14999000002923705312923705        06032026000000000215185000000000                         092042526733000104EDVANIA VIEIRA OLIVEIRA                           000000000000000A4                         
1040001300148U 020000000000000000000000000000000000000000000000000000000000000000000000000000000000000000000000000000000000000000000000003001202600000000000030012026000000000000000                              00000000000000000000000       
1040001300149T 020000004910850000000   14999000002923706112923706        06032026000000000173886000000000                         092056011535000112HARPIA CONSULTORIA LTDA                           000000000000000                           
1040001300150U 020000000000000000000000000000000000000000000000000000000000000000000000000000000000000000000000000000000000000000000000003001202600000000000030012026000000000000000                              00000000000000000000000       
1040001300151T 020000004910850000000   14999000002923707012923707        06032026000000000234747000000000                         092061732511000192IMPULSE SERVICOS TEMPORARIOS LTDA                 000000000000000                           
1040001300152U 020000000000000000000000000000000000000000000000000000000000000000000000000000000000000000000000000000000000000000000000003001202600000000000030012026000000000000000                              00000000000000000000000       
1040001300153T 020000004910850000000   14999000002923708812923708        06032026000000000008939000000000                         092061732511000192IMPULSE SERVICOS TEMPORARIOS LTDA                 000000000000000                           
1040001300154U 020000000000000000000000000000000000000000000000000000000000000000000000000000000000000000000000000000000000000000000000003001202600000000000030012026000000000000000                              00000000000000000000000       
1040001300155T 020000004910850000000   14999000002923709612923709        06032026000000000190711000000000                         092034575341000107PISCINAS DO VALE LTDA                             000000000000000A4                         
1040001300156U 020000000000000000000000000000000000000000000000000000000000000000000000000000000000000000000000000000000000000000000000003001202600000000000030012026000000000000000                              00000000000000000000000       
1040001300157T 020000004910850000000   14999000002923710012923710        06032026000000000027911000000000                         092034575341000107PISCINAS DO VALE LTDA                             000000000000000A4                         
1040001300158U 020000000000000000000000000000000000000000000000000000000000000000000000000000000000000000000000000000000000000000000000003001202600000000000030012026000000000000000                              00000000000000000000000       
1040001300159T 020000004910850000000   14999000002923711812923711        06032026000000000149241000000000                         092046874685000104POTENCIAL KIDS  LTDA                              000000000000000                           
1040001300160U 020000000000000000000000000000000000000000000000000000000000000000000000000000000000000000000000000000000000000000000000003001202600000000000030012026000000000000000                              00000000000000000000000       
1040001300161T 020000004910850000000   14999000002923712612923712        06032026000000000035382000000000                         092053652272000132OVOS SC ALIMENTOS LTDA                            000000000000000                           
1040001300162U 020000000000000000000000000000000000000000000000000000000000000000000000000000000000000000000000000000000000000000000000003001202600000000000030012026000000000000000                              00000000000000000000000       
1040001300163T 020000004910850000000   14999000002923713412923713        06032026000000000035382000000000                         092027170413000170OVOS CATARINENSE LTDA                             000000000000000A4                         
1040001300164U 020000000000000000000000000000000000000000000000000000000000000000000000000000000000000000000000000000000000000000000000003001202600000000000030012026000000000000000                              00000000000000000000000       
1040001300165T 020000004910850000000   14999000002923714212923714        30012026000000000002378000000000                         092083000836000202FRIGVAN FRIGORIFICO INDUSTRIA E COMERCIO          000000000000000                           
1040001300166U 020000000000000000000000000000000000000000000000000000000000000000000000000000000000000000000000000000000000000000000000003001202600000000000030012026000000000000000                              00000000000000000000000       
1040001300167T 020000004910850000000   14999000002923715012923715        06032026000000000868329000000000                         092014144090000107SUBESTACAO VERDE VALE BN-7 LTDA                   000000000000000                           
1040001300168U 020000000000000000000000000000000000000000000000000000000000000000000000000000000000000000000000000000000000000000000000003001202600000000000030012026000000000000000                              00000000000000000000000       
1040001300169T 020000004910850000000   14999000002923716912923716        30012026000000000074780000000000                         092002056288000141ASSOCIACAO CAMPESTRE BRACO DO NORTE               000000000000000                           
1040001300170U 020000000000000000000000000000000000000000000000000000000000000000000000000000000000000000000000000000000000000000000000003001202600000000000030012026000000000000000                              00000000000000000000000       
1040001300171T 020000004910850000000   14999000002923717712923717        23022026000000000074559000000000                         092002056288000141ASSOCIACAO CAMPESTRE BRACO DO NORTE               000000000000000A4                         
1040001300172U 020000000000000000000000000000000000000000000000000000000000000000000000000000000000000000000000000000000000000000000000003001202600000000000030012026000000000000000                              00000000000000000000000       
1040001300173T 020000004910850000000   14999000002923718512923718        23032026000000000074559000000000                         092002056288000141ASSOCIACAO CAMPESTRE BRACO DO NORTE               000000000000000A4                         
1040001300174U 020000000000000000000000000000000000000000000000000000000000000000000000000000000000000000000000000000000000000000000000003001202600000000000030012026000000000000000                              00000000000000000000000       
1040001300175T 020000004910850000000   14999000002923719312923719        22042026000000000074559000000000                         092002056288000141ASSOCIACAO CAMPESTRE BRACO DO NORTE               000000000000000A4                         
1040001300176U 020000000000000000000000000000000000000000000000000000000000000000000000000000000000000000000000000000000000000000000000003001202600000000000030012026000000000000000                              00000000000000000000000       
1040001300177T 020000004910850000000   14999000002923720712923720        21052026000000000074559000000000                         092002056288000141ASSOCIACAO CAMPESTRE BRACO DO NORTE               000000000000000A4                         
1040001300178U 020000000000000000000000000000000000000000000000000000000000000000000000000000000000000000000000000000000000000000000000003001202600000000000030012026000000000000000                              00000000000000000000000       
1040001300179T 020000004910850000000   14999000002923721512923721        22062026000000000074559000000000                         092002056288000141ASSOCIACAO CAMPESTRE BRACO DO NORTE               000000000000000A4                         
1040001300180U 020000000000000000000000000000000000000000000000000000000000000000000000000000000000000000000000000000000000000000000000003001202600000000000030012026000000000000000                              00000000000000000000000       
1040001300181T 020000004910850000000   14999000002923722312923722        21072026000000000074559000000000                         092002056288000141ASSOCIACAO CAMPESTRE BRACO DO NORTE               000000000000000A4                         
1040001300182U 020000000000000000000000000000000000000000000000000000000000000000000000000000000000000000000000000000000000000000000000003001202600000000000030012026000000000000000                              00000000000000000000000       
1040001300183T 020000004910850000000   14999000002923723112923723        21082026000000000074559000000000                         092002056288000141ASSOCIACAO CAMPESTRE BRACO DO NORTE               000000000000000A4                         
1040001300184U 020000000000000000000000000000000000000000000000000000000000000000000000000000000000000000000000000000000000000000000000003001202600000000000030012026000000000000000                              00000000000000000000000       
1040001300185T 020000004910850000000   14999000002923724012923724        21092026000000000074559000000000                         092002056288000141ASSOCIACAO CAMPESTRE BRACO DO NORTE               000000000000000A4                         
1040001300186U 020000000000000000000000000000000000000000000000000000000000000000000000000000000000000000000000000000000000000000000000003001202600000000000030012026000000000000000                              00000000000000000000000       
1040001300187T 020000004910850000000   14999000002923725812923725        21102026000000000074559000000000                         092002056288000141ASSOCIACAO CAMPESTRE BRACO DO NORTE               000000000000000A4                         
1040001300188U 020000000000000000000000000000000000000000000000000000000000000000000000000000000000000000000000000000000000000000000000003001202600000000000030012026000000000000000                              00000000000000000000000       
1040001300189T 020000004910850000000   14999000002923726612923726        23112026000000000074559000000000                         092002056288000141ASSOCIACAO CAMPESTRE BRACO DO NORTE               000000000000000A4                         
1040001300190U 020000000000000000000000000000000000000000000000000000000000000000000000000000000000000000000000000000000000000000000000003001202600000000000030012026000000000000000                              00000000000000000000000       
1040001300191T 020000004910850000000   14999000002923727412923727        21122026000000000074559000000000                         092002056288000141ASSOCIACAO CAMPESTRE BRACO DO NORTE               000000000000000A4                         
1040001300192U 020000000000000000000000000000000000000000000000000000000000000000000000000000000000000000000000000000000000000000000000003001202600000000000030012026000000000000000                              00000000000000000000000       
1040001300193T 020000004910850000000   14999000002923728212923728        21012027000000000074559000000000                         092002056288000141ASSOCIACAO CAMPESTRE BRACO DO NORTE               000000000000000A4                         
1040001300194U 020000000000000000000000000000000000000000000000000000000000000000000000000000000000000000000000000000000000000000000000003001202600000000000030012026000000000000000                              00000000000000000000000       
1040001300195T 020000004910850000000   14999000002923729012923729        22022027000000000074559000000000                         092002056288000141ASSOCIACAO CAMPESTRE BRACO DO NORTE               000000000000000A4                         
1040001300196U 020000000000000000000000000000000000000000000000000000000000000000000000000000000000000000000000000000000000000000000000003001202600000000000030012026000000000000000                              00000000000000000000000       
1040001300197T 020000004910850000000   14999000002923730412923730        22032027000000000074559000000000                         092002056288000141ASSOCIACAO CAMPESTRE BRACO DO NORTE               000000000000000A4                         
1040001300198U 020000000000000000000000000000000000000000000000000000000000000000000000000000000000000000000000000000000000000000000000003001202600000000000030012026000000000000000                              00000000000000000000000       
1040001300199T 020000004910850000000   14999000002923731212923731        22042027000000000074559000000000                         092002056288000141ASSOCIACAO CAMPESTRE BRACO DO NORTE               000000000000000A4                         
1040001300200U 020000000000000000000000000000000000000000000000000000000000000000000000000000000000000000000000000000000000000000000000003001202600000000000030012026000000000000000                              00000000000000000000000       
1040001300201T 020000004910850000000   14999000002923732012923732        21052027000000000074559000000000                         092002056288000141ASSOCIACAO CAMPESTRE BRACO DO NORTE               000000000000000A4                         
1040001300202U 020000000000000000000000000000000000000000000000000000000000000000000000000000000000000000000000000000000000000000000000003001202600000000000030012026000000000000000                              00000000000000000000000       
1040001300203T 020000004910850000000   14999000002923733912923733        21062027000000000074559000000000                         092002056288000141ASSOCIACAO CAMPESTRE BRACO DO NORTE               000000000000000A4                         
1040001300204U 020000000000000000000000000000000000000000000000000000000000000000000000000000000000000000000000000000000000000000000000003001202600000000000030012026000000000000000                              00000000000000000000000       
1040001300205T 020000004910850000000   14999000002923734712923734        21072027000000000074559000000000                         092002056288000141ASSOCIACAO CAMPESTRE BRACO DO NORTE               000000000000000A4                         
1040001300206U 020000000000000000000000000000000000000000000000000000000000000000000000000000000000000000000000000000000000000000000000003001202600000000000030012026000000000000000                              00000000000000000000000       
1040001300207T 020000004910850000000   14999000002923735512923735        23082027000000000074559000000000                         092002056288000141ASSOCIACAO CAMPESTRE BRACO DO NORTE               000000000000000A4                         
1040001300208U 020000000000000000000000000000000000000000000000000000000000000000000000000000000000000000000000000000000000000000000000003001202600000000000030012026000000000000000                              00000000000000000000000       
1040001300209T 020000004910850000000   14999000002923736312923736        21092027000000000074559000000000                         092002056288000141ASSOCIACAO CAMPESTRE BRACO DO NORTE               000000000000000A4                         
1040001300210U 020000000000000000000000000000000000000000000000000000000000000000000000000000000000000000000000000000000000000000000000003001202600000000000030012026000000000000000                              00000000000000000000000       
1040001300211T 020000004910850000000   14999000002923737112923737        21102027000000000074559000000000                         092002056288000141ASSOCIACAO CAMPESTRE BRACO DO NORTE               000000000000000A4                         
1040001300212U 020000000000000000000000000000000000000000000000000000000000000000000000000000000000000000000000000000000000000000000000003001202600000000000030012026000000000000000                              00000000000000000000000       
1040001300213T 020000004910850000000   14999000002923738012923738        22112027000000000074559000000000                         092002056288000141ASSOCIACAO CAMPESTRE BRACO DO NORTE               000000000000000A4                         
1040001300214U 020000000000000000000000000000000000000000000000000000000000000000000000000000000000000000000000000000000000000000000000003001202600000000000030012026000000000000000                              00000000000000000000000       
1040001300215T 020000004910850000000   14999000002923739812923739        21122027000000000074559000000000                         092002056288000141ASSOCIACAO CAMPESTRE BRACO DO NORTE               000000000000000A4                         
1040001300216U 020000000000000000000000000000000000000000000000000000000000000000000000000000000000000000000000000000000000000000000000003001202600000000000030012026000000000000000                              00000000000000000000000       
1040001300217T 020000004910850000000   14999000002923740112923740        21012028000000000074559000000000                         092002056288000141ASSOCIACAO CAMPESTRE BRACO DO NORTE               000000000000000A4                         
1040001300218U 020000000000000000000000000000000000000000000000000000000000000000000000000000000000000000000000000000000000000000000000003001202600000000000030012026000000000000000                              00000000000000000000000       
1040001300219T 020000004910850000000   14999000002923742812923742        21022028000000000074559000000000                         092002056288000141ASSOCIACAO CAMPESTRE BRACO DO NORTE               000000000000000A4                         
1040001300220U 020000000000000000000000000000000000000000000000000000000000000000000000000000000000000000000000000000000000000000000000003001202600000000000030012026000000000000000                              00000000000000000000000       
1040001300221T 020000004910850000000   14999000002923743612923743        21032028000000000074559000000000                         092002056288000141ASSOCIACAO CAMPESTRE BRACO DO NORTE               000000000000000A4                         
1040001300222U 020000000000000000000000000000000000000000000000000000000000000000000000000000000000000000000000000000000000000000000000003001202600000000000030012026000000000000000                              00000000000000000000000       
1040001300223T 020000004910850000000   14999000002923744412923744        24042028000000000074559000000000                         092002056288000141ASSOCIACAO CAMPESTRE BRACO DO NORTE               000000000000000A4                         
1040001300224U 020000000000000000000000000000000000000000000000000000000000000000000000000000000000000000000000000000000000000000000000003001202600000000000030012026000000000000000                              00000000000000000000000       
1040001300225T 020000004910850000000   14999000002923745212923745        22052028000000000074559000000000                         092002056288000141ASSOCIACAO CAMPESTRE BRACO DO NORTE               000000000000000A4                         
1040001300226U 020000000000000000000000000000000000000000000000000000000000000000000000000000000000000000000000000000000000000000000000003001202600000000000030012026000000000000000                              00000000000000000000000       
1040001300227T 020000004910850000000   14999000002923746012923746        21062028000000000074559000000000                         092002056288000141ASSOCIACAO CAMPESTRE BRACO DO NORTE               000000000000000A4                         
1040001300228U 020000000000000000000000000000000000000000000000000000000000000000000000000000000000000000000000000000000000000000000000003001202600000000000030012026000000000000000                              00000000000000000000000       
1040001300229T 020000004910850000000   14999000002923747912923747        21072028000000000074559000000000                         092002056288000141ASSOCIACAO CAMPESTRE BRACO DO NORTE               000000000000000A4                         
1040001300230U 020000000000000000000000000000000000000000000000000000000000000000000000000000000000000000000000000000000000000000000000003001202600000000000030012026000000000000000                              00000000000000000000000       
1040001300231T 020000004910850000000   14999000002923748712923748        21082028000000000074559000000000                         092002056288000141ASSOCIACAO CAMPESTRE BRACO DO NORTE               000000000000000A4                         
1040001300232U 020000000000000000000000000000000000000000000000000000000000000000000000000000000000000000000000000000000000000000000000003001202600000000000030012026000000000000000                              00000000000000000000000       
1040001300233T 020000004910850000000   14999000002923749512923749        21092028000000000074559000000000                         092002056288000141ASSOCIACAO CAMPESTRE BRACO DO NORTE               000000000000000A4                         
1040001300234U 020000000000000000000000000000000000000000000000000000000000000000000000000000000000000000000000000000000000000000000000003001202600000000000030012026000000000000000                              00000000000000000000000       
1040001300235T 020000004910850000000   14999000002923750912923750        23102028000000000074559000000000                         092002056288000141ASSOCIACAO CAMPESTRE BRACO DO NORTE               000000000000000A4                         
1040001300236U 020000000000000000000000000000000000000000000000000000000000000000000000000000000000000000000000000000000000000000000000003001202600000000000030012026000000000000000                              00000000000000000000000       
1040001300237T 020000004910850000000   14999000002923751712923751        21112028000000000074559000000000                         092002056288000141ASSOCIACAO CAMPESTRE BRACO DO NORTE               000000000000000A4                         
1040001300238U 020000000000000000000000000000000000000000000000000000000000000000000000000000000000000000000000000000000000000000000000003001202600000000000030012026000000000000000                              00000000000000000000000       
1040001300239T 020000004910850000000   14999000002923752512923752        21122028000000000074559000000000                         092002056288000141ASSOCIACAO CAMPESTRE BRACO DO NORTE               000000000000000A4                         
1040001300240U 020000000000000000000000000000000000000000000000000000000000000000000000000000000000000000000000000000000000000000000000003001202600000000000030012026000000000000000                              00000000000000000000000       
1040001300241T 020000004910850000000   14999000002923753312923753        22012029000000000074559000000000                         092002056288000141ASSOCIACAO CAMPESTRE BRACO DO NORTE               000000000000000A4                         
1040001300242U 020000000000000000000000000000000000000000000000000000000000000000000000000000000000000000000000000000000000000000000000003001202600000000000030012026000000000000000                              00000000000000000000000       
1040001300243T 020000004910850000000   14999000002923754112923754        21022029000000000074559000000000                         092002056288000141ASSOCIACAO CAMPESTRE BRACO DO NORTE               000000000000000A4                         
1040001300244U 020000000000000000000000000000000000000000000000000000000000000000000000000000000000000000000000000000000000000000000000003001202600000000000030012026000000000000000                              00000000000000000000000       
1040001300245T 020000004910850000000   14999000002923755012923755        21032029000000000074559000000000                         092002056288000141ASSOCIACAO CAMPESTRE BRACO DO NORTE               000000000000000A4                         
1040001300246U 020000000000000000000000000000000000000000000000000000000000000000000000000000000000000000000000000000000000000000000000003001202600000000000030012026000000000000000                              00000000000000000000000       
1040001300247T 020000004910850000000   14999000002923756812923756        23042029000000000074559000000000                         092002056288000141ASSOCIACAO CAMPESTRE BRACO DO NORTE               000000000000000A4                         
1040001300248U 020000000000000000000000000000000000000000000000000000000000000000000000000000000000000000000000000000000000000000000000003001202600000000000030012026000000000000000                              00000000000000000000000       
1040001300249T 020000004910850000000   14999000002923757612923757        21052029000000000074559000000000                         092002056288000141ASSOCIACAO CAMPESTRE BRACO DO NORTE               000000000000000A4                         
1040001300250U 020000000000000000000000000000000000000000000000000000000000000000000000000000000000000000000000000000000000000000000000003001202600000000000030012026000000000000000                              00000000000000000000000       
1040001300251T 020000004910850000000   14999000002923758412923758        21062029000000000074559000000000                         092002056288000141ASSOCIACAO CAMPESTRE BRACO DO NORTE               000000000000000A4                         
1040001300252U 020000000000000000000000000000000000000000000000000000000000000000000000000000000000000000000000000000000000000000000000003001202600000000000030012026000000000000000                              00000000000000000000000       
1040001300253T 020000004910850000000   14999000002923759212923759        23072029000000000074559000000000                         092002056288000141ASSOCIACAO CAMPESTRE BRACO DO NORTE               000000000000000A4                         
1040001300254U 020000000000000000000000000000000000000000000000000000000000000000000000000000000000000000000000000000000000000000000000003001202600000000000030012026000000000000000                              00000000000000000000000       
1040001300255T 020000004910850000000   14999000002923760612923760        21082029000000000074559000000000                         092002056288000141ASSOCIACAO CAMPESTRE BRACO DO NORTE               000000000000000A4                         
1040001300256U 020000000000000000000000000000000000000000000000000000000000000000000000000000000000000000000000000000000000000000000000003001202600000000000030012026000000000000000                              00000000000000000000000       
1040001300257T 020000004910850000000   14999000002923761412923761        21092029000000000074559000000000                         092002056288000141ASSOCIACAO CAMPESTRE BRACO DO NORTE               000000000000000A4                         
1040001300258U 020000000000000000000000000000000000000000000000000000000000000000000000000000000000000000000000000000000000000000000000003001202600000000000030012026000000000000000                              00000000000000000000000       
1040001300259T 020000004910850000000   14999000002923762212923762        22102029000000000074559000000000                         092002056288000141ASSOCIACAO CAMPESTRE BRACO DO NORTE               000000000000000A4                         
1040001300260U 020000000000000000000000000000000000000000000000000000000000000000000000000000000000000000000000000000000000000000000000003001202600000000000030012026000000000000000                              00000000000000000000000       
1040001300261T 020000004910850000000   14999000002923763012923763        21112029000000000074559000000000                         092002056288000141ASSOCIACAO CAMPESTRE BRACO DO NORTE               000000000000000A4                         
1040001300262U 020000000000000000000000000000000000000000000000000000000000000000000000000000000000000000000000000000000000000000000000003001202600000000000030012026000000000000000                              00000000000000000000000       
1040001300263T 020000004910850000000   14999000002923764912923764        21122029000000000074559000000000                         092002056288000141ASSOCIACAO CAMPESTRE BRACO DO NORTE               000000000000000A4                         
1040001300264U 020000000000000000000000000000000000000000000000000000000000000000000000000000000000000000000000000000000000000000000000003001202600000000000030012026000000000000000                              00000000000000000000000       
1040001300265T 020000004910850000000   14999000002923765712923765        21012030000000000074559000000000                         092002056288000141ASSOCIACAO CAMPESTRE BRACO DO NORTE               000000000000000A4                         
1040001300266U 020000000000000000000000000000000000000000000000000000000000000000000000000000000000000000000000000000000000000000000000003001202600000000000030012026000000000000000                              00000000000000000000000       
1040001300267T 020000004910850000000   14999000002923766512923766        21022030000000000074559000000000                         092002056288000141ASSOCIACAO CAMPESTRE BRACO DO NORTE               000000000000000A4                         
1040001300268U 020000000000000000000000000000000000000000000000000000000000000000000000000000000000000000000000000000000000000000000000003001202600000000000030012026000000000000000                              00000000000000000000000       
1040001300269T 020000004910850000000   14999000002923767312923767        21032030000000000074559000000000                         092002056288000141ASSOCIACAO CAMPESTRE BRACO DO NORTE               000000000000000A4                         
1040001300270U 020000000000000000000000000000000000000000000000000000000000000000000000000000000000000000000000000000000000000000000000003001202600000000000030012026000000000000000                              00000000000000000000000       
1040001300271T 020000004910850000000   14999000002923768112923768        22042030000000000074559000000000                         092002056288000141ASSOCIACAO CAMPESTRE BRACO DO NORTE               000000000000000A4                         
1040001300272U 020000000000000000000000000000000000000000000000000000000000000000000000000000000000000000000000000000000000000000000000003001202600000000000030012026000000000000000                              00000000000000000000000       
1040001300273T 020000004910850000000   14999000002923769012923769        21052030000000000074540000000000                         092002056288000141ASSOCIACAO CAMPESTRE BRACO DO NORTE               000000000000000A4                         
1040001300274U 020000000000000000000000000000000000000000000000000000000000000000000000000000000000000000000000000000000000000000000000003001202600000000000030012026000000000000000                              00000000000000000000000       
1040001300275T 020000004910850000000   14999000002923770312923770        30012026000000000137996000000000                         091000004104559970ROGER DA COSTA SCALCO                             000000000000000                           
1040001300276U 020000000000000000000000000000000000000000000000000000000000000000000000000000000000000000000000000000000000000000000000003001202600000000000030012026000000000000000                              00000000000000000000000       
1040001300277T 020000004910850000000   14999000002923771112923771        30012026000000000108874000000000                         091000004104559970ROGER DA COSTA SCALCO                             000000000000000                           
1040001300278U 020000000000000000000000000000000000000000000000000000000000000000000000000000000000000000000000000000000000000000000000003001202600000000000030012026000000000000000                              00000000000000000000000       
1040001300279T 020000004910850000000   14999000002923772012923772        06042026000000000013242000000000                         092043530748000109ARENA VALLEY LTDA                                 000000000000000A4                         
1040001300280U 020000000000000000000000000000000000000000000000000000000000000000000000000000000000000000000000000000000000000000000000003001202600000000000030012026000000000000000                              00000000000000000000000       
1040001300281T 020000004910850000000   14999000002923773812923773        06032026000000000041612000000000                         092043530748000109ARENA VALLEY LTDA                                 000000000000000A4                         
1040001300282U 020000000000000000000000000000000000000000000000000000000000000000000000000000000000000000000000000000000000000000000000003001202600000000000030012026000000000000000                              00000000000000000000000       
1040001300283T 020000004910850000000   14999000002923774612923774        06042026000000000041613000000000                         092043530748000109ARENA VALLEY LTDA                                 000000000000000A4                         
1040001300284U 020000000000000000000000000000000000000000000000000000000000000000000000000000000000000000000000000000000000000000000000003001202600000000000030012026000000000000000                              00000000000000000000000       
1040001300285T 020000004910850000000   14999000002923775412923775        06052026000000000041613000000000                         092043530748000109ARENA VALLEY LTDA                                 000000000000000A4                         
1040001300286U 020000000000000000000000000000000000000000000000000000000000000000000000000000000000000000000000000000000000000000000000003001202600000000000030012026000000000000000                              00000000000000000000000       
1040001300287T 020000004910850000000   14999000002923776212923776        05062026000000000041613000000000                         092043530748000109ARENA VALLEY LTDA                                 000000000000000A4                         
1040001300288U 020000000000000000000000000000000000000000000000000000000000000000000000000000000000000000000000000000000000000000000000003001202600000000000030012026000000000000000                              00000000000000000000000       
1040001300289T 020000004910850000000   14999000002923777012923777        16022026000000000011723000000000                         092043530748000109ARENA VALLEY LTDA                                 000000000000000A4                         
1040001300290U 020000000000000000000000000000000000000000000000000000000000000000000000000000000000000000000000000000000000000000000000003001202600000000000030012026000000000000000                              00000000000000000000000       
1040001300291T 020000004910850000000   14999000002923778912923778        06032026000000000123509000000000                         092064702437000150MILK VALE LTDA                                    000000000000000                           
1040001300292U 020000000000000000000000000000000000000000000000000000000000000000000000000000000000000000000000000000000000000000000000003001202600000000000030012026000000000000000                              00000000000000000000000       
1040001300293T 020000004910850000000   14999000002923779712923779        06032026000000000007589000000000                         092064702437000150MILK VALE LTDA                                    000000000000000                           
1040001300294U 020000000000000000000000000000000000000000000000000000000000000000000000000000000000000000000000000000000000000000000000003001202600000000000030012026000000000000000                              00000000000000000000000       
1040001300295T 020000004910850000000   14999000002923780012923780        06032026000000000047765000000000                         092059826120000195IMPERIO COSMETICOS E PERFUMARIA LTDA              000000000000000A4                         
1040001300296U 020000000000000000000000000000000000000000000000000000000000000000000000000000000000000000000000000000000000000000000000003001202600000000000030012026000000000000000                              00000000000000000000000       
1040001300297T 020000004910850000000   14999000002923781912923781        06032026000000000341633000000000                         092059826120000195IMPERIO COSMETICOS E PERFUMARIA LTDA              000000000000000A4                         
1040001300298U 020000000000000000000000000000000000000000000000000000000000000000000000000000000000000000000000000000000000000000000000003001202600000000000030012026000000000000000                              00000000000000000000000       
1040001300299T 020000004910850000000   14999000002923782712923782        30012026000000000076269000000000                         092059826120000195IMPERIO COSMETICOS E PERFUMARIA LTDA              000000000000000                           
1040001300300U 020000000000000000000000000000000000000000000000000000000000000000000000000000000000000000000000000000000000000000000000003001202600000000000030012026000000000000000                              00000000000000000000000       
1040001300301T 020000004910850000000   14999000002923783512923783        30012026000000000412489000000000                         092059826120000195IMPERIO COSMETICOS E PERFUMARIA LTDA              000000000000000                           
1040001300302U 020000000000000000000000000000000000000000000000000000000000000000000000000000000000000000000000000000000000000000000000003001202600000000000030012026000000000000000                              00000000000000000000000       
1040001300303T 020000004910850000000   14999000002923784312923784        30012026000000000039423000000000                         092027892305000101LAISE CAMILO BUSS                                 000000000000000                           
1040001300304U 020000000000000000000000000000000000000000000000000000000000000000000000000000000000000000000000000000000000000000000000003001202600000000000030012026000000000000000                              00000000000000000000000       
1040001300305T 020000004910850000000   14999000002923785112923785        30012026000000000333993000000000                         092015363133000108JOSE ANTONIO DIAS ME                              000000000000000                           
1040001300306U 020000000000000000000000000000000000000000000000000000000000000000000000000000000000000000000000000000000000000000000000003001202600000000000030012026000000000000000                              00000000000000000000000       
1040001300307T 020000004910850000000   14999000002923786012923786        30012026000000000296201000000000                         092039757206000104GERACAO PARTICIPACOES SOCIETARIAIS LTDA           000000000000000                           
1040001300308U 020000000000000000000000000000000000000000000000000000000000000000000000000000000000000000000000000000000000000000000000003001202600000000000030012026000000000000000                              00000000000000000000000       
1040001300309T 020000004910850000000   14999000002923787812923787        30012026000000000027643000000000                         092043818620000145SCHUELTER TRANSPORTES LTDA                        000000000000000                           
1040001300310U 020000000000000000000000000000000000000000000000000000000000000000000000000000000000000000000000000000000000000000000000003001202600000000000030012026000000000000000                              00000000000000000000000       
1040001300311T 020000004910850000000   14999000002923788612923788        30012026000000000146560000000000                         091000034297901900VALDIR HEIDEMANN MICHELS                          000000000000000                           
1040001300312U 020000000000000000000000000000000000000000000000000000000000000000000000000000000000000000000000000000000000000000000000003001202600000000000030012026000000000000000                              00000000000000000000000       
1040001300313T 020000004910850000000   14999000002923789412923789        06032026000000000195622000000000                         092033524327000111HELPPDESK SERVICO DE SUPORTE LTDA                 000000000000000A4                         
1040001300314U 020000000000000000000000000000000000000000000000000000000000000000000000000000000000000000000000000000000000000000000000003001202600000000000030012026000000000000000                              00000000000000000000000       
1040001300315T 020000004910850000000   14999000002923790812923790        06032026000000000234940000000000                         092050250237000107UNIC ESQUADRIAS LTDA                              000000000000000A4                         
1040001300316U 020000000000000000000000000000000000000000000000000000000000000000000000000000000000000000000000000000000000000000000000003001202600000000000030012026000000000000000                              00000000000000000000000       
1040001300317T 020000004910850000000   14999000002923791612923791        23022026000000000001253000000000                         092086437845000164ASSOCIACAO BENEFICENTE SANTA TERESINHA            000000000000000                           
1040001300318U 020000000000000000000000000000000000000000000000000000000000000000000000000000000000000000000000000000000000000000000000003001202600000000000030012026000000000000000                              00000000000000000000000       
1040001300319T 020000004910850000000   14999000002923812212923812        06032026000000000053718000000000                         092046024984000141BB CENTRO DE ENSINO SUPERIOR LTDA                 000000000000000                           
1040001300320U 020000000000000000000000000000000000000000000000000000000000000000000000000000000000000000000000000000000000000000000000003001202600000000000030012026000000000000000                              00000000000000000000000       
1040001300321T 020000004910850000000   14999000002923813012923813        06042026000000000053717000000000                         092046024984000141BB CENTRO DE ENSINO SUPERIOR LTDA                 000000000000000                           
1040001300322U 020000000000000000000000000000000000000000000000000000000000000000000000000000000000000000000000000000000000000000000000003001202600000000000030012026000000000000000                              00000000000000000000000       
1040001300323T 020000004910850000000   14999000002923814912923814        06052026000000000053717000000000                         092046024984000141BB CENTRO DE ENSINO SUPERIOR LTDA                 000000000000000                           
1040001300324U 020000000000000000000000000000000000000000000000000000000000000000000000000000000000000000000000000000000000000000000000003001202600000000000030012026000000000000000                              00000000000000000000000       
1040001300325T 020000004910850000000   14999000002923815712923815        05062026000000000053717000000000                         092046024984000141BB CENTRO DE ENSINO SUPERIOR LTDA                 000000000000000                           
1040001300326U 020000000000000000000000000000000000000000000000000000000000000000000000000000000000000000000000000000000000000000000000003001202600000000000030012026000000000000000                              00000000000000000000000       
1040001300327T 020000004910850000000   14999000002923816512923816        02032026000000000011723000000000                         092004585052000128RICKEN & RICKEN LTDA                              000000000000000A4                         
1040001300328U 020000000000000000000000000000000000000000000000000000000000000000000000000000000000000000000000000000000000000000000000003001202600000000000030012026000000000000000                              00000000000000000000000       
1040001300329T 020000004910850000000   14999000002923817312923817        06022026000000000025893000000000                         091000005383794999THIAGO PHILIPPI LOCH                              000000000000000A4                         
1040001300330U 020000000000000000000000000000000000000000000000000000000000000000000000000000000000000000000000000000000000000000000000003001202600000000000030012026000000000000000                              00000000000000000000000       
1040001300331T 020000004910850000000   14999000002930503212930503        02032026000000000011723000000000                         092004585052000128RICKEN & RICKEN LTDA                              000000000000000A4                         
1040001300332U 020000000000000000000000000000000000000000000000000000000000000000000000000000000000000000000000000000000000000000000000003001202600000000000030012026000000000000000                              00000000000000000000000       
1040001300333T 020000004910850000000   14999000002930504012930504        02032026000000000011723000000000                         092080145170000101ALOISIO CRESCENCIO HEIDEMANN                      000000000000000                           
1040001300334U 020000000000000000000000000000000000000000000000000000000000000000000000000000000000000000000000000000000000000000000000003001202600000000000030012026000000000000000                              00000000000000000000000       
1040001300335T 020000004910850000000   14999000002930505912930505        02032026000000000011723000000000                         092004163797000107WILKER MICHELS WOSS TRANSPORTE                    000000000000000                           
1040001300336U 020000000000000000000000000000000000000000000000000000000000000000000000000000000000000000000000000000000000000000000000003001202600000000000030012026000000000000000                              00000000000000000000000       
1040001300337T 020000004910850000000   14999000002930506712930506        02032026000000000011723000000000                         092035701277000126CIADOCARRO VEICULOS MULTIMARCAS LTDA              000000000000000A4                         
1040001300338U 020000000000000000000000000000000000000000000000000000000000000000000000000000000000000000000000000000000000000000000000003001202600000000000030012026000000000000000                              00000000000000000000000       
1040001300339T 020000004910850000000   14999000002930607112930607        31032026000000000013552000000000                         091000037531921987VENICIO OENNING                                   000000000000000                           
1040001300340U 020000000000000000000000000000000000000000000000000000000000000000000000000000000000000000000000000000000000000000000000003001202600000000000030012026000000000000000                              00000000000000000000000       
1040001300341T 020000004910850000000   14999000002930608012930608        01032026000000000695176000000000                         091000087155478920ZANEIDE DA SILVA SCHMOELLER BECKER                000000000000000                           
1040001300342U 020000000000000000000000000000000000000000000000000000000000000000000000000000000000000000000000000000000000000000000000003001202600000000000030012026000000000000000                              00000000000000000000000       
1040001300343T 020000004910850000000   14999000002930610112930610        30012026000000001517278000000000                         091000087155478920ZANEIDE DA SILVA SCHMOELLER BECKER                000000000000000                           
1040001300344U 020000000000000000000000000000000000000000000000000000000000000000000000000000000000000000000000000000000000000000000000003001202600000000000030012026000000000000000                              00000000000000000000000       
1040001300345T 020000004910850000000   14999000002930611012930611        01032026000000000038919000000000                         092026165617000150SANTA ROSA DE LIMA LOTEAMENTOS LTDA               000000000000000A4                         
1040001300346U 020000000000000000000000000000000000000000000000000000000000000000000000000000000000000000000000000000000000000000000000003001202600000000000030012026000000000000000                              00000000000000000000000       
1040001300347T 020000004910850000000   14999000002930612812930612        06022026000000000022942000000000                         091000034233156953ESPOLIO DE BENICIO EFFTING                        000000000000000                           
1040001300348U 020000000000000000000000000000000000000000000000000000000000000000000000000000000000000000000000000000000000000000000000003001202600000000000030012026000000000000000                              00000000000000000000000       
1040001300349T 020000004910850000000   14999000002930613612930613        10022026000000000035703000000000                         091000051382881991JOAO PEREIRA REDIVO                               000000000000000A4                         
1040001300350U 020000000000000000000000000000000000000000000000000000000000000000000000000000000000000000000000000000000000000000000000003001202600000000000030012026000000000000000                              00000000000000000000000       
1040001300351T 020000004910850000000   14999000002930614412930614        10022026000000000035703000000000                         091000051382881991JOAO PEREIRA REDIVO                               000000000000000A4                         
1040001300352U 020000000000000000000000000000000000000000000000000000000000000000000000000000000000000000000000000000000000000000000000003001202600000000000030012026000000000000000                              00000000000000000000000       
1040001300353T 020000004910850000000   14999000002930615212930615        10022026000000000035703000000000                         091000051382881991JOAO PEREIRA REDIVO                               000000000000000A4                         
1040001300354U 020000000000000000000000000000000000000000000000000000000000000000000000000000000000000000000000000000000000000000000000003001202600000000000030012026000000000000000                              00000000000000000000000       
1040001300355T 020000004910850000000   14999000002930616012930616        01032026000000000025642000000000                         091000002729240918PEDRO DO NASCIMENTO ROSA                          000000000000000A4                         
1040001300356U 020000000000000000000000000000000000000000000000000000000000000000000000000000000000000000000000000000000000000000000000003001202600000000000030012026000000000000000                              00000000000000000000000       
1040001300357T 020000004910850000000   14999000002930617912930617        01042026000000000025642000000000                         091000002729240918PEDRO DO NASCIMENTO ROSA                          000000000000000A4                         
1040001300358U 020000000000000000000000000000000000000000000000000000000000000000000000000000000000000000000000000000000000000000000000003001202600000000000030012026000000000000000                              00000000000000000000000       
1040001300359T 020000004910850000000   14999000002930618712930618        01052026000000000025642000000000                         091000002729240918PEDRO DO NASCIMENTO ROSA                          000000000000000A4                         
1040001300360U 020000000000000000000000000000000000000000000000000000000000000000000000000000000000000000000000000000000000000000000000003001202600000000000030012026000000000000000                              00000000000000000000000       
1040001300361T 020000004910850000000   14999000002930619512930619        01062026000000000025642000000000                         091000002729240918PEDRO DO NASCIMENTO ROSA                          000000000000000A4                         
1040001300362U 020000000000000000000000000000000000000000000000000000000000000000000000000000000000000000000000000000000000000000000000003001202600000000000030012026000000000000000                              00000000000000000000000       
1040001300363T 020000004910850000000   14999000002930620912930620        30012026000000000026901000000000                         091000017877520972FRANCISCO PETROSKI                                000000000000000                           
1040001300364U 020000000000000000000000000000000000000000000000000000000000000000000000000000000000000000000000000000000000000000000000003001202600000000000030012026000000000000000                              00000000000000000000000       
1040001300365T 020000004910850000000   14999000002930621712930621        01032026000000000023514000000000                         091000003177541906CARMELITA AGOSTINHO RALDI                         000000000000000A4                         
1040001300366U 020000000000000000000000000000000000000000000000000000000000000000000000000000000000000000000000000000000000000000000000003001202600000000000030012026000000000000000                              00000000000000000000000       
1040001300367T 020000004910850000000   14999000002930622512930622        01042026000000000023514000000000                         091000003177541906CARMELITA AGOSTINHO RALDI                         000000000000000A4                         
1040001300368U 020000000000000000000000000000000000000000000000000000000000000000000000000000000000000000000000000000000000000000000000003001202600000000000030012026000000000000000                              00000000000000000000000       
1040001300369T 020000004910850000000   14999000002930623312930623        01052026000000000023514000000000                         091000003177541906CARMELITA AGOSTINHO RALDI                         000000000000000A4                         
1040001300370U 020000000000000000000000000000000000000000000000000000000000000000000000000000000000000000000000000000000000000000000000003001202600000000000030012026000000000000000                              00000000000000000000000       
1040001300371T 020000004910850000000   14999000002930624112930624        01062026000000000023514000000000                         091000003177541906CARMELITA AGOSTINHO RALDI                         000000000000000A4                         
1040001300372U 020000000000000000000000000000000000000000000000000000000000000000000000000000000000000000000000000000000000000000000000003001202600000000000030012026000000000000000                              00000000000000000000000       
1040001300373T 020000004910850000000   14999000002930625012930625        01072026000000000023514000000000                         091000003177541906CARMELITA AGOSTINHO RALDI                         000000000000000A4                         
1040001300374U 020000000000000000000000000000000000000000000000000000000000000000000000000000000000000000000000000000000000000000000000003001202600000000000030012026000000000000000                              00000000000000000000000       
1040001300375T 020000004910850000000   14999000002930626812930626        01082026000000000023512000000000                         091000003177541906CARMELITA AGOSTINHO RALDI                         000000000000000A4                         
1040001300376U 020000000000000000000000000000000000000000000000000000000000000000000000000000000000000000000000000000000000000000000000003001202600000000000030012026000000000000000                              00000000000000000000000       
1040001300377T 020000004910850000000   14999000002930627612930627        02022026000000000017346000000000                         091000003862103811SERGIO FELISBERTO                                 000000000000000                           
1040001300378U 020000000000000000000000000000000000000000000000000000000000000000000000000000000000000000000000000000000000000000000000003001202600000000000030012026000000000000000                              00000000000000000000000       
1040001300379T 020000004910850000000   14999000002930628412930628        17022026000000000017085000000000                         091000003862103811SERGIO FELISBERTO                                 000000000000000                           
1040001300380U 020000000000000000000000000000000000000000000000000000000000000000000000000000000000000000000000000000000000000000000000003001202600000000000030012026000000000000000                              00000000000000000000000       
1040001300381T 020000004910850000000   14999000002930629212930629        17032026000000000017084000000000                         091000003862103811SERGIO FELISBERTO                                 000000000000000                           
1040001300382U 020000000000000000000000000000000000000000000000000000000000000000000000000000000000000000000000000000000000000000000000003001202600000000000030012026000000000000000                              00000000000000000000000       
1040001300383T 020000004910850000000   14999000002930680212930680        01032026000000000295582000000000                         091000077091574915MANOEL ANGELO DA SILVA                            000000000000000A4                         
1040001300384U 020000000000000000000000000000000000000000000000000000000000000000000000000000000000000000000000000000000000000000000000003001202600000000000030012026000000000000000                              00000000000000000000000       
1040001300385T 020000004910850000000   14999000002930681012930681        01032026000000000007753000000000                         091000060737190949MANOEL CARLOS OURIQUES VIEIRA                     000000000000000                           
1040001300386U 020000000000000000000000000000000000000000000000000000000000000000000000000000000000000000000000000000000000000000000000003001202600000000000030012026000000000000000                              00000000000000000000000       
1040001300387T 020000004910850000000   14999000002930682912930682        10022026000000000157447000000000                         091000053886780910NILTON VEBER                                      000000000000000                           
1040001300388U 020000000000000000000000000000000000000000000000000000000000000000000000000000000000000000000000000000000000000000000000003001202600000000000030012026000000000000000                              00000000000000000000000       
1040001300389T 020000004910850000000   14999000002930683712930683        01032026000000000007753000000000                         091000051383284920JOACIR OURIQUES VIEIRA                            000000000000000A4                         
1040001300390U 020000000000000000000000000000000000000000000000000000000000000000000000000000000000000000000000000000000000000000000000003001202600000000000030012026000000000000000                              00000000000000000000000       
1040001300391T 020000004910850000000   14999000002930684512930684        01032026000000000007753000000000                         092075305656000111CABANA GRILL RESTAURANTE LTDA                     000000000000000                           
1040001300392U 020000000000000000000000000000000000000000000000000000000000000000000000000000000000000000000000000000000000000000000000003001202600000000000030012026000000000000000                              00000000000000000000000       
1040001300393T 020000004910850000000   14999000002930685312930685        30042026000000000291523000000000                         091000060097361968VOLVINHO MEURER                                   000000000000000                           
1040001300394U 020000000000000000000000000000000000000000000000000000000000000000000000000000000000000000000000000000000000000000000000003001202600000000000030012026000000000000000                              00000000000000000000000       
1040001300395T 090000004910850000000   14999000002670761012670761        02012026000000000017162000000000                         091000071451005920RODCEIA BATISTA DOS SANTOS                        00000000000000012                         
1040001300396U 090000000000000000000000000000000000000000000000000000000000000000000000000000000000000000000000000000000000000000000000003001202600000000000030012026000000000000000                              00000000000000000000000       
1040001300397T 090000004910850000000   14999000002680015612680015        02012026000000000017336000000000                         091000003447013958NEUSA SERAFIM STANGE                              00000000000000012                         
1040001300398U 090000000000000000000000000000000000000000000000000000000000000000000000000000000000000000000000000000000000000000000000003001202600000000000030012026000000000000000                              00000000000000000000000       
1040001300399T 090000004910850000000   14999000002688006012688006        02012026000000000017093000000000                         091000001907220968ANTONIO CAIMERE CARDOSO                           00000000000000012                         
1040001300400U 090000000000000000000000000000000000000000000000000000000000000000000000000000000000000000000000000000000000000000000000003001202600000000000030012026000000000000000                              00000000000000000000000       
1040001300401T 090000004910850000000   14999000002714878912714878        02012026000000000017135000000000                         091000002107115907MARCIO CAETANO                                    00000000000000012                         
1040001300402U 090000000000000000000000000000000000000000000000000000000000000000000000000000000000000000000000000000000000000000000000003001202600000000000030012026000000000000000                              00000000000000000000000       
1040001300403T 090000004910850000000   14999000002747555012747555        02012026000000000017151000000000                         092002254797000189TRANSPORTE E TERRAPLANAGEM DACOREGGIO LT          00000000000000012                         
1040001300404U 090000000000000000000000000000000000000000000000000000000000000000000000000000000000000000000000000000000000000000000000003001202600000000000030012026000000000000000                              00000000000000000000000       
1040001300405T 090000004910850000000   14999000002794635912794635        02012026000000000017509000000000                         091000009481065901ANDERSON MAXIMIANO REZENDE                        00000000000000012                         
1040001300406U 090000000000000000000000000000000000000000000000000000000000000000000000000000000000000000000000000000000000000000000000003001202600000000000030012026000000000000000                              00000000000000000000000       
1040001300407T 090000004910850000000   14999000002844940512844940        30012026000000000025793000000000                         091000003953695924ADRIANA NAZARIO                                   00000000000000012                         
1040001300408U 090000000000000000000000000000000000000000000000000000000000000000000000000000000000000000000000000000000000000000000000003001202600000000000030012026000000000000000                              00000000000000000000000       
1040001300409T 090000004910850000000   14999000002858532512858532        30012026000000000023227000000000                         091000073244236987LEANDRO ZANATTA                                   00000000000000012                         
1040001300410U 090000000000000000000000000000000000000000000000000000000000000000000000000000000000000000000000000000000000000000000000003001202600000000000030012026000000000000000                              00000000000000000000000       
1040001300411T 090000004910850000000   14999000002858548112858548        30012026000000000023266000000000                         091000002574269900MARIA DE FATIMA DE OLIVEIRA                       00000000000000012                         
1040001300412U 090000000000000000000000000000000000000000000000000000000000000000000000000000000000000000000000000000000000000000000000003001202600000000000030012026000000000000000                              00000000000000000000000       
