10400000         2829265510001450000000000000000000001070749108500000000MUNICIPIO DE BRACO DO NORTE   C ECON FEDERAL                          20602202602083400193704000000                    RETORNO-PRODUCAO                  000            
10400011T0100030 20829265510001450000000000000000000001070749108500000000MUNICIPIO DE BRACO DO NORTE                                                                                   00001937060220260000000000                          00   
1040001300001T 060000004910850000000   14999000002900521712900521        090220260000000000397571040107002900521                  091000079931022949ENIO BORBA DE BONA                                000000000000199610300                     
1040001300002U 060000000000000000000000000217740000000000000000000000000000000000000000179830000000000179830000000000000000000000000000000602202606022026000006022026000000000000000100076328260920               00000000000000000000000       
1040001300003T 060000004910850000000   14999000002916691112916691        200220260000000000799480330000002916691                  091000054284520997AURELIO MARTINHO                                  000000000000199620300                     
1040001300004U 060000000000000000000000000377430000000000000000000000000000000000000000422050000000000422050000000000000000000000000000000602202606022026000006022026000000000000000100010144995930               00000000000000000000000       
1040001300005T 060000004910850000000   14999000002920415512920415        080420260000000003917230010000002920415                  091000095099719953EDVANDRO DELLA GIUSTINA                           000000000000199620300                     
1040001300006U 060000000000000000000000000000000000000000000000000000000000000000000003917230000000003917230000000000000000000000000000000602202606022026000006022026000000000000000100013061516948               00000000000000000000000       
1040001300007T 060000004910850000000   14999000002921852012921852        080220260000000000226695420000002921852                  091000063314991991RAYMUNDO SAO BRAIZ JAGAS                          000000000000199620300                     
1040001300008U 060000000000000000000000000000000000000000000000000000000000000000000000226690000000000226690000000000000000000000000000000602202606022026000006022026000000000000000254421143000104               00000000000000000000000       
1040001300009T 060000004910850000000   14999000002929770612929770        260220260000000000632150000000002929770                  091000090987675915NEI ALEXANDRE DE BONA                             000000000000199620300                     
1040001300010U 060000000000000000000000000000000000000000000000000000000000000000000000632150000000000632150000000000000000000000000000000602202606022026000006022026000000000000000000000000000000               00000000000000000000000       
1040001300011T 060000004910850000000   14999000002935158112935158        060320260000000000077532600000002935158                  091000034233210915JAIR VOLPATO                                      000000000000199620300                     
1040001300012U 060000000000000000000000000000000000000000000000000000000000000000000000077530000000000077530000000000000000000000000000000602202606022026000006022026000000000000000240693232000197               00000000000000000000000       
1040001300013T 060000004910850000000   14999000002935159012935159        060320260000000000077531040107002935159                  091000008707802986GUILHERME BORGES                                  000000000000199610300                     
1040001300014U 060000000000000000000000000000000000000000000000000000000000000000000000077530000000000077530000000000000000000000000000000602202606022026000006022026000000000000000100008707802986               00000000000000000000000       
1040001300015T 060000004910850000000   14999000002708276112708276        090320260000000000170601360140502708276                  092010381649000153ATITUDE IND E COM DE QUADROS DECORATIVOS          000000000000199040301                     
1040001300016U 060000000000000000000000000000000000000000000000000000000000000000000000170600000000000170600000000000000000000000000000000602202609022026000009022026000000000000000100006660706950               00000000000000000000000       
1040001300017T 060000004910850000000   14999000002801102712801102        130220260000000000176401040107002801102                  091000069053448934JOAO BATISTA JULIO                                000000000000199020101                     
1040001300018U 060000000000000000000000000000000000000000000000000000000000000000000000176400000000000176400000000000000000000000000000000602202609022026000009022026000000000000000000000000000000               00000000000000000000000       
1040001300019T 060000004910850000000   14999000002847808112847808        090220260000000000565571040107002847808                  091000061887218904JAIME DE MORAES MAXIMIANO                         000000000000199020101                     
1040001300020U 060000000000000000000000000000000000000000000000000000000000000000000000565570000000000565570000000000000000000000000000000602202609022026000009022026000000000000000000000000000000               00000000000000000000000       
1040001300021T 060000004910850000000   14999000002862757512862757        080220260000000000223492370033602862757                  091000071451005920RODCEIA BATISTA DOS SANTOS                        000000000000199040301                     
1040001300022U 060000000000000000000000000000000000000000000000000000000000000000000000223490000000000223490000000000000000000000000000000602202609022026000009022026000000000000000100010148977936               00000000000000000000000       
1040001300023T 060000004910850000000   14999000002869031512869031        250220260000000000228321040107002869031                  091000080058868968ARLETE GONCALVES HONORATO                         000000000000199020101                     
1040001300024U 060000000000000000000000000000000000000000000000000000000000000000000000228320000000000228320000000000000000000000000000000602202609022026000009022026000000000000000000000000000000               00000000000000000000000       
1040001300025T 060000004910850000000   14999000002879244412879244        060220260000000000171821040107002879244                  092051999292000159HM ACABAMENTOS LTDA                               000000000000199020101                     
1040001300026U 060000000000000000000000000000000000000000000000000000000000000000000000171820000000000171820000000000000000000000000000000602202609022026000009022026000000000000000000000000000000               00000000000000000000000       
1040001300027T 060000004910850000000   14999000002883912212883912        070220260000000000222231040107002883912                  091000070535175949JAIR SOETH COAN                                   000000000000199020101                     
1040001300028U 060000000000000000000000000000000000000000000000000000000000000000000000222230000000000222230000000000000000000000000000000602202609022026000009022026000000000000000000000000000000               00000000000000000000000       
1040001300029T 060000004910850000000   14999000002892878812892878        060220260000000002600001040107002892878                  09206153843200014561.538.432 WAGNER ALESSANDER DUTRA                000000000000199020101                     
1040001300030U 060000000000000000000000000000000000000000000000000000000000000000000002600000000000002600000000000000000000000000000000000602202609022026000009022026000000000000000000000000000000               00000000000000000000000       
1040001300031T 060000004910850000000   14999000002893860012893860        090220260000000000726021040107002893860                  091000025234587991ESPOLIO DE ROMEU JERONIMO JOAQUIM                 000000000000199020101                     
1040001300032U 060000000000000000000000000281250000000000000000000000000000000000000000444770000000000444770000000000000000000000000000000602202609022026000009022026000000000000000000000000000000               00000000000000000000000       
1040001300033T 060000004910850000000   14999000002895049012895049        110220260000000002121971040107002895049                  091000079617964953CLEBER LUCIANO PEREIRA                            000000000000199020101                     
1040001300034U 060000000000000000000000000617710000000000000000000000000000000000000001504260000000001504260000000000000000000000000000000602202609022026000009022026000000000000000000000000000000               00000000000000000000000       
1040001300035T 060000004910850000000   14999000002899206012899206        060320260000000001338011040107002899206                  092000188868000167BLOEMER & BOEING LTDA                             000000000000199060301                     
1040001300036U 060000000000000000000000000000000000000000000000000000000000000000000001338010000000001338010000000000000000000000000000000602202609022026000009022026000000000000000000000000000000               00000000000000000000000       
1040001300037T 060000004910850000000   14999000002900201312900201        060320260000000000252861360140502900201                  092058664652000100F MEURER PARTICIPACOES LTDA                       000000000000199040301                     
1040001300038U 060000000000000000000000000000000000000000000000000000000000000000000000252860000000000252860000000000000000000000000000000602202609022026000009022026000000000000000240417119000189               00000000000000000000000       
1040001300039T 060000004910850000000   14999000002900427012900427        090220260000000000136342600000102900427                  091000025692810930ESPOLIO DE LEOPOLDINO MIGUEL VICENTE              000000000000199040301                     
1040001300040U 060000000000000000000000000028120000000000000000000000000000000000000000108220000000000108220000000000000000000000000000000602202609022026000009022026000000000000000100086271890997               00000000000000000000000       
1040001300041T 060000004910850000000   14999000002902285512902285        130220260000000000372112600000102902285                  091000005848562962JOSIAS SARZANA                                    000000000000199040301                     
1040001300042U 060000000000000000000000000178260000000000000000000000000000000000000000193850000000000193850000000000000000000000000000000602202609022026000009022026000000000000000100005848562962               00000000000000000000000       
1040001300043T 060000004910850000000   14999000002902309612902309        130220260000000000255001040107002902309                  091000044942834953AVANI BEZA SILVEIRA                               000000000000199020101                     
1040001300044U 060000000000000000000000000044920000000000000000000000000000000000000000210080000000000210080000000000000000000000000000000602202609022026000009022026000000000000000000000000000000               00000000000000000000000       
1040001300045T 060000004910850000000   14999000002902491212902491        060320260000000002080521360140502902491                  092052869440000183LOTEAMENTO MEURER LTDA                            000000000000199040301                     
1040001300046U 060000000000000000000000000000000000000000000000000000000000000000000002080520000000002080520000000000000000000000000000000602202609022026000009022026000000000000000240417119000189               00000000000000000000000       
1040001300047T 060000004910850000000   14999000002902601012902601        060220260000000000230440330227102902601                  091000034451757991EDEGAR BEZA                                       000000000000199040301                     
1040001300048U 060000000000000000000000000000000000000000000000000000000000000000000000230440000000000230440000000000000000000000000000000602202609022026000009022026000000000000000100001832917940               00000000000000000000000       
1040001300049T 060000004910850000000   14999000002903314812903314        060320260000000001809951360140502903314                  092043472084000179MEURER TERRAPLANAGEM LTDA                         000000000000199040301                     
1040001300050U 060000000000000000000000000000000000000000000000000000000000000000000001809950000000001809950000000000000000000000000000000602202609022026000009022026000000000000000240417119000189               00000000000000000000000       
1040001300051T 060000004910850000000   14999000002903319912903319        060320260000000005208971360140502903319                  092040417119000189MEURER VEICULOS MULTIMARCAS LTDA                  000000000000199040301                     
1040001300052U 060000000000000000000000000000000000000000000000000000000000000000000005208970000000005208970000000000000000000000000000000602202609022026000009022026000000000000000240417119000189               00000000000000000000000       
1040001300053T 060000004910850000000   14999000002903357112903357        160220260000000000557951040107002903357                  091000034233121904ESPOLIO DE ANDRE MARTINS                          000000000000199020101                     
1040001300054U 060000000000000000000000000184410000000000000000000000000000000000000000373540000000000373540000000000000000000000000000000602202609022026000009022026000000000000000000000000000000               00000000000000000000000       
1040001300055T 060000004910850000000   14999000002903598112903598        060320260000000000106131360140502903598                  092040417119000189MEURER VEICULOS MULTIMARCAS LTDA                  000000000000199040301                     
1040001300056U 060000000000000000000000000000000000000000000000000000000000000000000000106130000000000106130000000000000000000000000000000602202609022026000009022026000000000000000240417119000189               00000000000000000000000       
1040001300057T 060000004910850000000   14999000002903833612903833        200220260000000000119002600000102903833                  091000089829808904IVAIRIA BAPTISTA                                  000000000000199040301                     
1040001300058U 060000000000000000000000000000000000000000000000000000000000000000000000119000000000000119000000000000000000000000000000000602202609022026000009022026000000000000000100008693162900               00000000000000000000000       
1040001300059T 060000004910850000000   14999000002903997912903997        200220260000000000531101040107002903997                  091000007573560958FELIPE NAZARIO DA SILVA                           000000000000199020101                     
1040001300060U 060000000000000000000000000169190000000000000000000000000000000000000000361910000000000361910000000000000000000000000000000602202609022026000009022026000000000000000000000000000000               00000000000000000000000       
1040001300061T 060000004910850000000   14999000002904111612904111        060320260000000000138643410064302904111                  092050037457000220THE BEST ACAI ICARA LTDA                          000000000000199040301                     
1040001300062U 060000000000000000000000000000000000000000000000000000000000000000000000138640000000000138640000000000000000000000000000000602202609022026000009022026000000000000000245157455000153               00000000000000000000000       
1040001300063T 060000004910850000000   14999000002904112412904112        060320260000000001495353410064302904112                  092050037457000220THE BEST ACAI ICARA LTDA                          000000000000199040301                     
1040001300064U 060000000000000000000000000000000000000000000000000000000000000000000001495350000000001495350000000000000000000000000000000602202609022026000009022026000000000000000245157455000153               00000000000000000000000       
1040001300065T 060000004910850000000   14999000002905188012905188        270220260000000000172380010073802905188                  091000002853917983GILBERTO SILVEIRA                                 000000000000199040301                     
1040001300066U 060000000000000000000000000040750000000000000000000000000000000000000000131630000000000131630000000000000000000000000000000602202609022026000009022026000000000000000100002853917983               00000000000000000000000       
1040001300067T 060000004910850000000   14999000002906554612906554        060220260000000000283061040352302906554                  091000003909295908DJON VITOR OURIQUES                               000000000000199020101                     
1040001300068U 060000000000000000000000000063000000000000000000000000000000000000000000220060000000000220060000000000000000000000000000000602202609022026000009022026000000000000000000000000000000               00000000000000000000000       
1040001300069T 060000004910850000000   14999000002906595312906595        090220260000000000324277560056502906595                  091000005505347924SIDINEI SEHNEN KATRUCH                            000000000000199040301                     
1040001300070U 060000000000000000000000000082720000000000000000000000000000000000000000241550000000000241550000000000000000000000000000000602202609022026000009022026000000000000000100011542939984               00000000000000000000000       
1040001300071T 060000004910850000000   14999000002906793012906793        090220260000000000123030810000102906793                  091000079704700172STELA MARIS CARDOSO EFFTING                       000000000000199040301                     
1040001300072U 060000000000000000000000000000000000000000000000000000000000000000000000123030000000000123030000000000000000000000000000000602202609022026000009022026000000000000000241341151000190               00000000000000000000000       
1040001300073T 060000004910850000000   14999000002907163512907163        110220260000000001345711040107002907163                  091000025235290925SILVESTRE NECKER SALVALAGIO                       000000000000199020101                     
1040001300074U 060000000000000000000000000582860000000000000000000000000000000000000000762850000000000762850000000000000000000000000000000602202609022026000009022026000000000000000000000000000000               00000000000000000000000       
1040001300075T 060000004910850000000   14999000002909937812909937        100220260000000000441140010316802909937                  092087296026015724BENOIT ELETRODOMESTICOS LTDA                      000000000000199040301                     
1040001300076U 060000000000000000000000000000000000000000000000000000000000000000000000441140000000000441140000000000000000000000000000000602202609022026000009022026000000000000000287296026000107               00000000000000000000000       
1040001300077T 060000004910850000000   14999000002911678712911678        050320260000000000302710010073802911678                  091000089585739968NEDSON DA SILVA MARTINS                           000000000000199040301                     
1040001300078U 060000000000000000000000000066990000000000000000000000000000000000000000235720000000000235720000000000000000000000000000000602202609022026000009022026000000000000000100004195234999               00000000000000000000000       
1040001300079T 060000004910850000000   14999000002915211212915211        190220260000000002781091040107002915211                  091000034483306987ESPOLIO DE SALESIO DA SILVA                       000000000000199020101                     
1040001300080U 060000000000000000000000001280910000000000000000000000000000000000000001500180000000001500180000000000000000000000000000000602202609022026000009022026000000000000000000000000000000               00000000000000000000000       
1040001300081T 060000004910850000000   14999000002920221712920221        060220260000000000739532370033602920221                  091000053423836920MARIA MARCELINO LESSA                             000000000000199040301                     
1040001300082U 060000000000000000000000000000000000000000000000000000000000000000000000739530000000000739530000000000000000000000000000000602202609022026000009022026000000000000000100002709691957               00000000000000000000000       
1040001300083T 060000004910850000000   14999000002920356612920356        060220260000000001385900010073802920356                  091000074610066904VILSON HEIDEMANN                                  000000000000199040301                     
1040001300084U 060000000000000000000000000000000000000000000000000000000000000000000001385900000000001385900000000000000000000000000000000602202609022026000009022026000000000000000212731343000105               00000000000000000000000       
1040001300085T 060000004910850000000   14999000002920357412920357        060220260000000000465260010073802920357                  091000005722273376RAIMUNDO LUIZ DE LIMA JUNIOR                      000000000000199040301                     
1040001300086U 060000000000000000000000000000000000000000000000000000000000000000000000465260000000000465260000000000000000000000000000000602202609022026000009022026000000000000000212731343000105               00000000000000000000000       
1040001300087T 060000004910850000000   14999000002921186012921186        100220260000000002567991360140502921186                  092052192599000106DOMUS PALACE RESIDENCE SPE LTDA                   000000000000199040301                     
1040001300088U 060000000000000000000000000000000000000000000000000000000000000000000002567990000000002567990000000000000000000000000000000602202609022026000009022026000000000000000252192599000106               00000000000000000000000       
1040001300089T 060000004910850000000   14999000002922247112922247        100220260000000000168002600000102922247                  091000007557148908MARIANE DA ROSA PEREIRA                           000000000000199040301                     
1040001300090U 060000000000000000000000000000000000000000000000000000000000000000000000168000000000000168000000000000000000000000000000000602202609022026000009022026000000000000000100007557148908               00000000000000000000000       
1040001300091T 060000004910850000000   14999000002923817312923817        060220260000000000258930010073802923817                  091000005383794999THIAGO PHILIPPI LOCH                              000000000000199040301                     
1040001300092U 060000000000000000000000000000000000000000000000000000000000000000000000258930000000000258930000000000000000000000000000000602202609022026000009022026000000000000000100005383794999               00000000000000000000000       
1040001300093T 060000004910850000000   14999000002923830012923830        060320260000000000106134220014802923830                  092083573212010158COOPERATIVA DE PRODUCAO E CONSUMO CONCOR          000000000000199040301                     
1040001300094U 060000000000000000000000000000000000000000000000000000000000000000000000106130000000000106130000000000000000000000000000000602202609022026000009022026000000000000000283573212000195               00000000000000000000000       
1040001300095T 060000004910850000000   14999000002923831912923831        060320260000000005303244220014802923831                  092083573212010158COOPERATIVA DE PRODUCAO E CONSUMO CONCOR          000000000000199040301                     
1040001300096U 060000000000000000000000000000000000000000000000000000000000000000000005303240000000005303240000000000000000000000000000000602202609022026000009022026000000000000000283573212000195               00000000000000000000000       
1040001300097T 060000004910850000000   14999000002923832712923832        060320260000000000106134220014802923832                  092083573212013335COOPERATIVA DE PRODUCAO E CONSUMO CONCOR          000000000000199040301                     
1040001300098U 060000000000000000000000000000000000000000000000000000000000000000000000106130000000000106130000000000000000000000000000000602202609022026000009022026000000000000000283573212000195               00000000000000000000000       
1040001300099T 060000004910850000000   14999000002923833512923833        060320260000000008118934220014802923833                  092083573212013335COOPERATIVA DE PRODUCAO E CONSUMO CONCOR          000000000000199040301                     
1040001300100U 060000000000000000000000000000000000000000000000000000000000000000000008118930000000008118930000000000000000000000000000000602202609022026000009022026000000000000000283573212000195               00000000000000000000000       
1040001300101T 060000004910850000000   14999000002924215412924215        060320260000000001386990010073802924215                  092006324828000181ELETRO ATIVA - SERVICOS ELETRICOS LTDA M          000000000000199040301                     
1040001300102U 060000000000000000000000000000000000000000000000000000000000000000000001386990000000001386990000000000000000000000000000000602202609022026000009022026000000000000000206324828000181               00000000000000000000000       
1040001300103T 060000004910850000000   14999000002924222712924222        060220260000000000344205090000102924222                  092047926499000126MAIA GASTROBAR LTDA                               000000000000199040301                     
1040001300104U 060000000000000000000000000000000000000000000000000000000000000000000000344200000000000344200000000000000000000000000000000602202609022026000009022026000000000000000247926499000126               00000000000000000000000       
1040001300105T 060000004910850000000   14999000002924237512924237        060220260000000000017387560155502924237                  092029212486000294PIZOLAR - PIZONI MATERIAIS DE CONSTRUCAO          000000000000199040301                     
1040001300106U 060000000000000000000000000000000000000000000000000000000000000000000000017380000000000017380000000000000000000000000000000602202609022026000009022026000000000000000229212486000103               00000000000000000000000       
1040001300107T 060000004910850000000   14999000002924238312924238        060220260000000000385307560155502924238                  092029212486000294PIZOLAR - PIZONI MATERIAIS DE CONSTRUCAO          000000000000199040301                     
1040001300108U 060000000000000000000000000000000000000000000000000000000000000000000000385300000000000385300000000000000000000000000000000602202609022026000009022026000000000000000229212486000103               00000000000000000000000       
1040001300109T 060000004910850000000   14999000002924279012924279        060320260000000001106587480590502924279                  09205921584400010059.215.844 EVANIR EFFTING WARMLING PHILI          000000000000199040301                     
1040001300110U 060000000000000000000000000000000000000000000000000000000000000000000001106580000000001106580000000000000000000000000000000602202609022026000009022026000000000000000100010760967946               00000000000000000000000       
1040001300111T 060000004910850000000   14999000002924280412924280        060220260000000000539527560056502924280                  091000090987675915NEI ALEXANDRE DE BONA                             000000000000199040301                     
1040001300112U 060000000000000000000000000000000000000000000000000000000000000000000000539520000000000539520000000000000000000000000000000602202609022026000009022026000000000000000211479874000190               00000000000000000000000       
1040001300113T 060000004910850000000   14999000002924295212924295        180220260000000000250505090000102924295                  092026263083000103RENOVA JEANS TINTURARIA E CUSTOMIZACAO D          000000000000199040301                     
1040001300114U 060000000000000000000000000000000000000000000000000000000000000000000000250500000000000250500000000000000000000000000000000602202609022026000009022026000000000000000226263083000103               00000000000000000000000       
1040001300115T 060000004910850000000   14999000002928941012928941        230420260000000002277237560056502928941                  091000003866563981SANDRA MICHELS BROGNARA MARCELINO                 000000000000199040301                     
1040001300116U 060000000000000000000000000000000000000000000000000000000000000000000002277230000000002277230000000000000000000000000000000602202609022026000009022026000000000000000100004618256940               00000000000000000000000       
1040001300117T 060000004910850000000   14999000002929511812929511        060320260000000000117921040107002929511                  092013577983000175GRAZIANI BEZA ANTUNES                             000000000000199020101                     
1040001300118U 060000000000000000000000000011790000000000000000000000000000000000000000106130000000000106130000000000000000000000000000000602202609022026000009022026000000000000000000000000000000               00000000000000000000000       
1040001300119T 060000004910850000000   14999000002930077412930077        280420260000000000247547560056502930077                  091000003760554997ANDERSON DELFIM DE OLIVEIRA                       000000000000199040101                     
1040001300120U 060000000000000000000000000000000000000000000000000000000000000000000000247540000000000247540000000000000000000000000000000602202609022026000009022026000000000000000200000000000000               00000000000000000000000       
1040001300121T 060000004910850000000   14999000002930279312930279        100220260000000000005001040107002930279                  092007019412000112FERREIRA & NAZARIO LTDA ME                        000000000000199060101                     
1040001300122U 060000000000000000000000000000000000000000000000000000000000000000000000005000000000000005000000000000000000000000000000000602202609022026000009022026000000000000000000000000000000               00000000000000000000000       
1040001300123T 060000004910850000000   14999000002930372212930372        100220260000000001191681360140502930372                  092041744660000164RESIDENCIAL MILANO SPE LTDA                       000000000000199040301                     
1040001300124U 060000000000000000000000000000000000000000000000000000000000000000000001191680000000001191680000000000000000000000000000000602202609022026000009022026000000000000000241744660000164               00000000000000000000000       
1040001300125T 060000004910850000000   14999000002930428112930428        100220260000000000928997480010002930428                  092003793242001573COOP  CREDITO, POUPANCA E INVEST DO SUL           000000000000199040301                     
1040001300126U 060000000000000000000000000000000000000000000000000000000000000000000000928990000000000928990000000000000000000000000000000602202609022026000009022026000000000000000203793242000178               00000000000000000000000       
1040001300127T 060000004910850000000   14999000002934748712934748        070320260000000016647777480260402934748                  092003793242000178COOP. DE CRED. POUP. E INV. DO SUL DO ES          000000000000199040301                     
1040001300128U 060000000000000000000000000000000000000000000000000000000000000000000016647770000000016647770000000000000000000000000000000602202609022026000009022026000000000000000100006026291873               00000000000000000000000       
1040001300129T 060000004910850000000   14999000002934802512934802        190220260000000000117230010073802934802                  091000001873873972HILARIO GALVANI                                   000000000000199040301                     
1040001300130U 060000000000000000000000000000000000000000000000000000000000000000000000117230000000000117230000000000000000000000000000000602202609022026000009022026000000000000000100001873873972               00000000000000000000000       
1040001300131T 060000004910850000000   14999000002934803312934803        060520260000000005146871360140502934803                  092033044253000116GALLIANO ADMINISTRADORA DE BENS LTDA              000000000000199040301                     
1040001300132U 060000000000000000000000000000000000000000000000000000000000000000000005146870000000005146870000000000000000000000000000000602202609022026000009022026000000000000000233044253000116               00000000000000000000000       
1040001300133T 060000004910850000000   14999000002935162012935162        070220260000000000327181040107002935162                  091000004575592927TAIANA APARECIDA FLAUSTINO ALVES                  000000000000199020101                     
1040001300134U 060000000000000000000000000086860000000000000000000000000000000000000000240320000000000240320000000000000000000000000000000602202609022026000009022026000000000000000000000000000000               00000000000000000000000       
1040001300135T 060000004910850000000   14999000002935164612935164        060220260000000000123137560056502935164                  092002451297000137P.VIDA FARMACIA E DROGARIA LTDA.                  000000000000199040301                     
1040001300136U 060000000000000000000000000000000000000000000000000000000000000000000000123130000000000123130000000000000000000000000000000602202609022026000009022026000000000000000202451297000137               00000000000000000000000       
1040001300137T 020000004910850000000   14999000002922378812922378        10022026000000000000960000000000                         092014663374000100SILVA & SILVA RECAPAGEM LTDA                      000000000000000                           
1040001300138U 020000000000000000000000000000000000000000000000000000000000000000000000000000000000000000000000000000000000000000000000000602202600000000000000000000000000000000000                              00000000000000000000000       
1040001300139T 020000004910850000000   14999000002922385012922385        10022026000000000013458000000000                         092086433042000131COOPERATIVA DE ELETRIFICACAO DE BRACO DO          000000000000000A4                         
1040001300140U 020000000000000000000000000000000000000000000000000000000000000000000000000000000000000000000000000000000000000000000000000602202600000000000000000000000000000000000                              00000000000000000000000       
1040001300141T 020000004910850000000   14999000002922393112922393        10022026000000000045440000000000                         092034329046000170DELTA MEDICINA DO TRABALHO LTDA                   000000000000000A4                         
1040001300142U 020000000000000000000000000000000000000000000000000000000000000000000000000000000000000000000000000000000000000000000000000602202600000000000000000000000000000000000                              00000000000000000000000       
1040001300143T 020000004910850000000   14999000002922412112922412        10022026000000000162392000000000                         092041801996000111CLINICA CIRURGICA ODONTOLOGICA BRACO DO           000000000000000                           
1040001300144U 020000000000000000000000000000000000000000000000000000000000000000000000000000000000000000000000000000000000000000000000000602202600000000000000000000000000000000000                              00000000000000000000000       
1040001300145T 020000004910850000000   14999000002922415612922415        10022026000000000007728000000000                         092046147616000190OLIVIO DELA JUSTINA 75782820934                   000000000000000                           
1040001300146U 020000000000000000000000000000000000000000000000000000000000000000000000000000000000000000000000000000000000000000000000000602202600000000000000000000000000000000000                              00000000000000000000000       
1040001300147T 020000004910850000000   14999000002922422912922422        10022026000000000000237000000000                         092053959967000161MKM TECNOLOGIA DA INFORMACAO LTDA                 000000000000000A4                         
1040001300148U 020000000000000000000000000000000000000000000000000000000000000000000000000000000000000000000000000000000000000000000000000602202600000000000000000000000000000000000                              00000000000000000000000       
1040001300149T 020000004910850000000   14999000002922428812922428        10022026000000000021245000000000                         092007943402000179VANCREDI ASSESSORIA EMPRESARIAL E DE COB          000000000000000                           
1040001300150U 020000000000000000000000000000000000000000000000000000000000000000000000000000000000000000000000000000000000000000000000000602202600000000000000000000000000000000000                              00000000000000000000000       
1040001300151T 020000004910850000000   14999000002922437712922437        10022026000000000002160000000000                         092002063330000151CLINICA RAD.DR ENEAS PAULO A DA ROCHA LT          000000000000000                           
1040001300152U 020000000000000000000000000000000000000000000000000000000000000000000000000000000000000000000000000000000000000000000000000602202600000000000000000000000000000000000                              00000000000000000000000       
1040001300153T 020000004910850000000   14999000002922440712922440        10022026000000000002200000000000                         092009356547000107TOP CENTER COMERCIO DE MAQUINAS LTDA              000000000000000A4                         
1040001300154U 020000000000000000000000000000000000000000000000000000000000000000000000000000000000000000000000000000000000000000000000000602202600000000000000000000000000000000000                              00000000000000000000000       
1040001300155T 020000004910850000000   14999000002922441512922441        10022026000000000416375000000000                         092000204957000150SILBECK SOFTWARE LTDA                             000000000000000A4                         
1040001300156U 020000000000000000000000000000000000000000000000000000000000000000000000000000000000000000000000000000000000000000000000000602202600000000000000000000000000000000000                              00000000000000000000000       
1040001300157T 020000004910850000000   14999000002922443112922443        10022026000000000003562000000000                         092017211866000144LOGPRO SERVICOS ADMINISTRATIVOS PARA TER          000000000000000                           
1040001300158U 020000000000000000000000000000000000000000000000000000000000000000000000000000000000000000000000000000000000000000000000000602202600000000000000000000000000000000000                              00000000000000000000000       
1040001300159T 020000004910850000000   14999000002922445812922445        10022026000000000083893000000000                         092052125950000146MEDGOV GESTAO DE SERVICOS DE SAUDE LTDA           000000000000000A4                         
1040001300160U 020000000000000000000000000000000000000000000000000000000000000000000000000000000000000000000000000000000000000000000000000602202600000000000000000000000000000000000                              00000000000000000000000       
1040001300161T 020000004910850000000   14999000002922446612922446        10022026000000001373467000000000                         092002432724000130JS LABORATORIO DE ANALISES CLINICAS LTDA          000000000000000A4                         
1040001300162U 020000000000000000000000000000000000000000000000000000000000000000000000000000000000000000000000000000000000000000000000000602202600000000000000000000000000000000000                              00000000000000000000000       
1040001300163T 020000004910850000000   14999000002922449012922449        10022026000000000002136000000000                         092008706238000149FERNANDO VOLPATO ACADEMIA LTDA                    000000000000000A4                         
1040001300164U 020000000000000000000000000000000000000000000000000000000000000000000000000000000000000000000000000000000000000000000000000602202600000000000000000000000000000000000                              00000000000000000000000       
1040001300165T 020000004910850000000   14999000002922450412922450        10022026000000000000032000000000                         092027516397000125MKM SERVICOS DIGITAIS LTDA                        000000000000000A4                         
1040001300166U 020000000000000000000000000000000000000000000000000000000000000000000000000000000000000000000000000000000000000000000000000602202600000000000000000000000000000000000                              00000000000000000000000       
1040001300167T 020000004910850000000   14999000002922452012922452        10022026000000002472276000000000                         092045517797000137SOOH MIDIA LTDA                                   000000000000000                           
1040001300168U 020000000000000000000000000000000000000000000000000000000000000000000000000000000000000000000000000000000000000000000000000602202600000000000000000000000000000000000                              00000000000000000000000       
1040001300169T 020000004910850000000   14999000002922453912922453        10022026000000000024160000000000                         092012731480000140CLINICA DE IMAGEM E DIAGNOSTICO DO VALE           000000000000000A4                         
1040001300170U 020000000000000000000000000000000000000000000000000000000000000000000000000000000000000000000000000000000000000000000000000602202600000000000000000000000000000000000                              00000000000000000000000       
1040001300171T 020000004910850000000   14999000002922454712922454        10022026000000000005137000000000                         092041778823000120SUICOM COMERCIO E SERVICOS LTDA                   000000000000000A4                         
1040001300172U 020000000000000000000000000000000000000000000000000000000000000000000000000000000000000000000000000000000000000000000000000602202600000000000000000000000000000000000                              00000000000000000000000       
1040001300173T 020000004910850000000   14999000002924216212924216        05022026000000000084372000000000                         091000005296429990KINDERMAN WEBER                                   000000000000000                           
1040001300174U 020000000000000000000000000000000000000000000000000000000000000000000000000000000000000000000000000000000000000000000000000602202600000000000000000000000000000000000                              00000000000000000000000       
1040001300175T 020000004910850000000   14999000002930428112930428        10022026000000000092899000000000                         092003793242001573COOP  CREDITO, POUPANCA E INVEST DO SUL           000000000000000                           
1040001300176U 020000000000000000000000000000000000000000000000000000000000000000000000000000000000000000000000000000000000000000000000000602202600000000000000000000000000000000000                              00000000000000000000000       
1040001300177T 020000004910850000000   14999000002921179812921179        10022026000000000000605000000000                         092054942204000170WAGNER DE SOUZA GONCALVES LTDA                    000000000000000A4                         
1040001300178U 020000000000000000000000000000000000000000000000000000000000000000000000000000000000000000000000000000000000000000000000000602202600000000000006022026000000000000000                              00000000000000000000000       
1040001300179T 020000004910850000000   14999000002921186012921186        10022026000000000256799000000000                         092052192599000106DOMUS PALACE RESIDENCE SPE LTDA                   000000000000000                           
1040001300180U 020000000000000000000000000000000000000000000000000000000000000000000000000000000000000000000000000000000000000000000000000602202600000000000006022026000000000000000                              00000000000000000000000       
1040001300181T 020000004910850000000   14999000002921206912921206        10022026000000000026600000000000                         092043006597000194INMES IMPORTACAO E EXPORTACAO LTDA                000000000000000A4                         
1040001300182U 020000000000000000000000000000000000000000000000000000000000000000000000000000000000000000000000000000000000000000000000000602202600000000000006022026000000000000000                              00000000000000000000000       
1040001300183T 020000004910850000000   14999000002921221212921221        10022026000000000132000000000000                         092051297871000150CONDOMINIO ALTO DAS MANSOES LTDA                  000000000000000                           
1040001300184U 020000000000000000000000000000000000000000000000000000000000000000000000000000000000000000000000000000000000000000000000000602202600000000000006022026000000000000000                              00000000000000000000000       
1040001300185T 020000004910850000000   14999000002921225512921225        10022026000000000001117000000000                         092041801996000111CLINICA CIRURGICA ODONTOLOGICA BRACO DO           000000000000000                           
1040001300186U 020000000000000000000000000000000000000000000000000000000000000000000000000000000000000000000000000000000000000000000000000602202600000000000006022026000000000000000                              00000000000000000000000       
1040001300187T 020000004910850000000   14999000002921229812921229        10022026000000000314369000000000                         092023000816000110BRAVO EMPREENDIMENTOS IMOBILIARIOS LTDA.          000000000000000                           
1040001300188U 020000000000000000000000000000000000000000000000000000000000000000000000000000000000000000000000000000000000000000000000000602202600000000000006022026000000000000000                              00000000000000000000000       
1040001300189T 020000004910850000000   14999000002922376112922376        10022026000000000142285000000000                         092052125950000146MEDGOV GESTAO DE SERVICOS DE SAUDE LTDA           000000000000000A4                         
1040001300190U 020000000000000000000000000000000000000000000000000000000000000000000000000000000000000000000000000000000000000000000000000602202600000000000006022026000000000000000                              00000000000000000000000       
1040001300191T 020000004910850000000   14999000002922407512922407        10022026000000001136470000000000                         092041801996000111CLINICA CIRURGICA ODONTOLOGICA BRACO DO           000000000000000                           
1040001300192U 020000000000000000000000000000000000000000000000000000000000000000000000000000000000000000000000000000000000000000000000000602202600000000000006022026000000000000000                              00000000000000000000000       
1040001300193T 020000004910850000000   14999000002922425312922425        10022026000000000023899000000000                         092000204957000150SILBECK SOFTWARE LTDA                             000000000000000A4                         
1040001300194U 020000000000000000000000000000000000000000000000000000000000000000000000000000000000000000000000000000000000000000000000000602202600000000000006022026000000000000000                              00000000000000000000000       
1040001300195T 020000004910850000000   14999000002922434212922434        10022026000000000611366000000000                         092000204957000150SILBECK SOFTWARE LTDA                             000000000000000A4                         
1040001300196U 020000000000000000000000000000000000000000000000000000000000000000000000000000000000000000000000000000000000000000000000000602202600000000000006022026000000000000000                              00000000000000000000000       
1040001300197T 020000004910850000000   14999000002922439312922439        10022026000000000490940000000000                         092053481742000142BAGGIO ASSESSORIA EMPRESARIAL LTDA                000000000000000                           
1040001300198U 020000000000000000000000000000000000000000000000000000000000000000000000000000000000000000000000000000000000000000000000000602202600000000000006022026000000000000000                              00000000000000000000000       
1040001300199T 020000004910850000000   14999000002922451212922451        10022026000000001825935000000000                         092000204957000150SILBECK SOFTWARE LTDA                             000000000000000A4                         
1040001300200U 020000000000000000000000000000000000000000000000000000000000000000000000000000000000000000000000000000000000000000000000000602202600000000000006022026000000000000000                              00000000000000000000000       
1040001300201T 020000004910850000000   14999000002922466012922466        10022026000000000277899000000000                         092032015811000152DUTRA PRE MOLDADOS LTDA                           000000000000000A4                         
1040001300202U 020000000000000000000000000000000000000000000000000000000000000000000000000000000000000000000000000000000000000000000000000602202600000000000006022026000000000000000                              00000000000000000000000       
1040001300203T 020000004910850000000   14999000002924217012924217        06022026000000000016303000000000                         091000006388089950GABRIELA HEIDEMANN                                000000000000000                           
1040001300204U 020000000000000000000000000000000000000000000000000000000000000000000000000000000000000000000000000000000000000000000000000602202600000000000006022026000000000000000                              00000000000000000000000       
1040001300205T 020000004910850000000   14999000002924218912924218        06032026000000000058696000000000                         092047926499000126MAIA GASTROBAR LTDA                               000000000000000A4                         
1040001300206U 020000000000000000000000000000000000000000000000000000000000000000000000000000000000000000000000000000000000000000000000000602202600000000000006022026000000000000000                              00000000000000000000000       
1040001300207T 020000004910850000000   14999000002924219712924219        06042026000000000058697000000000                         092047926499000126MAIA GASTROBAR LTDA                               000000000000000A4                         
1040001300208U 020000000000000000000000000000000000000000000000000000000000000000000000000000000000000000000000000000000000000000000000000602202600000000000006022026000000000000000                              00000000000000000000000       
1040001300209T 020000004910850000000   14999000002924220012924220        06052026000000000058697000000000                         092047926499000126MAIA GASTROBAR LTDA                               000000000000000A4                         
1040001300210U 020000000000000000000000000000000000000000000000000000000000000000000000000000000000000000000000000000000000000000000000000602202600000000000006022026000000000000000                              00000000000000000000000       
1040001300211T 020000004910850000000   14999000002924221912924221        05062026000000000058697000000000                         092047926499000126MAIA GASTROBAR LTDA                               000000000000000A4                         
1040001300212U 020000000000000000000000000000000000000000000000000000000000000000000000000000000000000000000000000000000000000000000000000602202600000000000006022026000000000000000                              00000000000000000000000       
1040001300213T 020000004910850000000   14999000002924222712924222        06022026000000000034420000000000                         092047926499000126MAIA GASTROBAR LTDA                               000000000000000                           
1040001300214U 020000000000000000000000000000000000000000000000000000000000000000000000000000000000000000000000000000000000000000000000000602202600000000000006022026000000000000000                              00000000000000000000000       
1040001300215T 020000004910850000000   14999000002924223512924223        06032026000000000080508000000000                         092041349769000105SERGIO LUIS MARIOT 87065240959                    000000000000000A4                         
1040001300216U 020000000000000000000000000000000000000000000000000000000000000000000000000000000000000000000000000000000000000000000000000602202600000000000006022026000000000000000                              00000000000000000000000       
1040001300217T 020000004910850000000   14999000002924224312924224        06032026000000000088266000000000                         09206026075500015760.260.755 JUSSARA FRANCISCO VICTORINO            000000000000000A4                         
1040001300218U 020000000000000000000000000000000000000000000000000000000000000000000000000000000000000000000000000000000000000000000000000602202600000000000006022026000000000000000                              00000000000000000000000       
1040001300219T 020000004910850000000   14999000002924225112924225        06032026000000000312079000000000                         092026213195000141TIAGO SEBASTIAO                                   000000000000000A4                         
1040001300220U 020000000000000000000000000000000000000000000000000000000000000000000000000000000000000000000000000000000000000000000000000602202600000000000006022026000000000000000                              00000000000000000000000       
1040001300221T 020000004910850000000   14999000002924226012924226        06032026000000000069778000000000                         092026213195000141TIAGO SEBASTIAO                                   000000000000000A4                         
1040001300222U 020000000000000000000000000000000000000000000000000000000000000000000000000000000000000000000000000000000000000000000000000602202600000000000006022026000000000000000                              00000000000000000000000       
1040001300223T 020000004910850000000   14999000002924227812924227        06032026000000000034116000000000                         092028754618000166CENTRO EMPRESARIAL DE SAUDE LA DAMA BRAC          000000000000000A4                         
1040001300224U 020000000000000000000000000000000000000000000000000000000000000000000000000000000000000000000000000000000000000000000000000602202600000000000006022026000000000000000                              00000000000000000000000       
1040001300225T 020000004910850000000   14999000002924228612924228        06042026000000000034114000000000                         092028754618000166CENTRO EMPRESARIAL DE SAUDE LA DAMA BRAC          000000000000000A4                         
1040001300226U 020000000000000000000000000000000000000000000000000000000000000000000000000000000000000000000000000000000000000000000000000602202600000000000006022026000000000000000                              00000000000000000000000       
1040001300227T 020000004910850000000   14999000002924229412924229        06052026000000000034114000000000                         092028754618000166CENTRO EMPRESARIAL DE SAUDE LA DAMA BRAC          000000000000000A4                         
1040001300228U 020000000000000000000000000000000000000000000000000000000000000000000000000000000000000000000000000000000000000000000000000602202600000000000006022026000000000000000                              00000000000000000000000       
1040001300229T 020000004910850000000   14999000002924230812924230        05062026000000000034114000000000                         092028754618000166CENTRO EMPRESARIAL DE SAUDE LA DAMA BRAC          000000000000000A4                         
1040001300230U 020000000000000000000000000000000000000000000000000000000000000000000000000000000000000000000000000000000000000000000000000602202600000000000006022026000000000000000                              00000000000000000000000       
1040001300231T 020000004910850000000   14999000002924231612924231        06032026000000000013866000000000                         092028754618000166CENTRO EMPRESARIAL DE SAUDE LA DAMA BRAC          000000000000000A4                         
1040001300232U 020000000000000000000000000000000000000000000000000000000000000000000000000000000000000000000000000000000000000000000000000602202600000000000006022026000000000000000                              00000000000000000000000       
1040001300233T 020000004910850000000   14999000002924232412924232        10022026000000000074095000000000                         092008043677000119COMPRA CERTA COMERCIO DE VEICULOS E MOTO          000000000000000A4                         
1040001300234U 020000000000000000000000000000000000000000000000000000000000000000000000000000000000000000000000000000000000000000000000000602202600000000000006022026000000000000000                              00000000000000000000000       
1040001300235T 020000004910850000000   14999000002924233212924233        06032026000000000145004000000000                         09205578853900014955.788.539 CRISTIANI VANDERLINDE DA ROSA          000000000000000                           
1040001300236U 020000000000000000000000000000000000000000000000000000000000000000000000000000000000000000000000000000000000000000000000000602202600000000000006022026000000000000000                              00000000000000000000000       
1040001300237T 020000004910850000000   14999000002924234012924234        06032026000000000123509000000000                         092041650745000183DMAQUI INDUSTRIA E COMERCIO DE MAQUINAS           000000000000000                           
1040001300238U 020000000000000000000000000000000000000000000000000000000000000000000000000000000000000000000000000000000000000000000000000602202600000000000006022026000000000000000                              00000000000000000000000       
1040001300239T 020000004910850000000   14999000002924235912924235        06022026000000000022756000000000                         092051760669000112ATELIE DOCE LOUCURA LTDA                          000000000000000                           
1040001300240U 020000000000000000000000000000000000000000000000000000000000000000000000000000000000000000000000000000000000000000000000000602202600000000000006022026000000000000000                              00000000000000000000000       
1040001300241T 020000004910850000000   14999000002924236712924236        06022026000000000017252000000000                         092051760669000112ATELIE DOCE LOUCURA LTDA                          000000000000000                           
1040001300242U 020000000000000000000000000000000000000000000000000000000000000000000000000000000000000000000000000000000000000000000000000602202600000000000006022026000000000000000                              00000000000000000000000       
1040001300243T 020000004910850000000   14999000002924237512924237        06022026000000000001738000000000                         092029212486000294PIZOLAR - PIZONI MATERIAIS DE CONSTRUCAO          000000000000000                           
1040001300244U 020000000000000000000000000000000000000000000000000000000000000000000000000000000000000000000000000000000000000000000000000602202600000000000006022026000000000000000                              00000000000000000000000       
1040001300245T 020000004910850000000   14999000002924238312924238        06022026000000000038530000000000                         092029212486000294PIZOLAR - PIZONI MATERIAIS DE CONSTRUCAO          000000000000000                           
1040001300246U 020000000000000000000000000000000000000000000000000000000000000000000000000000000000000000000000000000000000000000000000000602202600000000000006022026000000000000000                              00000000000000000000000       
1040001300247T 020000004910850000000   14999000002924245612924245        06032026000000000038767000000000                         091000003704540900CHAHANE COSTA FARACO                              000000000000000                           
1040001300248U 020000000000000000000000000000000000000000000000000000000000000000000000000000000000000000000000000000000000000000000000000602202600000000000006022026000000000000000                              00000000000000000000000       
1040001300249T 020000004910850000000   14999000002924246412924246        06042026000000000038765000000000                         091000003704540900CHAHANE COSTA FARACO                              000000000000000                           
1040001300250U 020000000000000000000000000000000000000000000000000000000000000000000000000000000000000000000000000000000000000000000000000602202600000000000006022026000000000000000                              00000000000000000000000       
1040001300251T 020000004910850000000   14999000002924247212924247        06052026000000000038765000000000                         091000003704540900CHAHANE COSTA FARACO                              000000000000000                           
1040001300252U 020000000000000000000000000000000000000000000000000000000000000000000000000000000000000000000000000000000000000000000000000602202600000000000006022026000000000000000                              00000000000000000000000       
1040001300253T 020000004910850000000   14999000002924248012924248        05062026000000000038765000000000                         091000003704540900CHAHANE COSTA FARACO                              000000000000000                           
1040001300254U 020000000000000000000000000000000000000000000000000000000000000000000000000000000000000000000000000000000000000000000000000602202600000000000006022026000000000000000                              00000000000000000000000       
1040001300255T 020000004910850000000   14999000002924249912924249        06032026000000000076756000000000                         091000003704540900CHAHANE COSTA FARACO                              000000000000000                           
1040001300256U 020000000000000000000000000000000000000000000000000000000000000000000000000000000000000000000000000000000000000000000000000602202600000000000006022026000000000000000                              00000000000000000000000       
1040001300257T 020000004910850000000   14999000002924250212924250        06032026000000000021958000000000                         091000003704540900CHAHANE COSTA FARACO                              000000000000000                           
1040001300258U 020000000000000000000000000000000000000000000000000000000000000000000000000000000000000000000000000000000000000000000000000602202600000000000006022026000000000000000                              00000000000000000000000       
1040001300259T 020000004910850000000   14999000002924251012924251        06042026000000000021959000000000                         091000003704540900CHAHANE COSTA FARACO                              000000000000000                           
1040001300260U 020000000000000000000000000000000000000000000000000000000000000000000000000000000000000000000000000000000000000000000000000602202600000000000006022026000000000000000                              00000000000000000000000       
1040001300261T 020000004910850000000   14999000002924252912924252        06052026000000000021959000000000                         091000003704540900CHAHANE COSTA FARACO                              000000000000000                           
1040001300262U 020000000000000000000000000000000000000000000000000000000000000000000000000000000000000000000000000000000000000000000000000602202600000000000006022026000000000000000                              00000000000000000000000       
1040001300263T 020000004910850000000   14999000002924253712924253        05062026000000000021959000000000                         091000003704540900CHAHANE COSTA FARACO                              000000000000000                           
1040001300264U 020000000000000000000000000000000000000000000000000000000000000000000000000000000000000000000000000000000000000000000000000602202600000000000006022026000000000000000                              00000000000000000000000       
1040001300265T 020000004910850000000   14999000002924254512924254        06032026000000000043342000000000                         092044859975000145MP INSTALACOES HIDRAULICAS LTDA                   000000000000000                           
1040001300266U 020000000000000000000000000000000000000000000000000000000000000000000000000000000000000000000000000000000000000000000000000602202600000000000006022026000000000000000                              00000000000000000000000       
1040001300267T 020000004910850000000   14999000002924255312924255        06042026000000000043344000000000                         092044859975000145MP INSTALACOES HIDRAULICAS LTDA                   000000000000000                           
1040001300268U 020000000000000000000000000000000000000000000000000000000000000000000000000000000000000000000000000000000000000000000000000602202600000000000006022026000000000000000                              00000000000000000000000       
1040001300269T 020000004910850000000   14999000002924256112924256        06052026000000000043344000000000                         092044859975000145MP INSTALACOES HIDRAULICAS LTDA                   000000000000000                           
1040001300270U 020000000000000000000000000000000000000000000000000000000000000000000000000000000000000000000000000000000000000000000000000602202600000000000006022026000000000000000                              00000000000000000000000       
1040001300271T 020000004910850000000   14999000002924257012924257        05062026000000000043344000000000                         092044859975000145MP INSTALACOES HIDRAULICAS LTDA                   000000000000000                           
1040001300272U 020000000000000000000000000000000000000000000000000000000000000000000000000000000000000000000000000000000000000000000000000602202600000000000006022026000000000000000                              00000000000000000000000       
1040001300273T 020000004910850000000   14999000002924258812924258        06022026000000000046216000000000                         092044859975000145MP INSTALACOES HIDRAULICAS LTDA                   000000000000000                           
1040001300274U 020000000000000000000000000000000000000000000000000000000000000000000000000000000000000000000000000000000000000000000000000602202600000000000006022026000000000000000                              00000000000000000000000       
1040001300275T 020000004910850000000   14999000002924259612924259        06022026000000000012135000000000                         091000077740246972DAURI BLOEMER                                     000000000000000                           
1040001300276U 020000000000000000000000000000000000000000000000000000000000000000000000000000000000000000000000000000000000000000000000000602202600000000000006022026000000000000000                              00000000000000000000000       
1040001300277T 020000004910850000000   14999000002924260012924260        06032026000000000099829000000000                         092051012734000121LILIAN MEDICA VETERINARIA LTDA                    000000000000000                           
1040001300278U 020000000000000000000000000000000000000000000000000000000000000000000000000000000000000000000000000000000000000000000000000602202600000000000006022026000000000000000                              00000000000000000000000       
1040001300279T 020000004910850000000   14999000002924261812924261        06032026000000000031195000000000                         092051012734000121LILIAN MEDICA VETERINARIA LTDA                    000000000000000                           
1040001300280U 020000000000000000000000000000000000000000000000000000000000000000000000000000000000000000000000000000000000000000000000000602202600000000000006022026000000000000000                              00000000000000000000000       
1040001300281T 020000004910850000000   14999000002924262612924262        06042026000000000031197000000000                         092051012734000121LILIAN MEDICA VETERINARIA LTDA                    000000000000000                           
1040001300282U 020000000000000000000000000000000000000000000000000000000000000000000000000000000000000000000000000000000000000000000000000602202600000000000006022026000000000000000                              00000000000000000000000       
1040001300283T 020000004910850000000   14999000002924263412924263        06052026000000000031197000000000                         092051012734000121LILIAN MEDICA VETERINARIA LTDA                    000000000000000                           
1040001300284U 020000000000000000000000000000000000000000000000000000000000000000000000000000000000000000000000000000000000000000000000000602202600000000000006022026000000000000000                              00000000000000000000000       
1040001300285T 020000004910850000000   14999000002924264212924264        05062026000000000031197000000000                         092051012734000121LILIAN MEDICA VETERINARIA LTDA                    000000000000000                           
1040001300286U 020000000000000000000000000000000000000000000000000000000000000000000000000000000000000000000000000000000000000000000000000602202600000000000006022026000000000000000                              00000000000000000000000       
1040001300287T 020000004910850000000   14999000002924265012924265        05032026000000000011723000000000                         092051012734000121LILIAN MEDICA VETERINARIA LTDA                    000000000000000                           
1040001300288U 020000000000000000000000000000000000000000000000000000000000000000000000000000000000000000000000000000000000000000000000000602202600000000000006022026000000000000000                              00000000000000000000000       
1040001300289T 020000004910850000000   14999000002924266912924266        06032026000000000225117000000000                         092051465948000153JAMILLE DE MEIRA RIBEIRO LTDA                     000000000000000A4                         
1040001300290U 020000000000000000000000000000000000000000000000000000000000000000000000000000000000000000000000000000000000000000000000000602202600000000000006022026000000000000000                              00000000000000000000000       
1040001300291T 020000004910850000000   14999000002924267712924267        06022026000000000326745000000000                         092051465948000153JAMILLE DE MEIRA RIBEIRO LTDA                     000000000000000                           
1040001300292U 020000000000000000000000000000000000000000000000000000000000000000000000000000000000000000000000000000000000000000000000000602202600000000000006022026000000000000000                              00000000000000000000000       
1040001300293T 020000004910850000000   14999000002924268512924268        06032026000000000126057000000000                         092044044510000136RBB CURSOS E TREINAMENTOS EMPRESARIAIS L          000000000000000                           
1040001300294U 020000000000000000000000000000000000000000000000000000000000000000000000000000000000000000000000000000000000000000000000000602202600000000000006022026000000000000000                              00000000000000000000000       
1040001300295T 020000004910850000000   14999000002924269312924269        06032026000000000024422000000000                         092044044510000136RBB CURSOS E TREINAMENTOS EMPRESARIAIS L          000000000000000                           
1040001300296U 020000000000000000000000000000000000000000000000000000000000000000000000000000000000000000000000000000000000000000000000000602202600000000000006022026000000000000000                              00000000000000000000000       
1040001300297T 020000004910850000000   14999000002924270712924270        06032026000000000112025000000000                         092037860522000173CINARA ROSA DA SILVA                              000000000000000A4                         
1040001300298U 020000000000000000000000000000000000000000000000000000000000000000000000000000000000000000000000000000000000000000000000000602202600000000000006022026000000000000000                              00000000000000000000000       
1040001300299T 020000004910850000000   14999000002924271512924271        06032026000000000010613000000000                         092037860522000173CINARA ROSA DA SILVA                              000000000000000A4                         
1040001300300U 020000000000000000000000000000000000000000000000000000000000000000000000000000000000000000000000000000000000000000000000000602202600000000000006022026000000000000000                              00000000000000000000000       
1040001300301T 020000004910850000000   14999000002924272312924272        06022026000000000116398000000000                         092015567786000109ART EMPREENDIMENTOS IMOBILIARIOS LTDA             000000000000000                           
1040001300302U 020000000000000000000000000000000000000000000000000000000000000000000000000000000000000000000000000000000000000000000000000602202600000000000006022026000000000000000                              00000000000000000000000       
1040001300303T 020000004910850000000   14999000002924273112924273        06022026000000000158804000000000                         092015567786000109ART EMPREENDIMENTOS IMOBILIARIOS LTDA             000000000000000                           
1040001300304U 020000000000000000000000000000000000000000000000000000000000000000000000000000000000000000000000000000000000000000000000000602202600000000000006022026000000000000000                              00000000000000000000000       
1040001300305T 020000004910850000000   14999000002924274012924274        06022026000000000012690000000000                         092076341403000166ISIDORO FELDHAUS SCHLICKMANN LTDA                 000000000000000                           
1040001300306U 020000000000000000000000000000000000000000000000000000000000000000000000000000000000000000000000000000000000000000000000000602202600000000000006022026000000000000000                              00000000000000000000000       
1040001300307T 020000004910850000000   14999000002924275812924275        10022026000000000011520000000000                         092076341403000166ISIDORO FELDHAUS SCHLICKMANN LTDA                 000000000000000                           
1040001300308U 020000000000000000000000000000000000000000000000000000000000000000000000000000000000000000000000000000000000000000000000000602202600000000000006022026000000000000000                              00000000000000000000000       
1040001300309T 020000004910850000000   14999000002924276612924276        06022026000000000031561000000000                         092076341403000166ISIDORO FELDHAUS SCHLICKMANN LTDA                 000000000000000                           
1040001300310U 020000000000000000000000000000000000000000000000000000000000000000000000000000000000000000000000000000000000000000000000000602202600000000000006022026000000000000000                              00000000000000000000000       
1040001300311T 020000004910850000000   14999000002924277412924277        06032026000000000135941000000000                         092076341403000166ISIDORO FELDHAUS SCHLICKMANN LTDA                 000000000000000                           
1040001300312U 020000000000000000000000000000000000000000000000000000000000000000000000000000000000000000000000000000000000000000000000000602202600000000000006022026000000000000000                              00000000000000000000000       
1040001300313T 020000004910850000000   14999000002924278212924278        06032026000000000013864000000000                         092076341403000166ISIDORO FELDHAUS SCHLICKMANN LTDA                 000000000000000                           
1040001300314U 020000000000000000000000000000000000000000000000000000000000000000000000000000000000000000000000000000000000000000000000000602202600000000000006022026000000000000000                              00000000000000000000000       
1040001300315T 020000004910850000000   14999000002924279012924279        06032026000000000110658000000000                         09205921584400010059.215.844 EVANIR EFFTING WARMLING PHILI          000000000000000                           
1040001300316U 020000000000000000000000000000000000000000000000000000000000000000000000000000000000000000000000000000000000000000000000000602202600000000000006022026000000000000000                              00000000000000000000000       
1040001300317T 020000004910850000000   14999000002924280412924280        06022026000000000053952000000000                         091000090987675915NEI ALEXANDRE DE BONA                             000000000000000                           
1040001300318U 020000000000000000000000000000000000000000000000000000000000000000000000000000000000000000000000000000000000000000000000000602202600000000000006022026000000000000000                              00000000000000000000000       
1040001300319T 020000004910850000000   14999000002924281212924281        06032026000000000024422000000000                         092013990900000175BDNMIX CURSOS PROFISSIONALIZANTES LTDA            000000000000000A4                         
1040001300320U 020000000000000000000000000000000000000000000000000000000000000000000000000000000000000000000000000000000000000000000000000602202600000000000006022026000000000000000                              00000000000000000000000       
1040001300321T 020000004910850000000   14999000002924282012924282        06032026000000000229194000000000                         092013990900000175BDNMIX CURSOS PROFISSIONALIZANTES LTDA            000000000000000A4                         
1040001300322U 020000000000000000000000000000000000000000000000000000000000000000000000000000000000000000000000000000000000000000000000000602202600000000000006022026000000000000000                              00000000000000000000000       
1040001300323T 020000004910850000000   14999000002924283912924283        06032026000000000127625000000000                         092064922794000123RESIDENCIAL LEGACY TOWER SPE LTDA                 000000000000000                           
1040001300324U 020000000000000000000000000000000000000000000000000000000000000000000000000000000000000000000000000000000000000000000000000602202600000000000006022026000000000000000                              00000000000000000000000       
1040001300325T 020000004910850000000   14999000002924284712924284        06032026000000000156631000000000                         092046498704000137ESPLENDOR  RESIDENCIAL SPE LTDA                   000000000000000                           
1040001300326U 020000000000000000000000000000000000000000000000000000000000000000000000000000000000000000000000000000000000000000000000000602202600000000000006022026000000000000000                              00000000000000000000000       
1040001300327T 020000004910850000000   14999000002924285512924285        06032026000000000156631000000000                         092057078807000164HORIZON RESIDENCIAL SPE LTDA                      000000000000000                           
1040001300328U 020000000000000000000000000000000000000000000000000000000000000000000000000000000000000000000000000000000000000000000000000602202600000000000006022026000000000000000                              00000000000000000000000       
1040001300329T 020000004910850000000   14999000002924286312924286        06022026000000000083161000000000                         091000004397683905EDILZA FARIAS MACHADO                             000000000000000                           
1040001300330U 020000000000000000000000000000000000000000000000000000000000000000000000000000000000000000000000000000000000000000000000000602202600000000000006022026000000000000000                              00000000000000000000000       
1040001300331T 020000004910850000000   14999000002924287112924287        06032026000000000024422000000000                         092013783856000122JTECNO DIESEL LTDA                                000000000000000A4                         
1040001300332U 020000000000000000000000000000000000000000000000000000000000000000000000000000000000000000000000000000000000000000000000000602202600000000000006022026000000000000000                              00000000000000000000000       
1040001300333T 020000004910850000000   14999000002924288012924288        06032026000000000226958000000000                         092013783856000122JTECNO DIESEL LTDA                                000000000000000A4                         
1040001300334U 020000000000000000000000000000000000000000000000000000000000000000000000000000000000000000000000000000000000000000000000000602202600000000000006022026000000000000000                              00000000000000000000000       
1040001300335T 020000004910850000000   14999000002924289812924289        06032026000000000057635000000000                         092007944202000130NEW LASER - INFORMATICA E REMANUFATURADO          000000000000000                           
1040001300336U 020000000000000000000000000000000000000000000000000000000000000000000000000000000000000000000000000000000000000000000000000602202600000000000006022026000000000000000                              00000000000000000000000       
1040001300337T 020000004910850000000   14999000002924290112924290        06042026000000000057635000000000                         092007944202000130NEW LASER - INFORMATICA E REMANUFATURADO          000000000000000                           
1040001300338U 020000000000000000000000000000000000000000000000000000000000000000000000000000000000000000000000000000000000000000000000000602202600000000000006022026000000000000000                              00000000000000000000000       
1040001300339T 020000004910850000000   14999000002924291012924291        06052026000000000057635000000000                         092007944202000130NEW LASER - INFORMATICA E REMANUFATURADO          000000000000000                           
1040001300340U 020000000000000000000000000000000000000000000000000000000000000000000000000000000000000000000000000000000000000000000000000602202600000000000006022026000000000000000                              00000000000000000000000       
1040001300341T 020000004910850000000   14999000002924292812924292        05062026000000000057635000000000                         092007944202000130NEW LASER - INFORMATICA E REMANUFATURADO          000000000000000                           
1040001300342U 020000000000000000000000000000000000000000000000000000000000000000000000000000000000000000000000000000000000000000000000000602202600000000000006022026000000000000000                              00000000000000000000000       
1040001300343T 020000004910850000000   14999000002930332312930332        10022026000000000055735000000000                         092002831172011681KOCH HIPERMERCADO S/A                             000000000000000A4                         
1040001300344U 020000000000000000000000000000000000000000000000000000000000000000000000000000000000000000000000000000000000000000000000000602202600000000000006022026000000000000000                              00000000000000000000000       
1040001300345T 020000004910850000000   14999000002930356012930356        10022026000000000018499000000000                         092086829827000128COOPERATIVA DE CREDITO DE LIVRE ADMISSAO          000000000000000                           
1040001300346U 020000000000000000000000000000000000000000000000000000000000000000000000000000000000000000000000000000000000000000000000000602202600000000000006022026000000000000000                              00000000000000000000000       
1040001300347T 020000004910850000000   14999000002930361712930361        10022026000000000058594000000000                         092004344096000166INDUSTRIA E COMERCIO DE LATICINIOS DE MA          000000000000000A4                         
1040001300348U 020000000000000000000000000000000000000000000000000000000000000000000000000000000000000000000000000000000000000000000000000602202600000000000006022026000000000000000                              00000000000000000000000       
1040001300349T 020000004910850000000   14999000002930368412930368        10022026000000000190688000000000                         092083845701000159TRIBUNAL DE JUSTICA SC                            000000000000000                           
1040001300350U 020000000000000000000000000000000000000000000000000000000000000000000000000000000000000000000000000000000000000000000000000602202600000000000006022026000000000000000                              00000000000000000000000       
1040001300351T 020000004910850000000   14999000002930372212930372        10022026000000000119168000000000                         092041744660000164RESIDENCIAL MILANO SPE LTDA                       000000000000000                           
1040001300352U 020000000000000000000000000000000000000000000000000000000000000000000000000000000000000000000000000000000000000000000000000602202600000000000006022026000000000000000                              00000000000000000000000       
1040001300353T 020000004910850000000   14999000002930373012930373        10022026000000000064212000000000                         092000075847000801COOPERATIVA DE CREDITO CENTRO SUL LTDA -          000000000000000                           
1040001300354U 020000000000000000000000000000000000000000000000000000000000000000000000000000000000000000000000000000000000000000000000000602202600000000000006022026000000000000000                              00000000000000000000000       
1040001300355T 020000004910850000000   14999000002930379012930379        10022026000000000014421000000000                         092007210863000132RICKEN ALIMENTOS LTDA                             000000000000000A4                         
1040001300356U 020000000000000000000000000000000000000000000000000000000000000000000000000000000000000000000000000000000000000000000000000602202600000000000006022026000000000000000                              00000000000000000000000       
1040001300357T 020000004910850000000   14999000002930401012930401        10022026000000000775933000000000                         092000360305107090CAIXA ECONOMICA FEDERAL                           000000000000000                           
1040001300358U 020000000000000000000000000000000000000000000000000000000000000000000000000000000000000000000000000000000000000000000000000602202600000000000006022026000000000000000                              00000000000000000000000       
1040001300359T 020000004910850000000   14999000002930403612930403        10022026000000000000500000000000                         092004742267000105CASA DO PICA-PAU MAQUINAS AGRICOLAS LTDA          000000000000000A4                         
1040001300360U 020000000000000000000000000000000000000000000000000000000000000000000000000000000000000000000000000000000000000000000000000602202600000000000006022026000000000000000                              00000000000000000000000       
1040001300361T 020000004910850000000   14999000002930409512930409        10022026000000001374810000000000                         091000052305945949MARIA GORETI KUERTEN COSTA                        000000000000000A4                         
1040001300362U 020000000000000000000000000000000000000000000000000000000000000000000000000000000000000000000000000000000000000000000000000602202600000000000006022026000000000000000                              00000000000000000000000       
1040001300363T 020000004910850000000   14999000002930411712930411        10022026000000001355032000000000                         092000000000073822BANCO DO BRASIL S/A                               000000000000000                           
1040001300364U 020000000000000000000000000000000000000000000000000000000000000000000000000000000000000000000000000000000000000000000000000602202600000000000006022026000000000000000                              00000000000000000000000       
1040001300365T 020000004910850000000   14999000002930420612930420        10022026000000002003531000000000                         092043489766000275ATACADO VENCEDOR LTDA                             000000000000000A4                         
1040001300366U 020000000000000000000000000000000000000000000000000000000000000000000000000000000000000000000000000000000000000000000000000602202600000000000006022026000000000000000                              00000000000000000000000       
1040001300367T 020000004910850000000   14999000002930431112930431        10022026000000000010574000000000                         092008336783000190CELESC DISTRIBUICAO S.A.                          000000000000000A4                         
1040001300368U 020000000000000000000000000000000000000000000000000000000000000000000000000000000000000000000000000000000000000000000000000602202600000000000006022026000000000000000                              00000000000000000000000       
1040001300369T 020000004910850000000   14999000002930433812930433        10022026000000000011967000000000                         092008336783000514CELESC DISTRIBUICAO S.A.                          000000000000000                           
1040001300370U 020000000000000000000000000000000000000000000000000000000000000000000000000000000000000000000000000000000000000000000000000602202600000000000006022026000000000000000                              00000000000000000000000       
1040001300371T 020000004910850000000   14999000002930434612930434        10022026000000000001080000000000                         092010343816000171LATICINIOS ESTRELA DO CAMPO LTDA                  000000000000000A4                         
1040001300372U 020000000000000000000000000000000000000000000000000000000000000000000000000000000000000000000000000000000000000000000000000602202600000000000006022026000000000000000                              00000000000000000000000       
1040001300373T 020000004910850000000   14999000002930435412930435        10022026000000000000811000000000                         092003839524000169RADIO NOVO SECULO LTDA                            000000000000000A4                         
1040001300374U 020000000000000000000000000000000000000000000000000000000000000000000000000000000000000000000000000000000000000000000000000602202600000000000006022026000000000000000                              00000000000000000000000       
1040001300375T 020000004910850000000   14999000002930437012930437        10022026000000000829688000000000                         092000360305107090CAIXA ECONOMICA FEDERAL                           000000000000000                           
1040001300376U 020000000000000000000000000000000000000000000000000000000000000000000000000000000000000000000000000000000000000000000000000602202600000000000006022026000000000000000                              00000000000000000000000       
1040001300377T 020000004910850000000   14999000002930438912930438        10022026000000000617238000000000                         092007210863000485RICKEN ALIMENTOS LTDA                             000000000000000                           
1040001300378U 020000000000000000000000000000000000000000000000000000000000000000000000000000000000000000000000000000000000000000000000000602202600000000000006022026000000000000000                              00000000000000000000000       
1040001300379T 020000004910850000000   14999000002934804112934804        10022026000000000469143000000000                         092058489844000128VILLE POSITANO RESIDENCIAL SPE LTDA               000000000000000A4                         
1040001300380U 020000000000000000000000000000000000000000000000000000000000000000000000000000000000000000000000000000000000000000000000000602202600000000000006022026000000000000000                              00000000000000000000000       
1040001300381T 020000004910850000000   14999000002934808412934808        10022026000000000001405000000000                         092052802223000176CERVEJARIA BRACONORTENSE LTDA                     000000000000000A4                         
1040001300382U 020000000000000000000000000000000000000000000000000000000000000000000000000000000000000000000000000000000000000000000000000602202600000000000006022026000000000000000                              00000000000000000000000       
1040001300383T 020000004910850000000   14999000002934810612934810        10022026000000000267540000000000                         092000075847000801COOPERATIVA DE CREDITO CENTRO SUL LTDA -          000000000000000                           
1040001300384U 020000000000000000000000000000000000000000000000000000000000000000000000000000000000000000000000000000000000000000000000000602202600000000000006022026000000000000000                              00000000000000000000000       
1040001300385T 020000004910850000000   14999000002934812212934812        10022026000000000005883000000000                         092001069357000199FRIGORIFICO EING LTDA                             000000000000000A4                         
1040001300386U 020000000000000000000000000000000000000000000000000000000000000000000000000000000000000000000000000000000000000000000000000602202600000000000006022026000000000000000                              00000000000000000000000       
1040001300387T 020000004910850000000   14999000002934814912934814        10022026000000000050860000000000                         092015263732000494CONSTRUTORA CECHINEL E PIZZOLATTI LTDA            000000000000000                           
1040001300388U 020000000000000000000000000000000000000000000000000000000000000000000000000000000000000000000000000000000000000000000000000602202600000000000006022026000000000000000                              00000000000000000000000       
1040001300389T 020000004910850000000   14999000002934819012934819        10022026000000000112071000000000                         092076276849000154MINISTERIO PUBLICO DO ESTADO DE SANTA CA          000000000000000                           
1040001300390U 020000000000000000000000000000000000000000000000000000000000000000000000000000000000000000000000000000000000000000000000000602202600000000000006022026000000000000000                              00000000000000000000000       
1040001300391T 020000004910850000000   14999000002934820312934820        10022026000000000013620000000000                         092007958405000348COOPERATIVA DE CREDITO E ECONOMIA COM IN          000000000000000A4                         
1040001300392U 020000000000000000000000000000000000000000000000000000000000000000000000000000000000000000000000000000000000000000000000000602202600000000000006022026000000000000000                              00000000000000000000000       
1040001300393T 020000004910850000000   14999000002934823812934823        10022026000000000033532000000000                         092007958405000348COOPERATIVA DE CREDITO E ECONOMIA COM IN          000000000000000A4                         
1040001300394U 020000000000000000000000000000000000000000000000000000000000000000000000000000000000000000000000000000000000000000000000000602202600000000000006022026000000000000000                              00000000000000000000000       
1040001300395T 020000004910850000000   14999000002934826212934826        10022026000000000037605000000000                         092049996727000160COELHO EMPREENDIMENTOS IMOBILIARIOS LTDA          000000000000000                           
1040001300396U 020000000000000000000000000000000000000000000000000000000000000000000000000000000000000000000000000000000000000000000000000602202600000000000006022026000000000000000                              00000000000000000000000       
1040001300397T 020000004910850000000   14999000002934827012934827        10022026000000000490521000000000                         092058489844000128VILLE POSITANO RESIDENCIAL SPE LTDA               000000000000000A4                         
1040001300398U 020000000000000000000000000000000000000000000000000000000000000000000000000000000000000000000000000000000000000000000000000602202600000000000006022026000000000000000                              00000000000000000000000       
1040001300399T 020000004910850000000   14999000002934828912934828        10022026000000000001262000000000                         092005758576000136JANE ALIMENTOS LTDA                               000000000000000                           
1040001300400U 020000000000000000000000000000000000000000000000000000000000000000000000000000000000000000000000000000000000000000000000000602202600000000000006022026000000000000000                              00000000000000000000000       
1040001300401T 020000004910850000000   14999000002935104212935104        06032026000000000011723000000000                         092073243644000184FRIGORIFICO BRS LTDA                              000000000000000A4                         
1040001300402U 020000000000000000000000000000000000000000000000000000000000000000000000000000000000000000000000000000000000000000000000000602202600000000000006022026000000000000000                              00000000000000000000000       
1040001300403T 020000004910850000000   14999000002935105012935105        06032026000000000011723000000000                         092056009225000163MONTISA MONTAGENS E INSTALACAO LTDA               000000000000000A4                         
1040001300404U 020000000000000000000000000000000000000000000000000000000000000000000000000000000000000000000000000000000000000000000000000602202600000000000006022026000000000000000                              00000000000000000000000       
1040001300405T 020000004910850000000   14999000002935156512935156        15102027000000000488584000000000                         091000064207030930ANISIO PERON                                      000000000000000                           
1040001300406U 020000000000000000000000000000000000000000000000000000000000000000000000000000000000000000000000000000000000000000000000000602202600000000000006022026000000000000000                              00000000000000000000000       
1040001300407T 020000004910850000000   14999000002935157312935157        08032026000000000617358000000000                         091000060737239972ESPOLIO DE MARIA WIGGERS BECKHAUSER               000000000000000                           
1040001300408U 020000000000000000000000000000000000000000000000000000000000000000000000000000000000000000000000000000000000000000000000000602202600000000000006022026000000000000000                              00000000000000000000000       
1040001300409T 020000004910850000000   14999000002935158112935158        06032026000000000007753000000000                         091000034233210915JAIR VOLPATO                                      000000000000000                           
1040001300410U 020000000000000000000000000000000000000000000000000000000000000000000000000000000000000000000000000000000000000000000000000602202600000000000006022026000000000000000                              00000000000000000000000       
1040001300411T 020000004910850000000   14999000002935159012935159        06032026000000000007753000000000                         091000008707802986GUILHERME BORGES                                  000000000000000                           
1040001300412U 020000000000000000000000000000000000000000000000000000000000000000000000000000000000000000000000000000000000000000000000000602202600000000000006022026000000000000000                              00000000000000000000000       
