10400000         2829265510001450000000000000000000001070749108500000000MUNICIPIO DE BRACO DO NORTE   C ECON FEDERAL                          20402202601595500193504000000                    RETORNO-PRODUCAO                  000            
10400011T0100030 20829265510001450000000000000000000001070749108500000000MUNICIPIO DE BRACO DO NORTE                                                                                   00001935040220260000000000                          00   
1040001300001T 060000004910850000000   14999000002896090812896090        160220260000000001587012900000002896090                  091000002533814954IVANDIR STAPAZZOLLI                               000000000000199620300                     
1040001300002U 060000000000000000000000000694310000000000000000000000000000000000000000892700000000000892700000000000000000000000000000000402202604022026000004022026000000000000000100002533814954               00000000000000000000000       
1040001300003T 060000004910850000000   14999000002900343512900343        090220260000000002276580000000002900343                  091000077409434953DELSON MORAES                                     000000000000199620300                     
1040001300004U 060000000000000000000000001019370000000000000000000000000000000000000001257210000000001257210000000000000000000000000000000402202604022026000004022026000000000000000000000000000000               00000000000000000000000       
1040001300005T 060000004910850000000   14999000002900344312900344        090320260000000002288640000000002900344                  091000077409434953DELSON MORAES                                     000000000000199620300                     
1040001300006U 060000000000000000000000001019430000000000000000000000000000000000000001269210000000001269210000000000000000000000000000000402202604022026000004022026000000000000000000000000000000               00000000000000000000000       
1040001300007T 060000004910850000000   14999000002903139012903139        160220260000000000209561040107002903139                  091000034508325904MARIA DO CARMO SOETHE MARCELINO                   000000000000199610300                     
1040001300008U 060000000000000000000000000047990000000000000000000000000000000000000000161570000000000161570000000000000000000000000000000402202604022026000004022026000000000000000100034508325904               00000000000000000000000       
1040001300009T 060000004910850000000   14999000002911547012911547        040220260000000003155030010000002911547                  091000000823025969ALINE PACHECO BECKER                              000000000000199620300                     
1040001300010U 060000000000000000000000001336970000000000000000000000000000000000000001818060000000001818060000000000000000000000000000000402202604022026000004022026000000000000000100048651907915               00000000000000000000000       
1040001300011T 060000004910850000000   14999000002930611012930611        010320260000000000389190000000002930611                  092026165617000150SANTA ROSA DE LIMA LOTEAMENTOS LTDA               000000000000199620300                     
1040001300012U 060000000000000000000000000000000000000000000000000000000000000000000000389190000000000389190000000000000000000000000000000402202604022026000004022026000000000000000000000000000000               00000000000000000000000       
1040001300013T 060000004910850000000   14999000002933822412933822        040520260000000006117231040107002933822                  091000008551017926MARCOS MARTINELLI BEZA                            000000000000199610300                     
1040001300014U 060000000000000000000000000000000000000000000000000000000000000000000006117230000000006117230000000000000000000000000000000402202604022026000004022026000000000000000100008551017926               00000000000000000000000       
1040001300015T 060000004910850000000   14999000002934214012934214        060220260000000000379951040107002934214                  091000034233156953ESPOLIO DE BENICIO EFFTING                        000000000000199610300                     
1040001300016U 060000000000000000000000000091190000000000000000000000000000000000000000288760000000000288760000000000000000000000000000000402202604022026000004022026000000000000000100005589400996               00000000000000000000000       
1040001300017T 060000004910850000000   14999000002895980212895980        160220260000000002864151040107002895980                  091000006093514943GRASIELY MEDEIROS ORBEM                           000000000000199060301                     
1040001300018U 060000000000000000000000001057720000000000000000000000000000000000000001806430000000001806430000000000000000000000000000000402202605022026000005022026000000000000000000000000000000               00000000000000000000000       
1040001300019T 060000004910850000000   14999000002900550012900550        090220260000000001394151040107002900550                  091000079617778904VILMOR DELLA GIUSTINA                             000000000000199060301                     
1040001300020U 060000000000000000000000000582850000000000000000000000000000000000000000811300000000000811300000000000000000000000000000000402202605022026000005022026000000000000000000000000000000               00000000000000000000000       
1040001300021T 060000004910850000000   14999000002900551912900551        090320260000000001401951040107002900551                  091000079617778904VILMOR DELLA GIUSTINA                             000000000000199060301                     
1040001300022U 060000000000000000000000000582940000000000000000000000000000000000000000819010000000000819010000000000000000000000000000000402202605022026000005022026000000000000000000000000000000               00000000000000000000000       
1040001300023T 060000004910850000000   14999000002902244812902244        130320260000000000433491040041002902244                  091000060737190949MANOEL CARLOS OURIQUES VIEIRA                     000000000000199020101                     
1040001300024U 060000000000000000000000000099840000000000000000000000000000000000000000333650000000000333650000000000000000000000000000000402202605022026000005022026000000000000000000000000000000               00000000000000000000000       
1040001300025T 060000004910850000000   14999000002903020312903020        160220260000000000265172370033602903020                  092051214452000107STROMBERG SERVICOS LTDA                           000000000000199040301                     
1040001300026U 060000000000000000000000000081760000000000000000000000000000000000000000183410000000000183410000000000000000000000000000000402202605022026000005022026000000000000000100004795675902               00000000000000000000000       
1040001300027T 060000004910850000000   14999000002904342912904342        230220260000000000243967480590502904342                  092061896480000105ULTRALIGHT PRO IMPORTACAO E COMERCIO DE           000000000000199040301                     
1040001300028U 060000000000000000000000000000000000000000000000000000000000000000000000243960000000000243960000000000000000000000000000000402202605022026000005022026000000000000000261896480000105               00000000000000000000000       
1040001300029T 060000004910850000000   14999000002906139712906139        040220260000000000699167480590502906139                  092017168000000106TAFER METALURGICA LTDA                            000000000000199040301                     
1040001300030U 060000000000000000000000000144960000000000000000000000000000000000000000554200000000000554200000000000000000000000000000000402202605022026000005022026000000000000000217168000000106               00000000000000000000000       
1040001300031T 060000004910850000000   14999000002906363212906363        050220260000000000181591040107002906363                  092002915738000104J. S.  ADMINISTRACAO DE BENS MOVEIS E IM          000000000000199060301                     
1040001300032U 060000000000000000000000000033800000000000000000000000000000000000000000147790000000000147790000000000000000000000000000000402202605022026000005022026000000000000000000000000000000               00000000000000000000000       
1040001300033T 060000004910850000000   14999000002906659312906659        090220260000000000243831040107002906659                  091000000371865905ISAAC PIRES DE OLIVEIRA                           000000000000199020101                     
1040001300034U 060000000000000000000000000045540000000000000000000000000000000000000000198290000000000198290000000000000000000000000000000402202605022026000005022026000000000000000000000000000000               00000000000000000000000       
1040001300035T 060000004910850000000   14999000002907475812907475        130220260000000000358570010073802907475                  091000001925760979LUCIANO KOCH AGUIAR                               000000000000199040301                     
1040001300036U 060000000000000000000000000078650000000000000000000000000000000000000000279920000000000279920000000000000000000000000000000402202605022026000005022026000000000000000100001925760979               00000000000000000000000       
1040001300037T 060000004910850000000   14999000002908144412908144        060320260000000000767561360140502908144                  092097442461000156CLINORTE CLINICA DE FISIOTERAPIA LTDA             000000000000199040301                     
1040001300038U 060000000000000000000000000000000000000000000000000000000000000000000000767560000000000767560000000000000000000000000000000402202605022026000005022026000000000000000297442461000156               00000000000000000000000       
1040001300039T 060000004910850000000   14999000002908145212908145        060320260000000001459251360140502908145                  092097442461000156CLINORTE CLINICA DE FISIOTERAPIA LTDA             000000000000199040301                     
1040001300040U 060000000000000000000000000000000000000000000000000000000000000000000001459250000000001459250000000000000000000000000000000402202605022026000005022026000000000000000297442461000156               00000000000000000000000       
1040001300041T 060000004910850000000   14999000002908172012908172        160320260000000000135521040107002908172                  091000044422474987JOSE SCHLICKMANN                                  000000000000199020101                     
1040001300042U 060000000000000000000000000000000000000000000000000000000000000000000000135520000000000135520000000000000000000000000000000402202605022026000005022026000000000000000000000000000000               00000000000000000000000       
1040001300043T 060000004910850000000   14999000002909959912909959        100220260000000003677010010307002909959                  092047960950036401MAGAZINE LUIZA S/A                                000000000000199040301                     
1040001300044U 060000000000000000000000000000000000000000000000000000000000000000000003677010000000003677010000000000000000000000000000000402202605022026000005022026000000000000000247960950000121               00000000000000000000000       
1040001300045T 060000004910850000000   14999000002910975612910975        020320260000000000326171040107002910975                  091000066554713972JOEL DOS SANTOS                                   000000000000199020101                     
1040001300046U 060000000000000000000000000092530000000000000000000000000000000000000000233640000000000233640000000000000000000000000000000402202605022026000005022026000000000000000000000000000000               00000000000000000000000       
1040001300047T 060000004910850000000   14999000002911578012911578        040220260000000000755780010369202911578                  091000067130399953ESPOLIO EDI MICHELS SCHMULLER                     000000000000199040301                     
1040001300048U 060000000000000000000000000246400000000000000000000000000000000000000000509380000000000509380000000000000000000000000000000402202605022026000005022026000000000000000204493610000125               00000000000000000000000       
1040001300049T 060000004910850000000   14999000002913102612913102        040220260000000000178211360140102913102                  092022718436000153FILHOS PEREIRA LTDA                               000000000000199040301                     
1040001300050U 060000000000000000000000000000000000000000000000000000000000000000000000178210000000000178210000000000000000000000000000000402202605022026000005022026000000000000000100002916535969               00000000000000000000000       
1040001300051T 060000004910850000000   14999000002914630912914630        060320260000000002260532370033602914630                  092008362696000108ULIANO & WOSS DESPACHANTE E CORRETORA DE          000000000000199040301                     
1040001300052U 060000000000000000000000000000000000000000000000000000000000000000000002260530000000002260530000000000000000000000000000000402202605022026000005022026000000000000000208362696000108               00000000000000000000000       
1040001300053T 060000004910850000000   14999000002915906012915906        230220260000000000651491330262802915906                  091000008614801980ROGER CARDOZO ROHDEN                              000000000000199040301                     
1040001300054U 060000000000000000000000000189030000000000000000000000000000000000000000462460000000000462460000000000000000000000000000000402202605022026000005022026000000000000000100008614801980               00000000000000000000000       
1040001300055T 060000004910850000000   14999000002916432312916432        260220260000000000546602370033602916432                  091000096658401934EDSON PEDRO ECKHARDT                              000000000000199040101                     
1040001300056U 060000000000000000000000000212820000000000000000000000000000000000000000333780000000000333780000000000000000000000000000000402202605022026000005022026000000000000000200000000000000               00000000000000000000000       
1040001300057T 060000004910850000000   14999000002919096012919096        040220260000000000247242600000102919096                  091000004996403900ELOI MARON IAGAS                                  000000000000199040401                     
1040001300058U 060000000000000000000000000000000000000000000000000000000000000000000000247240000000000247240000000000000000000000000000000402202605022026000005022026000000000000000100009803091905               00000000000000000000000       
1040001300059T 060000004910850000000   14999000002920219512920219        060220260000000001745211040107002920219                  091000087065037991GILVANI BERTIER ALBERTON                          000000000000199020101                     
1040001300060U 060000000000000000000000000000000000000000000000000000000000000000000001745210000000001745210000000000000000000000000000000402202605022026000005022026000000000000000000000000000000               00000000000000000000000       
1040001300061T 060000004910850000000   14999000002922289712922289        100220260000000000100001040107002922289                  092022770941000147MURILO COLONETTI BACK                             000000000000199060401                     
1040001300062U 060000000000000000000000000000000000000000000000000000000000000000000000100000000000000100000000000000000000000000000000000402202605022026000005022026000000000000000000000000000000               00000000000000000000000       
1040001300063T 060000004910850000000   14999000002923061012923061        060320260000000000247651040107002923061                  092041801996000111CLINICA CIRURGICA ODONTOLOGICA BRACO DO           000000000000199020101                     
1040001300064U 060000000000000000000000000000000000000000000000000000000000000000000000247650000000000247650000000000000000000000000000000402202605022026000005022026000000000000000000000000000000               00000000000000000000000       
1040001300065T 060000004910850000000   14999000002923988912923988        040220260000000000205210010534302923988                  092062359319000165JHX PIZZARIA LTDA                                 000000000000199040301                     
1040001300066U 060000000000000000000000000000000000000000000000000000000000000000000000205210000000000205210000000000000000000000000000000402202605022026000005022026000000000000000100009333406999               00000000000000000000000       
1040001300067T 060000004910850000000   14999000002923989712923989        040220260000000000559777480590502923989                  092062359319000165JHX PIZZARIA LTDA                                 000000000000199040301                     
1040001300068U 060000000000000000000000000000000000000000000000000000000000000000000000559770000000000559770000000000000000000000000000000402202605022026000005022026000000000000000262359319000165               00000000000000000000000       
1040001300069T 060000004910850000000   14999000002923992712923992        040220260000000000123427560056502923992                  092014420963000159EMBUTIDOS BIANCA LTDA                             000000000000199040301                     
1040001300070U 060000000000000000000000000000000000000000000000000000000000000000000000123420000000000123420000000000000000000000000000000402202605022026000005022026000000000000000214420963000159               00000000000000000000000       
1040001300071T 060000004910850000000   14999000002923996012923996        040220260000000000247382370033602923996                  092007816318000194GATO 1 TRANSPORTES LTDA                           000000000000199040301                     
1040001300072U 060000000000000000000000000000000000000000000000000000000000000000000000247380000000000247380000000000000000000000000000000402202605022026000005022026000000000000000257256212000151               00000000000000000000000       
1040001300073T 060000004910850000000   14999000002923997812923997        040220260000000000244892370033602923997                  092007816318000194GATO 1 TRANSPORTES LTDA                           000000000000199040301                     
1040001300074U 060000000000000000000000000000000000000000000000000000000000000000000000244890000000000244890000000000000000000000000000000402202605022026000005022026000000000000000257256212000151               00000000000000000000000       
1040001300075T 060000004910850000000   14999000002924029112924029        040220260000000002207911360140502924029                  092060638083000170GARTEN HAUS SCP                                   000000000000199040301                     
1040001300076U 060000000000000000000000000000000000000000000000000000000000000000000002207910000000002207910000000000000000000000000000000402202605022026000005022026000000000000000257751930000102               00000000000000000000000       
1040001300077T 060000004910850000000   14999000002924030512924030        040220260000000000245821360140502924030                  092063860681000188LB LOTEAMENTO VIVER BEM LTDA                      000000000000199040301                     
1040001300078U 060000000000000000000000000000000000000000000000000000000000000000000000245820000000000245820000000000000000000000000000000402202605022026000005022026000000000000000263860681000188               00000000000000000000000       
1040001300079T 060000004910850000000   14999000002924032112924032        040220260000000001994360010073802924032                  092078324514000190GAIDZINSKI EQUIPAMENTOS LTDA                      000000000000199040301                     
1040001300080U 060000000000000000000000000000000000000000000000000000000000000000000001994360000000001994360000000000000000000000000000000402202605022026000005022026000000000000000278324514000190               00000000000000000000000       
1040001300081T 060000004910850000000   14999000002924042912924042        040220260000000000483497560056502924042                  092015625707000160SEBOLD AGRONEGOCIOS LTDA                          000000000000199040301                     
1040001300082U 060000000000000000000000000000000000000000000000000000000000000000000000483490000000000483490000000000000000000000000000000402202605022026000005022026000000000000000250014667000111               00000000000000000000000       
1040001300083T 060000004910850000000   14999000002924050012924050        040220260000000000025950850134202924050                  092007226874000100ARBORE ENGENHARIA E REFLORESTAMENTO LTDA          000000000000199040301                     
1040001300084U 060000000000000000000000000000000000000000000000000000000000000000000000025950000000000025950000000000000000000000000000000402202605022026000005022026000000000000000207226874000100               00000000000000000000000       
1040001300085T 060000004910850000000   14999000002924884512924884        190120280000000000648127560056502924884                  091000006829272955FERNANDA STAPAZZOLLI ROVEDA                       000000000000199040301                     
1040001300086U 060000000000000000000000000000000000000000000000000000000000000000000000648120000000000648120000000000000000000000000000000402202605022026000005022026000000000000000100004909586997               00000000000000000000000       
1040001300087T 060000004910850000000   14999000002924885312924885        200220260000000000130207560056502924885                  091000006829272955FERNANDA STAPAZZOLLI ROVEDA                       000000000000199040301                     
1040001300088U 060000000000000000000000000000000000000000000000000000000000000000000000130200000000000130200000000000000000000000000000000402202605022026000005022026000000000000000100004909586997               00000000000000000000000       
1040001300089T 060000004910850000000   14999000002930212212930212        100220260000000000198833410297802930212                  092030227267000187KANGU TRANSPORTES LTDA                            000000000000199040301                     
1040001300090U 060000000000000000000000000000000000000000000000000000000000000000000000198830000000000198830000000000000000000000000000000402202605022026000005022026000000000000000230227267000187               00000000000000000000000       
1040001300091T 060000004910850000000   14999000002930268812930268        100220260000000026442500010139302930268                  091000006810804935ALAN FELIPE PROVIN                                000000000000199040301                     
1040001300092U 060000000000000000000000000000000000000000000000000000000000000000000026442500000000026442500000000000000000000000000000000402202605022026000005022026000000000000000100006810804935               00000000000000000000000       
1040001300093T 060000004910850000000   14999000002930288212930288        100220260000000000003467560056502930288                  092040170588000146ARMONI SAUDE INTEGRADA LTDA                       000000000000199040301                     
1040001300094U 060000000000000000000000000000000000000000000000000000000000000000000000003460000000000003460000000000000000000000000000000402202605022026000005022026000000000000000240170588000146               00000000000000000000000       
1040001300095T 060000004910850000000   14999000002930322612930322        040220260000000000698440850113502930322                  092035653808000152ASCARI CONSTRUCOES LTDA                           000000000000199040301                     
1040001300096U 060000000000000000000000000000000000000000000000000000000000000000000000698440000000000698440000000000000000000000000000000402202605022026000005022026000000000000000235653808000152               00000000000000000000000       
1040001300097T 060000004910850000000   14999000002930337412930337        100220260000000000002877560056502930337                  092026114339000102FARMACIA MAIS SAO BASILIO LTDA                    000000000000199040301                     
1040001300098U 060000000000000000000000000000000000000000000000000000000000000000000000002870000000000002870000000000000000000000000000000402202605022026000005022026000000000000000226114339000102               00000000000000000000000       
1040001300099T 060000004910850000000   14999000002930608012930608        010320260000000006951761360140502930608                  091000087155478920ZANEIDE DA SILVA SCHMOELLER BECKER                000000000000199040301                     
1040001300100U 060000000000000000000000000000000000000000000000000000000000000000000006951760000000006951760000000000000000000000000000000402202605022026000005022026000000000000000251854962000149               00000000000000000000000       
1040001300101T 060000004910850000000   14999000002930615212930615        100220260000000000357031040107002930615                  091000051382881991JOAO PEREIRA REDIVO                               000000000000199020101                     
1040001300102U 060000000000000000000000000000000000000000000000000000000000000000000000357030000000000357030000000000000000000000000000000402202605022026000005022026000000000000000000000000000000               00000000000000000000000       
1040001300103T 060000004910850000000   14999000002930685312930685        300420260000000002915230010073802930685                  091000060097361968VOLVINHO MEURER                                   000000000000199040301                     
1040001300104U 060000000000000000000000000000000000000000000000000000000000000000000002915230000000002915230000000000000000000000000000000402202605022026000005022026000000000000000100060097361968               00000000000000000000000       
1040001300105T 060000004910850000000   14999000002933646912933646        030520260000000003215232370033602933646                  091000006070225902RAQUEL JASPER                                     000000000000199040301                     
1040001300106U 060000000000000000000000000000000000000000000000000000000000000000000003215230000000003215230000000000000000000000000000000402202605022026000005022026000000000000000100006070225902               00000000000000000000000       
1040001300107T 060000004910850000000   14999000002933647712933647        030520260000000003215232370033602933647                  091000006070225902RAQUEL JASPER                                     000000000000199040301                     
1040001300108U 060000000000000000000000000000000000000000000000000000000000000000000003215230000000003215230000000000000000000000000000000402202605022026000005022026000000000000000100006070225902               00000000000000000000000       
1040001300109T 060000004910850000000   14999000002933819412933819        170220260000000000038512600000102933819                  092088212113129137COMERCIO DE MEDICAMENTOS BRAIR LTDA               000000000000199040301                     
1040001300110U 060000000000000000000000000000000000000000000000000000000000000000000000038510000000000038510000000000000000000000000000000402202605022026000005022026000000000000000100006826893436               00000000000000000000000       
1040001300111T 060000004910850000000   14999000002933821612933821        040520260000000005317237560281402933821                  091000037530283987ALVARO TENFEN                                     000000000000199040301                     
1040001300112U 060000000000000000000000000000000000000000000000000000000000000000000005317230000000005317230000000000000000000000000000000402202605022026000005022026000000000000000100037530283987               00000000000000000000000       
1040001300113T 060000004910850000000   14999000002934014812934014        050320260000000001284431040107002934014                  091000099990148953GISELLE SCHLICKAMNN                               000000000000199020101                     
1040001300114U 060000000000000000000000000000000000000000000000000000000000000000000001284430000000001284430000000000000000000000000000000402202605022026000005022026000000000000000000000000000000               00000000000000000000000       
1040001300115T 060000004910850000000   14999000002934198512934198        040220260000000000418671040107002934198                  091000037852752934VALMIR VALERIANO DE ANDRADE                       000000000000199020101                     
1040001300116U 060000000000000000000000000091190000000000000000000000000000000000000000327480000000000327480000000000000000000000000000000402202605022026000005022026000000000000000000000000000000               00000000000000000000000       
1040001300117T 060000004910850000000   14999000002934317112934317        040320260000000000077537480590502934317                  091000007384312906ADRIELLI APARECIDA CARDOSO DOS SANTOS             000000000000199040301                     
1040001300118U 060000000000000000000000000000000000000000000000000000000000000000000000077530000000000077530000000000000000000000000000000402202605022026000005022026000000000000000100007384312906               00000000000000000000000       
1040001300119T 020000004910850000000   14999000002922353212922353        10022026000000000974078000000000                         092041801996000111CLINICA CIRURGICA ODONTOLOGICA BRACO DO           000000000000000                           
1040001300120U 020000000000000000000000000000000000000000000000000000000000000000000000000000000000000000000000000000000000000000000000000402202600000000000000000000000000000000000                              00000000000000000000000       
1040001300121T 020000004910850000000   14999000002922355912922355        10022026000000000351348000000000                         092014524108000198RAFAEL AUTOMOVEIS LTDA                            000000000000000A4                         
1040001300122U 020000000000000000000000000000000000000000000000000000000000000000000000000000000000000000000000000000000000000000000000000402202600000000000000000000000000000000000                              00000000000000000000000       
1040001300123T 020000004910850000000   14999000002922384212922384        10022026000000000034183000000000                         092023822379000110ODAIR MARCELINO FERREIRA                          000000000000000                           
1040001300124U 020000000000000000000000000000000000000000000000000000000000000000000000000000000000000000000000000000000000000000000000000402202600000000000000000000000000000000000                              00000000000000000000000       
1040001300125T 020000004910850000000   14999000002922414812922414        10022026000000000001000000000000                         091000000526235993ALEXANDRE FRAZAO DA ROSA                          000000000000000                           
1040001300126U 020000000000000000000000000000000000000000000000000000000000000000000000000000000000000000000000000000000000000000000000000402202600000000000000000000000000000000000                              00000000000000000000000       
1040001300127T 020000004910850000000   14999000002922420212922420        10022026000000000167800000000000                         092023087314000179ENGTER ENGENHARIA SS                              000000000000000A4                         
1040001300128U 020000000000000000000000000000000000000000000000000000000000000000000000000000000000000000000000000000000000000000000000000402202600000000000000000000000000000000000                              00000000000000000000000       
1040001300129T 020000004910850000000   14999000002922429612922429        10022026000000000006560000000000                         092081839144000138TECHFILM INDUSTRIA E COMERCIO LTDA                000000000000000A4                         
1040001300130U 020000000000000000000000000000000000000000000000000000000000000000000000000000000000000000000000000000000000000000000000000402202600000000000000000000000000000000000                              00000000000000000000000       
1040001300131T 020000004910850000000   14999000002931881912931881        28022026000000000113665000000000                         092010706052000131PATRICIA PADILHA ME                               000000000000000                           
1040001300132U 020000000000000000000000000000000000000000000000000000000000000000000000000000000000000000000000000000000000000000000000000402202600000000000000000000000000000000000                              00000000000000000000000       
1040001300133T 020000004910850000000   14999000002922411312922411        10022026000000000013212000000000                         092010934913000139DF IMPORTACAO E FABRICACAO DE EQUIPAMENT          000000000000000A4                         
1040001300134U 020000000000000000000000000000000000000000000000000000000000000000000000000000000000000000000000000000000000000000000000000402202600000000000004022026000000000000000                              00000000000000000000000       
1040001300135T 020000004910850000000   14999000002922424512922424        10022026000000000351348000000000                         092014524108000198RAFAEL AUTOMOVEIS LTDA                            000000000000000A4                         
1040001300136U 020000000000000000000000000000000000000000000000000000000000000000000000000000000000000000000000000000000000000000000000000402202600000000000004022026000000000000000                              00000000000000000000000       
1040001300137T 020000004910850000000   14999000002922431812922431        10022026000000000068288000000000                         092016695624000100FLACH INDUSTRIA DE CARREGADORES  EQUIPAM          000000000000000A4                         
1040001300138U 020000000000000000000000000000000000000000000000000000000000000000000000000000000000000000000000000000000000000000000000000402202600000000000004022026000000000000000                              00000000000000000000000       
1040001300139T 020000004910850000000   14999000002922435012922435        10022026000000000013212000000000                         092010934913000139DF IMPORTACAO E FABRICACAO DE EQUIPAMENT          000000000000000A4                         
1040001300140U 020000000000000000000000000000000000000000000000000000000000000000000000000000000000000000000000000000000000000000000000000402202600000000000004022026000000000000000                              00000000000000000000000       
1040001300141T 020000004910850000000   14999000002923983812923983        23022026000000000230565000000000                         092011387553000165WEBER PARTICIPACOES LTDA                          000000000000000                           
1040001300142U 020000000000000000000000000000000000000000000000000000000000000000000000000000000000000000000000000000000000000000000000000402202600000000000004022026000000000000000                              00000000000000000000000       
1040001300143T 020000004910850000000   14999000002923984612923984        06032026000000000013864000000000                         092054120776000174JHX SUSHI LTDA                                    000000000000000A4                         
1040001300144U 020000000000000000000000000000000000000000000000000000000000000000000000000000000000000000000000000000000000000000000000000402202600000000000004022026000000000000000                              00000000000000000000000       
1040001300145T 020000004910850000000   14999000002923985412923985        06032026000000000132920000000000                         092054120776000174JHX SUSHI LTDA                                    000000000000000A4                         
1040001300146U 020000000000000000000000000000000000000000000000000000000000000000000000000000000000000000000000000000000000000000000000000402202600000000000004022026000000000000000                              00000000000000000000000       
1040001300147T 020000004910850000000   14999000002923986212923986        06032026000000000121532000000000                         092062359319000165JHX PIZZARIA LTDA                                 000000000000000                           
1040001300148U 020000000000000000000000000000000000000000000000000000000000000000000000000000000000000000000000000000000000000000000000000402202600000000000004022026000000000000000                              00000000000000000000000       
1040001300149T 020000004910850000000   14999000002923987012923987        06032026000000000069778000000000                         092062359319000165JHX PIZZARIA LTDA                                 000000000000000                           
1040001300150U 020000000000000000000000000000000000000000000000000000000000000000000000000000000000000000000000000000000000000000000000000402202600000000000004022026000000000000000                              00000000000000000000000       
1040001300151T 020000004910850000000   14999000002923988912923988        04022026000000000020521000000000                         092062359319000165JHX PIZZARIA LTDA                                 000000000000000                           
1040001300152U 020000000000000000000000000000000000000000000000000000000000000000000000000000000000000000000000000000000000000000000000000402202600000000000004022026000000000000000                              00000000000000000000000       
1040001300153T 020000004910850000000   14999000002923989712923989        04022026000000000055977000000000                         092062359319000165JHX PIZZARIA LTDA                                 000000000000000                           
1040001300154U 020000000000000000000000000000000000000000000000000000000000000000000000000000000000000000000000000000000000000000000000000402202600000000000004022026000000000000000                              00000000000000000000000       
1040001300155T 020000004910850000000   14999000002923990012923990        04022026000000000015815000000000                         091000064199550925JOSE CESAR SACCON                                 000000000000000                           
1040001300156U 020000000000000000000000000000000000000000000000000000000000000000000000000000000000000000000000000000000000000000000000000402202600000000000004022026000000000000000                              00000000000000000000000       
1040001300157T 020000004910850000000   14999000002923991912923991        06032026000000000095382000000000                         092005275050000103ROBERTO MACHADO MARTINS                           000000000000000                           
1040001300158U 020000000000000000000000000000000000000000000000000000000000000000000000000000000000000000000000000000000000000000000000000402202600000000000004022026000000000000000                              00000000000000000000000       
1040001300159T 020000004910850000000   14999000002923992712923992        04022026000000000012342000000000                         092014420963000159EMBUTIDOS BIANCA LTDA                             000000000000000                           
1040001300160U 020000000000000000000000000000000000000000000000000000000000000000000000000000000000000000000000000000000000000000000000000402202600000000000004022026000000000000000                              00000000000000000000000       
1040001300161T 020000004910850000000   14999000002923993512923993        04022026000000000014916000000000                         092011971525000190MOVE COMERCIO DE PECAS E SERVICOS DE TOR          000000000000000                           
1040001300162U 020000000000000000000000000000000000000000000000000000000000000000000000000000000000000000000000000000000000000000000000000402202600000000000004022026000000000000000                              00000000000000000000000       
1040001300163T 020000004910850000000   14999000002923994312923994        06032026000000000102924000000000                         092033499714000145WESLEY DOMINGOS CATARINA 06234725970              000000000000000A4                         
1040001300164U 020000000000000000000000000000000000000000000000000000000000000000000000000000000000000000000000000000000000000000000000000402202600000000000004022026000000000000000                              00000000000000000000000       
1040001300165T 020000004910850000000   14999000002923995112923995        06032026000000000032163000000000                         092033499714000145WESLEY DOMINGOS CATARINA 06234725970              000000000000000A4                         
1040001300166U 020000000000000000000000000000000000000000000000000000000000000000000000000000000000000000000000000000000000000000000000000402202600000000000004022026000000000000000                              00000000000000000000000       
1040001300167T 020000004910850000000   14999000002923996012923996        04022026000000000024738000000000                         092007816318000194GATO 1 TRANSPORTES LTDA                           000000000000000                           
1040001300168U 020000000000000000000000000000000000000000000000000000000000000000000000000000000000000000000000000000000000000000000000000402202600000000000004022026000000000000000                              00000000000000000000000       
1040001300169T 020000004910850000000   14999000002923997812923997        04022026000000000024489000000000                         092007816318000194GATO 1 TRANSPORTES LTDA                           000000000000000                           
1040001300170U 020000000000000000000000000000000000000000000000000000000000000000000000000000000000000000000000000000000000000000000000000402202600000000000004022026000000000000000                              00000000000000000000000       
1040001300171T 020000004910850000000   14999000002923998612923998        06032026000000000226966000000000                         092007361957000102COMCRED FOMENTO MERCANTIL LTDA                    000000000000000                           
1040001300172U 020000000000000000000000000000000000000000000000000000000000000000000000000000000000000000000000000000000000000000000000000402202600000000000004022026000000000000000                              00000000000000000000000       
1040001300173T 020000004910850000000   14999000002923999412923999        06032026000000000133645000000000                         092009308858000192GARANTIA - SERVICOS DE COBRANCAS E INFOR          000000000000000A4                         
1040001300174U 020000000000000000000000000000000000000000000000000000000000000000000000000000000000000000000000000000000000000000000000000402202600000000000004022026000000000000000                              00000000000000000000000       
1040001300175T 020000004910850000000   14999000002924000312924000        10022026000000000064145000000000                         092007361957000102COMCRED FOMENTO MERCANTIL LTDA                    000000000000000                           
1040001300176U 020000000000000000000000000000000000000000000000000000000000000000000000000000000000000000000000000000000000000000000000000402202600000000000004022026000000000000000                              00000000000000000000000       
1040001300177T 020000004910850000000   14999000002924001112924001        06032026000000000115842000000000                         092037156101000166INDUSTRIA DE MASSAS ALIMENTICIAS T. IQUE          000000000000000                           
1040001300178U 020000000000000000000000000000000000000000000000000000000000000000000000000000000000000000000000000000000000000000000000000402202600000000000004022026000000000000000                              00000000000000000000000       
1040001300179T 020000004910850000000   14999000002924002012924002        06032026000000000036200000000000                         092037156101000166INDUSTRIA DE MASSAS ALIMENTICIAS T. IQUE          000000000000000                           
1040001300180U 020000000000000000000000000000000000000000000000000000000000000000000000000000000000000000000000000000000000000000000000000402202600000000000004022026000000000000000                              00000000000000000000000       
1040001300181T 020000004910850000000   14999000002924003812924003        06042026000000000036201000000000                         092037156101000166INDUSTRIA DE MASSAS ALIMENTICIAS T. IQUE          000000000000000                           
1040001300182U 020000000000000000000000000000000000000000000000000000000000000000000000000000000000000000000000000000000000000000000000000402202600000000000004022026000000000000000                              00000000000000000000000       
1040001300183T 020000004910850000000   14999000002924004612924004        06052026000000000036201000000000                         092037156101000166INDUSTRIA DE MASSAS ALIMENTICIAS T. IQUE          000000000000000                           
1040001300184U 020000000000000000000000000000000000000000000000000000000000000000000000000000000000000000000000000000000000000000000000000402202600000000000004022026000000000000000                              00000000000000000000000       
1040001300185T 020000004910850000000   14999000002924005412924005        05062026000000000036201000000000                         092037156101000166INDUSTRIA DE MASSAS ALIMENTICIAS T. IQUE          000000000000000                           
1040001300186U 020000000000000000000000000000000000000000000000000000000000000000000000000000000000000000000000000000000000000000000000000402202600000000000004022026000000000000000                              00000000000000000000000       
1040001300187T 020000004910850000000   14999000002924006212924006        06032026000000000070763000000000                         092037156101000166INDUSTRIA DE MASSAS ALIMENTICIAS T. IQUE          000000000000000                           
1040001300188U 020000000000000000000000000000000000000000000000000000000000000000000000000000000000000000000000000000000000000000000000000402202600000000000004022026000000000000000                              00000000000000000000000       
1040001300189T 020000004910850000000   14999000002924007012924007        04022026000000000066651000000000                         091000005686750963CASEMIRO ASCARI                                   000000000000000                           
1040001300190U 020000000000000000000000000000000000000000000000000000000000000000000000000000000000000000000000000000000000000000000000000402202600000000000004022026000000000000000                              00000000000000000000000       
1040001300191T 020000004910850000000   14999000002924008912924008        06032026000000000716200000000000                         092076816842000340POSTO LEAO DO TREVO LTDA                          000000000000000A4                         
1040001300192U 020000000000000000000000000000000000000000000000000000000000000000000000000000000000000000000000000000000000000000000000000402202600000000000004022026000000000000000                              00000000000000000000000       
1040001300193T 020000004910850000000   14999000002924009712924009        06032026000000000027911000000000                         092076816842000340POSTO LEAO DO TREVO LTDA                          000000000000000A4                         
1040001300194U 020000000000000000000000000000000000000000000000000000000000000000000000000000000000000000000000000000000000000000000000000402202600000000000004022026000000000000000                              00000000000000000000000       
1040001300195T 020000004910850000000   14999000002924010012924010        06032026000000000716200000000000                         092076816842000773POSTO LEAO DO TREVO LTDA                          000000000000000A4                         
1040001300196U 020000000000000000000000000000000000000000000000000000000000000000000000000000000000000000000000000000000000000000000000000402202600000000000004022026000000000000000                              00000000000000000000000       
1040001300197T 020000004910850000000   14999000002924011912924011        06032026000000000010613000000000                         092076816842000773POSTO LEAO DO TREVO LTDA                          000000000000000A4                         
1040001300198U 020000000000000000000000000000000000000000000000000000000000000000000000000000000000000000000000000000000000000000000000000402202600000000000004022026000000000000000                              00000000000000000000000       
1040001300199T 020000004910850000000   14999000002924012712924012        06032026000000000208046000000000                         092049249140000197JV PARA BRISAS LTDA                               000000000000000A4                         
1040001300200U 020000000000000000000000000000000000000000000000000000000000000000000000000000000000000000000000000000000000000000000000000402202600000000000004022026000000000000000                              00000000000000000000000       
1040001300201T 020000004910850000000   14999000002924013512924013        06032026000000000054671000000000                         092027008700000189GEOVANIO ROVEDA - ME                              000000000000000                           
1040001300202U 020000000000000000000000000000000000000000000000000000000000000000000000000000000000000000000000000000000000000000000000000402202600000000000004022026000000000000000                              00000000000000000000000       
1040001300203T 020000004910850000000   14999000002924014312924014        06042026000000000054671000000000                         092027008700000189GEOVANIO ROVEDA - ME                              000000000000000                           
1040001300204U 020000000000000000000000000000000000000000000000000000000000000000000000000000000000000000000000000000000000000000000000000402202600000000000004022026000000000000000                              00000000000000000000000       
1040001300205T 020000004910850000000   14999000002924015112924015        06052026000000000054671000000000                         092027008700000189GEOVANIO ROVEDA - ME                              000000000000000                           
1040001300206U 020000000000000000000000000000000000000000000000000000000000000000000000000000000000000000000000000000000000000000000000000402202600000000000004022026000000000000000                              00000000000000000000000       
1040001300207T 020000004910850000000   14999000002924016012924016        05062026000000000054671000000000                         092027008700000189GEOVANIO ROVEDA - ME                              000000000000000                           
1040001300208U 020000000000000000000000000000000000000000000000000000000000000000000000000000000000000000000000000000000000000000000000000402202600000000000004022026000000000000000                              00000000000000000000000       
1040001300209T 020000004910850000000   14999000002924021612924021        06032026000000000052333000000000                         092007616457000174MAGGIA MOTEL LTDA                                 000000000000000                           
1040001300210U 020000000000000000000000000000000000000000000000000000000000000000000000000000000000000000000000000000000000000000000000000402202600000000000004022026000000000000000                              00000000000000000000000       
1040001300211T 020000004910850000000   14999000002924022412924022        06032026000000000010613000000000                         092034859576000120BR TABACARIA LTDA                                 000000000000000A4                         
1040001300212U 020000000000000000000000000000000000000000000000000000000000000000000000000000000000000000000000000000000000000000000000000402202600000000000004022026000000000000000                              00000000000000000000000       
1040001300213T 020000004910850000000   14999000002924023212924023        06032026000000000340973000000000                         092034859576000120BR TABACARIA LTDA                                 000000000000000A4                         
1040001300214U 020000000000000000000000000000000000000000000000000000000000000000000000000000000000000000000000000000000000000000000000000402202600000000000004022026000000000000000                              00000000000000000000000       
1040001300215T 020000004910850000000   14999000002924024012924024        04022026000000000000643000000000                         092046817942000249OLIM MAQ COMERCIO DE MAQUINAS AGRICOLAS           000000000000000                           
1040001300216U 020000000000000000000000000000000000000000000000000000000000000000000000000000000000000000000000000000000000000000000000000402202600000000000004022026000000000000000                              00000000000000000000000       
1040001300217T 020000004910850000000   14999000002924025912924025        06032026000000000059105000000000                         092011244139000105LAPP PARTICIPACOES LTDA                           000000000000000A4                         
1040001300218U 020000000000000000000000000000000000000000000000000000000000000000000000000000000000000000000000000000000000000000000000000402202600000000000004022026000000000000000                              00000000000000000000000       
1040001300219T 020000004910850000000   14999000002924026712924026        06042026000000000059106000000000                         092011244139000105LAPP PARTICIPACOES LTDA                           000000000000000A4                         
1040001300220U 020000000000000000000000000000000000000000000000000000000000000000000000000000000000000000000000000000000000000000000000000402202600000000000004022026000000000000000                              00000000000000000000000       
1040001300221T 020000004910850000000   14999000002924027512924027        06052026000000000059106000000000                         092011244139000105LAPP PARTICIPACOES LTDA                           000000000000000A4                         
1040001300222U 020000000000000000000000000000000000000000000000000000000000000000000000000000000000000000000000000000000000000000000000000402202600000000000004022026000000000000000                              00000000000000000000000       
1040001300223T 020000004910850000000   14999000002924028312924028        05062026000000000059106000000000                         092011244139000105LAPP PARTICIPACOES LTDA                           000000000000000A4                         
1040001300224U 020000000000000000000000000000000000000000000000000000000000000000000000000000000000000000000000000000000000000000000000000402202600000000000004022026000000000000000                              00000000000000000000000       
1040001300225T 020000004910850000000   14999000002924029112924029        04022026000000000220791000000000                         092060638083000170GARTEN HAUS SCP                                   000000000000000                           
1040001300226U 020000000000000000000000000000000000000000000000000000000000000000000000000000000000000000000000000000000000000000000000000402202600000000000004022026000000000000000                              00000000000000000000000       
1040001300227T 020000004910850000000   14999000002924030512924030        04022026000000000024582000000000                         092063860681000188LB LOTEAMENTO VIVER BEM LTDA                      000000000000000                           
1040001300228U 020000000000000000000000000000000000000000000000000000000000000000000000000000000000000000000000000000000000000000000000000402202600000000000004022026000000000000000                              00000000000000000000000       
1040001300229T 020000004910850000000   14999000002924031312924031        10022026000000000113879000000000                         092054027609000183CENTRO DE AVALIACAO MEDICO DE CONDUTORES          000000000000000                           
1040001300230U 020000000000000000000000000000000000000000000000000000000000000000000000000000000000000000000000000000000000000000000000000402202600000000000004022026000000000000000                              00000000000000000000000       
1040001300231T 020000004910850000000   14999000002924032112924032        04022026000000000199436000000000                         092078324514000190GAIDZINSKI EQUIPAMENTOS LTDA                      000000000000000                           
1040001300232U 020000000000000000000000000000000000000000000000000000000000000000000000000000000000000000000000000000000000000000000000000402202600000000000004022026000000000000000                              00000000000000000000000       
1040001300233T 020000004910850000000   14999000002924033012924033        06032026000000000010613000000000                         092037421613000102BR AUTO CENTER BN LTDA                            000000000000000A4                         
1040001300234U 020000000000000000000000000000000000000000000000000000000000000000000000000000000000000000000000000000000000000000000000000402202600000000000004022026000000000000000                              00000000000000000000000       
1040001300235T 020000004910850000000   14999000002924034812924034        06032026000000000271706000000000                         092037421613000102BR AUTO CENTER BN LTDA                            000000000000000A4                         
1040001300236U 020000000000000000000000000000000000000000000000000000000000000000000000000000000000000000000000000000000000000000000000000402202600000000000004022026000000000000000                              00000000000000000000000       
1040001300237T 020000004910850000000   14999000002924035612924035        06032026000000000035382000000000                         092009089639000240GLOBAL CASING IMPORTACAO E EXPORTACAO LT          000000000000000A4                         
1040001300238U 020000000000000000000000000000000000000000000000000000000000000000000000000000000000000000000000000000000000000000000000000402202600000000000004022026000000000000000                              00000000000000000000000       
1040001300239T 020000004910850000000   14999000002924036412924036        04022026000000006095495000000000                         091000053424174904TEREZINHA MOREIRA MATES                           000000000000000                           
1040001300240U 020000000000000000000000000000000000000000000000000000000000000000000000000000000000000000000000000000000000000000000000000402202600000000000004022026000000000000000                              00000000000000000000000       
1040001300241T 020000004910850000000   14999000002924037212924037        04022026000000000215545000000000                         091000053424174904TEREZINHA MOREIRA MATES                           000000000000000                           
1040001300242U 020000000000000000000000000000000000000000000000000000000000000000000000000000000000000000000000000000000000000000000000000402202600000000000004022026000000000000000                              00000000000000000000000       
1040001300243T 020000004910850000000   14999000002924038012924038        04022026000000000067209000000000                         091000092403840904JUCINEIDE MATES JOCKEN JERONIMO                   000000000000000                           
1040001300244U 020000000000000000000000000000000000000000000000000000000000000000000000000000000000000000000000000000000000000000000000000402202600000000000004022026000000000000000                              00000000000000000000000       
1040001300245T 020000004910850000000   14999000002924039912924039        10022026000000000038076000000000                         092030228086000175EDMARA DELLA GIUSTINA VOLPATO DA SILVA            000000000000000                           
1040001300246U 020000000000000000000000000000000000000000000000000000000000000000000000000000000000000000000000000000000000000000000000000402202600000000000004022026000000000000000                              00000000000000000000000       
1040001300247T 020000004910850000000   14999000002924040212924040        06032026000000000005306000000000                         092037052259000196CRS COBRANCA LTDA                                 000000000000000                           
1040001300248U 020000000000000000000000000000000000000000000000000000000000000000000000000000000000000000000000000000000000000000000000000402202600000000000004022026000000000000000                              00000000000000000000000       
1040001300249T 020000004910850000000   14999000002924041012924041        06032026000000000147010000000000                         092037052259000196CRS COBRANCA LTDA                                 000000000000000                           
1040001300250U 020000000000000000000000000000000000000000000000000000000000000000000000000000000000000000000000000000000000000000000000000402202600000000000004022026000000000000000                              00000000000000000000000       
1040001300251T 020000004910850000000   14999000002924042912924042        04022026000000000048349000000000                         092015625707000160SEBOLD AGRONEGOCIOS LTDA                          000000000000000                           
1040001300252U 020000000000000000000000000000000000000000000000000000000000000000000000000000000000000000000000000000000000000000000000000402202600000000000004022026000000000000000                              00000000000000000000000       
1040001300253T 020000004910850000000   14999000002924043712924043        04022026000000001398399000000000                         092029183595000140SS COMERCIO DE CEREAIS LTDA                       000000000000000                           
1040001300254U 020000000000000000000000000000000000000000000000000000000000000000000000000000000000000000000000000000000000000000000000000402202600000000000004022026000000000000000                              00000000000000000000000       
1040001300255T 020000004910850000000   14999000002924044512924044        06032026000000000008939000000000                         092027273298000160MAXIMO COMERCIO DE MAQUINAS, EQUIP. E SO          000000000000000A4                         
1040001300256U 020000000000000000000000000000000000000000000000000000000000000000000000000000000000000000000000000000000000000000000000000402202600000000000004022026000000000000000                              00000000000000000000000       
1040001300257T 020000004910850000000   14999000002924045312924045        06032026000000000273069000000000                         092027273298000160MAXIMO COMERCIO DE MAQUINAS, EQUIP. E SO          000000000000000A4                         
1040001300258U 020000000000000000000000000000000000000000000000000000000000000000000000000000000000000000000000000000000000000000000000000402202600000000000004022026000000000000000                              00000000000000000000000       
1040001300259T 020000004910850000000   14999000002924046112924046        06032026000000000085334000000000                         092027273298000160MAXIMO COMERCIO DE MAQUINAS, EQUIP. E SO          000000000000000A4                         
1040001300260U 020000000000000000000000000000000000000000000000000000000000000000000000000000000000000000000000000000000000000000000000000402202600000000000004022026000000000000000                              00000000000000000000000       
1040001300261T 020000004910850000000   14999000002924047012924047        06042026000000000085334000000000                         092027273298000160MAXIMO COMERCIO DE MAQUINAS, EQUIP. E SO          000000000000000A4                         
1040001300262U 020000000000000000000000000000000000000000000000000000000000000000000000000000000000000000000000000000000000000000000000000402202600000000000004022026000000000000000                              00000000000000000000000       
1040001300263T 020000004910850000000   14999000002924048812924048        06052026000000000085334000000000                         092027273298000160MAXIMO COMERCIO DE MAQUINAS, EQUIP. E SO          000000000000000A4                         
1040001300264U 020000000000000000000000000000000000000000000000000000000000000000000000000000000000000000000000000000000000000000000000000402202600000000000004022026000000000000000                              00000000000000000000000       
1040001300265T 020000004910850000000   14999000002924049612924049        05062026000000000085334000000000                         092027273298000160MAXIMO COMERCIO DE MAQUINAS, EQUIP. E SO          000000000000000A4                         
1040001300266U 020000000000000000000000000000000000000000000000000000000000000000000000000000000000000000000000000000000000000000000000000402202600000000000004022026000000000000000                              00000000000000000000000       
1040001300267T 020000004910850000000   14999000002924050012924050        04022026000000000002595000000000                         092007226874000100ARBORE ENGENHARIA E REFLORESTAMENTO LTDA          000000000000000                           
1040001300268U 020000000000000000000000000000000000000000000000000000000000000000000000000000000000000000000000000000000000000000000000000402202600000000000004022026000000000000000                              00000000000000000000000       
1040001300269T 020000004910850000000   14999000002928034012928034        28022026000000000441083000000000                         092010432077000194D'GOIS MONTAGEM DE MOVEIS LTDA ME                 000000000000000                           
1040001300270U 020000000000000000000000000000000000000000000000000000000000000000000000000000000000000000000000000000000000000000000000000402202600000000000004022026000000000000000                              00000000000000000000000       
1040001300271T 020000004910850000000   14999000002930244012930244        10022026000000000000656000000000                         092007324378000602DUTRA COMERCIO FARMACEUTICO LTDA                  000000000000000A4                         
1040001300272U 020000000000000000000000000000000000000000000000000000000000000000000000000000000000000000000000000000000000000000000000000402202600000000000004022026000000000000000                              00000000000000000000000       
1040001300273T 020000004910850000000   14999000002930268812930268        10022026000000002644250000000000                         091000006810804935ALAN FELIPE PROVIN                                000000000000000                           
1040001300274U 020000000000000000000000000000000000000000000000000000000000000000000000000000000000000000000000000000000000000000000000000402202600000000000004022026000000000000000                              00000000000000000000000       
1040001300275T 020000004910850000000   14999000002930275012930275        10022026000000000009260000000000                         092060735238000197LIRA INCORPORACAO LTDA                            000000000000000                           
1040001300276U 020000000000000000000000000000000000000000000000000000000000000000000000000000000000000000000000000000000000000000000000000402202600000000000004022026000000000000000                              00000000000000000000000       
1040001300277T 020000004910850000000   14999000002930283112930283        10022026000000000020000000000000                         092002032856000174BRACO DO NORTE AUTO PECAS LTDA                    000000000000000A4                         
1040001300278U 020000000000000000000000000000000000000000000000000000000000000000000000000000000000000000000000000000000000000000000000000402202600000000000004022026000000000000000                              00000000000000000000000       
1040001300279T 020000004910850000000   14999000002930285812930285        10022026000000000000734000000000                         092096418264044500LOJAS QUERO-QUERO S.A.                            000000000000000A4                         
1040001300280U 020000000000000000000000000000000000000000000000000000000000000000000000000000000000000000000000000000000000000000000000000402202600000000000004022026000000000000000                              00000000000000000000000       
1040001300281T 020000004910850000000   14999000002930288212930288        10022026000000000000346000000000                         092040170588000146ARMONI SAUDE INTEGRADA LTDA                       000000000000000                           
1040001300282U 020000000000000000000000000000000000000000000000000000000000000000000000000000000000000000000000000000000000000000000000000402202600000000000004022026000000000000000                              00000000000000000000000       
1040001300283T 020000004910850000000   14999000002930291212930291        10022026000000000000958000000000                         092089848543071511LOJAS COLOMBO SA COMERCIO DE UTILIDADES           000000000000000                           
1040001300284U 020000000000000000000000000000000000000000000000000000000000000000000000000000000000000000000000000000000000000000000000000402202600000000000004022026000000000000000                              00000000000000000000000       
1040001300285T 020000004910850000000   14999000002930293912930293        10022026000000000001072000000000                         092002119829000133AUTO POSTO OENNING LTDA                           000000000000000                           
1040001300286U 020000000000000000000000000000000000000000000000000000000000000000000000000000000000000000000000000000000000000000000000000402202600000000000004022026000000000000000                              00000000000000000000000       
1040001300287T 020000004910850000000   14999000002930315312930315        10022026000000000008000000000000                         092005559204000180ADRIANE PEREIRA DANIELSKI                         000000000000000                           
1040001300288U 020000000000000000000000000000000000000000000000000000000000000000000000000000000000000000000000000000000000000000000000000402202600000000000004022026000000000000000                              00000000000000000000000       
1040001300289T 020000004910850000000   14999000002930319612930319        10022026000000000203733000000000                         092012731343000105CONQUISTA CONSTRUTORA E INCORPORADORA LT          000000000000000A4                         
1040001300290U 020000000000000000000000000000000000000000000000000000000000000000000000000000000000000000000000000000000000000000000000000402202600000000000004022026000000000000000                              00000000000000000000000       
1040001300291T 020000004910850000000   14999000002930322612930322        04022026000000000069844000000000                         092035653808000152ASCARI CONSTRUCOES LTDA                           000000000000000                           
1040001300292U 020000000000000000000000000000000000000000000000000000000000000000000000000000000000000000000000000000000000000000000000000402202600000000000004022026000000000000000                              00000000000000000000000       
1040001300293T 020000004910850000000   14999000002930329312930329        10022026000000000000500000000000                         092078324514000190GAIDZINSKI EQUIPAMENTOS LTDA                      000000000000000A4                         
1040001300294U 020000000000000000000000000000000000000000000000000000000000000000000000000000000000000000000000000000000000000000000000000402202600000000000004022026000000000000000                              00000000000000000000000       
1040001300295T 020000004910850000000   14999000002930337412930337        10022026000000000000287000000000                         092026114339000102FARMACIA MAIS SAO BASILIO LTDA                    000000000000000                           
1040001300296U 020000000000000000000000000000000000000000000000000000000000000000000000000000000000000000000000000000000000000000000000000402202600000000000004022026000000000000000                              00000000000000000000000       
1040001300297T 020000004910850000000   14999000002930342012930342        10022026000000000082680000000000                         092012713820000100FRAGA CONSTRUCOES E ENGENHARIA LTDA               000000000000000A4                         
1040001300298U 020000000000000000000000000000000000000000000000000000000000000000000000000000000000000000000000000000000000000000000000000402202600000000000004022026000000000000000                              00000000000000000000000       
1040001300299T 020000004910850000000   14999000002930343912930343        10022026000000000042325000000000                         092033162394000133VISCOH INDUSTRIA DE PASTAS, MASSAS E MAT          000000000000000A4                         
1040001300300U 020000000000000000000000000000000000000000000000000000000000000000000000000000000000000000000000000000000000000000000000000402202600000000000004022026000000000000000                              00000000000000000000000       
1040001300301T 020000004910850000000   14999000002931832012931832        28022026000000000041951000000000                         092038109384000158NATHAN AUTOMOVEIS EIRELI                          000000000000000                           
1040001300302U 020000000000000000000000000000000000000000000000000000000000000000000000000000000000000000000000000000000000000000000000000402202600000000000004022026000000000000000                              00000000000000000000000       
1040001300303T 020000004910850000000   14999000002931864912931864        28022026000000001693976000000000                         092018205177000432SCHUEROFF TRANSPORTES E COMERCIO LTDA             000000000000000                           
1040001300304U 020000000000000000000000000000000000000000000000000000000000000000000000000000000000000000000000000000000000000000000000000402202600000000000004022026000000000000000                              00000000000000000000000       
1040001300305T 020000004910850000000   14999000002932020112932020        28022026000000000043222000000000                         092026369510000205NICOLADELI LAVANDERIA LTDA                        000000000000000                           
1040001300306U 020000000000000000000000000000000000000000000000000000000000000000000000000000000000000000000000000000000000000000000000000402202600000000000004022026000000000000000                              00000000000000000000000       
1040001300307T 020000004910850000000   14999000002932105412932105        28022026000000002081938000000000                         092001485936000112MET MAQUINAS ET LTDA ME                           000000000000000                           
1040001300308U 020000000000000000000000000000000000000000000000000000000000000000000000000000000000000000000000000000000000000000000000000402202600000000000004022026000000000000000                              00000000000000000000000       
1040001300309T 020000004910850000000   14999000002932123212932123        28022026000000000537696000000000                         092013506711000184RIO BONITO AGROPECUARIA E TRANSPORTE LTD          000000000000000                           
1040001300310U 020000000000000000000000000000000000000000000000000000000000000000000000000000000000000000000000000000000000000000000000000402202600000000000004022026000000000000000                              00000000000000000000000       
1040001300311T 020000004910850000000   14999000002932153412932153        28022026000000000458302000000000                         092010288166000885MARIO ROSSI DA SILVA                              000000000000000                           
1040001300312U 020000000000000000000000000000000000000000000000000000000000000000000000000000000000000000000000000000000000000000000000000402202600000000000004022026000000000000000                              00000000000000000000000       
1040001300313T 020000004910850000000   14999000002932171212932171        28022026000000000355747000000000                         092017010442000111P2 CONCEPT ENGENHARIA INDUSTRIAL LTDA             000000000000000                           
1040001300314U 020000000000000000000000000000000000000000000000000000000000000000000000000000000000000000000000000000000000000000000000000402202600000000000004022026000000000000000                              00000000000000000000000       
1040001300315T 020000004910850000000   14999000002932173912932173        28022026000000000099461000000000                         092012687201000198GLEDSON VERGINIO & CIA LTDA                       000000000000000                           
1040001300316U 020000000000000000000000000000000000000000000000000000000000000000000000000000000000000000000000000000000000000000000000000402202600000000000004022026000000000000000                              00000000000000000000000       
1040001300317T 020000004910850000000   14999000002932179812932179        28022026000000000551350000000000                         092015146823000105RECIFLEX RECICLAGEM DE SOLVENTES LTDA             000000000000000                           
1040001300318U 020000000000000000000000000000000000000000000000000000000000000000000000000000000000000000000000000000000000000000000000000402202600000000000004022026000000000000000                              00000000000000000000000       
1040001300319T 020000004910850000000   14999000002932184412932184        28022026000000000877741000000000                         092012687201000198GLEDSON VERGINIO & CIA LTDA                       000000000000000                           
1040001300320U 020000000000000000000000000000000000000000000000000000000000000000000000000000000000000000000000000000000000000000000000000402202600000000000004022026000000000000000                              00000000000000000000000       
1040001300321T 020000004910850000000   14999000002932218212932218        28022026000000001103849000000000                         092010706052000131PATRICIA PADILHA ME                               000000000000000                           
1040001300322U 020000000000000000000000000000000000000000000000000000000000000000000000000000000000000000000000000000000000000000000000000402202600000000000004022026000000000000000                              00000000000000000000000       
1040001300323T 020000004910850000000   14999000002932242512932242        28022026000000000978387000000000                         092018373853000134MARINA VIEIRA GERHARDT                            000000000000000                           
1040001300324U 020000000000000000000000000000000000000000000000000000000000000000000000000000000000000000000000000000000000000000000000000402202600000000000004022026000000000000000                              00000000000000000000000       
1040001300325T 020000004910850000000   14999000002932250612932250        28022026000000000025560000000000                         092087702528001081GRANJA PINHEIROS LTDA                             000000000000000A4                         
1040001300326U 020000000000000000000000000000000000000000000000000000000000000000000000000000000000000000000000000000000000000000000000000402202600000000000004022026000000000000000                              00000000000000000000000       
1040001300327T 020000004910850000000   14999000002933234012933234        28022026000000002081938000000000                         092016937426000106KUERTEN INDUSTRIA DE PLASTICOS LTDA               000000000000000                           
1040001300328U 020000000000000000000000000000000000000000000000000000000000000000000000000000000000000000000000000000000000000000000000000402202600000000000004022026000000000000000                              00000000000000000000000       
1040001300329T 020000004910850000000   14999000002933241212933241        28022026000000000467975000000000                         092011550488000147ODAIRSON BROLEZ ANTONELLO ME                      000000000000000                           
1040001300330U 020000000000000000000000000000000000000000000000000000000000000000000000000000000000000000000000000000000000000000000000000402202600000000000004022026000000000000000                              00000000000000000000000       
1040001300331T 020000004910850000000   14999000002933243912933243        28022026000000000097078000000000                         092024755128000123KAMILA DA SILVA CLARA                             000000000000000                           
1040001300332U 020000000000000000000000000000000000000000000000000000000000000000000000000000000000000000000000000000000000000000000000000402202600000000000004022026000000000000000                              00000000000000000000000       
1040001300333T 020000004910850000000   14999000002933248012933248        28022026000000000660112000000000                         092014027105000149ROGERIO KOCH MARTINS ME                           000000000000000                           
1040001300334U 020000000000000000000000000000000000000000000000000000000000000000000000000000000000000000000000000000000000000000000000000402202600000000000004022026000000000000000                              00000000000000000000000       
1040001300335T 020000004910850000000   14999000002933254412933254        28022026000000000043222000000000                         092019749859000126MATEUS LUIZ COELHO 00944516998                    000000000000000A4                         
1040001300336U 020000000000000000000000000000000000000000000000000000000000000000000000000000000000000000000000000000000000000000000000000402202600000000000004022026000000000000000                              00000000000000000000000       
1040001300337T 020000004910850000000   14999000002933308712933308        28022026000000002775919000000000                         092005204120000124OK] AUTOMATION LTDA                               000000000000000A4                         
1040001300338U 020000000000000000000000000000000000000000000000000000000000000000000000000000000000000000000000000000000000000000000000000402202600000000000004022026000000000000000                              00000000000000000000000       
1040001300339T 020000004910850000000   14999000002933309512933309        28022026000000000186255000000000                         092006220731000129MARIA APARECIDA MATOS ME                          000000000000000                           
1040001300340U 020000000000000000000000000000000000000000000000000000000000000000000000000000000000000000000000000000000000000000000000000402202600000000000004022026000000000000000                              00000000000000000000000       
1040001300341T 020000004910850000000   14999000002933320612933320        28022026000000000957519000000000                         092012903757000174FRANCIELY SOUZA DE OLIVEIRA ME                    000000000000000                           
1040001300342U 020000000000000000000000000000000000000000000000000000000000000000000000000000000000000000000000000000000000000000000000000402202600000000000004022026000000000000000                              00000000000000000000000       
1040001300343T 020000004910850000000   14999000002933325712933325        28022026000000000521075000000000                         092010923624000134RECICLE TRIAGEM E COMPOSTAGEM DE LIXO LT          000000000000000                           
1040001300344U 020000000000000000000000000000000000000000000000000000000000000000000000000000000000000000000000000000000000000000000000000402202600000000000004022026000000000000000                              00000000000000000000000       
1040001300345T 020000004910850000000   14999000002933335412933335        28022026000000000593485000000000                         092029085922000120PAULO SERGIO OLIVEIRA - EPP                       000000000000000                           
1040001300346U 020000000000000000000000000000000000000000000000000000000000000000000000000000000000000000000000000000000000000000000000000402202600000000000004022026000000000000000                              00000000000000000000000       
1040001300347T 020000004910850000000   14999000002933337012933337        28022026000000000312333000000000                         092013584424000192TRANSPORTES PINHEIRAL EIRELI                      000000000000000                           
1040001300348U 020000000000000000000000000000000000000000000000000000000000000000000000000000000000000000000000000000000000000000000000000402202600000000000004022026000000000000000                              00000000000000000000000       
1040001300349T 020000004910850000000   14999000002933343512933343        28022026000000000483740000000000                         092017572887000195OLIVIO DELA JUSTINA - ME                          000000000000000                           
1040001300350U 020000000000000000000000000000000000000000000000000000000000000000000000000000000000000000000000000000000000000000000000000402202600000000000004022026000000000000000                              00000000000000000000000       
1040001300351T 020000004910850000000   14999000002933347812933347        28022026000000000198918000000000                         092016937426000106KUERTEN INDUSTRIA DE PLASTICOS LTDA               000000000000000                           
1040001300352U 020000000000000000000000000000000000000000000000000000000000000000000000000000000000000000000000000000000000000000000000000402202600000000000004022026000000000000000                              00000000000000000000000       
1040001300353T 020000004910850000000   14999000002933351612933351        28022026000000000085250000000000                         092008682039000148EXISTENCIAL TRANSPORTES LTDA ME                   000000000000000                           
1040001300354U 020000000000000000000000000000000000000000000000000000000000000000000000000000000000000000000000000000000000000000000000000402202600000000000004022026000000000000000                              00000000000000000000000       
1040001300355T 020000004910850000000   14999000002933356712933356        28022026000000000439762000000000                         092035219111000178EDER CESAR NUNES                                  000000000000000                           
1040001300356U 020000000000000000000000000000000000000000000000000000000000000000000000000000000000000000000000000000000000000000000000000402202600000000000004022026000000000000000                              00000000000000000000000       
1040001300357T 020000004910850000000   14999000002933359112933359        28022026000000000100860000000000                         092014425829000140MENEGASSO PIZZARIA LTDA                           000000000000000                           
1040001300358U 020000000000000000000000000000000000000000000000000000000000000000000000000000000000000000000000000000000000000000000000000402202600000000000004022026000000000000000                              00000000000000000000000       
1040001300359T 020000004910850000000   14999000002933360512933360        28022026000000000349614000000000                         092035152965000184FIGUEIRA CONSULTORIA EMPRESARIAL LTDA             000000000000000                           
1040001300360U 020000000000000000000000000000000000000000000000000000000000000000000000000000000000000000000000000000000000000000000000000402202600000000000004022026000000000000000                              00000000000000000000000       
1040001300361T 020000004910850000000   14999000002933365612933365        28022026000000000142086000000000                         092018136974000162DOVALLE RECUPERACAO DE PLASTICOS LTDA             000000000000000                           
1040001300362U 020000000000000000000000000000000000000000000000000000000000000000000000000000000000000000000000000000000000000000000000000402202600000000000004022026000000000000000                              00000000000000000000000       
1040001300363T 020000004910850000000   14999000002933366412933366        28022026000000000550090000000000                         092019741415000144LOURIVAL SANTOS DA SILVA ME                       000000000000000                           
1040001300364U 020000000000000000000000000000000000000000000000000000000000000000000000000000000000000000000000000000000000000000000000000402202600000000000004022026000000000000000                              00000000000000000000000       
1040001300365T 020000004910850000000   14999000002933371012933371        28022026000000000005756000000000                         092029535996000111NAMASTE LOCACOES LTDA                             000000000000000A4                         
1040001300366U 020000000000000000000000000000000000000000000000000000000000000000000000000000000000000000000000000000000000000000000000000402202600000000000004022026000000000000000                              00000000000000000000000       
1040001300367T 020000004910850000000   14999000002933375312933375        28022026000000000021442000000000                         092009367416000117INDUSTRIA E COMERCIO DE ALIMENTOS DVS LT          000000000000000                           
1040001300368U 020000000000000000000000000000000000000000000000000000000000000000000000000000000000000000000000000000000000000000000000000402202600000000000004022026000000000000000                              00000000000000000000000       
1040001300369T 020000004910850000000   14999000002933378812933378        28022026000000001207526000000000                         092000370127000100EVALMIR GRASSI                                    000000000000000                           
1040001300370U 020000000000000000000000000000000000000000000000000000000000000000000000000000000000000000000000000000000000000000000000000402202600000000000004022026000000000000000                              00000000000000000000000       
1040001300371T 020000004910850000000   14999000002933386912933386        28022026000000000479316000000000                         092020212592000112ECO RENTAVEL COMERCIAL LTDA                       000000000000000A4                         
1040001300372U 020000000000000000000000000000000000000000000000000000000000000000000000000000000000000000000000000000000000000000000000000402202600000000000004022026000000000000000                              00000000000000000000000       
1040001300373T 020000004910850000000   14999000002933387712933387        28022026000000000088076000000000                         092075561738000127ESPERANDINA ROSA DUTRA ME                         000000000000000                           
1040001300374U 020000000000000000000000000000000000000000000000000000000000000000000000000000000000000000000000000000000000000000000000000402202600000000000004022026000000000000000                              00000000000000000000000       
1040001300375T 020000004910850000000   14999000002933395812933395        28022026000000000881060000000000                         092020435710000151RONI VIDROS E ALUMINIO LTDA ME                    000000000000000A4                         
1040001300376U 020000000000000000000000000000000000000000000000000000000000000000000000000000000000000000000000000000000000000000000000000402202600000000000004022026000000000000000                              00000000000000000000000       
1040001300377T 020000004910850000000   14999000002933416412933416        28022026000000001962112000000000                         092035508103000141RC COMERCIO DE BATERIAS LTDA                      000000000000000A4                         
1040001300378U 020000000000000000000000000000000000000000000000000000000000000000000000000000000000000000000000000000000000000000000000000402202600000000000004022026000000000000000                              00000000000000000000000       
1040001300379T 020000004910850000000   14999000002933419912933419        28022026000000000284168000000000                         092022576049000120JOAO PAULO WEBER                                  000000000000000                           
1040001300380U 020000000000000000000000000000000000000000000000000000000000000000000000000000000000000000000000000000000000000000000000000402202600000000000004022026000000000000000                              00000000000000000000000       
1040001300381T 020000004910850000000   14999000002933433412933433        28022026000000000978387000000000                         092019643799000162GN INDUSTRIA E COMERCIO DE PALLETS DE MA          000000000000000                           
1040001300382U 020000000000000000000000000000000000000000000000000000000000000000000000000000000000000000000000000000000000000000000000000402202600000000000004022026000000000000000                              00000000000000000000000       
1040001300383T 020000004910850000000   14999000002933438512933438        28022026000000000880338000000000                         092011344627000186VALDIRENE COAN VOLPATO ME                         000000000000000                           
1040001300384U 020000000000000000000000000000000000000000000000000000000000000000000000000000000000000000000000000000000000000000000000000402202600000000000004022026000000000000000                              00000000000000000000000       
1040001300385T 020000004910850000000   14999000002933439312933439        28022026000000000981526000000000                         092010632618000128FABIO AUTO PECAS LTDA                             000000000000000                           
1040001300386U 020000000000000000000000000000000000000000000000000000000000000000000000000000000000000000000000000000000000000000000000000402202600000000000004022026000000000000000                              00000000000000000000000       
1040001300387T 020000004910850000000   14999000002933443112933443        28022026000000000655031000000000                         092017840567000179CRISTOPHER FERNANDES VIANA LTDA                   000000000000000                           
1040001300388U 020000000000000000000000000000000000000000000000000000000000000000000000000000000000000000000000000000000000000000000000000402202600000000000004022026000000000000000                              00000000000000000000000       
1040001300389T 020000004910850000000   14999000002933446612933446        28022026000000000099461000000000                         092014437110000120VOLI BEZA JUNIOR ME                               000000000000000A4                         
1040001300390U 020000000000000000000000000000000000000000000000000000000000000000000000000000000000000000000000000000000000000000000000000402202600000000000004022026000000000000000                              00000000000000000000000       
1040001300391T 020000004910850000000   14999000002933448212933448        28022026000000000198918000000000                         092020031409000182JANDIR J. JUNKES FRUTAS E VERDURAS EIREL          000000000000000A4                         
1040001300392U 020000000000000000000000000000000000000000000000000000000000000000000000000000000000000000000000000000000000000000000000000402202600000000000004022026000000000000000                              00000000000000000000000       
1040001300393T 020000004910850000000   14999000002933450412933450        28022026000000001569311000000000                         092019749859000126MATEUS LUIZ COELHO 00944516998                    000000000000000A4                         
1040001300394U 020000000000000000000000000000000000000000000000000000000000000000000000000000000000000000000000000000000000000000000000000402202600000000000004022026000000000000000                              00000000000000000000000       
1040001300395T 020000004910850000000   14999000002933451212933451        28022026000000000099461000000000                         092010672171000110MARINETE SCHLICKMANN DA ROSA ME                   000000000000000                           
1040001300396U 020000000000000000000000000000000000000000000000000000000000000000000000000000000000000000000000000000000000000000000000000402202600000000000004022026000000000000000                              00000000000000000000000       
1040001300397T 020000004910850000000   14999000002933456312933456        28022026000000000752604000000000                         092016758701000124VONEIDE VARGASKI                                  000000000000000A4                         
1040001300398U 020000000000000000000000000000000000000000000000000000000000000000000000000000000000000000000000000000000000000000000000000402202600000000000004022026000000000000000                              00000000000000000000000       
1040001300399T 020000004910850000000   14999000002933457112933457        28022026000000000170503000000000                         092017021736000149CATIA REGINA GOLCALVES-MOISES ME                  000000000000000                           
1040001300400U 020000000000000000000000000000000000000000000000000000000000000000000000000000000000000000000000000000000000000000000000000402202600000000000004022026000000000000000                              00000000000000000000000       
1040001300401T 020000004910850000000   14999000002933458012933458        28022026000000001215060000000000                         092023335267000135RAHYNARA STENZOSKI FORNAZA 09595975907            000000000000000                           
1040001300402U 020000000000000000000000000000000000000000000000000000000000000000000000000000000000000000000000000000000000000000000000000402202600000000000004022026000000000000000                              00000000000000000000000       
1040001300403T 020000004910850000000   14999000002933464412933464        28022026000000000416638000000000                         092009476170000200MARIALINA IND E COM DE CONFECCOES LTDA M          000000000000000                           
1040001300404U 020000000000000000000000000000000000000000000000000000000000000000000000000000000000000000000000000000000000000000000000000402202600000000000004022026000000000000000                              00000000000000000000000       
1040001300405T 020000004910850000000   14999000002933465212933465        28022026000000001275426000000000                         092010171814000142VITORIA CARDOSO LTDA                              000000000000000                           
1040001300406U 020000000000000000000000000000000000000000000000000000000000000000000000000000000000000000000000000000000000000000000000000402202600000000000004022026000000000000000                              00000000000000000000000       
1040001300407T 020000004910850000000   14999000002933469512933469        28022026000000001167021000000000                         092014190841000113DISTRIBUIDORA DE ALIMENTOS E TRANSPORTES          000000000000000                           
1040001300408U 020000000000000000000000000000000000000000000000000000000000000000000000000000000000000000000000000000000000000000000000000402202600000000000004022026000000000000000                              00000000000000000000000       
1040001300409T 020000004910850000000   14999000002933471712933471        28022026000000000785889000000000                         092014425829000140MENEGASSO PIZZARIA LTDA                           000000000000000                           
1040001300410U 020000000000000000000000000000000000000000000000000000000000000000000000000000000000000000000000000000000000000000000000000402202600000000000004022026000000000000000                              00000000000000000000000       
1040001300411T 020000004910850000000   14999000002933473312933473        28022026000000000667378000000000                         092009657921000104STEINBACH S LANCHES LTDA ME                       000000000000000                           
1040001300412U 020000000000000000000000000000000000000000000000000000000000000000000000000000000000000000000000000000000000000000000000000402202600000000000004022026000000000000000                              00000000000000000000000       
