10400000         2829265510001450000000000000000000001070749108500000000MUNICIPIO DE BRACO DO NORTE   C ECON FEDERAL                          21102202601563300194004000000                    RETORNO-PRODUCAO                  000            
10400011T0100030 20829265510001450000000000000000000001070749108500000000MUNICIPIO DE BRACO DO NORTE                                                                                   00001940110220260000000000                          00   
1040001300001T 060000004910850000000   14999000002890996112890996        110220260000000000228352370000002890996                  091000078842590959SULENI APARECIDA PORTO                            000000000000199620300                     
1040001300002U 060000000000000000000000000000000000000000000000000000000000000000000000228350000000000228350000000000000000000000000000001102202611022026000011022026000000000000000100078842590959               00000000000000000000000       
1040001300003T 060000004910850000000   14999000002896914012896914        170220260000000001867672370000002896914                  091000017994004920VALMOR FUSCHTER                                   000000000000199620300                     
1040001300004U 060000000000000000000000000662060000000000000000000000000000000000000001205610000000001205610000000000000000000000000000001102202611022026000011022026000000000000000100002884730940               00000000000000000000000       
1040001300005T 060000004910850000000   14999000002913437812913437        120220260000000000280262600000002913437                  091000050612093972VOLNEI SCHLICKMANN                                000000000000199620300                     
1040001300006U 060000000000000000000000000063360000000000000000000000000000000000000000216900000000000216900000000000000000000000000000001102202611022026000011022026000000000000000100081647662915               00000000000000000000000       
1040001300007T 060000004910850000000   14999000002923921812923921        150220260000000000975563800000002923921                  091000000518997952VALDOMIRO FERREIRA DE LIMA                        000000000000199620300                     
1040001300008U 060000000000000000000000000000000000000000000000000000000000000000000000975560000000000975560000000000000000000000000000001102202611022026000011022026000000000000000100000518997952               00000000000000000000000       
1040001300009T 060000004910850000000   14999000002933532212933532        030520260000000020117230000000002933532                  092063341540000159JOCKEN JERONIMO EMPREENDIMENTOS IMOBILIA          000000000000199620300                     
1040001300010U 060000000000000000000000000000000000000000000000000000000000000000000020117230000000020117230000000000000000000000000000001102202611022026000011022026000000000000000000000000000000               00000000000000000000000       
1040001300011T 060000004910850000000   14999000002933645012933645        030520260000000015317230000000002933645                  092063341540000159JOCKEN JERONIMO EMPREENDIMENTOS IMOBILIA          000000000000199620300                     
1040001300012U 060000000000000000000000000000000000000000000000000000000000000000000015317230000000015317230000000000000000000000000000001102202611022026000011022026000000000000000000000000000000               00000000000000000000000       
1040001300013T 060000004910850000000   14999000002936652012936652        110220260000000000327020000000002936652                  092007694616000159SERRALHERIA OTAVIO LTDA                           000000000000199620300                     
1040001300014U 060000000000000000000000000045230000000000000000000000000000000000000000281790000000000281790000000000000000000000000000001102202611022026000011022026000000000000000000000000000000               00000000000000000000000       
1040001300015T 060000004910850000000   14999000002936697012936697        110220260000000000630592370000002936697                  091000005327667928JORDANA RALDI SANTANA                             000000000000199620300                     
1040001300016U 060000000000000000000000000173570000000000000000000000000000000000000000457020000000000457020000000000000000000000000000001102202611022026000011022026000000000000000100005327667928               00000000000000000000000       
1040001300017T 060000004910850000000   14999000002936941312936941        110520260000000001917230000000002936941                  091000010276494911DAVI MARTINS CITADIN                              000000000000199620300                     
1040001300018U 060000000000000000000000000000000000000000000000000000000000000000000001917230000000001917230000000000000000000000000000001102202611022026000011022026000000000000000000000000000000               00000000000000000000000       
1040001300019T 060000004910850000000   14999000002697656412697656        120220260000000000173131040107002697656                  092034208408000256CM FERNDANDES ODONTOLOGIA LTDA                    000000000000199020101                     
1040001300020U 060000000000000000000000000000000000000000000000000000000000000000000000173130000000000173130000000000000000000000000000001102202612022026000012022026000000000000000000000000000000               00000000000000000000000       
1040001300021T 060000004910850000000   14999000002894551812894551        110220260000000002320247560056502894551                  091000056443030982VALCIRIO ELLER                                    000000000000199040301                     
1040001300022U 060000000000000000000000000642000000000000000000000000000000000000000001678240000000001678240000000000000000000000000000001102202612022026000012022026000000000000000206925396000164               00000000000000000000000       
1040001300023T 060000004910850000000   14999000002894595012894595        110220260000000000301137560056502894595                  091000029831237900AUREA TRAMONTIN KOCH                              000000000000199040301                     
1040001300024U 060000000000000000000000000080120000000000000000000000000000000000000000221010000000000221010000000000000000000000000000001102202612022026000012022026000000000000000205326883000148               00000000000000000000000       
1040001300025T 060000004910850000000   14999000002894601812894601        110220260000000000563217560056502894601                  092005326883000148AUGUSTINHO MACHADO E CIA LTDA                     000000000000199040301                     
1040001300026U 060000000000000000000000000106300000000000000000000000000000000000000000456910000000000456910000000000000000000000000000001102202612022026000012022026000000000000000205326883000148               00000000000000000000000       
1040001300027T 060000004910850000000   14999000002895017112895017        110220260000000000301991040107002895017                  09203117900800019031.179.008 ELIETE DE OLIVEIRA SOUSA               000000000000199020101                     
1040001300028U 060000000000000000000000000110450000000000000000000000000000000000000000191540000000000191540000000000000000000000000000001102202612022026000012022026000000000000000000000000000000               00000000000000000000000       
1040001300029T 060000004910850000000   14999000002896297812896297        110220260000000000419871360140502896297                  091000052305252900CHARLES TEODORO BIANCHINI                         000000000000199040301                     
1040001300030U 060000000000000000000000000000000000000000000000000000000000000000000000419870000000000419870000000000000000000000000000001102202612022026000012022026000000000000000100052305252900               00000000000000000000000       
1040001300031T 060000004910850000000   14999000002896864012896864        170220260000000000242592600000102896864                  091000062304186904VALMARI LONGUINHO                                 000000000000199040301                     
1040001300032U 060000000000000000000000000072780000000000000000000000000000000000000000169810000000000169810000000000000000000000000000001102202612022026000012022026000000000000000100002488685941               00000000000000000000000       
1040001300033T 060000004910850000000   14999000002897091112897091        110220260000000000692831040385002897091                  091000010282378987VICENTE GAZINSKI                                  000000000000199020101                     
1040001300034U 060000000000000000000000000000000000000000000000000000000000000000000000692830000000000692830000000000000000000000000000001102202612022026000012022026000000000000000000000000000000               00000000000000000000000       
1040001300035T 060000004910850000000   14999000002902388612902388        130220260000000000237191040107002902388                  091000074373510997VANDERLEY BLASIUS                                 000000000000199020101                     
1040001300036U 060000000000000000000000000117550000000000000000000000000000000000000000119640000000000119640000000000000000000000000000001102202612022026000012022026000000000000000000000000000000               00000000000000000000000       
1040001300037T 060000004910850000000   14999000002902520012902520        060320260000000001141441330262802902520                  092055455812000113KULKAMP HORTICULTURA LTDA                         000000000000199040301                     
1040001300038U 060000000000000000000000000000000000000000000000000000000000000000000001141440000000001141440000000000000000000000000000001102202612022026000012022026000000000000000255455812000113               00000000000000000000000       
1040001300039T 060000004910850000000   14999000002902521812902521        060320260000000000209331330262802902521                  092055455812000113KULKAMP HORTICULTURA LTDA                         000000000000199040301                     
1040001300040U 060000000000000000000000000000000000000000000000000000000000000000000000209330000000000209330000000000000000000000000000001102202612022026000012022026000000000000000255455812000113               00000000000000000000000       
1040001300041T 060000004910850000000   14999000002903006812903006        160220260000000007603617480590502903006                  092011943483000184MB ADMINISTRADORA DE IMOVEIS LTDA                 000000000000199040301                     
1040001300042U 060000000000000000000000000000000000000000000000000000000000000000000007603610000000007603610000000000000000000000000000001102202612022026000012022026000000000000000211943483000184               00000000000000000000000       
1040001300043T 060000004910850000000   14999000002907210012907210        110220260000000000771201040107002907210                  091000042271657091VITOR PAULO RAMOS                                 000000000000199020101                     
1040001300044U 060000000000000000000000000144600000000000000000000000000000000000000000626600000000000626600000000000000000000000000000001102202612022026000012022026000000000000000000000000000000               00000000000000000000000       
1040001300045T 060000004910850000000   14999000002908344712908344        200220260000000001798705090000102908344                  091000058693122991CLEWITON PEREIRA                                  000000000000199040301                     
1040001300046U 060000000000000000000000000804170000000000000000000000000000000000000000994530000000000994530000000000000000000000000000001102202612022026000012022026000000000000000100058693122991               00000000000000000000000       
1040001300047T 060000004910850000000   14999000002913095012913095        110220260000000000571751040107002913095                  091000090689909934LEOCIR DE SOUZA                                   000000000000199020101                     
1040001300048U 060000000000000000000000000132340000000000000000000000000000000000000000439410000000000439410000000000000000000000000000001102202612022026000012022026000000000000000000000000000000               00000000000000000000000       
1040001300049T 060000004910850000000   14999000002913111512913111        110220260000000000167717480590502913111                  091000086889826949JAIR ANTONIO GAINSKI                              000000000000199040301                     
1040001300050U 060000000000000000000000000044330000000000000000000000000000000000000000123380000000000123380000000000000000000000000000001102202612022026000012022026000000000000000217168000000106               00000000000000000000000       
1040001300051T 060000004910850000000   14999000002913124712913124        120220260000000000153691040107002913124                  091000079876749900SALETE SCH RHOFF                                  000000000000199060301                     
1040001300052U 060000000000000000000000000000000000000000000000000000000000000000000000153690000000000153690000000000000000000000000000001102202612022026000012022026000000000000000000000000000000               00000000000000000000000       
1040001300053T 060000004910850000000   14999000002913570612913570        120220260000000009373417480072802913570                  091000001907476920LUCAS MEDEIROS NETO                               000000000000199040101                     
1040001300054U 060000000000000000000000003324490000000000000000000000000000000000000006048920000000006048920000000000000000000000000000001102202612022026000012022026000000000000000100001907476920               00000000000000000000000       
1040001300055T 060000004910850000000   14999000002913684212913684        160220260000000000302221330201102913684                  091000001771484977VALDINEI ASSING                                   000000000000199040301                     
1040001300056U 060000000000000000000000000080150000000000000000000000000000000000000000222070000000000222070000000000000000000000000000001102202612022026000012022026000000000000000241366330000182               00000000000000000000000       
1040001300057T 060000004910850000000   14999000002914071812914071        170220260000000000286101040107002914071                  091000037531425904EZIO DA SILVA                                     000000000000199020101                     
1040001300058U 060000000000000000000000000092560000000000000000000000000000000000000000193540000000000193540000000000000000000000000000001102202612022026000012022026000000000000000000000000000000               00000000000000000000000       
1040001300059T 060000004910850000000   14999000002916221512916221        240220260000000001433340330227102916221                  091000004582965970SILVIA TOURNIER RODRIGUES                         000000000000199040301                     
1040001300060U 060000000000000000000000000359730000000000000000000000000000000000000001073610000000001073610000000000000000000000000000001102202612022026000012022026000000000000000100004582965970               00000000000000000000000       
1040001300061T 060000004910850000000   14999000002922290012922290        100220260000000000090367560056502922290                  092016749396000104PRIMOS GUINCHOS LTDA                              000000000000199040301                     
1040001300062U 060000000000001830000000000000000000000000000000000000000000000000000000092190000000000092190000000000000000000000000000001102202612022026000012022026000000000000000216749396000104               00000000000000000000000       
1040001300063T 060000004910850000000   14999000002922377012922377        100220260000000000049912370033602922377                  092045033465000187LUIZ CARLOS ROHDEN MEURER LTDA                    000000000000199040301                     
1040001300064U 060000000000001000000000000000000000000000000000000000000000000000000000050910000000000050910000000000000000000000000000001102202612022026000012022026000000000000000245033465000187               00000000000000000000000       
1040001300065T 060000004910850000000   14999000002922540312922540        110220260000000000128724220014702922540                  092085118446001816DALTRO ESPINDOLA JUNIOR LTDA                      000000000000199040301                     
1040001300066U 060000000000000000000000000000000000000000000000000000000000000000000000128720000000000128720000000000000000000000000000001102202612022026000012022026000000000000000285118446000178               00000000000000000000000       
1040001300067T 060000004910850000000   14999000002922612412922612        110220260000000000352377560056502922612                  091000005526901980ADRIANO DE SOUZA                                  000000000000199040301                     
1040001300068U 060000000000000000000000000000000000000000000000000000000000000000000000352370000000000352370000000000000000000000000000001102202612022026000012022026000000000000000100006975973938               00000000000000000000000       
1040001300069T 060000004910850000000   14999000002923046612923046        060320260000000001473091040107002923046                  091000006744746944DARA WARMLING MICHELS                             000000000000199020101                     
1040001300070U 060000000000000000000000000000000000000000000000000000000000000000000001473090000000001473090000000000000000000000000000001102202612022026000012022026000000000000000000000000000000               00000000000000000000000       
1040001300071T 060000004910850000000   14999000002923063612923063        060320260000000001338017560056502923063                  092053275271000116CONFIAR SERVICOS DE APOIO ADMINISTRATIVO          000000000000199040301                     
1040001300072U 060000000000000000000000000000000000000000000000000000000000000000000001338010000000001338010000000000000000000000000000001102202612022026000012022026000000000000000253275271000116               00000000000000000000000       
1040001300073T 060000004910850000000   14999000002923243412923243        060320260000000002395717560056502923243                  092035446431000160POTENCIAL SERVICOS ADMINISTRATIVOS E TEL          000000000000199040301                     
1040001300074U 060000000000000000000000000000000000000000000000000000000000000000000002395710000000002395710000000000000000000000000000001102202612022026000012022026000000000000000253275271000116               00000000000000000000000       
1040001300075T 060000004910850000000   14999000002923365112923365        130220260000000000225730010073802923365                  091000098250434900ALBERTINA MONTEIRO VIEIRA                         000000000000199040301                     
1040001300076U 060000000000000000000000000000000000000000000000000000000000000000000000225730000000000225730000000000000000000000000000001102202612022026000012022026000000000000000100098250434900               00000000000000000000000       
1040001300077T 060000004910850000000   14999000002923401112923401        060320260000000000209337560056502923401                  092062538529000110MWM ADMINISTRADORA DE IMOVEIS LTDA                000000000000199040301                     
1040001300078U 060000000000000000000000000000000000000000000000000000000000000000000000209330000000000209330000000000000000000000000000001102202612022026000012022026000000000000000262538529000110               00000000000000000000000       
1040001300079T 060000004910850000000   14999000002923402012923402        060320260000000000993087560056502923402                  092062538529000110MWM ADMINISTRADORA DE IMOVEIS LTDA                000000000000199040301                     
1040001300080U 060000000000000000000000000000000000000000000000000000000000000000000000993080000000000993080000000000000000000000000000001102202612022026000012022026000000000000000262538529000110               00000000000000000000000       
1040001300081T 060000004910850000000   14999000002923599912923599        060320260000000001375170010342502923599                  092003774688006005SERVICO NACIONAL DE APRENDIZAGEM INDUSTR          000000000000199040301                     
1040001300082U 060000000000000000000000000000000000000000000000000000000000000000000001375170000000001375170000000000000000000000000000001102202612022026000012022026000000000000000203774688000155               00000000000000000000000       
1040001300083T 060000004910850000000   14999000002923600612923600        060320260000000000247640010342502923600                  092003774688006005SERVICO NACIONAL DE APRENDIZAGEM INDUSTR          000000000000199040301                     
1040001300084U 060000000000000000000000000000000000000000000000000000000000000000000000247640000000000247640000000000000000000000000000001102202612022026000012022026000000000000000203774688000155               00000000000000000000000       
1040001300085T 060000004910850000000   14999000002923981112923981        060320260000000000353820010073802923981                  092009089639000160GLOBAL CASING IMPORTACAO E EXPORTACAO LT          000000000000199040301                     
1040001300086U 060000000000000000000000000000000000000000000000000000000000000000000000353820000000000353820000000000000000000000000000001102202612022026000012022026000000000000000209089639000160               00000000000000000000000       
1040001300087T 060000004910850000000   14999000002924035612924035        060320260000000000353820010073802924035                  092009089639000240GLOBAL CASING IMPORTACAO E EXPORTACAO LT          000000000000199040301                     
1040001300088U 060000000000000000000000000000000000000000000000000000000000000000000000353820000000000353820000000000000000000000000000001102202612022026000012022026000000000000000209089639000240               00000000000000000000000       
1040001300089T 060000004910850000000   14999000002925550712925550        060320260000000004244357560056502925550                  092042027734000104ADILSON LADI FERREIRA                             000000000000199040301                     
1040001300090U 060000000000000000000000000000000000000000000000000000000000000000000004244350000000004244350000000000000000000000000000001102202612022026000012022026000000000000000100012893779956               00000000000000000000000       
1040001300091T 060000004910850000000   14999000002925558212925558        080620260000000000212522600000102925558                  092042236584000149BNM URBANIZACAO LTDA                              000000000000199040301                     
1040001300092U 060000000000000000000000000000000000000000000000000000000000000000000000212520000000000212520000000000000000000000000000001102202612022026000012022026000000000000000100011085179940               00000000000000000000000       
1040001300093T 060000004910850000000   14999000002925564712925564        110220260000000001183181040107002925564                  092015567786000109ART EMPREENDIMENTOS IMOBILIARIOS LTDA             000000000000199060301                     
1040001300094U 060000000000000000000000000000000000000000000000000000000000000000000001183180000000001183180000000000000000000000000000001102202612022026000012022026000000000000000000000000000000               00000000000000000000000       
1040001300095T 060000004910850000000   14999000002925565512925565        110220260000000001590091040107002925565                  092015567786000109ART EMPREENDIMENTOS IMOBILIARIOS LTDA             000000000000199060301                     
1040001300096U 060000000000000000000000000000000000000000000000000000000000000000000001590090000000001590090000000000000000000000000000001102202612022026000012022026000000000000000000000000000000               00000000000000000000000       
1040001300097T 060000004910850000000   14999000002925637612925637        110220260000000000280431330266702925637                  092051902893000100RUMINAR ASSISTENCIA VETERINARIA LTDA              000000000000199040301                     
1040001300098U 060000000000000000000000000000000000000000000000000000000000000000000000280430000000000280430000000000000000000000000000001102202612022026000012022026000000000000000251902893000100               00000000000000000000000       
1040001300099T 060000004910850000000   14999000002925638412925638        110220260000000002168801330266702925638                  092051902893000100RUMINAR ASSISTENCIA VETERINARIA LTDA              000000000000199040301                     
1040001300100U 060000000000000000000000000000000000000000000000000000000000000000000002168800000000002168800000000000000000000000000000001102202612022026000012022026000000000000000251902893000100               00000000000000000000000       
1040001300101T 060000004910850000000   14999000002925903012925903        110220260000000000342550330227102925903                  092042097431000168GAB SERVICOS ADMINISTRATIVOS LTDA                 000000000000199040301                     
1040001300102U 060000000000000000000000000000000000000000000000000000000000000000000000342550000000000342550000000000000000000000000000001102202612022026000012022026000000000000000242097431000168               00000000000000000000000       
1040001300103T 060000004910850000000   14999000002928124912928124        080620260000000000631340010369202928124                  091000065651707972VALDAIR MICHELS                                   000000000000199040301                     
1040001300104U 060000000000000000000000000000000000000000000000000000000000000000000000631340000000000631340000000000000000000000000000001102202612022026000012022026000000000000000100065651707972               00000000000000000000000       
1040001300105T 060000004910850000000   14999000002928125712928125        080620260000000000585590010369202928125                  091000065651707972VALDAIR MICHELS                                   000000000000199040301                     
1040001300106U 060000000000000000000000000000000000000000000000000000000000000000000000585590000000000585590000000000000000000000000000001102202612022026000012022026000000000000000100065651707972               00000000000000000000000       
1040001300107T 060000004910850000000   14999000002928127312928127        080620260000000000380742600000102928127                  091000009054361999ARTHUR ULIANO MIRANDA                             000000000000199040301                     
1040001300108U 060000000000000000000000000000000000000000000000000000000000000000000000380740000000000380740000000000000000000000000000001102202612022026000012022026000000000000000100009054361999               00000000000000000000000       
1040001300109T 060000004910850000000   14999000002928290312928290        080620260000000000064720010369202928290                  091000007064452952ALICE BAGGIO WEBER KEMPER                         000000000000199040301                     
1040001300110U 060000000000000000000000000000000000000000000000000000000000000000000000064720000000000064720000000000000000000000000000001102202612022026000012022026000000000000000100007064452952               00000000000000000000000       
1040001300111T 060000004910850000000   14999000002928291112928291        080620260000000000372280010369202928291                  091000007064452952ALICE BAGGIO WEBER KEMPER                         000000000000199040301                     
1040001300112U 060000000000000000000000000000000000000000000000000000000000000000000000372280000000000372280000000000000000000000000000001102202612022026000012022026000000000000000100007064452952               00000000000000000000000       
1040001300113T 060000004910850000000   14999000002928292012928292        080620260000000000372280010369202928292                  091000007064452952ALICE BAGGIO WEBER KEMPER                         000000000000199040301                     
1040001300114U 060000000000000000000000000000000000000000000000000000000000000000000000372280000000000372280000000000000000000000000000001102202612022026000012022026000000000000000100007064452952               00000000000000000000000       
1040001300115T 060000004910850000000   14999000002928293812928293        080620260000000000064720010369202928293                  091000007064452952ALICE BAGGIO WEBER KEMPER                         000000000000199040301                     
1040001300116U 060000000000000000000000000000000000000000000000000000000000000000000000064720000000000064720000000000000000000000000000001102202612022026000012022026000000000000000100007064452952               00000000000000000000000       
1040001300117T 060000004910850000000   14999000002928867712928867        220420260000000000717230010073802928867                  091000011508002916DOUGLAS LAGO VOLPATO                              000000000000199040301                     
1040001300118U 060000000000000000000000000000000000000000000000000000000000000000000000717230000000000717230000000000000000000000000000001102202612022026000012022026000000000000000100074401114949               00000000000000000000000       
1040001300119T 060000004910850000000   14999000002928868512928868        220420260000000006517232600000102928868                  091000011510670912GUILHERME LAGO VOLPATO                            000000000000199040301                     
1040001300120U 060000000000000000000000000000000000000000000000000000000000000000000006517230000000006517230000000000000000000000000000001102202612022026000012022026000000000000000100011510670912               00000000000000000000000       
1040001300121T 060000004910850000000   14999000002928869312928869        220420260000000000717232600000102928869                  091000011510670912GUILHERME LAGO VOLPATO                            000000000000199040301                     
1040001300122U 060000000000000000000000000000000000000000000000000000000000000000000000717230000000000717230000000000000000000000000000001102202612022026000012022026000000000000000100011510670912               00000000000000000000000       
1040001300123T 060000004910850000000   14999000002933640012933640        030520260000000019717237560056502933640                  092063341540000159JOCKEN JERONIMO EMPREENDIMENTOS IMOBILIA          000000000000199040301                     
1040001300124U 060000000000000000000000000000000000000000000000000000000000000000000019717230000000019717230000000000000000000000000000001102202612022026000012022026000000000000000263341540000159               00000000000000000000000       
1040001300125T 060000004910850000000   14999000002933642612933642        030520260000000026117237560056502933642                  092063341540000159JOCKEN JERONIMO EMPREENDIMENTOS IMOBILIA          000000000000199040301                     
1040001300126U 060000000000000000000000000000000000000000000000000000000000000000000026117230000000026117230000000000000000000000000000001102202612022026000012022026000000000000000263341540000159               00000000000000000000000       
1040001300127T 060000004910850000000   14999000002933643412933643        030520260000000159477237560056502933643                  092063341540000159JOCKEN JERONIMO EMPREENDIMENTOS IMOBILIA          000000000000199040301                     
1040001300128U 060000000000000000000000000000000000000000000000000000000000000000000159477230000000159477230000000000000000000000000000001102202612022026000012022026000000000000000263341540000159               00000000000000000000000       
1040001300129T 060000004910850000000   14999000002933897612933897        050320260000000003497081040107002933897                  091000002183243910VIVIANE AVELINO                                   000000000000199020101                     
1040001300130U 060000000000000000000000000000000000000000000000000000000000000000000003497080000000003497080000000000000000000000000000001102202612022026000012022026000000000000000000000000000000               00000000000000000000000       
1040001300131T 060000004910850000000   14999000002935048812935048        220220260000000000126820010160702935048                  092005858851000193TRIBUNAL REGIONAL ELEITORAL DE SANTA CAT          000000000000199040301                     
1040001300132U 060000000000000000000000000000000000000000000000000000000000000000000000126820000000000126820000000000000000000000000000001102202612022026000012022026000000000000000205858851000193               00000000000000000000000       
1040001300133T 060000004910850000000   14999000002935060712935060        110220260000000001747330010533302935060                  092003120179000109PIETRAN INDUSTRIA E COMERCIO DE CARNES L          000000000000199040301                     
1040001300134U 060000000000000000000000000000000000000000000000000000000000000000000001747330000000001747330000000000000000000000000000001102202612022026000012022026000000000000000203120179000109               00000000000000000000000       
1040001300135T 060000004910850000000   14999000002936650312936650        140220260000000000077531040107902936650                  09205973534600018059.735.346 MARIANA ALBERTON ASCARI                000000000000199060301                     
1040001300136U 060000000000000000000000000000000000000000000000000000000000000000000000077530000000000077530000000000000000000000000000001102202612022026000012022026000000000000000000000000000000               00000000000000000000000       
1040001300137T 060000004910850000000   14999000002936698812936698        110220260000000000626011360140502936698                  091000005327667928JORDANA RALDI SANTANA                             000000000000199040301                     
1040001300138U 060000000000000000000000000173570000000000000000000000000000000000000000452440000000000452440000000000000000000000000000001102202612022026000012022026000000000000000100005327667928               00000000000000000000000       
1040001300139T 060000004910850000000   14999000002936719412936719        110520260000000000992230010464202936719                  091000061881511987JOSE NEVES CORREA                                 000000000000199040301                     
1040001300140U 060000000000000000000000000000000000000000000000000000000000000000000000992230000000000992230000000000000000000000000000001102202612022026000012022026000000000000000100061881511987               00000000000000000000000       
1040001300141T 060000004910850000000   14999000002936837912936837        110520260000000001635742370033602936837                  092064922794000123RESIDENCIAL LEGACY TOWER SPE LTDA                 000000000000199040301                     
1040001300142U 060000000000000000000000000000000000000000000000000000000000000000000001635740000000001635740000000000000000000000000000001102202612022026000012022026000000000000000100005136606908               00000000000000000000000       
1040001300143T 060000004910850000000   14999000002937899412937899        110220260000000007926467480590502937899                  091000077408845968PATRICIA VIEIRA KOCH                              000000000000199040301                     
1040001300144U 060000000000000000000000001637030000000000000000000000000000000000000006289430000000006289430000000000000000000000000000001102202612022026000012022026000000000000000219028488000193               00000000000000000000000       
1040001300145T 020000004910850000000   14999000002922464412922464        22022026000000000047832000000000                         092058520514000158HD SERVICOS MEDICOS LTDA                          000000000000000A4                         
1040001300146U 020000000000000000000000000000000000000000000000000000000000000000000000000000000000000000000000000000000000000000000000001102202600000000000000000000000000000000000                              00000000000000000000000       
1040001300147T 020000004910850000000   14999000002922477612922477        22022026000000000000104000000000                         092016695624000100FLACH INDUSTRIA DE CARREGADORES  EQUIPAM          000000000000000A4                         
1040001300148U 020000000000000000000000000000000000000000000000000000000000000000000000000000000000000000000000000000000000000000000000001102202600000000000000000000000000000000000                              00000000000000000000000       
1040001300149T 020000004910850000000   14999000002922481412922481        22022026000000000002917000000000                         092002873885000169EBM SOFTWARES LTDA                                000000000000000A4                         
1040001300150U 020000000000000000000000000000000000000000000000000000000000000000000000000000000000000000000000000000000000000000000000001102202600000000000000000000000000000000000                              00000000000000000000000       
1040001300151T 020000004910850000000   14999000002922490312922490        22022026000000000094113000000000                         092003005324000100MKM INTERNET SOLUTION PROVIDER LTDA               000000000000000A4                         
1040001300152U 020000000000000000000000000000000000000000000000000000000000000000000000000000000000000000000000000000000000000000000000001102202600000000000000000000000000000000000                              00000000000000000000000       
1040001300153T 020000004910850000000   14999000002922509812922509        22022026000000000012500000000000                         092007924993000137TURAMIX INDUSTRIA E COMERCIO LTDA                 000000000000000                           
1040001300154U 020000000000000000000000000000000000000000000000000000000000000000000000000000000000000000000000000000000000000000000000001102202600000000000000000000000000000000000                              00000000000000000000000       
1040001300155T 020000004910850000000   14999000002922522512922522        22022026000000000055884000000000                         092026263083000103RENOVA JEANS TINTURARIA E CUSTOMIZACAO D          000000000000000A4                         
1040001300156U 020000000000000000000000000000000000000000000000000000000000000000000000000000000000000000000000000000000000000000000000001102202600000000000000000000000000000000000                              00000000000000000000000       
1040001300157T 020000004910850000000   14999000002925554012925554        10022026000000000133103000000000                         091000034450351991TARCISIO BORBA                                    000000000000000                           
1040001300158U 020000000000000000000000000000000000000000000000000000000000000000000000000000000000000000000000000000000000000000000000001102202600000000000000000000000000000000000                              00000000000000000000000       
1040001300159T 020000004910850000000   14999000002925555812925555        08062026000000000038193000000000                         091000012001743998HENRIQUE PIRES PERREIRA                           000000000000000A4                         
1040001300160U 020000000000000000000000000000000000000000000000000000000000000000000000000000000000000000000000000000000000000000000000001102202600000000000000000000000000000000000                              00000000000000000000000       
1040001300161T 020000004910850000000   14999000002925556612925556        08062026000000000080188000000000                         091000004775116940ROSIMERI DA SILVA LUNARDI                         000000000000000                           
1040001300162U 020000000000000000000000000000000000000000000000000000000000000000000000000000000000000000000000000000000000000000000000001102202600000000000011022026000000000000000                              00000000000000000000000       
1040001300163T 020000004910850000000   14999000002925557412925557        08062026000000000014612000000000                         091000005098737907ILSON BOEING                                      000000000000000                           
1040001300164U 020000000000000000000000000000000000000000000000000000000000000000000000000000000000000000000000000000000000000000000000001102202600000000000011022026000000000000000                              00000000000000000000000       
1040001300165T 020000004910850000000   14999000002925558212925558        08062026000000000021252000000000                         092042236584000149BNM URBANIZACAO LTDA                              000000000000000                           
1040001300166U 020000000000000000000000000000000000000000000000000000000000000000000000000000000000000000000000000000000000000000000000001102202600000000000011022026000000000000000                              00000000000000000000000       
1040001300167T 020000004910850000000   14999000002925559012925559        06032026000000000045313000000000                         092014706473000466CANTINA SABOR CASEIRO LTDA                        000000000000000A4                         
1040001300168U 020000000000000000000000000000000000000000000000000000000000000000000000000000000000000000000000000000000000000000000000001102202600000000000011022026000000000000000                              00000000000000000000000       
1040001300169T 020000004910850000000   14999000002925560412925560        06042026000000000045314000000000                         092014706473000466CANTINA SABOR CASEIRO LTDA                        000000000000000A4                         
1040001300170U 020000000000000000000000000000000000000000000000000000000000000000000000000000000000000000000000000000000000000000000000001102202600000000000011022026000000000000000                              00000000000000000000000       
1040001300171T 020000004910850000000   14999000002925561212925561        06052026000000000045314000000000                         092014706473000466CANTINA SABOR CASEIRO LTDA                        000000000000000A4                         
1040001300172U 020000000000000000000000000000000000000000000000000000000000000000000000000000000000000000000000000000000000000000000000001102202600000000000011022026000000000000000                              00000000000000000000000       
1040001300173T 020000004910850000000   14999000002925562012925562        05062026000000000045314000000000                         092014706473000466CANTINA SABOR CASEIRO LTDA                        000000000000000A4                         
1040001300174U 020000000000000000000000000000000000000000000000000000000000000000000000000000000000000000000000000000000000000000000000001102202600000000000011022026000000000000000                              00000000000000000000000       
1040001300175T 020000004910850000000   14999000002925563912925563        06032026000000000069778000000000                         092014706473000466CANTINA SABOR CASEIRO LTDA                        000000000000000A4                         
1040001300176U 020000000000000000000000000000000000000000000000000000000000000000000000000000000000000000000000000000000000000000000000001102202600000000000011022026000000000000000                              00000000000000000000000       
1040001300177T 020000004910850000000   14999000002925564712925564        11022026000000000118318000000000                         092015567786000109ART EMPREENDIMENTOS IMOBILIARIOS LTDA             000000000000000                           
1040001300178U 020000000000000000000000000000000000000000000000000000000000000000000000000000000000000000000000000000000000000000000000001102202600000000000011022026000000000000000                              00000000000000000000000       
1040001300179T 020000004910850000000   14999000002925565512925565        11022026000000000159009000000000                         092015567786000109ART EMPREENDIMENTOS IMOBILIARIOS LTDA             000000000000000                           
1040001300180U 020000000000000000000000000000000000000000000000000000000000000000000000000000000000000000000000000000000000000000000000001102202600000000000011022026000000000000000                              00000000000000000000000       
1040001300181T 020000004910850000000   14999000002925566312925566        08062026000000000096799000000000                         091000002859835989LEANDRO BRAZ MARTINS                              000000000000000A4                         
1040001300182U 020000000000000000000000000000000000000000000000000000000000000000000000000000000000000000000000000000000000000000000000001102202600000000000011022026000000000000000                              00000000000000000000000       
1040001300183T 020000004910850000000   14999000002925567112925567        08062026000000000082382000000000                         091000002859835989LEANDRO BRAZ MARTINS                              000000000000000A4                         
1040001300184U 020000000000000000000000000000000000000000000000000000000000000000000000000000000000000000000000000000000000000000000000001102202600000000000011022026000000000000000                              00000000000000000000000       
1040001300185T 020000004910850000000   14999000002925568012925568        08062026000000000084193000000000                         091000002859835989LEANDRO BRAZ MARTINS                              000000000000000A4                         
1040001300186U 020000000000000000000000000000000000000000000000000000000000000000000000000000000000000000000000000000000000000000000000001102202600000000000011022026000000000000000                              00000000000000000000000       
1040001300187T 020000004910850000000   14999000002925569812925569        08062026000000000087291000000000                         091000002859835989LEANDRO BRAZ MARTINS                              000000000000000A4                         
1040001300188U 020000000000000000000000000000000000000000000000000000000000000000000000000000000000000000000000000000000000000000000000001102202600000000000011022026000000000000000                              00000000000000000000000       
1040001300189T 020000004910850000000   14999000002925570112925570        06032026000000000010613000000000                         092050106579000140INFOCENTER INFORMATICA E CELULARES LTDA           000000000000000A4                         
1040001300190U 020000000000000000000000000000000000000000000000000000000000000000000000000000000000000000000000000000000000000000000000001102202600000000000011022026000000000000000                              00000000000000000000000       
1040001300191T 020000004910850000000   14999000002925571012925571        06032026000000000234732000000000                         092050106579000140INFOCENTER INFORMATICA E CELULARES LTDA           000000000000000A4                         
1040001300192U 020000000000000000000000000000000000000000000000000000000000000000000000000000000000000000000000000000000000000000000000001102202600000000000011022026000000000000000                              00000000000000000000000       
1040001300193T 020000004910850000000   14999000002925572812925572        11022026000000000084502000000000                         091000005296429990KINDERMAN WEBER                                   000000000000000                           
1040001300194U 020000000000000000000000000000000000000000000000000000000000000000000000000000000000000000000000000000000000000000000000001102202600000000000011022026000000000000000                              00000000000000000000000       
1040001300195T 020000004910850000000   14999000002925573612925573        08062026000000000063709000000000                         091000005296429990KINDERMAN WEBER                                   000000000000000A4                         
1040001300196U 020000000000000000000000000000000000000000000000000000000000000000000000000000000000000000000000000000000000000000000000001102202600000000000011022026000000000000000                              00000000000000000000000       
1040001300197T 020000004910850000000   14999000002925574412925574        06032026000000000162946000000000                         092043150488000146MPS ATACADISTA LTDA                               000000000000000A4                         
1040001300198U 020000000000000000000000000000000000000000000000000000000000000000000000000000000000000000000000000000000000000000000000001102202600000000000011022026000000000000000                              00000000000000000000000       
1040001300199T 020000004910850000000   14999000002925575212925575        06032026000000000223618000000000                         092048258489000122MP ATACADISTA DE MATERIAIS PARA CONSTRUC          000000000000000A4                         
1040001300200U 020000000000000000000000000000000000000000000000000000000000000000000000000000000000000000000000000000000000000000000000001102202600000000000011022026000000000000000                              00000000000000000000000       
1040001300201T 020000004910850000000   14999000002925576012925576        06032026000000000253470000000000                         092041790381000137MEU APE STORE ATACADISTA LTDA                     000000000000000A4                         
1040001300202U 020000000000000000000000000000000000000000000000000000000000000000000000000000000000000000000000000000000000000000000000001102202600000000000011022026000000000000000                              00000000000000000000000       
1040001300203T 020000004910850000000   14999000002925577912925577        06032026000000000007589000000000                         092063924440000155GOLDEN ESTETICA AUTOMOTIVA E CONVENIENCI          000000000000000A4                         
1040001300204U 020000000000000000000000000000000000000000000000000000000000000000000000000000000000000000000000000000000000000000000000001102202600000000000011022026000000000000000                              00000000000000000000000       
1040001300205T 020000004910850000000   14999000002925578712925578        08062026000000000137066000000000                         091000001647731933MAYCO LUIZ NIEHUES                                000000000000000A4                         
1040001300206U 020000000000000000000000000000000000000000000000000000000000000000000000000000000000000000000000000000000000000000000000001102202600000000000011022026000000000000000                              00000000000000000000000       
1040001300207T 020000004910850000000   14999000002925579512925579        08062026000000000173805000000000                         092011589937000160MJ NIEHUES EMPREENDIMENTOS IMOBILIARIOS           000000000000000A4                         
1040001300208U 020000000000000000000000000000000000000000000000000000000000000000000000000000000000000000000000000000000000000000000000001102202600000000000011022026000000000000000                              00000000000000000000000       
1040001300209T 020000004910850000000   14999000002925580912925580        08062026000000000352962000000000                         092011589937000160MJ NIEHUES EMPREENDIMENTOS IMOBILIARIOS           000000000000000A4                         
1040001300210U 020000000000000000000000000000000000000000000000000000000000000000000000000000000000000000000000000000000000000000000000001102202600000000000011022026000000000000000                              00000000000000000000000       
1040001300211T 020000004910850000000   14999000002925581712925581        08062026000000000407697000000000                         092011589937000160MJ NIEHUES EMPREENDIMENTOS IMOBILIARIOS           000000000000000A4                         
1040001300212U 020000000000000000000000000000000000000000000000000000000000000000000000000000000000000000000000000000000000000000000000001102202600000000000011022026000000000000000                              00000000000000000000000       
1040001300213T 020000004910850000000   14999000002925582512925582        08062026000000000035165000000000                         092011589937000160MJ NIEHUES EMPREENDIMENTOS IMOBILIARIOS           000000000000000A4                         
1040001300214U 020000000000000000000000000000000000000000000000000000000000000000000000000000000000000000000000000000000000000000000000001102202600000000000011022026000000000000000                              00000000000000000000000       
1040001300215T 020000004910850000000   14999000002925583312925583        08062026000000000037154000000000                         092011589937000160MJ NIEHUES EMPREENDIMENTOS IMOBILIARIOS           000000000000000A4                         
1040001300216U 020000000000000000000000000000000000000000000000000000000000000000000000000000000000000000000000000000000000000000000000001102202600000000000011022026000000000000000                              00000000000000000000000       
1040001300217T 020000004910850000000   14999000002925584112925584        08062026000000000069498000000000                         092011589937000160MJ NIEHUES EMPREENDIMENTOS IMOBILIARIOS           000000000000000A4                         
1040001300218U 020000000000000000000000000000000000000000000000000000000000000000000000000000000000000000000000000000000000000000000000001102202600000000000011022026000000000000000                              00000000000000000000000       
1040001300219T 020000004910850000000   14999000002925585012925585        08062026000000000069240000000000                         092011589937000160MJ NIEHUES EMPREENDIMENTOS IMOBILIARIOS           000000000000000A4                         
1040001300220U 020000000000000000000000000000000000000000000000000000000000000000000000000000000000000000000000000000000000000000000000001102202600000000000011022026000000000000000                              00000000000000000000000       
1040001300221T 020000004910850000000   14999000002925586812925586        08062026000000000068984000000000                         092011589937000160MJ NIEHUES EMPREENDIMENTOS IMOBILIARIOS           000000000000000A4                         
1040001300222U 020000000000000000000000000000000000000000000000000000000000000000000000000000000000000000000000000000000000000000000000001102202600000000000011022026000000000000000                              00000000000000000000000       
1040001300223T 020000004910850000000   14999000002925587612925587        08062026000000000070685000000000                         092011589937000160MJ NIEHUES EMPREENDIMENTOS IMOBILIARIOS           000000000000000A4                         
1040001300224U 020000000000000000000000000000000000000000000000000000000000000000000000000000000000000000000000000000000000000000000000001102202600000000000011022026000000000000000                              00000000000000000000000       
1040001300225T 020000004910850000000   14999000002925588412925588        08062026000000000037134000000000                         092011589937000160MJ NIEHUES EMPREENDIMENTOS IMOBILIARIOS           000000000000000A4                         
1040001300226U 020000000000000000000000000000000000000000000000000000000000000000000000000000000000000000000000000000000000000000000000001102202600000000000011022026000000000000000                              00000000000000000000000       
1040001300227T 020000004910850000000   14999000002925589212925589        08062026000000000028312000000000                         092011589937000160MJ NIEHUES EMPREENDIMENTOS IMOBILIARIOS           000000000000000A4                         
1040001300228U 020000000000000000000000000000000000000000000000000000000000000000000000000000000000000000000000000000000000000000000000001102202600000000000011022026000000000000000                              00000000000000000000000       
1040001300229T 020000004910850000000   14999000002925590612925590        08062026000000000030312000000000                         092011589937000160MJ NIEHUES EMPREENDIMENTOS IMOBILIARIOS           000000000000000A4                         
1040001300230U 020000000000000000000000000000000000000000000000000000000000000000000000000000000000000000000000000000000000000000000000001102202600000000000011022026000000000000000                              00000000000000000000000       
1040001300231T 020000004910850000000   14999000002925591412925591        08062026000000000035464000000000                         092011589937000160MJ NIEHUES EMPREENDIMENTOS IMOBILIARIOS           000000000000000A4                         
1040001300232U 020000000000000000000000000000000000000000000000000000000000000000000000000000000000000000000000000000000000000000000000001102202600000000000011022026000000000000000                              00000000000000000000000       
1040001300233T 020000004910850000000   14999000002925592212925592        11022026000000000002608000000000                         092085271310000101HEIDEMANN CONSTRUTORA E INCORPORADORA LT          000000000000000                           
1040001300234U 020000000000000000000000000000000000000000000000000000000000000000000000000000000000000000000000000000000000000000000000001102202600000000000011022026000000000000000                              00000000000000000000000       
1040001300235T 020000004910850000000   14999000002925593012925593        11022026000000000002773000000000                         092085271310000101HEIDEMANN CONSTRUTORA E INCORPORADORA LT          000000000000000                           
1040001300236U 020000000000000000000000000000000000000000000000000000000000000000000000000000000000000000000000000000000000000000000000001102202600000000000011022026000000000000000                              00000000000000000000000       
1040001300237T 020000004910850000000   14999000002925594912925594        11022026000000000052552000000000                         092085271310000101HEIDEMANN CONSTRUTORA E INCORPORADORA LT          000000000000000                           
1040001300238U 020000000000000000000000000000000000000000000000000000000000000000000000000000000000000000000000000000000000000000000000001102202600000000000011022026000000000000000                              00000000000000000000000       
1040001300239T 020000004910850000000   14999000002925595712925595        11022026000000000052552000000000                         092085271310000101HEIDEMANN CONSTRUTORA E INCORPORADORA LT          000000000000000                           
1040001300240U 020000000000000000000000000000000000000000000000000000000000000000000000000000000000000000000000000000000000000000000000001102202600000000000011022026000000000000000                              00000000000000000000000       
1040001300241T 020000004910850000000   14999000002925596512925596        11022026000000000120880000000000                         092085271310000101HEIDEMANN CONSTRUTORA E INCORPORADORA LT          000000000000000                           
1040001300242U 020000000000000000000000000000000000000000000000000000000000000000000000000000000000000000000000000000000000000000000000001102202600000000000011022026000000000000000                              00000000000000000000000       
1040001300243T 020000004910850000000   14999000002925597312925597        08062026000000000047619000000000                         092011589937000160MJ NIEHUES EMPREENDIMENTOS IMOBILIARIOS           000000000000000A4                         
1040001300244U 020000000000000000000000000000000000000000000000000000000000000000000000000000000000000000000000000000000000000000000000001102202600000000000011022026000000000000000                              00000000000000000000000       
1040001300245T 020000004910850000000   14999000002925598112925598        08062026000000000041201000000000                         092011589937000160MJ NIEHUES EMPREENDIMENTOS IMOBILIARIOS           000000000000000A4                         
1040001300246U 020000000000000000000000000000000000000000000000000000000000000000000000000000000000000000000000000000000000000000000000001102202600000000000011022026000000000000000                              00000000000000000000000       
1040001300247T 020000004910850000000   14999000002925599012925599        08062026000000000001662000000000                         092085271310000101HEIDEMANN CONSTRUTORA E INCORPORADORA LT          000000000000000A4                         
1040001300248U 020000000000000000000000000000000000000000000000000000000000000000000000000000000000000000000000000000000000000000000000001102202600000000000011022026000000000000000                              00000000000000000000000       
1040001300249T 020000004910850000000   14999000002925600712925600        08062026000000000030499000000000                         092085271310000101HEIDEMANN CONSTRUTORA E INCORPORADORA LT          000000000000000A4                         
1040001300250U 020000000000000000000000000000000000000000000000000000000000000000000000000000000000000000000000000000000000000000000000001102202600000000000011022026000000000000000                              00000000000000000000000       
1040001300251T 020000004910850000000   14999000002925601512925601        08062026000000000002057000000000                         092085271310000101HEIDEMANN CONSTRUTORA E INCORPORADORA LT          000000000000000A4                         
1040001300252U 020000000000000000000000000000000000000000000000000000000000000000000000000000000000000000000000000000000000000000000000001102202600000000000011022026000000000000000                              00000000000000000000000       
1040001300253T 020000004910850000000   14999000002925602312925602        08062026000000000002287000000000                         092085271310000101HEIDEMANN CONSTRUTORA E INCORPORADORA LT          000000000000000A4                         
1040001300254U 020000000000000000000000000000000000000000000000000000000000000000000000000000000000000000000000000000000000000000000000001102202600000000000011022026000000000000000                              00000000000000000000000       
1040001300255T 020000004910850000000   14999000002925603112925603        08062026000000000001664000000000                         092085271310000101HEIDEMANN CONSTRUTORA E INCORPORADORA LT          000000000000000A4                         
1040001300256U 020000000000000000000000000000000000000000000000000000000000000000000000000000000000000000000000000000000000000000000000001102202600000000000011022026000000000000000                              00000000000000000000000       
1040001300257T 020000004910850000000   14999000002925604012925604        08062026000000000002289000000000                         092085271310000101HEIDEMANN CONSTRUTORA E INCORPORADORA LT          000000000000000A4                         
1040001300258U 020000000000000000000000000000000000000000000000000000000000000000000000000000000000000000000000000000000000000000000000001102202600000000000011022026000000000000000                              00000000000000000000000       
1040001300259T 020000004910850000000   14999000002925605812925605        08062026000000000002267000000000                         092085271310000101HEIDEMANN CONSTRUTORA E INCORPORADORA LT          000000000000000A4                         
1040001300260U 020000000000000000000000000000000000000000000000000000000000000000000000000000000000000000000000000000000000000000000000001102202600000000000011022026000000000000000                              00000000000000000000000       
1040001300261T 020000004910850000000   14999000002925606612925606        08062026000000000032778000000000                         092085271310000101HEIDEMANN CONSTRUTORA E INCORPORADORA LT          000000000000000A4                         
1040001300262U 020000000000000000000000000000000000000000000000000000000000000000000000000000000000000000000000000000000000000000000000001102202600000000000011022026000000000000000                              00000000000000000000000       
1040001300263T 020000004910850000000   14999000002925607412925607        08062026000000000002266000000000                         092085271310000101HEIDEMANN CONSTRUTORA E INCORPORADORA LT          000000000000000A4                         
1040001300264U 020000000000000000000000000000000000000000000000000000000000000000000000000000000000000000000000000000000000000000000000001102202600000000000011022026000000000000000                              00000000000000000000000       
1040001300265T 020000004910850000000   14999000002925608212925608        08062026000000000001830000000000                         092085271310000101HEIDEMANN CONSTRUTORA E INCORPORADORA LT          000000000000000A4                         
1040001300266U 020000000000000000000000000000000000000000000000000000000000000000000000000000000000000000000000000000000000000000000000001102202600000000000011022026000000000000000                              00000000000000000000000       
1040001300267T 020000004910850000000   14999000002925609012925609        08062026000000000002294000000000                         092085271310000101HEIDEMANN CONSTRUTORA E INCORPORADORA LT          000000000000000A4                         
1040001300268U 020000000000000000000000000000000000000000000000000000000000000000000000000000000000000000000000000000000000000000000000001102202600000000000011022026000000000000000                              00000000000000000000000       
1040001300269T 020000004910850000000   14999000002925610412925610        08062026000000000002057000000000                         092085271310000101HEIDEMANN CONSTRUTORA E INCORPORADORA LT          000000000000000A4                         
1040001300270U 020000000000000000000000000000000000000000000000000000000000000000000000000000000000000000000000000000000000000000000000001102202600000000000011022026000000000000000                              00000000000000000000000       
1040001300271T 020000004910850000000   14999000002925611212925611        08062026000000000001830000000000                         092085271310000101HEIDEMANN CONSTRUTORA E INCORPORADORA LT          000000000000000A4                         
1040001300272U 020000000000000000000000000000000000000000000000000000000000000000000000000000000000000000000000000000000000000000000000001102202600000000000011022026000000000000000                              00000000000000000000000       
1040001300273T 020000004910850000000   14999000002925612012925612        05062026000000000069778000000000                         092085271310000101HEIDEMANN CONSTRUTORA E INCORPORADORA LT          000000000000000A4                         
1040001300274U 020000000000000000000000000000000000000000000000000000000000000000000000000000000000000000000000000000000000000000000000001102202600000000000011022026000000000000000                              00000000000000000000000       
1040001300275T 020000004910850000000   14999000002925613912925613        05062026000000000069778000000000                         092085271310000101HEIDEMANN CONSTRUTORA E INCORPORADORA LT          000000000000000A4                         
1040001300276U 020000000000000000000000000000000000000000000000000000000000000000000000000000000000000000000000000000000000000000000000001102202600000000000011022026000000000000000                              00000000000000000000000       
1040001300277T 020000004910850000000   14999000002925614712925614        06032026000000000070268000000000                         092020434978000179CORREA & SANTOS ENGENHARIA E AVALIACOES           000000000000000                           
1040001300278U 020000000000000000000000000000000000000000000000000000000000000000000000000000000000000000000000000000000000000000000000001102202600000000000011022026000000000000000                              00000000000000000000000       
1040001300279T 020000004910850000000   14999000002925615512925615        06032026000000000119794000000000                         092008195889000111CRED FACIL SERVICOS DE APOIO ADMINISTRAT          000000000000000                           
1040001300280U 020000000000000000000000000000000000000000000000000000000000000000000000000000000000000000000000000000000000000000000000001102202600000000000011022026000000000000000                              00000000000000000000000       
1040001300281T 020000004910850000000   14999000002925616312925616        08062026000000000054068000000000                         092012973055000167HABITTA GESTAO DE CONDOMINIOS LTDA                000000000000000                           
1040001300282U 020000000000000000000000000000000000000000000000000000000000000000000000000000000000000000000000000000000000000000000000001102202600000000000011022026000000000000000                              00000000000000000000000       
1040001300283T 020000004910850000000   14999000002925617112925617        08062026000000000071246000000000                         092012973055000167HABITTA GESTAO DE CONDOMINIOS LTDA                000000000000000                           
1040001300284U 020000000000000000000000000000000000000000000000000000000000000000000000000000000000000000000000000000000000000000000000001102202600000000000011022026000000000000000                              00000000000000000000000       
1040001300285T 020000004910850000000   14999000002925618012925618        06032026000000000129778000000000                         092012973055000167HABITTA GESTAO DE CONDOMINIOS LTDA                000000000000000                           
1040001300286U 020000000000000000000000000000000000000000000000000000000000000000000000000000000000000000000000000000000000000000000000001102202600000000000011022026000000000000000                              00000000000000000000000       
1040001300287T 020000004910850000000   14999000002925619812925619        06032026000000000094200000000000                         092017890675000156KS AVALIACOES E APOIO ADMINISTRATIVO LTD          000000000000000A4                         
1040001300288U 020000000000000000000000000000000000000000000000000000000000000000000000000000000000000000000000000000000000000000000000001102202600000000000011022026000000000000000                              00000000000000000000000       
1040001300289T 020000004910850000000   14999000002925620112925620        06032026000000000118577000000000                         092017890675000156KS AVALIACOES E APOIO ADMINISTRATIVO LTD          000000000000000A4                         
1040001300290U 020000000000000000000000000000000000000000000000000000000000000000000000000000000000000000000000000000000000000000000000001102202600000000000011022026000000000000000                              00000000000000000000000       
1040001300291T 020000004910850000000   14999000002925621012925621        08062026000000000613265000000000                         092075411066000173POSTO LEAO CITY LTDA                              000000000000000                           
1040001300292U 020000000000000000000000000000000000000000000000000000000000000000000000000000000000000000000000000000000000000000000000001102202600000000000011022026000000000000000                              00000000000000000000000       
1040001300293T 020000004910850000000   14999000002925622812925622        08062026000000000051299000000000                         092075411066000173POSTO LEAO CITY LTDA                              000000000000000                           
1040001300294U 020000000000000000000000000000000000000000000000000000000000000000000000000000000000000000000000000000000000000000000000001102202600000000000011022026000000000000000                              00000000000000000000000       
1040001300295T 020000004910850000000   14999000002925623612925623        08062026000000000149847000000000                         092075411066000173POSTO LEAO CITY LTDA                              000000000000000                           
1040001300296U 020000000000000000000000000000000000000000000000000000000000000000000000000000000000000000000000000000000000000000000000001102202600000000000011022026000000000000000                              00000000000000000000000       
1040001300297T 020000004910850000000   14999000002925624412925624        08062026000000000110721000000000                         092075411066000173POSTO LEAO CITY LTDA                              000000000000000                           
1040001300298U 020000000000000000000000000000000000000000000000000000000000000000000000000000000000000000000000000000000000000000000000001102202600000000000011022026000000000000000                              00000000000000000000000       
1040001300299T 020000004910850000000   14999000002925625212925625        08062026000000000110721000000000                         092075411066000173POSTO LEAO CITY LTDA                              000000000000000                           
1040001300300U 020000000000000000000000000000000000000000000000000000000000000000000000000000000000000000000000000000000000000000000000001102202600000000000011022026000000000000000                              00000000000000000000000       
1040001300301T 020000004910850000000   14999000002925626012925626        08062026000000000155507000000000                         092075411066000173POSTO LEAO CITY LTDA                              000000000000000                           
1040001300302U 020000000000000000000000000000000000000000000000000000000000000000000000000000000000000000000000000000000000000000000000001102202600000000000011022026000000000000000                              00000000000000000000000       
1040001300303T 020000004910850000000   14999000002925627912925627        06032026000000000114144000000000                         0920187971480001642M CALCADOS E CONFECCOES LTDA- ME                 000000000000000A4                         
1040001300304U 020000000000000000000000000000000000000000000000000000000000000000000000000000000000000000000000000000000000000000000000001102202600000000000011022026000000000000000                              00000000000000000000000       
1040001300305T 020000004910850000000   14999000002925628712925628        06032026000000000102924000000000                         092039483769000143A & F CHOCOLATES LTDA                             000000000000000                           
1040001300306U 020000000000000000000000000000000000000000000000000000000000000000000000000000000000000000000000000000000000000000000000001102202600000000000011022026000000000000000                              00000000000000000000000       
1040001300307T 020000004910850000000   14999000002925629512925629        06032026000000000040227000000000                         092039483769000143A & F CHOCOLATES LTDA                             000000000000000                           
1040001300308U 020000000000000000000000000000000000000000000000000000000000000000000000000000000000000000000000000000000000000000000000001102202600000000000011022026000000000000000                              00000000000000000000000       
1040001300309T 020000004910850000000   14999000002925630912925630        11022026000000000066366000000000                         092046443955000114REGINALDA BESSA - UNIBRASIL UNIFORMES PR          000000000000000                           
1040001300310U 020000000000000000000000000000000000000000000000000000000000000000000000000000000000000000000000000000000000000000000000001102202600000000000011022026000000000000000                              00000000000000000000000       
1040001300311T 020000004910850000000   14999000002925631712925631        11022026000000000053000000000000                         092046443955000114REGINALDA BESSA - UNIBRASIL UNIFORMES PR          000000000000000                           
1040001300312U 020000000000000000000000000000000000000000000000000000000000000000000000000000000000000000000000000000000000000000000000001102202600000000000011022026000000000000000                              00000000000000000000000       
1040001300313T 020000004910850000000   14999000002925632512925632        23032026000000000015763000000000                         092085271310000101HEIDEMANN CONSTRUTORA E INCORPORADORA LT          000000000000000A4                         
1040001300314U 020000000000000000000000000000000000000000000000000000000000000000000000000000000000000000000000000000000000000000000000001102202600000000000011022026000000000000000                              00000000000000000000000       
1040001300315T 020000004910850000000   14999000002925633312925633        06032026000000000105402000000000                         092085271310000101HEIDEMANN CONSTRUTORA E INCORPORADORA LT          000000000000000A4                         
1040001300316U 020000000000000000000000000000000000000000000000000000000000000000000000000000000000000000000000000000000000000000000000001102202600000000000011022026000000000000000                              00000000000000000000000       
1040001300317T 020000004910850000000   14999000002925634112925634        08062026000000000021252000000000                         092042236584000149BNM URBANIZACAO LTDA                              000000000000000A4                         
1040001300318U 020000000000000000000000000000000000000000000000000000000000000000000000000000000000000000000000000000000000000000000000001102202600000000000011022026000000000000000                              00000000000000000000000       
1040001300319T 020000004910850000000   14999000002925635012925635        06032026000000000024772000000000                         092051902893000100RUMINAR ASSISTENCIA VETERINARIA LTDA              000000000000000A4                         
1040001300320U 020000000000000000000000000000000000000000000000000000000000000000000000000000000000000000000000000000000000000000000000001102202600000000000011022026000000000000000                              00000000000000000000000       
1040001300321T 020000004910850000000   14999000002925636812925636        06032026000000000149241000000000                         092051902893000100RUMINAR ASSISTENCIA VETERINARIA LTDA              000000000000000A4                         
1040001300322U 020000000000000000000000000000000000000000000000000000000000000000000000000000000000000000000000000000000000000000000000001102202600000000000011022026000000000000000                              00000000000000000000000       
1040001300323T 020000004910850000000   14999000002925637612925637        11022026000000000028043000000000                         092051902893000100RUMINAR ASSISTENCIA VETERINARIA LTDA              000000000000000                           
1040001300324U 020000000000000000000000000000000000000000000000000000000000000000000000000000000000000000000000000000000000000000000000001102202600000000000011022026000000000000000                              00000000000000000000000       
1040001300325T 020000004910850000000   14999000002925638412925638        11022026000000000216880000000000                         092051902893000100RUMINAR ASSISTENCIA VETERINARIA LTDA              000000000000000                           
1040001300326U 020000000000000000000000000000000000000000000000000000000000000000000000000000000000000000000000000000000000000000000000001102202600000000000011022026000000000000000                              00000000000000000000000       
1040001300327T 020000004910850000000   14999000002925639212925639        08062026000000000655263000000000                         091000059367385900IVONETE LEMBECK LOCKS                             000000000000000A4                         
1040001300328U 020000000000000000000000000000000000000000000000000000000000000000000000000000000000000000000000000000000000000000000000001102202600000000000011022026000000000000000                              00000000000000000000000       
1040001300329T 020000004910850000000   14999000002925640612925640        08062026000000000322434000000000                         091000059367385900IVONETE LEMBECK LOCKS                             000000000000000A4                         
1040001300330U 020000000000000000000000000000000000000000000000000000000000000000000000000000000000000000000000000000000000000000000000001102202600000000000011022026000000000000000                              00000000000000000000000       
1040001300331T 020000004910850000000   14999000002925641412925641        08062026000000000257531000000000                         091000059367385900IVONETE LEMBECK LOCKS                             000000000000000A4                         
1040001300332U 020000000000000000000000000000000000000000000000000000000000000000000000000000000000000000000000000000000000000000000000001102202600000000000011022026000000000000000                              00000000000000000000000       
1040001300333T 020000004910850000000   14999000002925642212925642        08062026000000001981688000000000                         091000059367385900IVONETE LEMBECK LOCKS                             000000000000000A4                         
1040001300334U 020000000000000000000000000000000000000000000000000000000000000000000000000000000000000000000000000000000000000000000000001102202600000000000011022026000000000000000                              00000000000000000000000       
1040001300335T 020000004910850000000   14999000002925643012925643        08062026000000000172344000000000                         091000059367385900IVONETE LEMBECK LOCKS                             000000000000000A4                         
1040001300336U 020000000000000000000000000000000000000000000000000000000000000000000000000000000000000000000000000000000000000000000000001102202600000000000011022026000000000000000                              00000000000000000000000       
1040001300337T 020000004910850000000   14999000002925644912925644        08062026000000000204336000000000                         091000059367385900IVONETE LEMBECK LOCKS                             000000000000000A4                         
1040001300338U 020000000000000000000000000000000000000000000000000000000000000000000000000000000000000000000000000000000000000000000000001102202600000000000011022026000000000000000                              00000000000000000000000       
1040001300339T 020000004910850000000   14999000002925645712925645        08062026000000000229931000000000                         091000059367385900IVONETE LEMBECK LOCKS                             000000000000000A4                         
1040001300340U 020000000000000000000000000000000000000000000000000000000000000000000000000000000000000000000000000000000000000000000000001102202600000000000011022026000000000000000                              00000000000000000000000       
1040001300341T 020000004910850000000   14999000002925646512925646        08062026000000000190291000000000                         091000059367385900IVONETE LEMBECK LOCKS                             000000000000000A4                         
1040001300342U 020000000000000000000000000000000000000000000000000000000000000000000000000000000000000000000000000000000000000000000000001102202600000000000011022026000000000000000                              00000000000000000000000       
1040001300343T 020000004910850000000   14999000002925647312925647        08062026000000000820119000000000                         092008455731000133LLD ADMINISTRACAO DE BENS E IMOVEIS LTDA          000000000000000A4                         
1040001300344U 020000000000000000000000000000000000000000000000000000000000000000000000000000000000000000000000000000000000000000000000001102202600000000000011022026000000000000000                              00000000000000000000000       
1040001300345T 020000004910850000000   14999000002925648112925648        08062026000000000208735000000000                         092008455731000133LLD ADMINISTRACAO DE BENS E IMOVEIS LTDA          000000000000000A4                         
1040001300346U 020000000000000000000000000000000000000000000000000000000000000000000000000000000000000000000000000000000000000000000000001102202600000000000011022026000000000000000                              00000000000000000000000       
1040001300347T 020000004910850000000   14999000002925649012925649        06032026000000000073562000000000                         092015707907000162ADELMO - CORRETORA DE SEGUROS LTDA                000000000000000                           
1040001300348U 020000000000000000000000000000000000000000000000000000000000000000000000000000000000000000000000000000000000000000000000001102202600000000000011022026000000000000000                              00000000000000000000000       
1040001300349T 020000004910850000000   14999000002925650312925650        06032026000000000073562000000000                         092015707907000162ADELMO - CORRETORA DE SEGUROS LTDA                000000000000000                           
1040001300350U 020000000000000000000000000000000000000000000000000000000000000000000000000000000000000000000000000000000000000000000000001102202600000000000011022026000000000000000                              00000000000000000000000       
1040001300351T 020000004910850000000   14999000002925651112925651        06032026000000000105104000000000                         092056009267000102MERCADO GREGORIO LTDA                             000000000000000                           
1040001300352U 020000000000000000000000000000000000000000000000000000000000000000000000000000000000000000000000000000000000000000000000001102202600000000000011022026000000000000000                              00000000000000000000000       
1040001300353T 020000004910850000000   14999000002925652012925652        06032026000000000020933000000000                         092011297055000121AGG TRANSPORTES RODOVIARIOS DE CARGAS LT          000000000000000                           
1040001300354U 020000000000000000000000000000000000000000000000000000000000000000000000000000000000000000000000000000000000000000000000001102202600000000000011022026000000000000000                              00000000000000000000000       
1040001300355T 020000004910850000000   14999000002925653812925653        06032026000000000134462000000000                         092011297055000121AGG TRANSPORTES RODOVIARIOS DE CARGAS LT          000000000000000                           
1040001300356U 020000000000000000000000000000000000000000000000000000000000000000000000000000000000000000000000000000000000000000000000001102202600000000000011022026000000000000000                              00000000000000000000000       
1040001300357T 020000004910850000000   14999000002925654612925654        06032026000000000010613000000000                         092008984701000114AGRO M.S.A. COMERCIO DE PRODUTOS AGROPEC          000000000000000A4                         
1040001300358U 020000000000000000000000000000000000000000000000000000000000000000000000000000000000000000000000000000000000000000000000001102202600000000000011022026000000000000000                              00000000000000000000000       
1040001300359T 020000004910850000000   14999000002925655412925655        06032026000000000234059000000000                         092008984701000114AGRO M.S.A. COMERCIO DE PRODUTOS AGROPEC          000000000000000A4                         
1040001300360U 020000000000000000000000000000000000000000000000000000000000000000000000000000000000000000000000000000000000000000000000001102202600000000000011022026000000000000000                              00000000000000000000000       
1040001300361T 020000004910850000000   14999000002925656212925656        06032026000000000390098000000000                         092001195838000140AGROSSUI COMERCIO, TRANSPORTE E REPRESEN          000000000000000A4                         
1040001300362U 020000000000000000000000000000000000000000000000000000000000000000000000000000000000000000000000000000000000000000000000001102202600000000000011022026000000000000000                              00000000000000000000000       
1040001300363T 020000004910850000000   14999000002925657012925657        06032026000000000010613000000000                         092001195838000221AGROSSUI COMERCIO, TRANSPORTE E REPRESEN          000000000000000                           
1040001300364U 020000000000000000000000000000000000000000000000000000000000000000000000000000000000000000000000000000000000000000000000001102202600000000000011022026000000000000000                              00000000000000000000000       
1040001300365T 020000004910850000000   14999000002925658912925658        06032026000000000409604000000000                         092001195838000221AGROSSUI COMERCIO, TRANSPORTE E REPRESEN          000000000000000                           
1040001300366U 020000000000000000000000000000000000000000000000000000000000000000000000000000000000000000000000000000000000000000000000001102202600000000000011022026000000000000000                              00000000000000000000000       
1040001300367T 020000004910850000000   14999000002925659712925659        06032026000000000409604000000000                         092001195838000302AGROSSUI COMERCIO, TRANSPORTE E REPRESEN          000000000000000                           
1040001300368U 020000000000000000000000000000000000000000000000000000000000000000000000000000000000000000000000000000000000000000000000001102202600000000000011022026000000000000000                              00000000000000000000000       
1040001300369T 020000004910850000000   14999000002925660012925660        06032026000000000010613000000000                         092001195838000302AGROSSUI COMERCIO, TRANSPORTE E REPRESEN          000000000000000                           
1040001300370U 020000000000000000000000000000000000000000000000000000000000000000000000000000000000000000000000000000000000000000000000001102202600000000000011022026000000000000000                              00000000000000000000000       
1040001300371T 020000004910850000000   14999000002925661912925661        08062026000000000080529000000000                         091000002015711961JUCELIA ALVINO FAUST                              000000000000000                           
1040001300372U 020000000000000000000000000000000000000000000000000000000000000000000000000000000000000000000000000000000000000000000000001102202600000000000011022026000000000000000                              00000000000000000000000       
1040001300373T 020000004910850000000   14999000002925662712925662        08062026000000000153441000000000                         092041733235000170EJ ADMINISTRACAO DE BENS LTDA                     000000000000000                           
1040001300374U 020000000000000000000000000000000000000000000000000000000000000000000000000000000000000000000000000000000000000000000000001102202600000000000011022026000000000000000                              00000000000000000000000       
1040001300375T 020000004910850000000   14999000002925663512925663        08062026000000000048604000000000                         092041733235000170EJ ADMINISTRACAO DE BENS LTDA                     000000000000000                           
1040001300376U 020000000000000000000000000000000000000000000000000000000000000000000000000000000000000000000000000000000000000000000000001102202600000000000011022026000000000000000                              00000000000000000000000       
1040001300377T 020000004910850000000   14999000002925664312925664        07072026000000000048603000000000                         092041733235000170EJ ADMINISTRACAO DE BENS LTDA                     000000000000000                           
1040001300378U 020000000000000000000000000000000000000000000000000000000000000000000000000000000000000000000000000000000000000000000000001102202600000000000011022026000000000000000                              00000000000000000000000       
1040001300379T 020000004910850000000   14999000002925665112925665        07082026000000000048603000000000                         092041733235000170EJ ADMINISTRACAO DE BENS LTDA                     000000000000000                           
1040001300380U 020000000000000000000000000000000000000000000000000000000000000000000000000000000000000000000000000000000000000000000000001102202600000000000011022026000000000000000                              00000000000000000000000       
1040001300381T 020000004910850000000   14999000002925666012925666        08092026000000000048603000000000                         092041733235000170EJ ADMINISTRACAO DE BENS LTDA                     000000000000000                           
1040001300382U 020000000000000000000000000000000000000000000000000000000000000000000000000000000000000000000000000000000000000000000000001102202600000000000011022026000000000000000                              00000000000000000000000       
1040001300383T 020000004910850000000   14999000002925667812925667        08062026000000000160506000000000                         092041733235000170EJ ADMINISTRACAO DE BENS LTDA                     000000000000000                           
1040001300384U 020000000000000000000000000000000000000000000000000000000000000000000000000000000000000000000000000000000000000000000000001102202600000000000011022026000000000000000                              00000000000000000000000       
1040001300385T 020000004910850000000   14999000002925668612925668        08062026000000000051128000000000                         092041733235000170EJ ADMINISTRACAO DE BENS LTDA                     000000000000000                           
1040001300386U 020000000000000000000000000000000000000000000000000000000000000000000000000000000000000000000000000000000000000000000000001102202600000000000011022026000000000000000                              00000000000000000000000       
1040001300387T 020000004910850000000   14999000002925741012925741        07072026000000000051126000000000                         092041733235000170EJ ADMINISTRACAO DE BENS LTDA                     000000000000000                           
1040001300388U 020000000000000000000000000000000000000000000000000000000000000000000000000000000000000000000000000000000000000000000000001102202600000000000011022026000000000000000                              00000000000000000000000       
1040001300389T 020000004910850000000   14999000002925742912925742        06032026000000000163522000000000                         092050475671000187AMICI SPORTIVI LTDA                               000000000000000A4                         
1040001300390U 020000000000000000000000000000000000000000000000000000000000000000000000000000000000000000000000000000000000000000000000001102202600000000000011022026000000000000000                              00000000000000000000000       
1040001300391T 020000004910850000000   14999000002925743712925743        07082026000000000051126000000000                         092041733235000170EJ ADMINISTRACAO DE BENS LTDA                     000000000000000                           
1040001300392U 020000000000000000000000000000000000000000000000000000000000000000000000000000000000000000000000000000000000000000000000001102202600000000000011022026000000000000000                              00000000000000000000000       
1040001300393T 020000004910850000000   14999000002925744512925744        08092026000000000051126000000000                         092041733235000170EJ ADMINISTRACAO DE BENS LTDA                     000000000000000                           
1040001300394U 020000000000000000000000000000000000000000000000000000000000000000000000000000000000000000000000000000000000000000000000001102202600000000000011022026000000000000000                              00000000000000000000000       
1040001300395T 020000004910850000000   14999000002925745312925745        08062026000000000089861000000000                         092041733235000170EJ ADMINISTRACAO DE BENS LTDA                     000000000000000                           
1040001300396U 020000000000000000000000000000000000000000000000000000000000000000000000000000000000000000000000000000000000000000000000001102202600000000000011022026000000000000000                              00000000000000000000000       
1040001300397T 020000004910850000000   14999000002925746112925746        08062026000000000025898000000000                         092041733235000170EJ ADMINISTRACAO DE BENS LTDA                     000000000000000                           
1040001300398U 020000000000000000000000000000000000000000000000000000000000000000000000000000000000000000000000000000000000000000000000001102202600000000000011022026000000000000000                              00000000000000000000000       
1040001300399T 020000004910850000000   14999000002925747012925747        07072026000000000025896000000000                         092041733235000170EJ ADMINISTRACAO DE BENS LTDA                     000000000000000                           
1040001300400U 020000000000000000000000000000000000000000000000000000000000000000000000000000000000000000000000000000000000000000000000001102202600000000000011022026000000000000000                              00000000000000000000000       
1040001300401T 020000004910850000000   14999000002925748812925748        06032026000000000080904000000000                         092007861884000118ANISIA DELA JUSTINA                               000000000000000                           
1040001300402U 020000000000000000000000000000000000000000000000000000000000000000000000000000000000000000000000000000000000000000000000001102202600000000000011022026000000000000000                              00000000000000000000000       
1040001300403T 020000004910850000000   14999000002925749612925749        06032026000000000010613000000000                         092007861884000118ANISIA DELA JUSTINA                               000000000000000                           
1040001300404U 020000000000000000000000000000000000000000000000000000000000000000000000000000000000000000000000000000000000000000000000001102202600000000000011022026000000000000000                              00000000000000000000000       
1040001300405T 020000004910850000000   14999000002925750012925750        07082026000000000025896000000000                         092041733235000170EJ ADMINISTRACAO DE BENS LTDA                     000000000000000                           
1040001300406U 020000000000000000000000000000000000000000000000000000000000000000000000000000000000000000000000000000000000000000000000001102202600000000000011022026000000000000000                              00000000000000000000000       
1040001300407T 020000004910850000000   14999000002925751812925751        08092026000000000025896000000000                         092041733235000170EJ ADMINISTRACAO DE BENS LTDA                     000000000000000                           
1040001300408U 020000000000000000000000000000000000000000000000000000000000000000000000000000000000000000000000000000000000000000000000001102202600000000000011022026000000000000000                              00000000000000000000000       
1040001300409T 020000004910850000000   14999000002925752612925752        08062026000000000089861000000000                         092041733235000170EJ ADMINISTRACAO DE BENS LTDA                     000000000000000                           
1040001300410U 020000000000000000000000000000000000000000000000000000000000000000000000000000000000000000000000000000000000000000000000001102202600000000000011022026000000000000000                              00000000000000000000000       
1040001300411T 020000004910850000000   14999000002925753412925753        08062026000000000025898000000000                         092041733235000170EJ ADMINISTRACAO DE BENS LTDA                     000000000000000                           
1040001300412U 020000000000000000000000000000000000000000000000000000000000000000000000000000000000000000000000000000000000000000000000001102202600000000000011022026000000000000000                              00000000000000000000000       
